:020000040002F8
:10600000B0730020C1630200C9630200CB630200C9
:10601000CD630200CF630200D163020000000000E4
:10602000000000000000000000000000D363020038
:10603000D563020000000000D7630200D9630200AC
:1060400015660200DB630200B9690200DB6302002F
:10605000DB630200DB63020071650200DB630200A8
:10606000DB630200DB630200DB630200DB63020030
:10607000DB630200DB630200DB630200DB63020020
:10608000DB6302006D660200DB630200DB6302007B
:10609000DB630200DB630200DD660200DB630200FB
:1060A000DB630200DB630200DB630200DB630200F0
:1060B000DB630200DB630200000000000000000060
:1060C000DB630200DB630200DB630200DB630200D0
:1060D000DB630200DB630200DB6302000000000000
:1060E00000000000000000000000000000000000B0
:1060F00000000000000000000000000000000000A0
:10610000000000000000000000000000000000008F
:10611000000000000000000000000000000000007F
:10612000000000000000000000000000000000006F
:10613000000000000000000000000000000000005F
:10614000000000000000000000000000000000004F
:10615000000000000000000000000000000000003F
:10616000000000000000000000000000000000002F
:10617000000000000000000000000000000000001F
:10618000000000000000000000000000000000000F
:1061900000000000000000000000000000000000FF
:1061A00000000000000000000000000000000000EF
:1061B00000000000000000000000000000000000DF
:1061C00000000000000000000000000000000000CF
:1061D00000000000000000000000000000000000BF
:1061E00000000000000000000000000000000000AF
:1061F000000000000000000000000000000000009F
:10620000DFF80CD000F076F900480047D98C020086
:10621000B073002030B450E8012F93B2C4892344F6
:106220008489A34228BF1B1B0489A34202BFBFF37A
:106230002F8F002007E0C3EA020340E80134002C5E
:10624000E9D14FF001000A6030BC704750E8012FDF
:10625000C2EA024240E801210029F7D1704730B478
:1062600050E8022F1FFAA2F3C488A34202BFBFF373
:106270002F8F00200DE0C48923448489A34228BFC6
:106280001B1BC2EA034340E80234002CE8D14FF064
:1062900001000A6030BC704750E8022FC2EA224277
:1062A00040E802210029F7D17047034653E8022F46
:1062B000D988B2EB324F4FF0000017BF92B241EADB
:1062C000014142EA014104E05A68B2EB324F08BF93
:1062D000012043E80212002AE8D1704730B4044696
:1062E00054E8000F0D4644E80053002BF8D1156028
:1062F00030BC704730B4044654E8000F40EA010552
:1063000044E80053002BF7D1156030BC704730B41F
:10631000044654E8000F00EA010544E80053002B4E
:10632000F7D1156030BC704730B4044654E8000F14
:1063300080EA010544E80053002BF7D1156030BC1A
:10634000704730B4044654E8000F00EB010544E800
:106350000053002BF7D1156030BC704730B40446B1
:1063600054E8000FA0EB010544E80053002BF7D1DF
:10637000156030BC704770B404464FF0000054E81C
:10638000006F0D68AE4207BF44E80023012044E8D7
:1063900000630E60002B1CBF0020F0E770BC70474C
:1063A00030B4044654E8000F88422CBF451A054615
:1063B00044E80053002BF5D1156030BC7047000055
:1063C0000648804706480047FEE7FEE7FEE7FEE78F
:1063D000FEE7FEE7FEE7FEE7FEE7FEE7E166020016
:1063E000016202002DE9F05F0546002092469B46BF
:1063F00088460646814640241BE0284641464746DB
:10640000224600F067F853465A46C01A914110D30D
:1064100011461846224600F016F82D1A67EB0108BF
:106420004F4622460120002100F00DF817EB00092D
:106430004E41201EA4F10104DFDC484631462A46C5
:106440004346BDE8F09F202A04DB203A00FA02F11F
:10645000002070479140C2F1200320FA03F3194352
:106460009040704700487047BCBF020040EA0103FB
:106470009B0703D009E008C9121F08C0042AFAD2FA
:1064800003E011F8013B00F8013B521EF9D27047BE
:10649000D2B201E000F8012B491EFBD27047002266
:1064A000F6E710B513460A4604461946FFF7F0FF13
:1064B000204610BD421C10F8011B0029FBD1801A98
:1064C0007047034611F8012B00F8012B002AF9D17F
:1064D00018467047202A04DB203A21FA02F00021F6
:1064E000704721FA02F3D040C2F1200291400843E4
:1064F00019467047064C074D06E0E06840F001037E
:1065000094E8070098471034AC42F6D3FFF77CFEBE
:1065100030C7020050C7020070B58C1810F8015B3C
:1065200015F0070301D110F8013B2A1106D110F82C
:10653000012B03E010F8016B01F8016B5B1EF9D130
:106540002B0705D40023521E0DD401F8013BFAE7B6
:1065500010F8013BCB1A921C03E013F8015B01F821
:10656000015B521EF9D5A142D8D3002070BD0000B6
:106570002DE9F8430025DFF894804FF4807601245C
:106580002F460095304603F0F3F938B1D8F80403EC
:10659000204203D0304603F0E1F92543361D640064
:1065A0007F1CB6B2082FEDD34FF4BE74204603F023
:1065B000DFF948B1204603F0D1F945F000456A46BD
:1065C0000121002003F09EF915F0FF0F16D00126DF
:1065D00000242E420ED008EB8401D1F81005D1F82A
:1065E0001015C0F304200A4AC1F3014152F82420D7
:1065F00002B190477600641C082CEAD3002D02DA21
:10660000684604F023FCBDE8F88300000060004009
:10661000244A002070B54FF48076304602F06AFFBD
:10662000114CB50560B1304602F06BFF0120C5F892
:106630000803607920B90120607121680020884733
:106640004FF48276304602F055FF00280AD03046DB
:1066500002F057FF0220C5F808032168BDE870402A
:106660000120084770BD0000BC40002002490248DC
:10667000091F0968006808471441002000F0A2B90A
:1066800070B50E46144900EB400001EBC0051446FE
:10669000E86A183520B101280FD0022805D113E08F
:1066A000284600F0C3F9A04201D2002411E022469E
:1066B0003146284600F0F2F90BE0284600F0B6F922
:1066C000A042F4D20446F2E73146284600F0B9F978
:1066D0000446204670BD00002851002003F09CBEF7
:1066E000F0B5A449A4484FF080540B68D4F8302189
:1066F0000078D4F83411551CC0F3031006D094462A
:1067000001270026BCF1060F03D00AE003F0FF0CBE
:10671000F6E7B4F82453DFF864C2C5F30425CCF8D7
:106720000050DDB2062D06D1032804D1DFF854C293
:10673000934DCCF87450551C04D09446BCF1060F10
:1067400003D00AE003F0FF0CF8E7D4F84452DFF876
:1067500038C2C5F34235CCF80050DDB2062D08D161
:10676000032806D1894DD5F800C02CF0807CC5F8EF
:1067700000C0551C04D09446BCF1060F03D00BE0BA
:1067800003F0FF0CF8E74FF08045C5F80C61C5F841
:1067900010617D4D2D1F2E60DDB2062D08D103281E
:1067A00006D1DFF8E4C103250CF1640CCCF80050ED
:1067B000DDB2062D10D103280ED1DFF8D4C1052596
:1067C000CCF80050724D78352F60714D08352E6031
:1067D0000CF104063F253560551C04D016460D46C5
:1067E000062E03D05BE0DEB20546F9E7ED1E012D73
:1067F00055D9684D2D68684E3560664D2D1D2D6844
:10680000361D3560634D08352D68361D3560614D88
:106810000C352D68361D35605E4D10352D68361DE2
:1068200035605C4D14352D68361D3560594D183571
:106830002D68594E20363560564D1C352D68361D55
:106840003560544D20352D68361D3560514D243549
:106850002D68361D35604F4D28352D68361D356045
:106860004C4D2C352D68361D35604A4D30352D6820
:10687000494E40363560474D34352D68361D3560FC
:10688000444D38352D68361D3560424D3C352D68F8
:10689000361D35603F4D40352D68361D3560551C21
:1068A00003D01646062E02D007E0DEB2FAE7D4F88F
:1068B00058523A4E05F04F053560551C03D013462B
:1068C000062B02D008E0DBB2FAE735480368DB07A5
:1068D00002D06FF001030360062A07D1C91E022906
:1068E00004D93048016841F4806101602748743858
:1068F000016841F470010160BFF34F8FBFF36F8FE8
:10690000D4E94C104FF01022062907D1C01E0328ED
:1069100004D9D2F808021C491C310860D2F80002E0
:10692000002803DBD2F8040200281FDA012004F05B
:1069300021F91521C2F800121B480368002BFCD076
:10694000C2F8041201680029FCD0002004F012F9FA
:10695000BFF34F8F0D48F0380168144A01F4E0612D
:1069600011430160BFF34F8F00BFFDE7114910488D
:106970000860F0BDE00F00F0E80F00F04035014086
:106980000DF0ADBA00C007403C050040FCED00E052
:10699000105600400404001020C50040E40E0040E2
:1069A000000400403C17004000E401400400FA05E8
:1069B0000090D0038C41002001480068004700008F
:1069C000C440002010B5124C02202061606111A06B
:1069D000A06104F17800E0614FF4007020620020B3
:1069E000A06260620BA1A164E06204F51E71E16423
:1069F0001021A065C4E91410E06509A1E01DFFF7AE
:106A000060FD08A12046FFF75CFD2020A07110BDAD
:106A1000285100205465726D696E616C00000000A1
:106A20005254540053454747455200000269C1681B
:106A30008A4203D88068401A104400E0501A401E71
:106A400070472DE9F047C4681746894606464FF05F
:106A500000083069A04201D9051B02E0B168201A84
:106A60000D1AB0686D1E001BA84200D80546BD4235
:106A700000D33D4670682A4620444946FFF7F6FC9D
:106A8000B0687F1B2C44A844A944A04200D1002434
:106A9000F460002FDDD14046BDE8F0872DE9F041DC
:106AA00004468846D4E90207C51BE16860681646BB
:106AB0000844B54206D94146FFF7D8FCB819E06052
:106AC000BDE8F0812A464146FFF7D0FC761B08EB73
:106AD000050132466068FFF7C9FCE660F0E7000098
:106AE0000FB4054B10B503A9044A029800F02AF828
:106AF00010BC5DF814FB00004B890200244100200B
:106B000002E008C8121F08C1002AFAD17047704776
:106B1000002001E001C1121F002AFBD170470000D4
:106B20000121202803DA81400548014003E0402884
:106B300002DA2038814009B10120704700207047F7
:106B4000FC06FFBD2DE9F84F99469246884605465A
:106B5000002706E025280AD051464A4690476D1C7A
:106B60007F1C28780028F5D13846BDE8F88F00232F
:106B700015F8011F18462E2915D115F8011F0423F9
:106B80002A290DD06FF02F022978A1F13004092CA9
:106B900009D800EB800002EB400008446D1CF3E7CD
:106BA00058F8040B6D1C2A78002ADDD0632A07D020
:106BB000732A0FD0104651464A4690477F1C2AE060
:106BC00018F8042B8DF8002000218DF801106E4676
:106BD000012103E058F8046B4FF0FF315A074FF0E2
:106BE000000401D409E0641C84420BDA8C42FADB15
:106BF000325D002AF7D105E0641C8C42FCDB305D7D
:106C00000028F9D1274404E016F8010B51464A4602
:106C10009047641EF8D26D1CA3E731B500252C46C1
:106C20002146684602F07DFA00B16D1C641C142CEC
:106C3000F6D3284638BD90F82400012801D01F2043
:106C40007047EE20704710B501220221002001F0AC
:106C500025F908B1072810D107220221012001F0EF
:106C60001DF908B1072808D100210A22084601F0C1
:106C700015F908B1072800D1002010BD00B5ADB04E
:106C80001AA19DF8AC0020F00F00401C20F0F0008D
:106C900010308DF8AC0005222BA87CDFAC216846B3
:106CA000FFF7FDFB02208DF8000000208DF80200A8
:106CB00005208DF803000120ADF84C008DF87C0014
:106CC0000C4940201491229044F2506023900A48CD
:106CD00029906946094800F082FB08B100F068F885
:106CE0000121064800F078FB2DB000BD54686F4EBE
:106CF00061000000284000208DAB0200DC43002032
:106D000010B50121112002F013FE074890F854003D
:106D100074DF0321044800F013FC002803D0BDE811
:106D2000104000F045B810BDDC43002072B603F0FF
:106D3000A3F800BF02F0ECFE0028FBD11148124975
:106D4000401AC408012000EB044010A102F0FCFF2F
:106D500011480068C00700D000BE022000EB0440CC
:106D60000EA102F0F1FFBFF34F8F0B48E43801682A
:106D70000E4A01F4E06111430160BFF34F8F00BF81
:106D8000FDE70000C0C7020060C7020046617461F1
:106D90006C206572726F7200F0ED00E053797374CD
:106DA000656D207265736574000000000400FA05CB
:106DB0000EB500210091CDE901106A4644F20100B0
:106DC000FFF7B4FF0EBD10B58268C368934203D0CD
:106DD00001F08FFD002010BD052010BD29B112B1BA
:106DE000531E134203D0092070470E2070470160E4
:106DF000838000218160C1600846704710B58268B9
:106E0000C3689A1A83889A4203D801F07CFD002057
:106E100010BD042010BD0000014801F058BC000066
:106E2000D840002010B55AB100684FF0FF34012956
:106E30004261C0E9024400D000210161002010BD80
:106E4000072010BD38B51148082358224168009129
:106E50000F49006802F01BF9002815D10D4A694658
:106E60000D4801F039FC04000ED101210A4801F05F
:106E7000AEFC0123094A1946074801F000FC064907
:106E8000012008390870204638BD0000B8BC020057
:106E9000E04A0020FDAF0200D8400020FFFF7F0045
:106EA000F8B50446002617460D468DF80060684682
:106EB00000F0D8F8D4E90201C04370EA010005D01F
:106EC0009DF8000000F0F2F80020F8BD01F08AFD06
:106ED00040197141C4E902019DF8000000F0E6F894
:106EE000A761206900B125612146BDE8F840002076
:106EF00004F06ABB38B5044600208DF800006846EF
:106F000000F0B0F8D4E90201C04370EA01000DD0EE
:106F10004FF0FF30C4E902009DF8000000F0C6F811
:106F20002146BDE83840012004F04EBB9DF800002A
:106F300000F0BCF8002038BD70B50A4E01460A4882
:106F4000B578FFF740FF04464DB10020B070711CCA
:106F50000122C81D02F04CFB08B1FFF729FF2046B3
:106F600070BD0000F4400020384B0020F0B5244EE6
:106F700089B01F460D00044672603FD0A88829687A
:106F800082B22048FFF72AFF002835D1A889A968D6
:106F900082B21C481030FFF721FF00282CD120229C
:106FA00019496846FFF762FA60690690207C00B1D3
:106FB00001208DF814008DF81C70607C00B10E204B
:106FC0008DF81500E0680290A06803902068019099
:106FD000606800900A480D4A6946083002F0D4FA09
:106FE000002809D1B0702068401C05D00449012256
:106FF000491CC81D02F0FCFA09B0F0BD0720FBE7F0
:10700000F4400020384B0020CCBC0200C5B6020082
:1070100010B501461048FFF7F1FE040019D10F48E2
:107020000F4A0178515C19B1001D03F095FD02E093
:107030000C3003F06BFC60B9084907480839FFF7CA
:10704000C2FE30B9054901220839044802F0E0FACD
:107050000446204610BD0000484B0020FC400020A4
:10706000B040002030B5EFF3108172B60D4A94683D
:10707000012324B10370002900D162B630BD9360B2
:107080004FF0E023D3F88051074C25401560C3F83A
:107090008041D3F8844154605A17C3F884210022F8
:1070A0000270E8E7584B0020FC06FFBD0B498A68D8
:1070B000002A11D000280FD1EFF3108072B60B68B0
:1070C0004FF0E022C2F800314B68C2F804310022D0
:1070D0008A60002800D162B670470000584B00203B
:1070E0002DE9F041064608680C46411C4FF0A047C8
:1070F0004FF0010506D005FA00F1C7F80815206821
:1071000002F0DAFB6068411C02D0002102F0BAFBF9
:107110003168A069C1F82405607D227D3168104383
:10712000C1F86C05D4E900123068C0F81425C0F825
:107130000C15207D012815D1A068411C02D000212A
:1071400002F0A0FBE068411C05D08540C7F8085557
:10715000E06802F0B1FBD4E902123068C0F80825FB
:10716000C0F81015BDE8F0812DE9F0410646086829
:107170000C46411C4FF0A0474FF0010506D005FA20
:1071800000F1C7F80815206802F0A0FB6068411CF8
:1071900002D0002102F07FFB3168A069C1F824050C
:1071A000607D217D32680843C2F86C05D4E9001285
:1071B0003068C0F80C15C0F81425207D012815D1C1
:1071C000A068411C02D0002102F065FBE068411C70
:1071D00005D08540C7F80855E06802F077FBD4E990
:1071E00002123068C0F80825C0F81015BDE8F0811B
:1071F0002DE9FC47002517880646158090F82D00DC
:107200001446894630B13A462146484600F0DAFB3A
:10721000051E09D1B0784FF00C0A18B32088C84673
:10722000001DB84202D95046BDE8FC87684679DFA8
:107230000028F9D12088032108F80010208819219E
:10724000401C80B2208008F800102088401C80B2CA
:10725000208000EB0801BDF8000004F0D4FB218879
:1072600008442080F0780222C8B1218896F90330C2
:1072700001F1030C4846BC45D5D8425421884FF053
:10728000010C491C89B2218000F801C02188491CE9
:1072900089B2218009F801302088401C2080706864
:1072A000B8B1218890F9003001F1030C4846BC4583
:1072B000B9D8425421880A22491C89B221804254FB
:1072C0002188491C89B2218009F801302088401C9E
:1072D0002080308950B1CDE900474B46062202217B
:1072E00006F1080004F040FC051E9DD1308A50B123
:1072F000CDE900474B460722032106F1100004F0B8
:1073000033FC051E90D1308B50B1CDE900474B4680
:107310001522142106F1180004F026FC051E83D165
:10732000306A30B13B462246494601F054F8051E0A
:10733000DBD1706A30B13B462246494601F0CAFDB6
:10734000051ED2D196F82C0038B13B46224649465C
:10735000304603F0C7FF051EC7D1307838B13B4631
:1073600022464946304601F03FFE051EBDD1284663
:107370005AE718B504460020ADF8000013466A46E7
:10738000204600F006F8002802D0BDF80000204496
:1073900018BD70B5E0B1DAB1002402E0045D2C4400
:1073A000A4B2651C8D4206D21688A642F6D80619EC
:1073B00076789E42F2D18C420AD2A31C005D9BB229
:1073C00000B1401E0004000C02D01C188C4201D9F0
:1073D000002070BD138070BD80F8301070472DE91B
:1073E000F0410D00044606D02CB195F87A00002635
:1073F000012803D006E00E20BDE8F08195F8980042
:10740000012829D0D5F8A000042825D0D5F89C0063
:10741000042821D04FF00108A6702C2205F1780134
:10742000201DFFF723F884F83060D5F8A4006063CE
:10743000D5F8A800A0634FF6FF70A4F8240404F563
:107440008260C4F82004C4F82664A4F82A6484F88E
:107450002C64207810B104E00720CDE7FF2084F8E9
:10746000540004F155072046C4F81074FFF7E3FBFD
:10747000A4F8140404F2144239462846FFF7B8FE73
:107480000028B9D104F23120C4F818042046FFF7CF
:10749000D2FBA4F81C0404F21C4205F13C00D4F811
:1074A0001814FFF7A5FE0028A6D184F85180208B80
:1074B000A4F8480084F83C80266484F85060606931
:1074C00000216064454604F13C02781E72DF00280A
:1074D00092D1257090E710B50288102A1BD0112A8E
:1074E00020D0262A1DD1007A0C46012801D002287E
:1074F00017D1A0780521401CB0FBF1F201FB12016D
:10750000204600F01DF800280BD0A16B002908D000
:10751000BDE810400847C27B012A02D18088A1F84B
:10752000240410BD0C46002184F82E148088B4F881
:1075300024148842F5D120790028F2D10121DFE717
:107540002DE9F05F044600780F4698B1A77000253A
:10755000C4F82654A4F82A5484F82C54A07901269F
:1075600008B1012F09D0E07980B1012F05D0022F99
:1075700003D00BE00820BDE8F09F616B21B184F8D7
:107580002D640820884701E084F82D5404F2274137
:1075900000200A5C0AB1304603E0401C0628F8D3FC
:1075A00000204FF002084FF0030B012F06D0022FEE
:1075B0000CD0032F0FD0042F15D110E0A17929B1E1
:1075C00094F8241011B908B130460DE0E17911B1F9
:1075D00008B1404608E0207A08B1584604E0607AD5
:1075E00008B1042000E02846A070616B41B1032877
:1075F00001D0042804D1607910B194F82E0498B118
:1076000084F82F5404F13C0018210746FEF747FF89
:1076100084F83C6004F12C0003F00EFC58B194F89F
:107620002C0084F8510008E084F8305484F82F646A
:1076300007208847E6E784F8516094F8240058B1A1
:1076400004F1280003F0F8FB20B194F8280084F836
:10765000520001E084F8526084F85050A27804F29D
:10766000264104F582694FF0060A052A64D2DFE854
:1076700002F07C030F22420084F83160C4F82054E9
:10768000C4E9101584F83C808020A4F8480055E037
:1076900084F8318094F82420384612B10722027011
:1076A00001E080F800B0228A8281C4F82054416051
:1076B000E168B96042E06069B860208BB88194F8F5
:1076C00024003D460028204602D084F83CA001E07A
:1076D00084F83C6004F02AFA50B185F81480042143
:1076E000204601F01EF938BB052184F8311021E055
:1076F00084F831B01EE0E069B860208CB88194F85D
:1077000024003D460028204602D084F83CA001E039
:1077100084F83C6004F00AFA48B185F8148004212A
:10772000204601F0FEF838B984F831A002E00420C8
:1077300084F83100C4F82094A07878B13A4604F176
:107740005400D4F8201472DF00287FF414AF94F8AA
:10775000301094F8540073DF0028F6D1616B11B13A
:1077600094F831008847002005E784F83150F5E7A8
:107770002DE9F041040012D001461C221A48FEF700
:1077800075FE1948194D0560206858B17ADF002848
:1077900006D12068016829604068686006E00E2014
:1077A000BDE8F08111487BDF0028F9D10E4D00249F
:1077B000283D4FF6FF76A5F1400700BF04EB84009B
:1077C00005EB800007EB441120F8046B084A0160C8
:1077D0000021FFF727FB08B10320E1E7641C022C1E
:1077E000ECD30020DCE7000078490020A84000200E
:1077F000C5BA020038B507490446C868C0430090BE
:107800008968684601F0AEFC0099204600F0C4FD8E
:1078100038BD000094490020064808B5C168C94336
:1078200000918168684601F09DFC0098FFF7F5F92A
:1078300008BD0000944900201FB500240094019465
:10784000029403948088ADF80000CDE90221012064
:107850008DF8020069461846AEDF04B010BD000086
:1078600070B5374D04008EB02DCD08AE86E82D00E2
:107870000868606161D0E9B3214608A862DF00288A
:1078800059D120788DF832004FF4A050ADF8300077
:10789000A21C0CA90120A8DF00284CD12021684699
:1078A000FEF7FDFD41F20240ADF800002078012511
:1078B0008DF802008DF80C509DF80D00F4268DF81F
:1078C0001350ADF8046040F008008DF81150ADF889
:1078D00006508DF80D008DF81250608804F10C02EE
:1078E000694600F063FC002825D120216846FEF798
:1078F000D6FD00E021E041F20140ADF80000207823
:107900008DF802008DF80C509DF80D008DF8135085
:10791000ADF804608DF80F5040F01A008DF811504A
:10792000ADF806508DF80D008DF812506088221DBC
:10793000694600F03BFC0EB070BD0E20FBE7000076
:107940009CBC020010B50C46018886B0502910D0AE
:10795000512935D10189A288914231D1616900292B
:107960002ED004218DF800108088ADF808006169E0
:1079700024E08288ADF80820811DC2882389123056
:107980009A4202D14B89022B0DD0A3899A4217D17A
:107990006269002A14D000228DF8002003904889E3
:1079A000ADF81000E3E700F0D9F908B1022000E0DB
:1079B00003208DF800006169002901D068468847DE
:1079C00006B010BD7CB5054608880C4609309042CB
:1079D00001D90C207CBD68466DDF0028FAD12188D2
:1079E0000820685420881B21401C80B22080295424
:1079F0002088401C80B220802844DDF801100160FE
:107A0000BDF8051081802088801D80B220809DF8FF
:107A10000010490800D0012129542088401C2080F2
:107A200000207CBD38B504460088244D21282CD088
:107A30000BDC102813D0112816D0132824D10023D2
:107A40001A46852168887FDF2EE03B2832D05228F5
:107A500025D0562818D1A088132176DF24E0201DD8
:107A6000BDE8384003F0B2B815481649401AC008BE
:107A7000032101EB004014A102F066F9201D03F080
:107A80004FF94FF6FF70688038BD00200090A08845
:107A900069468FDF0028F7D0FFF78AF938BD002349
:107AA0001A4619466888B1DF0028F7D0BDE838408B
:107AB000FFF77EB9A088132176DFF5E7204000208C
:107AC000C0C7020060C70200446973636F6E6E65D1
:107AD000637465640000000010B51A4C018860688A
:107AE00010290ED011292BD1401E606028D1FFF73C
:107AF000AAF8002824D02168002921D0BDE8104030
:107B00000847D0B900210122084600F0C7F908B1A2
:107B100007280FD107220221012000F0BFF908B188
:107B2000072807D104220221002000F0B7F920B174
:107B3000072802D0216801B188476068401C606056
:107B400010BD0000A04000202DE9F04701883B4E09
:107B500040F2F3194FF6FF7510291BD011293ED0C2
:107B6000122954D0502946D1C188F289841D9142EE
:107B700041D1618902293ED18688304600F04CFF10
:107B8000050038D004F10C0000F0E8F8A8B329464D
:107B900030464EE0C17B8788044601292BD1A84698
:107BA000284600F039FF050017D02F8000202872EA
:107BB000234843464A460168C5F80A104068C5F89C
:107BC0000E0004F1100105F10A0000F0EBFF6872ED
:107BD000F08900280FD129462AE0042013E080888C
:107BE00000F01AFF040006D06068FFF783F908B1BF
:107BF00003F048FB2580BDE8F087FFE76868FFF7E2
:107C000079F90028F7D0BDE8F04703F03BBB87883F
:107C10000646384600F000FF0400ECD02B464A46EA
:107C200006F1080104F10A0000F0BCFF6072214671
:107C30003846BDE8F04700F015BC00007849002048
:107C4000A84000202DE9F04F04468688018842486C
:107C500097B0834610290CD0112950D01030192923
:107C60006AD01A2974D1217A0C09042C4DD301222F
:107C70004CE0394D083DA868C0430B9069680BA8DB
:107C800001F070FA0B990CA800F086FB2C220CA9CD
:107C90006846FEF7EBFB0027E946A84610E000BF68
:107CA00009EB47005FF00005B0F804A008EB850081
:107CB0005146001D01F02AFA6D1C1E2DF6D37F1CC3
:107CC0000098B842ECD8142E05D317B00420BDE8B4
:107CD000F04FFFF76DB83146584601F02DFA3146A6
:107CE00008F1040001F028FAE07B022830D117B037
:107CF0003146BDE8F04F1848001D01F01DBA17B01D
:107D00003146BDE8F04F01F001BA0022314600F0E3
:107D100003FE032C01D3012200E000220E4831466D
:107D20000C3000F0F9FD022C01D3012200E000220A
:107D300009483146083006E0217A002908D1617AE5
:107D4000C1F3C002314617B0BDE8F04F00F0E4BD0A
:107D500017B0BDE8F08F00009C490020007800F0CB
:107D60000100704707490B5C4FF0A041D1F8042592
:107D70000120984020EA0203C1F808351040C1F8FC
:107D80000C05704750BC02000249085C002101F05C
:107D9000DABD000050BC02000249085C012101F07C
:107DA000D2BD000050BC02000549095C4FF0A04064
:107DB000D0F80405C84010F0010000D00120704741
:107DC00050BC020010B500242046FFF7DDFF641C04
:107DD000042CF9D310BD10B500242046FFF7DCFFBA
:107DE000641C042CF9D310BD10B50246064B4FF0AD
:107DF000FF3000215C5C944201D1084610BD491C53
:107E00000429F7D310BD000054BC02002DE9F0474F
:107E10000D468146FFF7E8FF0446042836D2DFF816
:107E200074801B481C4EA8F10C0725B3012D0ED001
:107E3000022D2BD104EB440030444578002D25D091
:107E4000B968002922D02846BDE8F047084704EB6E
:107E50004401755C0E44717849B10E4A4FF480417B
:107E6000093A8068FFF71CF808B987F80390B178E1
:107E700008F80410E2E78068FFF73CF804EB4401DF
:107E8000314418F804008D78A842D7D0BDE8F087B7
:107E900058BC02003C4000200449002070B500237B
:107EA000042810D20D4D00EB4004012A02D1012913
:107EB0000CD00022094E00EB4000304461B1012992
:107EC00006D0022906D00723184670BD0E30C2B274
:107ED0002A55F9E74270F7E78270F5E70449002078
:107EE000044A014600201279D20702D0084600F069
:107EF00003B87047304000202DE9F05F6E4C054616
:107F000000266078B34618B184F801B000F06CFE2A
:107F10006A4F4FF47A694FF4C87A4FF00108182D70
:107F200069D2DFE805F00C1313384754696E727B91
:107F3000727BC58484848484B3B6B9BCC5C500F0A3
:107F400053FE3868FEF7D6FF06465CE00020FFF7D8
:107F50002BFF00284FF0000008D0FFF715FF022D7F
:107F600002D14FF4E16008E0484606E0FFF714FF55
:107F7000022D01D1C82000E05046410CC0034FF44F
:107F80007A72801841F10001257052000023FEF73B
:107F900029FA01462AE00020FFF706FF00284FF0EB
:107FA000000004D0FFF7F0FE4FF44870E5E7FFF75C
:107FB000F3FEDFE70020FFF7F7FE00284FF0000098
:107FC00002D0FFF7E1FECFE7FFF7E6FED4E700209F
:107FD000FFF7EAFE00284FF0000002D0FFF7D4FEC2
:107FE00001E0FFF7D9FE257040F6CD410022386848
:107FF000FEF756FF064646E00020FFF7B3FE257069
:1080000008E0002051E025703DE084F80180012067
:10801000FFF7A8FE002240F26661E8E784F80180DD
:108020000120FFF79FFE00224FF40051DFE7786840
:10803000FEF760FF0646D5F1110000D02EB10220F8
:10804000FFF7A2FE84F802B01DE0012816D980B225
:10805000C8214843C117C90341EA5041C0034FF446
:108060007A72801841F1000152000023FEF7BAF93C
:10807000014600227868FEF713FF06460220FFF74C
:108080008BFE84F802803046BDE8F09F00F0ACFD26
:10809000B9E700F0A9FDB4E700F0A6FD04E000F0A8
:1080A000A3FD0020FFF778FE0120FFF775FEAAE789
:1080B000FFF791FEA7E700003040002058BC020007
:1080C0002DE9F84F0546861C00208DF800009146EA
:1080D0000F464FF0010A6846FEF7C4FF1B4C04F23E
:1080E0001C4860683860D4E90101194F401A3968AA
:1080F000081A0EE00121404601F02EF800F09AFD2A
:108100000146404601F028F8D4E90101401A3968D7
:10811000081A401C8642EDD8B9F1000F03D00520A3
:1081200065F3891002E0062065F39F5061683A68A4
:10813000114004EB8101C8606068304460609DF8C4
:108140000000FEF7B3FF5046BDE8F88F084D002051
:108150003441002070B50D4604460A2902D10D2194
:10816000FFF7F8FFA0682268411CA1601554D4E90C
:108170000101814204D32046BDE8704001F065BA98
:1081800070BD0000044881684068814201D101202F
:108190007047002070470000084D00200249084445
:1081A00090F9300070470000244A00202DE9F04388
:1081B0008146887891B090460C4600B901208DF830
:1081C0003E002088ADF83C0000250095607C6946A3
:1081D00003F0CCF86E46A07C711C03F0C7F8E07B7E
:1081E00000289DF8020002D040F0080001E020F0D5
:1081F00008008DF80200217C11B140F0100001E070
:1082000020F010008DF80200217B11B140F0010038
:1082100001E020F001008DF80200217D09B102216A
:1082200000E0012161F342008DF802001C2102A848
:10823000FEF735F9607BC10601D4800617D50E958F
:108240000EAFE07C791C03F091F89DF83800079799
:1082500020F00F00401C20F0F00010308DF83800A6
:108260009DF83A0020F00600801C8DF83A00607BF3
:108270008DF80800A07B8DF80900142109A8FEF7ED
:108280000EF90FA8CDE90906A088ADF83000A06866
:1082900020B1E088ADF82C00A0680D90A06998B3DB
:1082A00001950088ADF81000A06901AD01A94088D2
:1082B000ADF81200A069406806950390A069007BA4
:1082C00003F054F8A069691C407B03F04FF8A069E3
:1082D000807A00289DF8060002D040F0080001E0F6
:1082E00020F008008DF80600A169C97A11B140F0AC
:1082F000100001E020F010008DF80600A169097A55
:1083000019B140F0010002E00DE020F001008DF80D
:108310000600A169897B09B1022100E0012161F316
:1083200042008DF80600E06900B10590434609AAB5
:1083300002A94846AADF11B0BDE8F08370B5084C29
:10834000050009D010342168002907D00868206092
:10835000496828468847F6E70834F4E770BD00000E
:10836000104A0020054A012120B1012805D1917051
:10837000FFF7E4BF51700020FAE77047104A002071
:1083800010B5D0E90234D1E90220D11AA04101D3BD
:10839000012010BD002010BD73B58CB00646002032
:1083A00000900D9880B100246D4621460DA800F084
:1083B000B8FE30B1009805EB400084800098401C66
:1083C0000090641C142CF0D32C2269463046FEF732
:1083D0004DF80EB070BD2DE9F04117880646B81D66
:1083E00014460D46984202D90C20BDE8F081318830
:1083F000072206290AD34FF4486C4FF6FF736145F4
:1084000001D9994202D17088062801D21046ECE7C2
:10841000604501D99842F9D1994203D0984201D0E0
:108420008142F3D80520E85520881221401C80B2F3
:10843000208029542088401C80B220804119308837
:1084400003F0E1FA2188084480B220804119708845
:1084500003F0D9FA2188084420800020C5E7FEF700
:10846000A7BC000038B54A7A0F4B62B100220A72ED
:108470005969002906D001228DF80020ADF80200CC
:108480006846884738BD0A7A62B19B684C680246E4
:1084900019462046FEF704FD0028F3D0BDE8384019
:1084A00002F0F0BE5B68F1E77849002030B5044681
:1084B000007801211E4D87B002281DD003281ED050
:1084C00018B3042816D11BA2D2E90002CDE9040298
:1084D000002001900090ADF8040002900620ADF855
:1084E0000A008DF800108DF8061004A8039020896A
:1084F0006946B0DF07B030BD297010A000E013A0BE
:1085000007B0BDE83040FEF7EBBA218A14A0E2685C
:10851000FEF7E6FA28780028ECD01120ADF800002C
:1085200023896A4612A11748FFF786F9E2E700009F
:108530002040002054686F204E6100004E6F746927
:10854000667920656E61626C650D0A004E6F746914
:1085500066792064697361626C650D0A0000000031
:10856000446174613A20252E2A730D0A0000000030
:1085700054616F206E68616E2064756F6320726F46
:10858000690000009043002070B588B006460020C6
:1085900005900690ADF81410ADF8161001900290F9
:1085A00001AA05A9304690DF050021D001F0D8FFCF
:1085B0000346114811493246401AC108012000EB18
:1085C000014004460E4901F0CAFBBDF8042012B96F
:1085D000BDF8060028B1BDF80630204609A101F01B
:1085E000BEFBBDF808201AB12046164901F0B0FBC9
:1085F00008B0284670BD000060C7020060C70200D6
:10860000C0BF02005468652072657175657374653A
:10861000642054582F5258207061636B6574206C2D
:10862000656E67746820697320746F6F206C6F6E5D
:10863000672062792025752F2575206F6374657416
:10864000732E00000CC0020010B50021024800F09B
:1086500094FD80F3100010BD245100204FF48032AF
:108660008A400168C1F848230068C0F808237047B1
:108670004FF4A07202EB810189B200F030B92DE90C
:10868000F04105460E464FF4A07000EB860081B223
:1086900028684FF48034B440984622F07F47C0F8F1
:1086A00008432868C0F84843286801F009FD286895
:1086B00000EB8600C0F840752868C0F84443B8F164
:1086C000000F02D02868C0F80443BDE8F0810068BC
:1086D000D0F804057047000070B54379234C44F886
:1086E00023204279231D03EBC202224C1579204A34
:1086F000121BD4082DB10825022000EB04401EA156
:1087000030E005680A88C5F8082590F904208978C2
:10871000002A4FEA411104DB02F1E02282F8001442
:1087200005E002F00F0202F1E02282F8141D90F938
:1087300004100122002909DB01F01F0502FA05F5EA
:108740004909890001F1E021C1F800514179002572
:1087500003EBC1010A71417943F83100032000EBBA
:1087600004400EA101F0F0FA284670BD104100202F
:10877000A8C7020060C7020052544320696E737498
:10878000616E636520616C726561647920696E69F0
:108790007469616C697A65642E0000005254433A32
:1087A00020696E697469616C697A65642E000000E5
:1087B00090F90400002809DB00F01F02012191401C
:1087C0004009800000F1E020C0F8001270470A461E
:1087D000022100F07BB84FF4827100F080B800688D
:1087E00001210160704700680121416070472DE957
:1087F000F05F07460C464FF4A07000EB84001FFAB0
:1088000080FA38684FF48036A6409B4622F07F45B8
:10881000C0F848633868C0F808633868D0F8048541
:1088200000EB8402D2F84095C2F840855146386882
:1088300001F046FCA9EB080020F07F40012806D19A
:10884000102001F0F9FE5146386801F039FC386813
:10885000D0F80485C0F84463A5EB080121F07F41FE
:108860003868012900EB840010D0C0F84055386802
:10887000D0F804156FF07F4C6A1A521E22F07F4226
:10888000ACEB0B03934217D362B118E06D1CC0F838
:108890004055102001F0D0FE3868D0F8040540455E
:1088A0000AD10CE000EB84006D1CC0F8405538681C
:1088B000D0F80405884202D00D20BDE8F09F0122C7
:1088C0003146384600F002F80020F6E70368C3F8A6
:1088D0004413002A02D00068C0F80413704710B592
:1088E000006842581AB101F0EBFB012010BD0020D6
:1088F00010BD826883881A4003689A5C0A70816898
:10890000491C81607047C26883881A400368995483
:10891000C168491CC16070470AB100F00DBC00F08D
:10892000F5BB70B50D460446B0F81414D0F8100429
:108930000122FEF71EFD00B1057004F13C0204F5B2
:10894000826104F1540072DF70BD10B50446C0B2FC
:10895000FEF75EFB204610BD0C484A8843889A42C9
:1089600013D10A88A2F52063773B0ED18988C91EEE
:108970008AB28280064807491346401AC00803217C
:1089800001EB004004A101F0EAB97047204000204B
:10899000C0C7020060C7020044617461206C656E4C
:1089A0002069732073657420746F203078255828EF
:1089B0002564290010B50949094800F055FC08B1A3
:1089C000FEF7F6F9F721064800F042FC002803D034
:1089D000BDE81040FEF7ECB910BD00005989020057
:1089E000A843002010B50B48FFF771FE094A083A6A
:1089F000D2E90434C018D2E9063244F10001C31AA6
:108A000071EB020204D24FF08072801841F1000134
:108A100010BD0000D8400020084A002101EB81036E
:108A200032F82330834204D101EB810002EB800055
:108A30007047491C0229F1D300207047504900209B
:108A40002DE9FC5F0E008346DDE90C47C6F100000E
:108A500098469246814600D40846012503E000BFAF
:108A600090FBFAF06D1C5045FADAA84500D945464E
:108A700024B1002E01DB780700D5641EB80702D5AB
:108A8000B8F1000F0AD0F80708D13CB1A54205D2D1
:108A900020215846641EFFF75DFBF6E7002E02DA40
:108AA0004E462D2102E0780703D52B215846FFF7CB
:108AB00051FB07F0030002280BD1B8F1000F08D1D9
:108AC0003CB1A54205D230215846641EFFF742FB57
:108AD000F6E7CDE90047434652463146584602F094
:108AE00097FFBDE8FC9F000070B50D460446006886
:108AF0004FF4887101F054FD4FF49071206801F03B
:108B00004FFD4FF49271206801F04AFD4FF4A271BD
:108B1000206801F045FD4FF4AC71206801F040FD84
:108B200020681249C0F804132068690740F3073031
:108B3000090E002804DB00F1E02080F8001405E0B5
:108B400000F00F0000F1E02080F8141D206840F3D1
:108B50000730002809DB00F01F0201219140400985
:108B6000800000F1E020C0F8001170BD1003420049
:108B7000024600201268530713D502F003000128B3
:108B800002D002280CD105E0C2F383100B68801CD0
:108B9000184404E00223086803EB92521044086072
:108BA00001207047F0B58488A518944200D8224669
:108BB000A41AC288D6189A4200D81346D21A4B88F3
:108BC0000788BB420CD34088834209D88888A042DA
:108BD00006D3A84204D8C888904201D3B04201D934
:108BE0000020F0BD0120F0BD0A4810B5807860B1CA
:108BF000002401E0022C06D02046FFF7C5F8641CD3
:108C0000042CF7D310BD0324F6E7BDE81040FFF7AE
:108C1000D9B8000030400020F721018017214180A1
:108C2000002101714171FB2181711B21C1717047CC
:108C3000704700002DE9FF410026244800F089FA22
:108C40002248001F074600F084FA214C2149A06801
:108C500000900D6800E000986946284004EB800011
:108C60000C30FFF785FF0028F5D101AA009901EA31
:108C7000050304EB8303491CDB6842F82030401CE9
:108C800000910228F2D3019800F0030001280BD0D4
:108C9000022810D10198032101EB90500099BDF8F2
:108CA0000A6001EB900005E00198BDF80A60C0F38E
:108CB000831008440090384600F048FA08B1009844
:108CC000A06004B03046BDE8F081000020510020D3
:108CD000084D0020344100208AB018225E496846C1
:108CE000FDF7C4FB5D4806905D494FF48070CDE907
:108CF0000701099007235B4A06A96846FEF736F983
:108D000008B1FEF755F84FF48041002001F088F8D3
:108D100008B1FEF74DF800F0EDFEFEF793F808B14C
:108D2000FEF746F8112000F0BFFD122000F0BCFD58
:108D30000021112000F0FCFD0021122000F0F8FDC0
:108D400001F078F908B1FEF733F801F02BFB08B118
:108D5000FEF72EF8002569460120009501F0C0F9C4
:108D600008B1FEF725F8684601F054FA08B1FEF79D
:108D70001FF89DF808003CA120F00F00401C20F0D7
:108D8000F00010308DF808000F2202A87CDF08B137
:108D9000FEF70EF800951020ADF800003C2001957C
:108DA000ADF80200ADF804504FF4C870ADF80600FD
:108DB00068467ADF08B1FDF7FBFFFFF7FBFD2E48A1
:108DC0002E4E0024CDF8000004EB440006EB80009A
:108DD000694600F022FB08B1FDF7EAFF641C022C93
:108DE000F2D327480190254801A93438FEF738FD11
:108DF000FDF744FF1C216846FDF751FB4FF4A030FE
:108E0000CDE900504FF4F02002901E480590032455
:108E10001D488DF80C400690ADF80E508DF810509E
:108E20006846FEF7A5FC08B1FDF7C2FF17A0FDF7E5
:108E300057FE1B481B49401AC00804EB00401AA10A
:108E400000F082FFFDF75CFF00F062FE0028FBD11E
:108E500001F004F9F8E7000038BC0200904100205E
:108E60009042002055B60200437573746F6D5F73B6
:108E70006572766963636500A1A00200C4430020A7
:108E8000AD840200B1AB02005F8402000D0A5541BF
:108E9000525420737461727465642E0D0A000000D0
:108EA000C0C7020060C702004465627567206C6F2E
:108EB0006767696E6720666F722055415254206F54
:108EC0007665722052545420737461727465642EF6
:108ED0000000000070B5144682880E4605462088C2
:108EE000111D0144921C994201D8FE2A01D90C207F
:108EF00070BD521C32542088FF21401C80B220805B
:108F000031542088401C80B220808119288802F0CA
:108F10007AFD2188084480B22080AA8842B1A968DD
:108F200041B13044FDF7A2FA2088A9880844208086
:108F3000002070BD072070BD2DE9F047C5881E1DBB
:108F4000B6FBF5F78946B6FBF5F1044605FB176C51
:108F5000407916686843DDF820A0F718001F8742A3
:108F600000D9C61A166001E02468491E0029FBD109
:108F7000A5EB0C078846B74216D818E004EB0C00A6
:108F8000001D09EB0803BAF1000F3A4602D0014672
:108F9000184600E01946FDF769FA2468F61B4FF001
:108FA000000CB844B54201D9374600E02F46002EE8
:108FB000E4D1BDE8F087000030B5024651B100F0C1
:108FC00043FF0021074C08E034F821301568AB421C
:108FD00002D11160002030BD491C8142F4D305202C
:108FE00030BD000000000000F8B50F4601781446BF
:108FF0000546012901D1687830B12088821C9A4247
:1090000032D8012902D006E00720F8BD6978014472
:10901000891C994228D8181A801E86B2ADF80060C3
:109020002188B81C084469467DDF0028EDD12978E5
:10903000022904D06878BDF80020904205D3BDF81D
:109040000000B04201D809200AE00820012905D11A
:109050006978B14202D8ADF8001001E0ADF80060C7
:10906000BDF80010FE2901D90C20F8BD2288491C4A
:10907000B9542188491C89B2218078542088401C29
:109080002080BDF80010084420800020F8BD10B5F5
:1090900031B1B2FBF3F403FB14241CB1092010BD61
:1090A0000E2010BD01600021416081608281C3817A
:1090B000084610BD70B50C460546FDF7ABF8002814
:1090C00002D021882868084470BD10B50A884988F4
:1090D0008A4203D1FDF7E0F8012010BD002010BD49
:1090E00070B50C460546FDF7BAF8002802D0618835
:1090F0002868084470BD10B50A8849888A4203D19F
:10910000FDF7A4F8012010BD002010BD01F01F03E1
:1091100001229A40D243490900EB8100114600F038
:1091200021B84A0950F8220001F01F0201219140A4
:10913000084000D00120704701F01F0301229A402F
:10914000490900EB8100114600F01CB8002100F035
:109150000FB8012100F016B808B56A46FDF7F1F81E
:10916000009808BD08B56A46FDF7D1F8009808BD1B
:1091700008B56A46FDF7CBF808BD08B56A46FDF7A5
:10918000ADF808BD08B56A46FDF7B4F8009808BD0B
:1091900008B56A46FDF7E2F8009808BD38B5044600
:1091A00000258DF800506846FDF75CFF2168626875
:1091B000086890420ED9401E08600178238AE26850
:1091C00001FB0325227A2168101AC0B20A79824273
:1091D00000D208719DF80000FDF768FF284638BDF1
:1091E00038B5054600208DF800000C466846FDF7AE
:1091F00039FFE868298A201AB0FBF1F12A68106863
:10920000431C136001709DF80000FDF74FFF38BD4F
:1092100010B530B1017A42680368891AC9B21A6080
:1092200006E00E2010BD03681A68541C1C60117003
:10923000491EC9B2F7D2006800210171084610BD6D
:10924000C20800F007030120895C9840084070477D
:1092500028B1A1F11702E12A03D3072070470E209D
:10926000704701800020704770B5040010D0F720CF
:10927000A16120806080FB202071002504EBC500E7
:10928000801DFFF7C9FC6D1C022DF7D3002070BDB7
:109290000E2070BD2DE9F04185888EB00C46022D60
:1092A0007ED20188474E4FF00008242940D006DCCA
:1092B000102909D011290CD023295FD154E03A2973
:1092C0000DD055295AD12EE00146204601F0D4FC9C
:1092D00054E004EBC500801DFFF79EFC4EE02946DC
:1092E00004EBC107408937F8062F824200D81046A8
:1092F0007880172800D217207880A06970B178791B
:1093000060B1D6E90002CDE90002ADF8021078881C
:10931000ADF80400A26920466946904787F80580A9
:1093200087F804802AE00146204601F02FFD25E061
:10933000011D2C226846FDF799F8BDF80000BDF824
:10934000042004EBC0014A73A269BAB1D6E9042330
:10935000CDE90B23ADF82E00487B8DF83000A269D3
:1093600020460BA9904709E004EBC503017A187B5E
:10937000884200D201462846FFF706F904EBC504EF
:10938000A07A00281AD0E1882846A5DF012590B1EF
:10939000112813D001F0E4F802460B480B4900E015
:1093A0000CE0401AC0080EB005EB0040BDE8F041EB
:1093B00007A100F0CDBC84F80A80E5720EB0BDE8CC
:1093C000F081000084BC020060C7020060C7020098
:1093D00073645F626C655F67617474635F65786313
:1093E00068616E67655F6D74755F726571756573D1
:1093F0007428292072657475726E65642025732E39
:109400000000000020B10278DE2A03D00820704757
:109410000E20704741800020704760B159B102783A
:10942000DE2A0AD009684160DE2101704FF6FF7123
:109430004180002070470E207047082070477FB59C
:10944000054600294DD0002D4BD008780C46DE286B
:1094500047D1A8886188884202D1204602F072FB79
:109460002888012825D002283BD011283AD051283D
:1094700037D135F8040F6188884232D1A978A81C09
:1094800002292ED1017A042903D0062901D0052909
:1094900027D10021009102228DF8002001914FF484
:1094A000C07202910391ADF80420007A05280FD014
:1094B00010E0297A2046012913D1A98842889142D7
:1094C0000FD10121017204B0BDE8704002F03ABB37
:1094D000ADF8041028886946B0DF002801D0616823
:1094E00088477FBDA88861888842FAD14FF6FF700F
:1094F00060807FBD00F180400068002800D001201E
:10950000704708B500F180400021016000680090BC
:1095100008BD000070B50D4C0125207808B18526E6
:109520000EE00020A06060602061E060084801F06B
:109530005BF8064600F082FF08B901F03FF825709D
:1095400001F034F800B1A570304670BD104A00201B
:109550006583020038B500258DF800506846FDF798
:1095600081FD084CE068401EE060E06828B901F029
:109570001DF810B901F048F8A5709DF80000FDF73E
:1095800095FD38BD104A0020F0B505460478154811
:1095900089B0164640F82420124A0869121DA2F12B
:1095A000080742F82400487F385520226846FCF717
:1095B0005DFF04942878385C48B10EB10A4A00E097
:1095C00000226946281D01F0B9F909B0F0BD0EB1BD
:1095D000064A00E00022694605F10C0001F062F83D
:1095E000F3E70000B4400020C5B8020069B70200EC
:1095F00030B40378054CE35C1BB130BC001D01F0B6
:10960000D3B930BC0C3001F0B7B80000B040002036
:1096100030B40378054CE35C1BB130BC001D01F095
:1096200045BA30BC0C3001F01DB90000B04000203C
:109630000FB408B50399002904D004AA00926A4621
:1096400000F00FF801B05DF814FB10B58268044615
:10965000002A05D0D4E90403216898470020A060BF
:1096600010BD2DE9FC4791460C00804676D014F8D9
:10967000011B39B125290ED04046FEF76BFD20783D
:109680000028F4D198F80C00002867D04046BDE8C7
:10969000FC47FFF7DABF0020012221782B291BD0DD
:1096A0002D2902D0302908D102E040F0010001E06C
:1096B00040F00200641C002AEFD100252A290ED0B8
:1096C0002178A1F130020A2A11D205EB850201EBC3
:1096D0004205641C303DF1E740F00400EAE7D9F8A8
:1096E00000100B1DC9F800300968641C0D44217876
:1096F00000232E290BD114F8011FA1F130020A2AF0
:1097000005D203EB830201EB4203303BF3E76C2904
:109710000DD068290BD0692921D00BDC252918D060
:10972000582931D063290ED0642915D117E014F8D7
:10973000011FECE7702969D0732932D075291BD03D
:10974000782909D120E0D9F80000011DC9F80010DE
:1097500001784046FEF7FEFC641C90E76CE0D9F807
:1097600000100A1DC9F800200968CDE900500A223E
:109770004046FFF765F9EFE7D9F800100A1DC9F870
:10978000002009680A2206E0D9F800100A1DC9F86D
:10979000002009681022CDE90050404602F038F957
:1097A000DAE7D9F8001000270A1DC9F800200E6872
:1097B000C00705D112E04046761C7F1CFEF7CAFCAC
:1097C00031780029F7D104E0202140466D1EFEF7D4
:1097D000C1FCBD42C0D9002DF6D1BDE74EB1304627
:1097E000FCF768FE074604E0202140466D1EFEF7A8
:1097F000B1FCBD4206D9002DF6D103E04046761CEF
:10980000FEF7A8FC31780029F8D1A5E7D9F80000C7
:10981000011DC9F80010056830214046FEF79AFC8A
:1098200078214046FEF796FC08200021CDE9000192
:10983000034610222946B0E7BDE8FC8770B541EA2F
:109840004201DDE904564FF0A04441EA830141EAB8
:10985000052104EB800041EA0641C0F8001770BD05
:1098600070B541EA4201DDE904564FF0A04441EAF7
:10987000830141EA052104EB800041EA0641C0F87A
:10988000001770BD1CB500220B46009211460192D4
:10989000FFF7D4FF1CBD1CB500220B4600921146F9
:1098A0000192FFF7DDFF1CBD4FF0A04202EB8000EC
:1098B0000321C0F8001770471CB5002100910B462A
:1098C000012201911146FFF7B9FF1CBD1CB5002113
:1098D00000910B46012201911146FFF7C1FF1CBD0B
:1098E0004FF0A04202EB8000D0F8002722F4403273
:1098F000C0F80027D0F8002742EA0141C0F800175D
:109900007047000038B5094B44181B6800936B463C
:1099100008E000BF53F82010D1F8205520C2C1F84C
:109920002055401C8442F5D838BD0000ACBC020074
:1099300001224FF0A043824011B1C3F808257047BF
:10994000C3F80C25704701224FF0A043824011B1AB
:10995000C3F808257047C3F80C257047034908B5BC
:109960000844002101600068009008BD00600040CC
:1099700002494058012800D0002070470060004094
:1099800030B5154A01460020D2F8104423460AE0BB
:10999000DB681D79854205D1401C0A28F6DB4FF0B3
:1099A000FF3030BD1B68002BF2D1431CF9D0CB68CF
:1099B0001871D2F8103443B1DB68CC681B6823609F
:1099C000D2F81024D268116030BDC2F81014C968F2
:1099D00000220A6030BD0000084D00207047FCF7EF
:1099E0004DBE704708B5034A00924023024A00F07A
:1099F00005F808BD95B20200704B0020F0B595B097
:109A00001C4615460F4608461A9E00F0EDFA18212E
:109A100009A8FCF744FD0E96CDE90954002308225D
:109A200003A9384600F0F5FA05980690BDF8100035
:109A3000ADF81C00BDF81200ADF81E0000208DF836
:109A400021000398082600F00300012802D0022814
:109A500018D032E003983346850AC0F3C2008DF86F
:109A6000200003980FA9C0F38314A200384600F029
:109A7000D0FA09A8009006AB22460FA9284600F0AC
:109A80000FFA1AE00398840DC0F3C2008DF820008D
:109A9000082C01D2254600E0082533462A460FA9A6
:109AA000384600F0B6FA2E44641B09AB06AA2946D4
:109AB0000FA800F05DF9002CEAD1384600F09AFAC0
:109AC00015B0F0BD0A4A012902EBC00007D00229F7
:109AD00007D0032907D0042907D0002070470220AF
:109AE0007047042070470079704740797047000044
:109AF00060C7020010B5FFF772FF04210348FFF7AB
:109B00003FFF02490120C968487110BD50C70200DB
:109B10002DE9F04F8DB0FEF735FB18B100200DB0E8
:109B2000BDE8F08F7E4C4FF0000BC4F818B4BFF3C3
:109B30004F8F7C49A06802900D68D846284004EBFE
:109B400080000BE0D4F8180470B961680298814273
:109B500001D8A160E2E7284004EB80000C3002A9A4
:109B6000FFF706F80028EDD1002005AA029901EAC6
:109B7000050304EB8303491CDB6842F82030401CDA
:109B800002910228F2D3059800F00300022802D0C7
:109B900001284DD0AAE005985022810D8946B2EBEC
:109BA000905F00D850210E4666F39F500590083113
:109BB0005D4800F0D0F9070078D000F015FA434670
:109BC000082205A9384600F02CFA029908F1080A83
:109BD0002940681A8000001D864222D9504D0C355C
:109BE00030B1C2B204EB8101301A90460C3104E06E
:109BF0002946F2B2002590462846C6B2534638465A
:109C000000F00FFA0AEB080325B132462946384620
:109C100000F007FA029909F1030001EB90000290AD
:109C20003BE004EB81015346324638460C31EFE706
:109C30000598C0F38310062800D30620059960F329
:109C40008911C1F38310801C05918100364800F012
:109C500082F907004AD000F0C7F94346082205A957
:109C6000384600F0DEF908F1080800260FE00298F7
:109C7000434600EA0501401C04EB810102900422E6
:109C800038460C3100F0CDF908F10408761C05982F
:109C9000C0F38310B042EAD847B1D4F81054D4F8D6
:109CA000180478B1384600F0A5F934E01EE0E86801
:109CB0004079012804D12A6828463946126890471D
:109CC000E8680568002DF2D1384600F093F98DF868
:109CD00000B06846FDF7C6F9D4F8180408B9029830
:109CE000A0609DF80000FDF7E1F914E0D4F81044FD
:109CF00005E02168204689688847E0680468002CF0
:109D0000F7D10A480A49401AC008022101EB004075
:109D100008A100F019F8FEF735FA80F00100FEE620
:109D2000084D002034410020E0C70200C0C70200F7
:109D300060C702004261636B656E647320666C7578
:109D4000736865640000000000231A4601F064BBDC
:109D500008B5012300926A4601F05EFB08BD1CB500
:109D6000CDE9002302236A4601F056FB1CBD00002A
:109D70002DE9F0470E4680461C469246082940D8F9
:109D800094F80C90002020731946104601F0DEF87C
:109D90000025B54206D218F805201BA12046FFF782
:109DA00047FC03E01AA12046FFF742FC6D1C082D7A
:109DB000EFD318A12046FFF73BFC0025B54212D295
:109DC00018F805707E2F08D8FCF74CFB0068C05DC2
:109DD00010F03E0F01D03A4600E02E220EA12046A0
:109DE000FFF726FC03E00DA12046FFF721FC6D1CC8
:109DF000082DE3D301222146504601F089F884F86A
:109E00000C90BDE8F087000020253032780000007B
:109E1000202020007C0000002563000020000000BE
:109E2000064910B500200870054800F0E1F8002848
:109E300003D1044800F036F9002010BD084D002081
:109E4000E0C7020088BE020002480349401AC00869
:109E500070470000E0C7020060C7020013B5684603
:109E6000FFF7AAF808B100201CBD0248009950F87D
:109E700031001CBD60C7020070B508480125D0F84C
:109E80001044057007E0E068457121682046496884
:109E90008847E0680468002CF5D170BD084D0020AB
:109EA0002DE9FF4781460C9D00200C462F7B28732F
:109EB000984616462946184601F048F8072E42D221
:109EC000DFE806F004090F161F2A36004946284627
:109ED000FFF7AEFB37E0494628462268FFF7A8FBAC
:109EE00031E0D4E9002349462846FFF7A1FB2AE0E8
:109EF000A0680090D4E9002349462846FFF798FB64
:109F000021E0D4E90201CDE90001D4E9002349466A
:109F10002846FFF78DFB16E004F1080007C88DE81E
:109F20000700D4E9002349462846FFF781FB0AE0F1
:109F300004F108000FC88DE80F00D4E9002349465A
:109F40002846FFF775FB00222946404600F0E0FF57
:109F50002F73BDE8FF872DE9F041058A80462D1F4C
:109F60004819C01CB0FBF5F0C6B24046FFF716F921
:109F7000041E19D00020207101206071E5800027A7
:109F80002546761EC4F800800BE04046FFF706F930
:109F900060B16179491C6171286005467F1CC0F879
:109FA0000080B742F1D32046BDE8F081204600F0A2
:109FB00002F80020F8E72DE9F041457901466B1ED3
:109FC000002201E00968521C9A42FBD30F68014647
:109FD000002605E038460C68FFF702F92146761C9A
:109FE000AE42F7D3BDE8F0810121001DFFF7B4B800
:109FF000FFF70EB910B504460121001DFFF7C8F8A0
:10A0000010F0FF0F04D12046BDE81040FFF7D3BF8A
:10A0100010BD1CB501920122009201AAFEF78CFF2F
:10A020001CBD1CB501920022009201AAFEF784FF1C
:10A030001CBD0000064910B500204870091D0860CD
:10A04000BFF35F8F0349044800F01CFA002010BDE5
:10A050001C41002020BD0200644B002008B50020F8
:10A060008DF800006846FCF7FDFFF1EE100A20F0C5
:10A070009F00E1EE100ABFF35F8F08494020C1F84E
:10A0800080029DF80000FDF711F800F0D7F908B143
:10A0900041DF08BD20BF40BF20BF08BD04E000E095
:10A0A000FCF786BE82680021916082681161826837
:10A0B00051618268D1608268516080680160704738
:10A0C00008B5002242504058009008BD20B1034915
:10A0D00009680160002070470E2070470CBF020025
:10A0E0002DE9FE4307460E460846FFF7EFFF00281E
:10A0F0007DD100240094019406208DF800704FF06B
:10A100000208ADF8040002948DF802806946202010
:10A11000326869DF3749384A4FF00109891AC9089E
:10A1200009EB014530B100F01BFA024628463349DD
:10A13000FFF70EFE00948DF801808DF80240019427
:10A1400002948DF8034069464020326869DF30B1DF
:10A1500000F006FA024628462949FFF7F9FD009467
:10A160008DF80070F720ADF8020001940294694662
:10A170002320326869DF30B100F0F2F90246284648
:10A180002049FFF7E5FD0094019402948DF80090BA
:10A1900069460120326869DF30B100F0E1F902461A
:10A1A00028461949FFF7D4FD4FF4B06000900194A0
:10A1B00002946946A120326869DF30B100F0D0F91D
:10A1C000024628461149FFF7C3FD0094019402940A
:10A1D0008DF800406946A020326869DF30B100F098
:10A1E000BFF9024628460A49FFF7B2FD0020BDE844
:10A1F000FE830000D0C7020060C70200ACC50200A9
:10A20000F4C5020040C602000CC5020058C5020099
:10A21000B8C402002DE9F0410546076860DF8046BA
:10A2200019491A482A68081AC608BA4219D90220D8
:10A2300000EB064416A12046FFF786FD20463A466D
:10A240001FA12B68FFF78BFD4FF08050D0F80C0159
:10A250002968800200F10050421A204625A1FFF72C
:10A2600077FDB8F100004FF001040AD000F078F952
:10A27000024604EB06402AA1FFF76AFD4046BDE80E
:10A28000F0812F480470F9E7D0C7020060C70200D0
:10A29000496E73756666696369656E742052414DD7
:10A2A00020616C6C6F636174656420666F722074EA
:10A2B000686520536F66744465766963652E000097
:10A2C0004368616E6765207468652052414D207354
:10A2D00074617274206C6F636174696F6E20667252
:10A2E0006F6D203078257820746F20307825782E97
:10A2F000000000004D6178696D756D2052414D2060
:10A3000073697A6520666F72206170706C69636131
:10A3100074696F6E20697320307825782E000000F4
:10A3200073645F626C655F656E61626C652829208D
:10A3300072657475726E65642025732E00000000CE
:10A340008B41002030B51548ADF5017D007800281F
:10A3500021D04FF4FA7500BFADF8005280A96846CD
:10A3600061DF38B1052816D00DF5017DBDE830401C
:10A37000FCF71EBD6C460A497DA800F083F806E094
:10A38000D0E90021204690477DA800F092F87F9800
:10A390000028E1D0F4E70DF5017D30BD8B410020B0
:10A3A00010BF02007CB5194C207808B108207CBD94
:10A3B0000120A070002000F037FF112819D00020E4
:10A3C00000F04AFF12480026006801908DF80060F6
:10A3D0006846FCF747FE0F4901A810DF05000AD0C8
:10A3E000002020709DF80000FCF760FE2DB128468B
:10A3F0007CBD00207CBD0120F3E7A670667000F0F4
:10A40000D9FF012000F028FFF3E700008841002079
:10A41000A4BE02002D6D02000EB50749684600F08B
:10A4200031F805E0D0E900108847684600F041F8AF
:10A4300002980028F6D10EBDC0BE02000148007887
:10A4400070470000884100201FB568464BDF30B1DF
:10A45000052814D004B0BDE81040FCF7A9BC084999
:10A4600001A800F00FF806E0D0E90021009890471D
:10A4700001A800F01EF803980028E6D0F4E71FBDFD
:10A480002CBF0200016009684160AFF3008010B585
:10A49000D0E900215368994201D1002104E0D1E9BB
:10A4A0000034A34202D01946816010BD08314160DA
:10A4B000F0E7816800290BD0026892680A44826044
:10A4C00041684B689A4203D108314160FFF7DFBF12
:10A4D000704770B50D460646446804E0B2682946E8
:10A4E000904718B1246820680028F7D120682860B8
:10A4F000256070BD406800687047416808680028A2
:10A5000001D002680A60704702460020526806E0E7
:10A510008B4203D108681060012070471A46136807
:10A52000002BF5D1704700000C4A10B502F594736A
:10A530000EE0991AC91001EBD171491002EBC1016B
:10A540000C68844201D90B4602E005D201F10802F1
:10A550009A42EED3002010BD486810BD40BD0200F5
:10A5600000B5FFF7E1FF002800D1014800BD000061
:10A570002CBD02004058002800D00120704708B5CB
:10A58000002242504058009008BDD0F80403084013
:10A5900000D0012070474058002800D001207047AB
:10A5A00008B5002242504058009008BD024800689B
:10A5B000002800D0012070470004014008480068CE
:10A5C000012110F0010F06D14FF0E020C02280F8E9
:10A5D00000248430C16703490120086070470000EF
:10A5E00000E100E0180500400649024600200B7912
:10A5F0000BB1852070470A6001220A7100224A715E
:10A6000070470000BC400020022010B54107C1F88F
:10A6100008034FF48270FEF774FF054901200860BB
:10A6200004480168C1F300410029FAD110BD0000BF
:10A630000C00004018040040002802D001498001AD
:10A6400008477047F1BC02000121B1EB507F01D1F6
:10A65000012070470020704738B50D4600F0C2FC5D
:10A66000040014D000208DF800006846FCF7FAFCC6
:10A67000207928B19DF80000FCF718FD112038BDA5
:10A680000120256020719DF80000FCF70FFD0020DF
:10A6900038BD00000149024801F07EB8804A002020
:10A6A000002000402DE9F0410546007916460F468E
:10A6B00000EB40012D4A01EBC00102EB810494F84C
:10A6C0002A1011B10820BDE8F081294951F8201065
:10A6D0002868FFF7C1FF08B11120F4E73946284682
:10A6E000FCF7FEFC66603869206030004FF0010620
:10A6F0002FD03F7F4FF48E712868FFF740FF4FF453
:10A70000A2712868FFF73BFF28681A49C0F80413B4
:10A7100028684FEA471140F30730002804DB00F1B6
:10A72000E02080F8001405E000F00F0000F1E020C8
:10A7300080F8141D286840F30730002809DB00F07A
:10A740001F0106FA01F14009800000F1E020C0F885
:10A75000001128680421C0F800150020A061E06104
:10A7600084F8290044F8140FA675ACE7804A00204D
:10A77000B0BC0200800002002DE9F05F05460079C0
:10A780004FF4017600EB400303EBC000344B03EBC6
:10A7900080040020636813B12B68C3F80863A369C1
:10A7A0004FF000096BB1E06938B1606810B12868FA
:10A7B000C0F804631120BDE8F09FE261012021612F
:10A7C00005E0C4F82490A261E160C4F81C9094F8FC
:10A7D0002910014302D1284600F0E9FC60680028F6
:10A7E000286803D0C0F804630020E4E74FF4A276A1
:10A7F0003146FFF7C4FEB2464FF4927B59462868B3
:10A80000FFF7B8FE06464FF484712868FFF7B2FEE2
:10A81000804651462868FFF7ADFE074648EA070024
:10A820003043EBD056EA070007D12146286800F0F4
:10A830008FFCA169606A8142E0D8C4F818900EB11B
:10A840000320B8E70FB10F20B5E794F829100120D5
:10A850000029296801D00860C6E74860C4E7000005
:10A86000804A00202DE9F05F054600790B4600EB99
:10A87000400101EBC000244901EB8004284600F0B0
:10A8800045F810B11120BDE8F09F62614FF000095A
:10A89000C4F82090A36084F828904FF48E784E4638
:10A8A00041462868FFF76BFE28684FF0010AC0F8A0
:10A8B00008A02146286800F0A3FE606808BBD5F810
:10A8C00000B067690FE000BF94F8280008B10F26B8
:10A8D00015E041465846FFF74DFE0028F4D02146CA
:10A8E000584600F08DFE206AB842F2D357464146E2
:10A8F0002868FFF73FFE0028F9D02868C760C4F831
:10A9000014903046BFE70000804A0020007900EB39
:10A91000400101EBC000044901EB800040690028C0
:10A9200000D0012070470000804A00200149024801
:10A9300000F0E0BFAC4A0020002000402DE9F041CB
:10A940000546164600790F46154A00EBC00102EB9A
:10A95000810494F8201011B10820BDE8F08111495C
:10A9600051F820102868FFF777FE08B11120F4E7AE
:10A9700039462846FCF7F8FB6660386920601EB14E
:10A98000397F2846FEF7B0F828680821C0F800157E
:10A990000020A061E0616061012184F82010DCE703
:10A9A000AC4A0020B4BC02002DE9F05F04460079F7
:10A9B0000E4600EBC001DFF8F0A017460AEB810558
:10A9C0003046FFF741FEB0B168684FF000084FF421
:10A9D000047910B12168C1F80893A8694FF0000B01
:10A9E00080B1E86948B1686810B12068C0F8049384
:10A9F0001120BDE8F09F1020FBE7EF614FF0010848
:10AA00002E6102E0EE60C5E9067B00254FF48871F7
:10AA10002068FFF7C5FD4FF4A2712068FFF7C0FD65
:10AA20002068C0F83465C0F838752068B8F1000FA8
:10AA300012D0D0F8001241F02001C0F800122079A5
:10AA4000D04600EBC0010AEB8100406838B12068B5
:10AA5000C0F804932846CCE701210160EFE74FF4EA
:10AA6000887A4FF4A27951462068FFF794FD074693
:10AA700049462068FFF78FFD06464FF49271206823
:10AA8000FFF789FD014647EA06000843EBD022792B
:10AA900002EBC20308EB8302C2F818B001B1032530
:10AAA000002ED7D00F25D5E7AC4A00202DE9F0477E
:10AAB00004460E460079274900EBC00001EB8005F3
:10AAC00017463046FFF7C0FD30B1204600F044F88D
:10AAD00020B11120BDE8F0871020FBE76F61AE6068
:10AAE0004FF490774FF0000839462068FFF758FD83
:10AAF0004FF4AC7631462068FFF752FD2068AA6813
:10AB00006969C0F84425C0F8481520684FF001096C
:10AB1000C0F808906868D0B9BA4651462068FFF777
:10AB20003AFD074631462068FFF735FD0743F4D06C
:10AB300010B14FF00F0808E02068C0F80C903146C3
:10AB40002068FFF728FD0028F9D000206861404602
:10AB5000C0E70000AC4A00200079054900EBC000C6
:10AB600001EB80004069002800D001207047000000
:10AB7000AC4A002003490860034801680029FCD062
:10AB80007047000004E5014000E4014010B550B1F9
:10AB900003280CD10220FDF7A3F9002807D0BDE857
:10ABA0001040FCF705B9BDE81040FCF7A9B810BD8E
:10ABB0000078002807D104483B21408876DF002830
:10ABC00001D0FCF7F5B87047204000202DE9F04790
:10ABD00006461D481D49401AC108032000EB0140EC
:10ABE00005461BA1FFF7B0F8FCF716FE1B4FDFF878
:10ABF000708000244FF6FF79C7F80C0004EB440185
:10AC000008EB810042884A4505D13188FEF7FAFBFE
:10AC100008B1FCF7CDF8641C022CEFD3328828462B
:10AC200010A1FFF795F801211220FEF781FEF868C8
:10AC3000022803D0BDE8F047FCF762B8BDE8F04752
:10AC400000211120FEF774BEC0C7020060C70200D9
:10AC5000436F6E6E656374656400000020400020E1
:10AC6000C4430020436F6E6E65637465642077692A
:10AC7000746820256400000070B58D88027900EBAF
:10AC8000C5042273C97BA41D012902D0022904D165
:10AC900001E0008800E040882080218860888142AF
:10ACA00011D92846A5DF0126B0B1112816D0FFF72B
:10ACB00057FC02460B480C49401AC00806EB0040FE
:10ACC0000AA1FFF745F8A179E079814208D9284621
:10ACD000BDE87040FDF758BC6671F4E72671F2E7F5
:10ACE00070BD000060C7020060C7020073645F624D
:10ACF0006C655F67617474635F65786368616E67D4
:10AD0000655F6D74755F7265717565737428292050
:10AD100072657475726E65642025732E00000000E4
:10AD200010B5037902880D480D49401AC008032167
:10AD300001EB00400BA1FFF712F8FCF76DFD124C80
:10AD4000E06018B900211220FEF7F2FDE06801284A
:10AD500003D1BDE81040FBF7D3BF10BDC0C7020050
:10AD600060C70200446973636F6E6E6563746564E7
:10AD70002077697468203078257820726561736F58
:10AD80006E20307825780000204000207CB50646F3
:10AD90008D88C88806EBC504A41D172800D217208B
:10ADA0002188814200D808466080002020712188D7
:10ADB0002846B5DF60B1FFF7D3FB02460F481049C4
:10ADC000401AC008012101EB00400EA1FEF7C0FFB0
:10ADD0006079002810D1B06900280DD01549D1E95B
:10ADE0000201CDE90001ADF802506088ADF8040021
:10ADF000B2696946304690477CBD000060C70200DA
:10AE000060C7020073645F626C655F67617474732E
:10AE10005F65786368616E67655F6D74755F7265A5
:10AE2000706C7928292072657475726E65642025AE
:10AE3000732E000084BC02000068012803D00228A1
:10AE400001D0002070470120704700002DE9F05F1D
:10AE50002A4F06464FF0A04A4FF0010B0024381944
:10AE600090F95010491C3CD090F85000314620F029
:10AE7000C0052846FEF7E4F920B3204600F040F86C
:10AE800081460AEB8500D0F80007C0F30148B8F10D
:10AE9000020F18D002212846FEF722FD0BFA05F119
:10AEA000CAF820152846FDF779F957F820204AB14D
:10AEB0004846B9F1030F11D0B8F1020F05D0B8F12F
:10AEC000030F07D00DE00321E5E74846B9F1010F74
:10AED00004D006E04846B9F1020F02D101462846E7
:10AEE0009047641C042CBAD3324601210020FEF79F
:10AEF00009FD30680028B1D1BDE8F09F244A002048
:10AF00000249084490F8500080097047244A002004
:10AF100010B50C46017A052908D0407A38B10848A6
:10AF200008A102682046FEF783FB00E01AB106A1E3
:10AF30002046FEF77DFB2046BDE81040FEF785BBAE
:10AF400064410020257300000D0A000038B5C38855
:10AF50000D46044633B114A0009015A216A1284650
:10AF6000FEF766FB217A05291CD0607A48B1A088DB
:10AF7000FEF7A8FD164951F8202016A12846FEF735
:10AF800057FBA0880021FEF769FF03461049207A8D
:10AF9000143951F8202001B02846BDE830400EA1F8
:10AFA000FEF746BB38BD00001B5B306D00000000A3
:10AFB0001B5B313B33316D0025734C6F677320642D
:10AFC000726F70706564202825642925730D0A004E
:10AFD00064410020257300003C25733E2025733A10
:10AFE000200000000349884201D103487047002037
:10AFF0007047000000200040C440002070B50546A6
:10B00000FDF7E9FB134C40B1D4E904024FF0807125
:10B01000411842F10000C4E9041000212846FDF760
:10B0200027FB30B1606820B1606800F041FA002071
:10B03000606001212846FDF71BFB18B1FDF7D2FC2B
:10B04000C4E90601284600F07FFA2846BDE87040B2
:10B0500000F038B8D04000202DE9F04100260E70F5
:10B06000D0E902740D468046FDF7BCFC381A002377
:10B0700064EB01011A461B1A8A4115DAB0F5350F47
:10B0800004D3FBF7C9FE0D49421800E03A464FF4DD
:10B09000960300210A48FDF7AAFB10B10D2807D03E
:10B0A0000AE00120BDE8F08100210548FDF7D6FA4D
:10B0B000404600F0FDF928700020F3E7FFFFB400E0
:10B0C000D8400020F8B5204C064600251F48FFF761
:10B0D00011FA10B3D0E90210CA4372EA000224D078
:10B0E000626882B16368D3E90223891A984127D242
:10B0F0006068D0E90210C94371EA000103D06168B9
:10B100001248FFF7E6F900F081F907466946FFF7B4
:10B11000A3FFB0B1606858B10DE0606800280FD19E
:10B120003046BDE8F840FDF75EBB00F06FF9CDE7B3
:10B130003046FDF754FB67609DF800000028C5D13C
:10B14000F8BD6560C2E70000D0400020C0BC02002E
:10B1500070B5054688690C4600284FF4847128466E
:10B160000AD0FFF70CFAD5F81805626AE16888542E
:10B17000606A401C606270BDFFF701FAD5F81805DF
:10B1800070BD1FB501238DF80030CDE90121D0E954
:10B190000012684690471FBD1FB501238DF800308F
:10B1A000CDE90121D0E90012684690471FBD10B5D6
:10B1B000044600684FF49271FFF7E1F94FF484718F
:10B1C0002068FFF7DCF920680121016010BD000054
:10B1D00038B50021012548B1012810D003280DD130
:10B1E000FFF7ECF9BDE83840FEF7B4B94FF0E020C6
:10B1F000C0F88051BFF34F8FBFF36F8F38BD8DF80C
:10B2000000106846FBF72EFF064C207808B9FEF7C1
:10B2100081F9E068401CE060A5709DF80000FBF734
:10B2200045FF38BD104A00203EB50446094968462E
:10B23000FFF728F908E000BFD0E900212046904739
:10B2400030B16846FFF735F902980028F4D13EBDC9
:10B2500011203EBDA8BE02003EB50446084968461E
:10B26000FFF710F907E000BFD0E900212046904722
:10B270006846FFF71EF902980028F5D13EBD000090
:10B28000B4BE020002498969002900D0084770470E
:10B29000784900202DE9F0411400884618D0002597
:10B2A0000E4F032608EB050122460020FBF7E8F9C4
:10B2B0000544241A40B93878002809D008494FF4C9
:10B2C0007A408847761E05D001203870002CE9D1DD
:10B2D000BDE8F08100203870FAE700002841002026
:10B2E00081BE02002DE9F0410746806A1446884677
:10B2F000C8B3002531E000BFB96A05EB450001EB9A
:10B300008006B088801CFE2802D90C20BDE8F081A0
:10B310002288401C08F8020020881622401C80B2B7
:10B32000208008F800202088401C80B2208000EB9C
:10B330000801308800F067FB2188084480B2208033
:10B34000B28842B1B16871B14044FBF78FF82088F0
:10B35000B188084420806D1CEDB297F82C00A842FB
:10B36000CAD80020D2E7FFE70720CFE70A780628EF
:10B3700022F0FF020A7010D2DFE800F0030507098F
:10B380000B0D002008E0112006E0212004E0312010
:10B3900002E0122000E0222008707047002805D14A
:10B3A0000349012048700020FCF7C8BF7047000027
:10B3B000104A002010B51620FBF7B2FBA0B11148CF
:10B3C00090F800044009082811D20121814011F0B1
:10B3D000EC0F0CD00C4882684FF480016AB1016810
:10B3E00041F48001016010BD42F2010001E042F22F
:10B3F0000200BDE81040FBF7DBBC4FF0E020C0F8D6
:10B40000001110BD16E000E0584B00200148FFF786
:10B4100074B80000C0BC02002DE9F84F074622486E
:10B420009146884605681E46012269461846FCF783
:10B4300047FEDFF878A060B3009800210446801C26
:10B440000AE000BF00EA050259F821C00AEB8202B7
:10B45000401C491CC2F80CC0B142F3D34FEA174953
:10B46000FDF7F2F8611C29400AEB810149EA00422C
:10B470002C40CA600AEB8401C86867F3C50066F314
:10B48000891068F39F2020F00300401C20F0040086
:10B49000C8609AF8000001E0FEF73AFB0028FBD1F3
:10B4A000FDF7C6FBBDE8F88F34410020084D0020B1
:10B4B000F8B5044622480026007878B374B3FDF747
:10B4C00091FAD4E90232C01A91412DD300258DF8AA
:10B4D00000506846FBF7C6FD206910B9681EC4E934
:10B4E00002009DF80000FBF7E1FDD4E90510884754
:10B4F0008DF800506846FBF7B5FD22697AB1D4E9B2
:10B500000210CB4373EA000309D089186841C4E9EB
:10B5100002109DF80000FBF7C9FD09E00DE09DF861
:10B520000000FBF7C3FD08E0D84370EA020004D036
:10B5300021460448FEF7CDFF01263046F8BD000045
:10B54000D0400020C0BC020038B51D4D69462868B7
:10B55000FDF7C6FD1B4C30E0017821B101290ED06A
:10B56000022922D117E04168D1E90220D24372EAD0
:10B5700000021AD012480830FEF7ABFF15E0416810
:10B580006068814202D1002060600EE00C48083003
:10B59000FEF7BAFF09E0FFF739FF20B14FF0FF31A6
:10B5A000C0E90211F7E70120207069462868FDF71D
:10B5B0008CFD69462868FDF793FD0028CCD138BD85
:10B5C000B8BC0200D0400020F8B50B4C0D46064632
:10B5D00069462068FDF76EFD58B106704560694602
:10B5E0002068FDF788FD10B10448FDF7E1F8002060
:10B5F000F8BD0420F8BD0000B8BC0200D84000200F
:10B6000070B50C4605464FF48E71FEF7B8FF216AFF
:10B61000A068415C206A401C2062C5F81C1570BD02
:10B620001FB500228DF800200291816801914261CE
:10B63000D0E90012684690471FBD1FB500228DF863
:10B6400000200291816801914261D0E900126846B0
:10B6500090471FBD70B500788CB000282BD1184DD5
:10B66000164CE8882044FBF767FCE888401C80B251
:10B670002118E88011F8011C0A2904D00D2902D0F4
:10B68000A988884217D36846FCF7B4F800246E46B0
:10B690000CE000BF06EB4400094A08498388921D6C
:10B6A000A1F59060FCF7C8F8641CE4B20098A042D1
:10B6B000F0D80020E8800CB070BD000010480020D9
:10B6C000204000207CB50178254DA1B301290BD085
:10B6D00002291DD18DF80010C068691C019001225B
:10B6E000C81DFDF785FF30E0017A59B14068017847
:10B6F0001C48FBF783FB1B4C012650B18DF8006002
:10B7000001900DE016490122491CC81DFDF770FF8C
:10B710007CBDA068E168814205D000208DF8000062
:10B72000696868468847A068E168081AA188884265
:10B73000E8D9AE707CBDFFE70A4809491030FBF735
:10B7400042FB30B103208DF80000696868468847E5
:10B75000F0E70349012201F10800FDF759FFE9E78D
:10B76000F4400020384B00201FB50A4601788DF8C0
:10B77000001041680191017A8DF80810C0680390AB
:10B78000044850F82210001F50F8222068469047C5
:10B790001FBD0000B84000202DE9FF470C460546BC
:10B7A0004FF40071FEF7F1FE01274FF401780026F7
:10B7B00018B34FF4927949462846FEF7DBFEE0B114
:10B7C00049462846FEF7DBFEC5F8088394F82900B1
:10B7D00000B96F6002208DF80000D5F88004C5F82C
:10B7E00080040390A0690290E0680190A661E66180
:10B7F000D4E900126846904728E004212846FEF765
:10B80000C4FE18B34FF484712846FEF7B3FEE8B1C6
:10B8100021462846FFF79CFC616AA069884215D141
:10B82000E06938B1E268616AA0612069E661666238
:10B83000E06008E094F8290000B96F60C5F808835B
:10B84000A661E268616A2046FFF79BFC4FF48E78A0
:10B8500041462846FEF78EFE80B16069216A81422A
:10B8600002D294F8280028B341462846FEF787FE06
:10B87000606918B161692046FFF7D2FE4FF4A278E3
:10B8800041462846FEF776FE002818D04146284655
:10B89000FEF775FE94F8290000B12F60A06900281A
:10B8A0000DD0A661E268616A04B02046BDE8F047A9
:10B8B000FFF767BC21462846FFF7A2FEDEE7BDE89A
:10B8C000FF8700001FB50A4601788DF80010416817
:10B8D0000191017A8DF80810C0680390044850F86F
:10B8E0002210001F50F82220684690471FBD00001C
:10B8F000B84000202DE9FF410C464FF492770546F1
:10B900003946FEF748FE0026B8B139462846FEF70C
:10B9100047FE02208DF80000D5F88004C5F88004A9
:10B920000390D5F83C050290E0680190A661E661BD
:10B93000D4E900126846904723E04FF488773946EF
:10B940002846FEF728FEE0B139462846FEF728FED5
:10B95000D5F83C15A069884213D1E06960B1E2686E
:10B96000D5F8000220F02000C5F80002E069A061CF
:10B970002069E661E06001E0A661E2682046FFF729
:10B980000BFC4FF4A27739462846FEF704FE68B157
:10B9900039462846FEF704FEA06938B1A661E66183
:10B9A000D5F83C152046E268FFF7F6FB4FF4907699
:10B9B00031462846FEF7EFFD60B131462846FEF7D6
:10B9C000EFFD0120E860606920B1D5F84C152046F4
:10B9D000FFF733FE4FF4AC7631462846FEF7DBFD29
:10B9E00000280ED031462846FEF7DAFD60690028AF
:10B9F00007D0D5F84C1504B02046BDE8F041FFF75C
:10BA00001CBEBDE8FF810870000A48700220704724
:10BA10002DE9F05F8346DDE90A4A994690460D46D6
:10BA20000846012703E000BFB0FBF8F07F1C40454B
:10BA3000FAD2B94500D94F465FEACA7012D18CB12B
:10BA40005FEA8A7002D5B9F1000F01D0202607E025
:10BA5000302605E031465846641EFCF77BFB0CB1EE
:10BA6000A742F7D35FF00106B9F1010F02D9A9F19E
:10BA7000010903E0B5FBF6F0404502D306FB08F6EA
:10BA8000F2E7DFF83C9000BFB5FBF6F000FB16557F
:10BA900019F800105846FCF75DFBB6FBF8F6002ECF
:10BAA000F2D15FEACA7009D0002C07D0A74205D2B4
:10BAB00020215846641EFCF74DFBF5E7BDE8F09FDA
:10BAC000F6BC0200F8B5054680B2FCF7A5FF0400FD
:10BAD00013D0154E207A0027317B88420ED2A8B2AF
