:020000040000FA
:1000000088210020DD020000E5020000E702000078
:10001000E9020000EB020000ED0200000000000019
:10002000000000000000000000000000EF020000DF
:10003000F102000000000000F3020000F5020000E1
:10004000C9030000F7020000F7020000F7020000F9
:10005000F7020000F702000025030000F70200008D
:10006000F7020000F7020000F7020000F7020000AC
:10007000F7020000F7020000F7020000F70200009C
:10008000F702000021040000F7020000F702000060
:10009000F7020000F7020000F7020000F70200007C
:1000A000F7020000F7020000F7020000F70200006C
:1000B000F7020000F702000000000000000000004E
:1000C000F7020000F7020000F7020000F70200004C
:1000D000F7020000F7020000F70200000000000035
:1000E0000000000000000000000000000000000010
:1000F0000000000000000000000000000000000000
:1001000000000000000000000000000000000000EF
:1001100000000000000000000000000000000000DF
:1001200000000000000000000000000000000000CF
:1001300000000000000000000000000000000000BF
:1001400000000000000000000000000000000000AF
:10015000000000000000000000000000000000009F
:10016000000000000000000000000000000000008F
:10017000000000000000000000000000000000007F
:10018000000000000000000000000000000000006F
:10019000000000000000000000000000000000005F
:1001A000000000000000000000000000000000004F
:1001B000000000000000000000000000000000003F
:1001C000000000000000000000000000000000002F
:1001D000000000000000000000000000000000001F
:1001E000000000000000000000000000000000000F
:1001F00000000000000000000000000000000000FF
:10020000DFF80CD000F07CF800480047550C0000E7
:100210008821002030B450E8012F93B2C4892344D0
:100220008489A34228BF1B1B0489A34202BFBFF3DA
:100230002F8F002007E0C3EA020340E80134002CBE
:10024000E9D14FF001000A6030BC704750E8012F3F
:10025000C2EA024240E801210029F7D1704730B4D8
:1002600050E8022F1FFAA2F3C488A34202BFBFF3D3
:100270002F8F00200DE0C48923448489A34228BF26
:100280001B1BC2EA034340E80234002CE8D14FF0C4
:1002900001000A6030BC704750E8022FC2EA2242D7
:1002A00040E802210029F7D17047034653E8022FA6
:1002B000D988B2EB324F4FF0000017BF92B241EA3B
:1002C000014142EA014104E05A68B2EB324F08BFF3
:1002D000012043E80212002AE8D17047064880470F
:1002E00006480047FEE7FEE7FEE7FEE7FEE7FEE71B
:1002F000FEE7FEE7FEE7FEE7310400000102000032
:10030000064C074D06E0E06840F0010394E8070062
:1003100098471034AC42F6D3FFF776FF781600000A
:10032000981600002DE9F8430025DFF894804FF47B
:10033000807601242F460095304600F037FE38B114
:10034000D8F80403204203D0304600F025FE2543B0
:10035000361D64007F1CB6B2082FEDD34FF4BE7477
:10036000204600F023FE48B1204600F015FE45F07F
:1003700000456A460121002000F0E8FD15F0FF0F5E
:1003800016D0012600242E420ED008EB8401D1F8AD
:100390001005D1F81015C0F304200A4AC1F3014139
:1003A00052F8242002B190477600641C082CEAD34E
:1003B000002D02DA684600F0ADFFBDE8F8830000CA
:1003C00000600040C000002070B54FF480763046D9
:1003D00000F047FD114CB50560B1304600F048FD16
:1003E0000120C5F80803607920B9012060712168F7
:1003F000002088474FF48276304600F032FD002816
:100400000AD0304600F034FD0220C5F80803216808
:10041000BDE870400120084770BD000018000020B2
:1004200002490248091F0968006808475000002077
:10043000F0B5B74AB7494FF080541368D4F830018B
:100440000978D4F83421451CC1F3031106D0844641
:1004500001270025BCF1060F03D00AE003F0FF0CD2
:10046000F6E7B4F82463DFF8B0C2C6F30426CCF88C
:100470000060DEB2062E06D1032904D1DFF8A0C247
:10048000A64ECCF87460461C04D08446BCF1060F1E
:1004900003D00AE003F0FF0CF8E7D4F84462DFF879
:1004A00084C2C6F34236CCF80060DEB2062E08D114
:1004B000032906D19C4ED6F800C02CF0807CC6F8EB
:1004C00000C0461C04D08446BCF1060F03D00BE0EC
:1004D00003F0FF0CF8E74FF08046C6F80C51C6F861
:1004E0001051904E361F3560DEB2062E08D103291A
:1004F00006D1DFF830C203260CF1640CCCF80060A2
:10050000DEB2062E11D103290FD1DFF820C2052655
:10051000CCF80060854E78363760844E08363560FA
:100520000CF1040C3F26CCF80060461C06D0844633
:100530004FEA0206BCF1060F04D081E003F0FF0C85
:100540000E46F7E7032E7BD0042E79D0784E36681E
:10055000DFF8E0C1CCF80060754E361D36680CF14E
:10056000040CCCF80060724E083636680CF1040CAE
:10057000CCF800606E4E0C3636680CF1040CCCF8EA
:1005800000606B4E103636680CF1040CCCF800603D
:10059000674E143636680CF1040CCCF80060644EDB
:1005A00018363668DFF88CC10CF1200CCCF80060EE
:1005B0005F4E1C3636680CF1040CCCF800605C4EC3
:1005C000203636680CF1040CCCF80060584E243606
:1005D00036680CF1040CCCF80060554E28363668AD
:1005E0000CF1040CCCF80060514E2C3636680CF13E
:1005F000040CCCF800604E4E30363668DFF834C15B
:100600000CF1400CCCF80060494E343636680CF1E1
:10061000040CCCF80060464E383636680CF1040CF9
:10062000CCF80060424E3C3636680CF1040CCCF835
:1006300000603F4E403636680CF1040CCCF8006088
:10064000461C05D04FEA000CBCF1060F03D008E0B1
:1006500003F0FF0CF8E7D4F85842374E04F04F048B
:100660003460441C03D00346062B02D008E0DBB202
:10067000FAE732490B68DB0702D06FF001030B6029
:1006800006280AD1032A08D0042A06D0052A04D055
:100690002B48016841F48061016023487438016887
:1006A00041F470010160BFF34F8FBFF36F8F4FF0C4
:1006B0001021D1F80002002803DBD1F80402002841
:1006C00022DA204A176020480368002BFCD015234B
:1006D000C1F800320468002CFCD0C1F80432016873
:1006E0000029FCD0156001680029FCD0BFF34F8FB2
:1006F0000D48F0380168154A01F4E06111430160CA
:10070000BFF34F8F00BFFDE7124911480860F0BDED
:10071000E00F00F0E80F00F0403501400DF0ADBAF9
:1007200000C007403C050040FCED00E010560040D2
:100730000404001020C50040E40E00400004004006
:100740003C17004004E5014000E401400400FA05C4
:100750000090D0035800002002E008C8121F08C112
:10076000002AFAD170477047002001E001C1121F32
:10077000002AFBD17047000072B609480068C00724
:1007800000D000BEBFF34F8F0548E4380168054A2A
:1007900001F4E06111430160BFF34F8F00BFFDE73B
:1007A000F0ED00E00400FA050EB500210091CDE95E
:1007B00001106A4644F20100FFF7DEFF0EBD0000A3
:1007C000014800F012B90000300000203AB1006882
:1007D0000129426100D000210161002070470720FB
:1007E0007047000038B5114808235822416800912D
:1007F0000F49006800F0EEFA002815D10D4A69464D
:100800000D4800F0F7F804000ED101210A4800F06D
:100810003EF90123094A1946074800F0BEF8064987
:10082000012008390870204638BD0000501600002D
:100830001C010020D113000030000020FFFF7F00CA
:1008400070B50446007F0D4608B1002070BDA2615E
:1008500000F0B0F9401941F10001C4E9020120693A
:1008600000B125612146BDE87040002000F0C8BEFF
:10087000014600200877012000F0C2BE00F002B857
:1008800000F008B872B602480168491C0160704760
:100890002000002003490868401E086000D162B6AD
:1008A000704700002000002005494FF0FF32082863
:1008B00041F8202002D3084480F83C207047000013
:1008C000C0000020F0B54FF0FF3512B1002308261C
:1008D00001E0082309260C4C05E000BF54F8237002
:1008E0007F1C04D05B1CB342F8D32846F0BD261809
:1008F0005DB286F8245044F82310002AF5D1E1189F
:1009000081F83C00F1E70000C000002002490844E3
:1009100090F9240070470000C000002070B5084C1A
:10092000050009D010342168002907D0086820602C
:10093000496828468847F6E70834F4E770BD0000A8
:1009400074010020054A012120B1012805D19170D0
:10095000FFF7E4BF51700020FAE7704774010020F0
:1009600010B5D0E90234D1E90220D11AA04101D357
:10097000012010BD002010BD4FF480328A40016874
:10098000C1F848230068C0F8082370474FF4A072EC
:1009900002EB810189B200F002B92DE9F041054670
:1009A0000E464FF4A07000EB860081B228684FF429
:1009B0008034B440984622F07F47C0F80843286846
:1009C000C0F84843286800F0F9FA286800EB860070
:1009D000C0F840752868C0F84443B8F1000F02D051
:1009E0002868C0F80443BDE8F0810068D0F8040529
:1009F0007047000010B543791C4C44F8232042791D
:100A0000231D03EBC20212790AB1082010BD02684F
:100A10000C88C2F8084590F904208978002A4FEA2A
:100A2000411104DB02F1E02282F8001405E002F03B
:100A30000F0202F1E02282F8141D90F90410012245
:100A4000002909DB01F01F0402FA04F449098900B6
:100A500001F1E021C1F80041417903EBC1010A71C4
:100A6000417943F83100002010BD00004C00002007
:100A700090F90400002809DB00F01F0201219140D9
:100A80004009800000F1E020C0F8001270470A46DB
:100A9000022100F07BB84FF4827100F080B800684A
:100AA00001210160704700680121416070472DE914
:100AB000F05F07460C464FF4A07000EB84001FFA6D
:100AC00080FA38684FF48036A6409B4622F07F4576
:100AD000C0F848633868C0F808633868D0F80485FF
:100AE00000EB8402D2F84095C2F840855146386840
:100AF00000F064FAA9EB080020F07F40012806D13D
:100B0000102000F0DFFA5146386800F057FA3868D4
:100B1000D0F80485C0F84463A5EB080121F07F41BB
:100B20003868012900EB840010D0C0F840553868BF
:100B3000D0F804156FF07F4C6A1A521E22F07F42E3
:100B4000ACEB0B03934217D362B118E06D1CC0F8F5
:100B50004055102000F0B6FA3868D0F8040540453A
:100B60000AD10CE000EB84006D1CC0F840553868D9
:100B7000D0F80405884202D00D20BDE8F09F012284
:100B80003146384600F002F80020F6E70368C3F863
:100B90004413002A02D00068C0F80413704710B54F
:100BA000006842581AB100F009FA012010BD002077
:100BB00010BD000010B50B48FFF717FF094A083AAF
:100BC000D2E90434C018D2E9063244F10001C31A54
:100BD00071EB020204D24FF08072801841F10001E3
:100BE00010BD00003000002070B50446FFF7E8FD9E
:100BF00005464FF0A040D0F81005E04010F0010F7E
:100C00000C4C0D480CD000224FF480414068FFF797
:100C100017FE08B1FFF7C8FD2069281A606170BD92
:100C200061682561491C61604068BDE87040FFF75C
:100C30001FBE00000000002044160000026813469A
:100C400002E08A4204D01268002AFAD10B600160E7
:100C500070470000112000F09BF8122000F098F877
:100C60000021112000F09CF80021122000F098F8DB
:100C700000F07CF80D2000F057F800F001F908B101
:100C8000FFF792FD002000F019F9FFF7ABFD204AB5
:100C900001212048FFF79AFD08B1FFF785FD1D48A7
:100CA0001D4A0121001DFFF791FD08B1FFF77CFDF2
:100CB000184C002240F6CD412068FFF7C1FD00220C
:100CC0004FF480416068FFF7BBFD08B1FFF76CFD92
:100CD000124E134D134C002720780028FCD03068AA
:100CE00010B92968012907D02968032906D00328EB
:100CF00007D9012907D004E0112000E0122000F0FC
:100D00005BF82770E8E7112000F056F8F6E70000DE
:100D1000CD1300003C16000039160000080000202A
:100D20000C0000200000002038B5044600F0C2FA94
:100D300020B900F085FA08B1FFF736FD09480A4AE4
:100D400069460068009000208DF80100204600F000
:100D500011FA08B1FFF728FD0121204600F0BAF989
:100D600038BD000044160000E90B000010B5064A2B
:100D700000210648FFF72AFD002803D0BDE81040F7
:100D8000FFF712BD10BD000011150000481600004D
:100D90004FF0A04202EB80000321C0F8001770471B
:100DA000012282404FF0A043012902D0C3F80C2554
:100DB0007047C3F8082570474FF0A042D2F80435B9
:100DC0000121814021EA0300C2F808051940C2F858
:100DD0000C15704710B531B1B2FBF3F403FB1424CA
:100DE0001CB1092010BD0E2010BD01600021416022
:100DF00081608281C381084610BD70B50C460546EE
:100E0000FFF708FA002802D021882868084470BD3E
:100E100010B50A8849888A4203D1FFF73DFA0120BC
:100E200010BD002010BD70B50C460546FFF717FA3F
:100E3000002802D061882868084470BD10B50A886F
:100E400049888A4203D1FFF701FA012010BD002032
:100E500010BDC20800F007030120895C98400840DB
:100E6000704700F180400068002800D001207047E2
:100E700008B500F18040002101600068009008BDC5
:100E800070B50C4C0125207808B185260BE00020B8
:100E9000A06060602061E060074800F0DDF8064671
:100EA00000F0C4F8257000F0B9F800B1A570304624
:100EB00070BD0000740100204509000070B5104DA0
:100EC0000446A87838B114B1616801208847002031
:100ED000FFF7D4FC0CE00020FFF7D0FC24B1084859
:100EE00021461030FFF7AAFEE86808B900F0C4F800
:100EF000E868401CE860BDE870400020FFF7C0BC17
:100F00007401002070B541EA4201DDE904564FF05A
:100F1000A04441EA830141EA052104EB800041EA53
:100F20000641C0F8001770BD4FF0A04202EB8000F0
:100F3000D0F8002722F44032C0F80027D0F800276C
:100F400042EA0141C0F800177047000038B5094B6C
:100F500044181B6800936B4608E000BF53F820104C
:100F6000D1F8205520C2C1F82055401C8442F5D844
:100F700038BD00004C16000042094FF0000100D1BE
:100F8000491E00F01F00012282400A4201D00120C8
:100F90007047002070470000034908B5084400214D
:100FA00001600068009008BD0060004002494058A0
:100FB000012800D0002070470060004008B50022E2
:100FC00042504058009008BD70B50D460646446832
:100FD00004E0B2682946904718B1246820680028C8
:100FE000F7D120682860256070BD406800687047B0
:100FF00041680868002801D002680A60704702460C
:101000000020526806E08B4203D10868106001207E
:1010100070471A461368002BF5D1704702480068E4
:10102000002800D0012070470004014008480068F3
:10103000012110F0010F06D14FF0E020C02280F80E
:1010400000248430C1670349012008607047000014
:1010500000E100E0180500400649024600200B7937
:101060000BB1852070470A6001220A7100224A7183
:10107000704700001800002070B54FF48270FFF731
:10108000F7FE02204107C1F804030B4B196841F039
:10109000807018600948026842F0010404604468E6
:1010A0004FF40A554668361BAE42FBD30260196006
:1010B00003490120086070BDFCED00E0001000E075
:1010C00008000040002802D001498001084770470D
:1010D000711600002DE9F0410E46054600F002F9B8
:1010E0000028284619D0FFF711FC083800F066F9EF
:1010F000032802D001280ED007E04FF0A040D0F81E
:101100001005E84010F0010F05D003212846BDE886
:10111000F041FFF709BF0221F8E700F0EFF80028DF
:1011200022D02846FFF7F2FB04464FF4807000EB14
:1011300084000E4F81B207EB8400D0F8102542F0F6
:101140000102C0F810250846FFF726FF002E0BD03D
:101150002846FFF7DBFB064951F82000002803D0A2
:101160000120A040C7F80403BDE8F0810060004002
:10117000C00000202DE9FC41DFF8B880044608EBF0
:101180000400002790F924001346C0170E46401CA7
:1011900001D008274AE0B0781946C0F34002204643
:1011A000FFF790FB0546401C3FD0B078410717D4AD
:1011B000C0070AD04FF0A04000EB8400D0F8001721
:1011C00021F00201C0F8001707E0002173782046E3
:1011D00000910A460191FFF795FE204600F074F851
:1011E000B078800718D51448317800EB8500D0F826
:1011F0001025124B1A40C0F810254FF4F8524FF446
:10120000403302EA042203EA01410A43D0F81015F0
:101210000A43C0F8102509E008EB0500327810F801
:101220003C1F41EA8211017000E004273846BDE806
:10123000FC810000C000002000600040FFE0FCFFD7
:1012400070B5194D95F8490008B1082070BD00240B
:10125000661E2046FFF790FE10B1281980F8246022
:10126000641CE4B2202CF4D300242046FFF71CFBBE
:10127000641CE4B2092CF8D300200D4945F8450F51
:101280000A4CC02081F8000401264020891FC1F8C3
:1012900000014FF4BE70FFF77FFEA004C4F8040302
:1012A0002E71002070BD0000C000002000600040D2
:1012B00006E000E0034890F84900002800D0012033
:1012C00070470000C000002010B50549C20800F0BA
:1012D0000703885C01249C402043885410BD000013
:1012E000050100200449084490F92400082801DB86
:1012F0000120704700207047C000002004490844C6
:1013000090F92400082801D201207047002070477E
:10131000C00000202DE9F05FDFF89C8006464FF00A
:10132000A0494FF0010A98F9440000274546401CA7
:1013300037D095F84400314620F0C0042046FFF72E
:1013400088FD08B3384600F039F8834609EB84007D
:10135000D0F80007C0F30147022F16D00221204623
:10136000FFF7E2FD0AFA04F1C9F820152046FFF75D
:10137000CDFA55F820203AB15846BBF1030F0DD0F5
:10138000022F04D0032F06D00BE00321E7E7BBF1C7
:10139000010F03D005E0BBF1020F02D10146204648
:1013A0009047324601210020FFF7D0FD3068002829
:1013B000B9D1BDE8F09F0000C000002002490844F8
:1013C00090F8440080097047C0000020704700007A
:1013D00070B50546FFF75FFB134C40B1D4E904023A
:1013E0004FF08071411842F10000C4E9041000215F
:1013F0002846FFF7CBFA30B1606820B1606800F092
:1014000097F80020606001212846FFF7BFFA18B165
:10141000FFF7D0FBC4E90601284600F0B5F82846DE
:10142000BDE8704000F034B82800002070B50546D3
:1014300000200C460870FFF7BDFBD5E90223101A07
:1014400063EB010300263146361A994112DAB0F5F2
:10145000D40F03D3FFF7B4F90B4942184FF4160326
:1014600000210A48FFF723FB10B10D2806D009E040
:10147000012070BD00210548FFF77EFA284600F0E4
:1014800057F82070002070BDFFFF69003000002079
:10149000F8B51A4C074600261948FFF7A6FDD0B14B
:1014A000616871B1D0E902106268D2E90232C91AEA
:1014B000904120D26068007F18B161681048FFF742
:1014C00083FD00F01FF805466946FFF7AFFF98B1AE
:1014D000606840B10AE0606800280CD13846BDE879
:1014E000F840FFF7E0BA3846FFF7D9FA65609DF893
:1014F00000000028D0D1F8BD6660CDE728000020AC
:10150000581600000148FFF773BD00005816000090
:101510000648017831B94169C90B81604168C160F1
:1015200001210170002141604161704700000020ED
:1015300070B50446124800250078F8B1F4B1207F58
:10154000E0B1FFF737FBD4E90223801A994110D3A9
:101550002069002600B92677D4E90510884720695C
:1015600060B1217F51B1D4E9022110187141C4E961
:10157000020121460348FFF727FD0125284670BDDB
:101580002800002058160000F8B51B4C694620685A
:10159000FFF749FC00260127184D29E0017821B109
:1015A00001290CD002291BD114E041680A7FBAB985
:1015B0000F77416810480830FFF706FD10E04168DA
:1015C0006868814201D16E600AE00B480830FFF77D
:1015D00016FD05E0FFF796FF08B10677FAE72F70D2
:1015E00069462068FFF714FC69462068FFF71BFC7A
:1015F0000028D3D1F8BD00005016000028000020BC
:10160000F8B50B4C0D46064669462068FFF7F5FB1A
:1016100058B10670456069462068FFF70FFC10B1AD
:101620000448FFF725FA0020F8BD0420F8BD0000AB
:1016300050160000300000207047000060000020BD
:101640008000002003000200A000002000000050E5
:101650000C010020000006000000000048000020EF
:101660006109000000000000000000000000000010
:101670000338FDD8704700009816000000000020D5
:101680005C00000058070000F41600005C00002019
:101690002C2100006807000000000000000000008E
:1016A000000000000000000000000000000000003A
:1016B000000000000000000000000000000000002A
:1016C00000000000000000000010014011000400B4
:1016D000000000000000000000000000000000000A
:1016E00000000000000000000000000000000000FA
:0416F0000090D00393
:0400000500000201F4
:00000001FF
