:020000040000FA
:1000000050200020150200001D0200001F02000009
:100010002102000023020000250200000000000071
:1000200000000000000000000000000027020000A7
:1000300029020000000000002B0200002D02000039
:100040002F0200002F0200002F0200002F020000EC
:100050002F0200002F0200005D0200002F020000AE
:100060002F0200002F0200002F0200002F020000CC
:100070002F0200002F0200002F0200002F020000BC
:100080002F0200002F0200002F0200002F020000AC
:100090002F0200002F0200002F0200002F0200009C
:1000A0002F0200002F0200002F0200002F0200008C
:1000B0002F0200002F0200000000000000000000DE
:1000C0002F0200002F0200002F0200002F0200006C
:1000D0002F0200002F0200002F020000000000008D
:1000E0000000000000000000000000000000000010
:1000F0000000000000000000000000000000000000
:1001000000000000000000000000000000000000EF
:1001100000000000000000000000000000000000DF
:1001200000000000000000000000000000000000CF
:1001300000000000000000000000000000000000BF
:1001400000000000000000000000000000000000AF
:10015000000000000000000000000000000000009F
:10016000000000000000000000000000000000008F
:10017000000000000000000000000000000000007F
:10018000000000000000000000000000000000006F
:10019000000000000000000000000000000000005F
:1001A000000000000000000000000000000000004F
:1001B000000000000000000000000000000000003F
:1001C000000000000000000000000000000000002F
:1001D000000000000000000000000000000000001F
:1001E000000000000000000000000000000000000F
:1001F00000000000000000000000000000000000FF
:10020000DFF80CD000F018F8004800470B0700009A
:10021000502000200648804706480047FEE7FEE7DA
:10022000FEE7FEE7FEE7FEE7FEE7FEE7FEE7FEE7A6
:100230000103000001020000064C074D06E0E068E3
:1002400040F0010394E8070098471034AC42F6D31D
:10025000FFF7DAFF700B0000900B00002DE9F84368
:100260000025DFF894804FF4807601242F46009516
:10027000304600F0F5FA38B1D8F80403204203D034
:10028000304600F0E3FA2543361D64007F1CB6B209
:10029000082FEDD34FF4BE74204600F0E1FA48B1C8
:1002A000204600F0D3FA45F000456A4601210020BF
:1002B00000F0A6FA15F0FF0F16D0012600242E42FA
:1002C0000ED008EB8401D1F81005D1F81015C0F359
:1002D00004200A4AC1F3014152F8242002B1904798
:1002E0007600641C082CEAD3002D02DA684600F080
:1002F000DFFBBDE8F8830000006000400400002040
:10030000F0B5B74AB7494FF080541368D4F83001BC
:100310000978D4F83421451CC1F3031106D0844672
:1003200001270025BCF1060F03D00AE003F0FF0C03
:10033000F6E7B4F82463DFF8B0C2C6F30426CCF8BD
:100340000060DEB2062E06D1032904D1DFF8A0C278
:10035000A64ECCF87460461C04D08446BCF1060F4F
:1003600003D00AE003F0FF0CF8E7D4F84462DFF8AA
:1003700084C2C6F34236CCF80060DEB2062E08D145
:10038000032906D19C4ED6F800C02CF0807CC6F81C
:1003900000C0461C04D08446BCF1060F03D00BE01D
:1003A00003F0FF0CF8E74FF08046C6F80C51C6F892
:1003B0001051904E361F3560DEB2062E08D103294B
:1003C00006D1DFF830C203260CF1640CCCF80060D3
:1003D000DEB2062E11D103290FD1DFF820C2052687
:1003E000CCF80060854E78363760844E083635602C
:1003F0000CF1040C3F26CCF80060461C06D0844665
:100400004FEA0206BCF1060F04D081E003F0FF0CB6
:100410000E46F7E7032E7BD0042E79D0784E36684F
:10042000DFF8E0C1CCF80060754E361D36680CF17F
:10043000040CCCF80060724E083636680CF1040CDF
:10044000CCF800606E4E0C3636680CF1040CCCF81B
:1004500000606B4E103636680CF1040CCCF800606E
:10046000674E143636680CF1040CCCF80060644E0C
:1004700018363668DFF88CC10CF1200CCCF800601F
:100480005F4E1C3636680CF1040CCCF800605C4EF4
:10049000203636680CF1040CCCF80060584E243637
:1004A00036680CF1040CCCF80060554E28363668DE
:1004B0000CF1040CCCF80060514E2C3636680CF16F
:1004C000040CCCF800604E4E30363668DFF834C18C
:1004D0000CF1400CCCF80060494E343636680CF113
:1004E000040CCCF80060464E383636680CF1040C2B
:1004F000CCF80060424E3C3636680CF1040CCCF867
:1005000000603F4E403636680CF1040CCCF80060B9
:10051000461C05D04FEA000CBCF1060F03D008E0E2
:1005200003F0FF0CF8E7D4F85842374E04F04F04BC
:100530003460441C03D00346062B02D008E0DBB233
:10054000FAE732490B68DB0702D06FF001030B605A
:1005500006280AD1032A08D0042A06D0052A04D086
:100560002B48016841F480610160234874380168B8
:1005700041F470010160BFF34F8FBFF36F8F4FF0F5
:100580001021D1F80002002803DBD1F80402002872
:1005900022DA204A176020480368002BFCD015237C
:1005A000C1F800320468002CFCD0C1F804320168A4
:1005B0000029FCD0156001680029FCD0BFF34F8FE3
:1005C0000D48F0380168154A01F4E06111430160FB
:1005D000BFF34F8F00BFFDE7124911480860F0BD1F
:1005E000E00F00F0E80F00F0403501400DF0ADBA2B
:1005F00000C007403C050040FCED00E01056004004
:100600000404001020C50040E40E00400004004037
:100610003C17004004E5014000E401400400FA05F5
:100620000090D0030000002002E008C8121F08C19B
:10063000002AFAD170477047002001E001C1121F63
:10064000002AFBD17047000072B609480068C00755
:1006500000D000BEBFF34F8F0548E4380168054A5B
:1006600001F4E06111430160BFF34F8F00BFFDE76C
:10067000F0ED00E00400FA050EB500210091CDE98F
:1006800001106A4644F20100FFF7DEFF0EBD0000D4
:1006900005494FF0FF32082841F8202002D30844D2
:1006A00080F83C207047000004000020F0B54FF0B7
:1006B000FF3512B10023082601E0082309260C4C5F
:1006C00005E000BF54F823707F1C04D05B1CB342CC
:1006D000F8D32846F0BD26185DB286F8245044F8B9
:1006E0002310002AF5D1E11881F83C00F1E7000061
:1006F000040000200249084490F9240070470000DB
:1007000004000020112000F041B8112000F02AF868
:100710000021112000F02EF80D2000F001F8FEE776
:1007200038B5044600F094F920B900F057F908B143
:10073000FFF7A2FF09480A4A6946006800900320B3
:100740008DF80100204600F0E3F808B1FFF794FFB0
:100750000121204600F08CF838BD0000680B000035
:10076000050700004FF0A04202EB80000321C0F813
:1007700000177047012282404FF0A043012902D0A8
:10078000C3F80C257047C3F8082570474FF0A04206
:10079000D2F804350121814021EA0300C2F808059E
:1007A0001940C2F80C157047C20800F00703012079
:1007B000895C98400840704770B541EA4201DDE924
:1007C00004564FF0A04441EA830141EA052104EBBD
:1007D000800041EA0641C0F8001770BD4FF0A0420A
:1007E00002EB8000D0F8002722F44032C0F8002746
:1007F000D0F8002742EA0141C0F800177047000016
:1008000038B5094B44181B6800936B4608E000BFDD
:1008100053F82010D1F8205520C2C1F82055401CB3
:100820008442F5D838BD00006C0B000042094FF03F
:10083000000100D1491E00F01F00012282400A423F
:1008400001D001207047002070470000034908B51F
:100850000844002101600068009008BD006000406D
:1008600002494058012800D0002070470060004035
:100870002DE9F0410E46054600F002F90028284611
:1008800019D0FFF737FF083800F066F9032802D0C7
:1008900001280ED007E04FF0A040D0F81005E84046
:1008A00010F0010F05D003212846BDE8F041FFF705
:1008B00095BF0221F8E700F0EFF8002822D0284683
:1008C000FFF718FF04464FF4807000EB84000E4FD2
:1008D00081B207EB8400D0F8102542F00102C0F885
:1008E00010250846FFF7B2FF002E0BD02846FFF771
:1008F00001FF064951F82000002803D00120A04044
:10090000C7F80403BDE8F081006000400400002047
:100910002DE9FC41DFF8B880044608EB040000270D
:1009200090F924001346C0170E46401C01D008273A
:100930004AE0B0781946C0F340022046FFF7B6FE01
:100940000546401C3FD0B078410717D4C0070AD0F5
:100950004FF0A04000EB8400D0F8001721F0020116
:10096000C0F8001707E000217378204600910A467E
:100970000191FFF721FF204600F074F8B07880075E
:1009800018D51448317800EB8500D0F81025124BAB
:100990001A40C0F810254FF4F8524FF4403302EAE1
:1009A000042203EA01410A43D0F810150A43C0F8B3
:1009B000102509E008EB0500327810F83C1F41EAE9
:1009C0008211017000E004273846BDE8FC81000078
:1009D0000400002000600040FFE0FCFF70B5194DEE
:1009E00095F8490008B1082070BD0024661E204615
:1009F000FFF71CFF10B1281980F82460641CE4B2D2
:100A0000202CF4D300242046FFF742FE641CE4B2FD
:100A1000092CF8D300200D4945F8450F0A4CC02099
:100A200081F8000401264020891FC1F800014FF41D
:100A3000BE70FFF70BFFA004C4F804032E71002062
:100A400070BD0000040000200060004006E000E0EF
:100A5000034890F84900002800D0012070470000AA
:100A60000400002010B50549C20800F00703885CA7
:100A700001249C402043885410BD00004900002000
:100A80000449084490F92400082801DB012070473C
:100A900000207047040000200449084490F9240015
:100AA000082801D201207047002070470400002070
:100AB0002DE9F05FDFF89C8006464FF0A0494FF02B
:100AC000010A98F9440000274546401C37D095F8A4
:100AD0004400314620F0C0042046FFF765FE08B30D
:100AE000384600F039F8834609EB8400D0F8000757
:100AF000C0F30147022F16D002212046FFF76EFEF9
:100B00000AFA04F1C9F820152046FFF7F3FD55F85D
:100B100020203AB15846BBF1030F0DD0022F04D06C
:100B2000032F06D00BE00321E7E7BBF1010F03D051
:100B300005E0BBF1020F02D1014620469047324644
:100B400001210020FFF75CFE30680028B9D1BDE824
:100B5000F09F0000040000200249084490F844007F
:100B600080097047040000200200020000000050CD
:100B7000900B000000000020040000002806000088
:100B8000940B0000040000204C20000038060000F8
:040B90000090D003FE
:0400000500000201F4
:00000001FF
