:020000040002F8
:10600000E8640020C5630200CD630200CF63020094
:10601000D1630200D3630200D563020000000000D8
:10602000000000000000000000000000D763020034
:10603000D963020000000000DB630200DD630200A0
:10604000DF630200DF63020071670200DF630200AA
:10605000DF630200DF630200AD650200DF63020060
:10606000DF630200DF630200DF630200DF63020020
:10607000DF63020051660200DF630200DF6302009B
:10608000DF63020079660200DF630200DF63020063
:10609000DF630200DF630200E9660200DF630200E3
:1060A000DF630200DF630200DF630200DF630200E0
:1060B000DF630200DF630200000000000000000058
:1060C000DF630200DF630200DF630200DF630200C0
:1060D000DF630200DF630200DF63020000000000F4
:1060E00000000000000000000000000000000000B0
:1060F00000000000000000000000000000000000A0
:10610000000000000000000000000000000000008F
:10611000000000000000000000000000000000007F
:10612000000000000000000000000000000000006F
:10613000000000000000000000000000000000005F
:10614000000000000000000000000000000000004F
:10615000000000000000000000000000000000003F
:10616000000000000000000000000000000000002F
:10617000000000000000000000000000000000001F
:10618000000000000000000000000000000000000F
:1061900000000000000000000000000000000000FF
:1061A00000000000000000000000000000000000EF
:1061B00000000000000000000000000000000000DF
:1061C00000000000000000000000000000000000CF
:1061D00000000000000000000000000000000000BF
:1061E00000000000000000000000000000000000AF
:1061F000000000000000000000000000000000009F
:10620000DFF810D000F094F900480047159602001E
:10621000AFF30080E864002030B450E8012F93B25F
:10622000C48923448489A34228BF1B1B0489A34239
:1062300002BFBFF32F8F002007E0C3EA020340E84C
:106240000134002CE9D14FF001000A6030BC7047E6
:1062500050E8012FC2EA024240E801210029F7D1AB
:10626000704730B450E8022F1FFAA2F3C488A3424B
:1062700002BFBFF32F8F00200DE0C489234484891F
:10628000A34228BF1B1BC2EA034340E80234002C90
:10629000E8D14FF001000A6030BC704750E8022F8F
:1062A000C2EA224240E802210029F7D170470346A2
:1062B00053E8022FD988B2EB324F4FF0000017BFDE
:1062C00092B241EA014142EA014104E05A68B2EB6C
:1062D000324F08BF012043E80212002AE8D170477C
:1062E00030B4044654E8000F0D4644E80053002B38
:1062F000F8D1156030BC704730B4044654E8000F44
:1063000040EA010544E80053002BF7D1156030BC8A
:10631000704730B4044654E8000F00EA010544E831
:106320000053002BF7D1156030BC704730B40446E1
:1063300054E8000F80EA010544E80053002BF7D130
:10634000156030BC704730B4044654E8000F00EBD1
:10635000010544E80053002BF7D1156030BC7047AD
:1063600030B4044654E8000FA0EB010544E80053A4
:10637000002BF7D1156030BC704770B404464FF065
:10638000000054E8006F0D68AE4207BF44E80023E8
:10639000012044E800630E60002B1CBF0020F0E7E2
:1063A00070BC704730B4044654E8000F88422CBFDC
:1063B000451A054644E80053002BF5D1156030BC62
:1063C000704700000648804706480047FEE7FEE7A2
:1063D000FEE7FEE7FEE7FEE7FEE7FEE7FEE7FEE795
:1063E000ED660200016202002DE9F05F0546002023
:1063F00092469B4688460646814640241BE0284636
:1064000041464746224600F082F853465A46C01A93
:10641000914110D311461846224600F016F82D1A65
:1064200067EB01084F4622460120002100F00DF8DD
:1064300017EB00094E41201EA4F10104DFDC4846A1
:1064400031462A464346BDE8F09F202A04DB203A25
:1064500000FA02F1002070479140C2F1200320FAB7
:1064600003F319439040704700487047ACE70200BF
:1064700040EA01039B0703D009E008C9121F08C0C6
:10648000042AFAD203E011F8013B00F8013B521E46
:10649000F9D27047D2B201E000F8012B491EFBD2BD
:1064A00070470022F6E710B513460A46044619461F
:1064B000FFF7F0FF204610BD421C10F8011B002919
:1064C000FBD1801A704710B5002200E0521C835C9B
:1064D0008C5CA34201D1002BF8D1D8B2E1B2401AB2
:1064E00010BD30B504460020034600E05B1C93421B
:1064F00003D2E05CCD5C401BF8D030BD034611F800
:10650000012B00F8012B002AF9D118467047202AE8
:1065100004DB203A21FA02F00021704721FA02F34D
:10652000D040C2F120029140084319467047000054
:10653000064C074D06E0E06840F0010394E80700D0
:1065400098471034AC42F6D3FFF75EFE68F30200C2
:1065500088F3020070B58C1810F8015B15F0070382
:1065600001D110F8013B2A1106D110F8012B03E0EC
:1065700010F8016B01F8016B5B1EF9D12B0705D4F4
:106580000023521E0DD401F8013BFAE710F8013B3D
:10659000CB1A921C03E013F8015B01F8015B521E59
:1065A000F9D5A142D8D3002070BD00002DE9F843F1
:1065B0000025DFF894804FF4807601242F46009563
:1065C000304604F077FB38B1D8F80403204203D0FA
:1065D000304604F065FB2543361D64007F1CB6B2CF
:1065E000082FEDD34FF4BE74204604F063FB48B18E
:1065F000204604F055FB45F000456A460121002085
:1066000004F01EFB15F0FF0F16D0012600242E42C9
:106610000ED008EB8401D1F81005D1F81015C0F3A5
:1066200004200A4AC1F3014152F8242002B19047E4
:106630007600641C082CEAD3002D02DA684606F0C6
:1066400053FCBDE8F883000000600040FC490020D6
:10665000064882B00021016000680090044800688C
:106660000449C0B2496802B00847000000D10040A8
:1066700008D500405040002002490248091F09681F
:10668000006808479840002000F078B870B50E46C2
:10669000144900EB400001EBC0051446E86A1835C8
:1066A00020B101280FD0022805D113E0284600F0C0
:1066B00099F8A04201D2002411E022463146284632
:1066C00000F0C8F80BE0284600F08CF8A042F4D2A5
:1066D0000446F2E73146284600F08FF8044620468B
:1066E00070BD00006052002005F00CBA1B4800B5D8
:1066F000016841F470010160BFF34F8FBFF36F8FEA
:106700004FF01022D2F80002002803DBD2F8040276
:1067100000281FDA012005F085FC1521C2F80012BF
:106720000F480368002BFCD0C2F80412016800294E
:10673000FCD0002005F076FCBFF34F8F07487C3873
:106740000168084A01F4E06111430160BFF34F8F13
:1067500000BFFDE705490448086000BD88ED00E082
:1067600000E401400400FA050090D00344410020F9
:1067700001480068004700004840002010B5124C56
:1067800002202061606111A0A06104F17800E06145
:106790004FF4007020620020A06260620BA1A1642F
:1067A000E06204F51E71E1641021A065C4E91410D3
:1067B000E06509A1E01DFFF7A1FE08A12046FFF753
:1067C0009DFE2020A07110BD605200205465726DA6
:1067D000696E616C000000005254540053454747F5
:1067E000455200000269C1688A4203D88068401A95
:1067F000104400E0501A401E70472DE9F047C4686D
:106800001746894606464FF000083069A04201D974
:10681000051B02E0B168201A0D1AB0686D1E001B3E
:10682000A84200D80546BD4200D33D4670682A46BE
:1068300020444946FFF71CFEB0687F1B2C44A84447
:10684000A944A04200D10024F460002FDDD14046CD
:10685000BDE8F0872DE9F04104468846D4E90207F7
:10686000C51BE168606816460844B54206D9414632
:10687000FFF7FEFDB819E060BDE8F0812A46414609
:10688000FFF7F6FD761B08EB050132466068FFF75F
:10689000EFFDE660F0E702E008C8121F08C1002A19
:1068A000FAD170477047002001E001C1121F002A91
:1068B000FBD170470121202803DA814005480140BF
:1068C00003E0402802DA2038814009B101207047F6
:1068D00000207047FC06FFBD800701D000207047F4
:1068E00001207047C3688B4206D811440069491ED5
:1068F000814201D8012070470020704790F82400A1
:10690000012801D01F207047EE20704710B50122EA
:106910000221002001F07EFA08B1072810D10722D9
:106920000221012001F076FA08B1072808D10021E0
:106930000A22084601F06EFA08B1072800D10020AB
:1069400010BD022001F0A6B970B50024064D06E086
:106950006868012110F8340005F098F9641C287863
:106960008442F5D3002070BD58400020F8B516468B
:106970000C4605460A2A01D20720F8BD05F080FA28
:1069800018B905F043FA0028F7D1134F1021134826
:106990007D603C70BE60FFF784FD0020C7E9040005
:1069A0000F4E0DE005EBC4003168009181788DF841
:1069B000011000780B4A694605F0B8F90028DCD1CF
:1069C000641EE4B2EED2BDE8F84005480021064A54
:1069D000001D00F05FB8000058400020784A0020F9
:1069E00040E402002D920200C987020010B572B681
:1069F00004F03CFC04F02CFA0028FBD111481249A9
:106A0000401AC408012000EB044010A104F08EFBE2
:106A100011480068C00700D000BE022000EB04400F
:106A20000EA104F083FBBFF34F8F0B48E4380168DD
:106A30000E4A01F4E06111430160BFF34F8F00BFC4
:106A4000FDE7000028F4020098F30200466174613B
:106A50006C206572726F7200F0ED00E05379737410
:106A6000656D207265736574000000000400FA050E
:106A70000EB500210091CDE901106A4644F20100F3
:106A8000FFF7B4FF0EBD0000014801F0EEBF0000AB
:106A9000784000203AB100680129426100D000210D
:106AA00001610020704707207047000038B5114889
:106AB00008235822416800910F49006802F0CBFF7B
:106AC000002815D10D4A69460D4801F0D3FF040096
:106AD0000ED101210A4802F048F80123094A19465B
:106AE000074801F09AFF064901200839087020463E
:106AF00038BD000048E40200984A00209DD90200F9
:106B000078400020FFFF7F0070B50446007F0D46EF
:106B100008B1002070BDA26102F06EFB401941F186
:106B20000001C4E90201206900B125612146BDE8E8
:106B30007040002007F024BA0146002008770120A9
:106B400007F01EBA30B5EFF3108172B60D4A9468A3
:106B5000012324B10370002900D162B630BD9360D7
:106B60004FF0E023D3F88051074C25401560C3F85F
:106B70008041D3F8844154605A17C3F8842100221D
:106B80000270E8E7F04A0020FC06FFBD0B498A6866
:106B9000002A11D000280FD1EFF3108072B60B68D5
:106BA0004FF0E022C2F800314B68C2F804310022F5
:106BB0008A60002800D162B670470000F04A0020C9
:106BC00070B51500044609D00020286034B1206853
:106BD00020B1A079800703D0072070BD0E2070BDC2
:106BE000084600F083FBC0B2142804D0217981420A
:106BF00003D8042070BD052070BDE288216800FB29
:106C000002102860002070BD2DE9FC470025178880
:106C10000646158090F82D001446894630B13A4654
:106C20002146484600F0FCFB051E09D1B0784FF024
:106C30000C0A18B32088C846001DB84202D9504635
:106C4000BDE8FC87684679DF0028F9D12088032158
:106C500008F8001020881921401C80B2208008F814
:106C600000102088401C80B2208000EB0801BDF895
:106C7000000007F0ADF9218808442080F078022256
:106C8000C8B1218896F9033001F1030C4846BC4590
:106C9000D5D8425421884FF0010C491C89B221807B
:106CA00000F801C02188491C89B2218009F801300F
:106CB0002088401C20807068B8B1218890F900308D
:106CC00001F1030C4846BC45B9D8425421880A2238
:106CD000491C89B2218042542188491C89B22180F3
:106CE00009F801302088401C2080308950B1CDE95E
:106CF00000474B460622022106F1080007F02AFA57
:106D0000051E9DD1308A50B1CDE900474B46072280
:106D1000032106F1100007F01DFA051E90D1308BFB
:106D200050B1CDE900474B461522142106F1180059
:106D300007F010FA051E83D1306A30B13B46224677
:106D4000494601F0AFFB051EDBD1706A30B13B460E
:106D50002246494602F0A2FD051ED2D196F82C002B
:106D600038B13B4622464946304606F091FF051EA3
:106D7000C7D1307838B13B4622464946304602F00A
:106D800017FE051EBDD128465AE7F8B506464FF056
:106D900000001500ADF8000015D009236A46304602
:106DA00000F025F80446BDF80000064458B154B17F
:106DB0002846FFF781FBA04205D1224631462846EE
:106DC000FFF78FFB08B10020F8BD0120F8BD18B512
:106DD00004460020ADF8000013466A46204600F045
:106DE00006F8002802D0BDF80000204418BD70B598
:106DF000E0B1DAB1002402E0045D2C44A4B2651CC9
:106E00008D4206D21688A642F6D8061976789E429A
:106E1000F2D18C420AD2A31C005D9BB200B1401E8D
:106E20000004000C02D01C188C4201D9002070BD57
:106E3000138070BD2DE9F0418AB006460020ADF800
:106E400014001346102088468DF804000D4606AA4B
:106E500001A9184664DFA6B398BB9DF80400022878
:106E600004D0042807D0102839D10DE003208DF874
:106E70001000022003E005208DF8100004208DF89A
:106E80001100002404AF0FE007208DF81000062049
:106E9000F5E73B5D05AA41463046FFF7A8FF641CB5
:106EA000E4B20546022C04D2BDF814000028F0D04C
:106EB00003E0BDF81400002812D080B2064400247C
:106EC0000BE00CE030199DF8042006A9FFF709FB40
:106ED00048B19DF80400204484B2AC42F2D30020B3
:106EE0000AB0BDE8F0810120FAE780F83010704761
:106EF0002DE9F0410D00044606D02CB195F87A003A
:106F00000026012803D006E00E20BDE8F08195F8A8
:106F10009800012829D0D5F8A000042825D0D5F85C
:106F20009C00042821D04FF00108A6702C2205F106
:106F30007801201DFFF79CFA84F83060D5F8A40092
:106F40006063D5F8A800A0634FF6FF70A4F824048E
:106F500004F58260C4F82004C4F82664A4F82A6406
:106F600084F82C64207810B104E00720CDE7FF20DE
:106F700084F8540004F155072046C4F81074FFF754
:106F8000BDFCA4F8140404F2144239462846FFF765
:106F90003BFE0028B9D104F23120C4F81804204681
:106FA000FFF7ACFCA4F81C0404F21C4205F13C0001
:106FB000D4F81814FFF728FE0028A6D184F85180D1
:106FC000208BA4F8480084F83C80266484F8506044
:106FD000606900216064454604F13C02781E72DF5E
:106FE000002892D1257090E710B50288102A1BD096
:106FF000112A20D0262A1DD1007A0C46012801D062
:10700000022817D1A0780521401CB0FBF1F201FB4A
:107010001201204600F01DF800280BD0A16B0029BA
:1070200008D0BDE810400847C27B012A02D1808801
:10703000A1F8240410BD0C46002184F82E14808889
:10704000B4F824148842F5D120790028F2D1012126
:10705000DFE72DE9F05F044600780F4698B1A7708E
:107060000025C4F82654A4F82A5484F82C54A07996
:10707000012608B1012F09D0E07980B1012F05D098
:10708000022F03D00BE00820BDE8F09F616B21B117
:1070900084F82D640820884701E084F82D5404F218
:1070A000274100200A5C0AB1304603E0401C062854
:1070B000F8D300204FF002084FF0030B012F06D049
:1070C000022F0CD0032F0FD0042F15D110E0A1797F
:1070D00029B194F8241011B908B130460DE0E179D6
:1070E00011B108B1404608E0207A08B1584604E0E2
:1070F000607A08B1042000E02846A070616B41B1BD
:10710000032801D0042804D1607910B194F82E042A
:1071100098B184F82F5404F13C0018210746FFF77A
:10712000C0F984F83C6004F12C0005F0ADFE58B1C4
:1071300094F82C0084F8510008E084F8305484F866
:107140002F6407208847E6E784F8516094F824000C
:1071500058B104F1280005F097FE20B194F82800FA
:1071600084F8520001E084F8526084F85050A2780C
:1071700004F2264104F582694FF0060A052A64D21A
:10718000DFE802F07C030F22420084F83160C4F88B
:107190002054C4E9101584F83C808020A4F84800ED
:1071A00055E084F8318094F82420384612B1072243
:1071B000027001E080F800B0228A8281C4F8205475
:1071C0004160E168B96042E06069B860208BB881D5
:1071D00094F824003D460028204602D084F83CA0C4
:1071E00001E084F83C6006F087FF50B185F8148018
:1071F0000421204601F035FE38BB052184F831100A
:1072000021E084F831B01EE0E069B860208CB881DC
:1072100094F824003D460028204602D084F83CA083
:1072200001E084F83C6006F067FF48B185F81480FF
:107230000421204601F015FE38B984F831A002E09F
:10724000042084F83100C4F82094A07878B13A463C
:1072500004F15400D4F8201472DF00287FF414AF36
:1072600094F8301094F8540073DF0028F6D1616B65
:1072700011B194F831008847002005E784F83150B7
:10728000F5E7000070B5040012D001461C22144836
:10729000FFF7EEF81248134D0560206850B17ADF11
:1072A000002806D12068016829604068686005E010
:1072B0000E2070BD0B487BDF0028FAD108484FF63E
:1072C000FF711438084A20F8041B0549343901605D
:1072D0000021FFF7DFFB0028EBD0032070BD00008A
:1072E000FC4800202C40002091E0020010B504462C
:1072F00000F018F808B1204610BD142010BD0000A1
:1073000070B50546002400F00DF838B12946044850
:1073100002F0EBFB08B1022400E00124204670BD1E
:1073200024490020142801D3002070470146014859
:1073300002F0DBBB1C49002070B540B10C4D297830
:1073400039B1044606F0DEF928B1002070BD0E20E8
:1073500070BD082070BDE868062807D2054922687C
:1073600001EB8001401C0A60E860EEE7042070BD7C
:10737000344000209449002010B558B103684BB147
:1073800042683AB1044900200124C8600C70C1E988
:10739000013210BD0E2010BD34400020002827D03F
:1073A000002925D0134A1278002A21D00A460188E4
:1073B000112911D0302907D0322909D0332917D10A
:1073C000011D104605F088BA011D104605F000BCED
:1073D000011D104605F056B88088B2F8CA128842DE
:1073E00006D1002082F8C8024FF6FF70A2F8CA0248
:1073F000704700003440002048B1084A137843B178
:10740000D26832B190F8C8222AB1112070470E20FC
:1074100070470820704701F095BA00003440002002
:107420007CB5054608880C460930904201D90C20ED
:107430007CBD68466DDF0028FAD121880820685499
:1074400020881B21401C80B2208029542088401CA9
:1074500080B220802844DDF801100160BDF80510DD
:1074600081802088801D80B220809DF8001049080E
:1074700000D0012129542088401C208000207CBDA0
:107480002DE9F843044680888046FFF739FF074618
:107490002088102818D1DFF88C9004F10806002508
:1074A00019F8351069B109EBC500327841784908FF
:1074B000B1EB520F05D10622711C801CFFF711F8A9
:1074C00090B16D1C022DEBD32146404604F0C0FE66
:1074D000012F21D0022F02D020881D2817D120464D
:1074E000BDE8F84304F0C4BDCDF80080012F10D0F2
:1074F0000DA310A211481249401AC008032101EB44
:107500000040104903F025FE1321404676DFBDE818
:10751000F88308A304A2EDE72046BDE8F84304F091
:107520001DBF000044480020504552495048455274
:10753000414C000043454E5452414C0028F4020097
:1075400098F30200B0E7020010B51A4C0188606899
:1075500010290ED011292BD1401E606028D1FFF7D1
:10756000D5F9002824D02168002921D0BDE8104099
:107570000847D0B900210122084600F04BFC08B1B1
:1075800007280FD107220221012000F043FC08B197
:10759000072807D104220221002000F03BFC20B183
:1075A000072802D0216801B188476068401C6060EC
:1075B00010BD0000244000202DE9F04701883B4E1B
:1075C00040F2F3194FF6FF7510291BD011293ED058
:1075D000122954D0502946D1C188F289841D914284
:1075E00041D1618902293ED18688304601F0C0FE32
:1075F000050038D004F10C0000F00EFBA8B32946BA
:1076000030464EE0C17B8788044601292BD1A8462D
:10761000284601F0ADFE050017D02F80002028720B
:10762000234843464A460168C5F80A104068C5F831
:107630000E0004F1100105F10A0001F010FF68725C
:10764000F08900280FD129462AE0042013E0808821
:1076500001F08EFE040006D06068FFF76DFA08B1F5
:1076600006F0E6FA2580BDE8F087FFE76868FFF7D7
:1076700063FA0028F7D0BDE8F04706F0D9BA87884A
:107680000646384601F074FE0400ECD02B464A460C
:1076900006F1080104F10A0001F0E1FE60722146E2
:1076A0003846BDE8F04700F043BF0000FC4800202A
:1076B0002C4000202DE9F04F04468688018842487E
:1076C00097B0834610290CD0112950D010301929B9
:1076D0006AD01A2974D1217A0C09042C4DD30122C5
:1076E0004CE0394D083DA868C0430B9069680BA871
:1076F00002F022FA0B990CA800F0B5FE2C220CA97E
:107700006846FEF7B5FE0027E946A84610E000BF30
:1077100009EB47005FF00005B0F804A008EB850016
:107720005146001D02F0D6F96D1C1E2DF6D37F1CAC
:107730000098B842ECD8142E05D317B00420BDE849
:10774000F04FFFF795B93146584602F0D9F9314666
:1077500008F1040002F0D4F9E07B022830D117B020
:107760003146BDE8F04F1848001D02F0C9B917B006
:107770003146BDE8F04F02F0ADB90022314601F0CC
:107780006BFB032C01D3012200E000220E4831469E
:107790000C3001F061FB022C01D3012200E0002239
:1077A00009483146083006E0217A002908D1617A7B
:1077B000C1F3C002314617B0BDE8F04F01F04CBB39
:1077C00017B0BDE8F08F00002049002070B50646D4
:1077D0001E481F4A0D460B780321801AC00801EB92
:1077E00000445BB1012B22D0022B2DD1204619A1E0
:1077F00003F09CFCBDE8704006F0A4B9204619A136
:1078000003F094FC698805F10E02304600F05CF844
:1078100008B1FFF72DF9304600F022F908B1FFF763
:1078200027F92046BDE8704013A103F07FBCAE6885
:10783000AD8920461CA103F079FC20462A4631463A
:10784000BDE8704003F01EBC70BD000028F40200CB
:1078500098F30200446973636F6E6E6563746564C8
:107860002E000000446973636F7665727920636F40
:107870006D706C6574652E00436F6E6E6563746524
:107880006420746F20646576696365207769746825
:10789000204E6F72646963205541525420536572C3
:1078A000766963652E0000005265636569766564DC
:1078B00020646174612066726F6D207065726970FA
:1078C000686572616C00000050B141802AB1538834
:1078D000C3801388838092880281406902F03CBA99
:1078E0000E20704730B5144B0D4604000FCB85B009
:1078F0008DE80F001ED0EDB1A868D8B121466846CA
:1079000062DF002814D120788DF812000120ADF834
:1079100010004FF6FF7060802868E06068682061A2
:107920000020A0802081A868606104A8FFF704FD02
:1079300005B030BD0E20FBE72CE4020030B5024656
:1079400085B008002DD0002A2BD041884FF6FF7457
:10795000A14226D09388994223D11588112D22D097
:10796000392D1ED1818800291BD053898B4218D113
:10797000C168002915D001218DF8001002F1100115
:107980000291D189ADF80C10C268694690470C4845
:107990000C49401AC008042101EB00400AA103F081
:1079A000C5FB05B030BD8B42FBD1C1680029F8D0C2
:1079B00002218DF800104480C26869469047F0E7C4
:1079C000C0F3020098F30200436C69656E74207383
:1079D000656E64696E6720646174612E000000004A
:1079E00030B585B00C46054614216846FEF759FDB2
:1079F000207804F10E01002830D1A08801282DD173
:107A0000A0792A78904229D1002217E002EBC20027
:107A100031F81030022B02D0032B0ED105E001EB20
:107A200040000089ADF8120007E001EB4000038937
:107A3000ADF80E304089ADF81000521C207A90420B
:107A4000E4D8E868002809D06088ADF8020000207A
:107A50008DF80000EA6869462846904705B030BDB9
:107A600010B58AB058B34188A1F57F42FF3A28D0BB
:107A7000C18831B3044620216846FEF712FD01217A
:107A80008DF8201000208DF821000F4ACDE9022446
:107A90008DF80010E288ADF812200222ADF8162011
:107AA000ADF814008DF8101008A88DF8111006908C
:107AB00062886946606902F0ABF90AB010BD0E2019
:107AC000FBE70820F9E70000918E020070B5334D06
:107AD00004008EB02DCD08AE86E82D005BD0E9B352
:107AE0000868A061214608A862DF002851D12078EB
:107AF00001258DF83200ADF83050A21C0CA92846A3
:107B0000A8DF002845D120216846FEF7CAFC0220E4
:107B1000ADF8000020788DF802008DF80C509DF82B
:107B20000D00F426ADF8046040F00C008DF8115003
:107B3000ADF806508DF80D008DF81250608804F1F4
:107B40000C02694600F076FB002822D1202168460D
:107B5000FEF7A7FC0320ADF8000000E01BE0207852
:107B60008DF802008DF80C509DF80D008DF8115025
:107B7000ADF8046040F010008DF81250ADF80650DA
:107B80008DF80D008DF813506088221D694600F0B5
:107B900051FB0EB070BD0E20FBE700001CE402009C
:107BA00030B587B00446002928D0002C26D00846DE
:107BB0002188102924D0502928D057291ED10546C4
:107BC000A18840696A46FEF7FBFF002816D100989D
:107BD0000078002812D0A86900280FD0182101A829
:107BE000FEF75FFC01208DF804000295A088ADF837
:107BF0000C0000980490A96901A8884707B030BD1F
:107C000007B02146BDE8304004F0E4BC07B021468F
:107C1000BDE8304005F0C8B8007800F001007047BA
:107C20000649095C4FF0A040D0F81005C84010F09C
:107C3000010000D0012080F0010070473FE3020006
:107C40002DE9FC410646C0074FF000050ED0104F4D
:107C500000240122385D009500231146019502F0B1
:107C6000B9FF641C042CF4D300F044F8B0070DD520
:107C7000074E0024361D0022305D03230095114677
:107C8000019502F0A7FF641C042CF4D3BDE8FC812D
:107C90003BE3020007490B5C4FF0A041D1F80425FB
:107CA0000120984020EA0203C1F808351040C1F8CD
:107CB0000C0570473BE302000249085C002102F01A
:107CC000E4BF00003BE302000249085C012102F02E
:107CD000DCBF00003BE302000549095C4FF0A04017
:107CE000D0F80405C84010F0010000D00120704712
:107CF0003BE3020010B500242046FFF7DDFF641CC3
:107D0000042CF9D310BD10B500242046FFF7DCFF8A
:107D1000641C042CF9D310BD10B50246064B4FF07D
:107D2000FF3000215C5C944201D1084610BD491C23
:107D30000429F7D310BD00003FE3020070B50C4EDC
:107D40000C004FF0000530600BD0012000F05AF815
:107D500008B1022004E0002000F054F800B10B202C
:107D60002070706810B9FEF7D1FD0546284670BD39
:107D7000244000202DE9F0470D468146FFF7CCFF57
:107D80000446042836D2DFF874801B481C4EA8F144
:107D90000C0725B3012D0ED0022D2BD104EB44008E
:107DA00030444578002D25D0B968002922D02846D6
:107DB000BDE8F047084704EB4401755C0E44717858
:107DC00049B10E4A4FF48041093A8068FEF79CFEA3
:107DD00008B987F80390B17808F80410E2E78068E2
:107DE000FEF7AAFE04EB4401314418F804008D7834
:107DF000A842D7D0BDE8F08744E30200204000202D
:107E000098480020042801D2FFF70ABF00207047DD
:107E10007047000070B50023042810D20D4D00EB10
:107E20004004012A02D101290CD00022094E00EBA6
:107E30004000304461B1012906D0022906D0072351
:107E4000184670BD0E30C2B22A55F9E74270F7E706
:107E50008270F5E79848002070B506461E48002459
:107E6000C0E90161B00720D500250122114628464E
:107E7000FFF7D0FF6D1C0446042D02D2002CF4D075
:107E800013E094B940F2333204211448FEF76EFD3A
:107E900004000AD1FEF758FD040006D10F48104A2D
:107EA0000021001FFEF7F6FD0446F00712D0012066
:107EB000FFF7C6FE74B909480A4A00210C38FEF7DC
:107EC000E9FD040006D10548074A01210838FEF7FC
:107ED000E1FD0446204670BD1440002050E302003E
:107EE000B981020045950200436902002DE9F05F67
:107EF0006E4C054600266078B34618B184F801B090
:107F000001F008FB6A4F4FF47A694FF4C87A4FF0DA
:107F10000108182D69D2DFE805F00C131338475417
:107F2000696E727B727BC58484848484B3B6B9BC69
:107F3000C5C501F0EFFA3868FEF7FEFD06465CE0C5
:107F40000020FFF7C9FE00284FF0000008D0FFF71F
:107F5000B3FE022D02D14FF4E16008E0484606E08E
:107F6000FFF7B2FE022D01D1C82000E05046410CBF
:107F7000C0034FF47A72801841F10001257052005D
:107F80000023FEF731FA01462AE00020FFF7A4FEA5
:107F900000284FF0000004D0FFF78EFE4FF4487029
:107FA000E5E7FFF791FEDFE70020FFF795FE0028E9
:107FB0004FF0000002D0FFF77FFECFE7FFF784FE0F
:107FC000D4E70020FFF788FE00284FF0000002D021
:107FD000FFF772FE01E0FFF777FE257040F6CD4116
:107FE00000223868FEF790FD064646E00020FFF7C5
:107FF00051FE257008E0002051E025703DE084F836
:1080000001800120FFF746FE002240F26661E8E7AA
:1080100084F801800120FFF73DFE00224FF400515B
:10802000DFE77868FEF788FD0646D5F1110000D03D
:108030002EB10220FFF740FE84F802B01DE00128B7
:1080400016D980B2C8214843C117C90341EA50413B
:10805000C0034FF47A72801841F1000152000023EE
:10806000FEF7C2F9014600227868FEF74DFD06468C
:108070000220FFF729FE84F802803046BDE8F09F19
:1080800001F048FAB9E701F045FAB4E701F042FA25
:1080900004E001F03FFA0020FFF716FE0120FFF791
:1080A00013FEAAE7FFF72FFEA7E700001440002009
:1080B00044E302002DE9F84F0546861C00208DF8A8
:1080C000000091460F464FF0010A6846FEF73AFD60
:1080D0001B4C04F21C4860683860D4E90101194F58
:1080E000401A3968081A0EE00121404601F01EFDD1
:1080F00001F03EFA0146404601F018FDD4E90101C5
:10810000401A3968081A401C8642EDD8B9F1000FB0
:1081100003D0052065F3891002E0062065F39F5027
:1081200061683A68114004EB8101C86060683044BE
:1081300060609DF80000FEF729FD5046BDE8F88F0D
:10814000404E0020EC40002070B50D4604460A2940
:1081500002D10D21FFF7F8FFA0682268411CA16041
:108160001554D4E90101814204D32046BDE8704092
:1081700002F03FBA70BD0000044881684068814247
:1081800001D101207047002070470000404E0020C0
:10819000034630B5074800210478426806E000BF76
:1081A00002EBC10005789D4203D0491CA142F7DBD8
:1081B000002030BD5840002000780221FFF7DABDD2
:1081C00005494FF0FF32082841F8202002D3084427
:1081D00080F8482070470000FC490020F0B54FF0BF
:1081E000FF3512B10023082601E008230C260C4CB1
:1081F00005E000BF54F823707F1C04D05B1CB34221
:10820000F8D32846F0BD26185DB286F8305044F801
:108210002310002AF5D1E11881F84800F1E70000A9
:10822000FC4900200249084490F9300070470000E2
:10823000FC4900202DE9F0438146887891B09046B2
:108240000C4600B901208DF83E002088ADF83C00B6
:1082500000250095607C694605F05EFD6E46A07CB9
:10826000711C05F059FDE07B00289DF8020002D04A
:1082700040F0080001E020F008008DF80200217CA9
:1082800011B140F0100001E020F010008DF8020064
:10829000217B11B140F0010001E020F001008DF8D8
:1082A0000200217D09B1022100E0012161F34200B9
:1082B0008DF802001C2102A8FEF7F3F8607BC106CE
:1082C00001D4800617D50E950EAFE07C791C05F021
:1082D00023FD9DF83800079720F00F00401C20F088
:1082E000F00010308DF838009DF83A0020F00600BC
:1082F000801C8DF83A00607B8DF80800A07B8DF81B
:108300000900142109A8FEF7CCF80FA8CDE9090649
:10831000A088ADF83000A06820B1E088ADF82C004E
:10832000A0680D90A06998B301950088ADF8100081
:10833000A06901AD01A94088ADF81200A0694068AC
:1083400006950390A069007B05F0E6FCA069691C16
:10835000407B05F0E1FCA069807A00289DF80600CA
:1083600002D040F0080001E020F008008DF806007F
:10837000A169C97A11B140F0100001E020F01000AD
:108380008DF80600A169097A19B140F0010002E0F8
:108390000DE020F001008DF80600A169897B09B18C
:1083A000022100E0012161F342008DF80600E0693E
:1083B00000B10590434609AA02A94846AADF11B0B8
:1083C000BDE8F08330B589B00D46044620216846EB
:1083D000FEF767F894F8C602002300EB8001C1EBBA
:1083E000801094F8C51204EB400041B1491EC9B297
:1083F00001EBC10100EB4101498A491C00E0C18841
:10840000008961F30F0360F31F4303208DF8000020
:108410000548CDE90204054804932A466946806868
:1084200001F0F6FC09B030BDF588020034400020B0
:1084300010B5D0E90234D1E90220D11AA04101D30C
:10844000012010BD002010BD10B502460020138889
:1084500006E0546834F810408C4203D0401C80B2CF
:108460008342F6D810BD73B58CB00646002000904C
:108470000D9880B100246D4621460DA801F035FB12
:1084800030B1009805EB400084800098401C0090BB
:10849000641C142CF0D32C2269463046FDF7E8FF0B
:1084A0000EB070BD2DE9F04117880646B81D144680
:1084B0000D46984202D90C20BDE8F0813188072290
:1084C00006290AD34FF4486C4FF6FF73614501D972
:1084D000994202D17088062801D21046ECE7604527
:1084E00001D99842F9D1994203D0984201D08142F2
:1084F000F3D80520E85520881221401C80B2208046
:1085000029542088401C80B220804119308805F011
:108510005FFD2188084480B220804119708805F0F1
:1085200057FD2188084420800020C5E7FEF7A0BA47
:1085300038B54A7A0F4B62B100220A725969002994
:1085400006D001228DF80020ADF802006846884769
:1085500038BD0A7A62B19B684C68024619462046CB
:10856000FEF7D2FA0028F3D0BDE8384005F060BB32
:108570005B68F1E7FC480020F0B50C4606461E4853
:108580001E4987B0401AC708042000EB0740334655
:1085900022461BA102F0D5FD002004900590ADF805
:1085A000104001900290ADF8124001AA04A9304693
:1085B00090DF05001DD003F057FB0346012000EBC0
:1085C0000740044632461A4902F0BBFDBDF80420BC
:1085D00012B9BDF8060028B1BDF80630204615A135
:1085E00002F0AFFDBDF808201AB12046214902F083
:1085F000A1FD07B02846F0BDA0F3020098F30200E9
:108600005570646174696E672064617461206C6583
:108610006E67746820746F202575206F6E20636FFD
:108620006E6E656374696F6E20307825782E000059
:10863000F0E90200546865207265717565737465B0
:10864000642054582F5258207061636B6574206CFD
:10865000656E67746820697320746F6F206C6F6E2D
:10866000672062792025752F2575206F63746574E6
:10867000732E00003CEA020001460148FFF7B0B942
:10868000544300202DE9FF410C4620B14FF4064031
:1086900004B0BDE8F0812079002748F2096538B1BF
:1086A00041F61D5601281BD0022826D0681DEFE791
:1086B0000220207102970397E0680190694601A8A3
:1086C00004F084FF50B102988188E1800088208105
:1086D000BDF80010029804F0F7FFD9E72846D7E765
:1086E0000A4B6A460021A01D04F028FF38B1074953
:1086F00018398F61CF61A842CAD13046C8E7034814
:108700008188019804F0E0FFF5E70000B840002000
:108710002DE9F04389B00F46054691462021684671
:10872000FDF7BFFE95F8C60295F8C54200EB800143
:10873000C1EB801005EB400604EBC40006EB4001E2
:108740003279601C0A31904232D108AB00222846AF
:1087500000F0A7FE78B310E0401EA04201D1002037
:1087600004E004EBC40006EB40001C3080460246E7
:1087700008AB284600F095FE90B100203870042028
:108780008DF8000008984A46CDE903500C48029045
:108790000C486946806801F03BFB09B0BDE8F083F6
:1087A00095F8C5024146401C641C85F8C502E4B238
:1087B0003079A042D0D8012038700020EDE70000C9
:1087C000F58802003440002070B500240F4D10E001
:1087D000686800EBC406307803F00EFB717801295D
:1087E00001D0012100E000214140307800F0BAFAC8
:1087F000641C28788442EBDBD5E90401084303D0EC
:10880000BDE8704005F0D8BB70BD000058400020A6
:1088100030B59FB00C4605467C216846FDF741FE09
:10882000ADF8024003208DF800000448019541682E
:10883000002901D0684688471FB030BD3440002071
:108840002DE9F041044690F8C602884600EB80010D
:10885000C1EB801004EB40061746304604F052FF8F
:10886000050042D0D4F8CC0206283ED204EBC0105A
:108870007622A0F8D272D4F8CC02314604EBC010B4
:1088800000F53570FDF7F4FD0026B8F1000F06D0B5
:10889000D4F8CC0204EBC01080F8D06206E0D4F823
:1088A000CC12022004EBC11181F8D002D4F8CC0222
:1088B00004EBC010C0F84C53D4F8CC020C4D401C53
:1088C000C4F8CC02E96888420FD12746002407E0AB
:1088D00007EBC41101F53470D1F84C138847641CC0
:1088E000E8688442F4D3C7F8CC62BDE8F0810000A8
:1088F00034400020F0B515469FB0002281F8C82210
:10890000074691F8C6020C4600EB8002C2EB8010CD
:1089100001EB400004F0F6FE060009D07C22084975
:108920006846FDF7A5FDADF8025068460197B047CF
:108930001FB029462046BDE8F040FFF769BF0000A0
:1089400070E30200F0B50D4689B004464FF4BA61F9
:10895000FDF7A7FD20216846FDF7A3FD1B4E294624
:10896000B06801F0F9F900282DD1A4F8CA52C4F872
:10897000CC0284F8C70284F8C60284F8C502144801
:1089800015492B460068206012482288401AC0080A
:10899000042101EB0040114902F0D3FB0220012722
:1089A0008DF80000ADF810702068CDF812000C486A
:1089B000CDE902042A466946B06801F029FA002888
:1089C00001D184F8C87209B0F0BD00003440002025
:1089D0009449002098F3020098F3020060E9020035
:1089E000F588020010B50021024801F0B5F880F3C7
:1089F000100010BD5C5200204FF480328A400168A4
:108A0000C1F848230068C0F8082370474FF4A072EB
:108A100002EB810189B200F015BA2DE9F04105465B
:108A20000E464FF4A07000EB860081B228684FF428
:108A30008034B440984622F07F47C0F80843286845
:108A4000C0F84843286802F087FE286800EB8600DB
:108A5000C0F840752868C0F84443B8F1000F02D050
:108A60002868C0F80443BDE8F0810068D0F8040528
:108A70007047000070B54379234C44F823204279B5
:108A8000231D03EBC202224C1579204A121BD40885
:108A90002DB10825022000EB04401EA130E005683E
:108AA0000A88C5F8082590F904208978002A4FEA39
:108AB000411104DB02F1E02282F8001405E002F02B
:108AC0000F0202F1E02282F8141D90F90410012235
:108AD000002909DB01F01F0502FA05F549098900A3
:108AE00001F1E021C1F800514179002503EBC101FA
:108AF0000A71417943F83100032000EB04400EA1D4
:108B000002F014FB284670BD9440002000F40200DF
:108B100098F3020052544320696E7374616E63656A
:108B200020616C726561647920696E697469616C39
:108B3000697A65642E0000005254433A20696E69D8
:108B40007469616C697A65642E00000090F9040014
:108B5000002809DB00F01F0201219140400980003C
:108B600000F1E020C0F8001270470A46022100F030
:108B7000EFB84FF4827100F065B90068012101601F
:108B8000704700680121416070472DE9F05F07469A
:108B90000C464FF4A07000EB84001FFA80FA38688E
:108BA0004FF48036A6409B4622F07F45C0F84863CC
:108BB0003868C0F808633868D0F8048500EB840290
:108BC000D2F84095C2F840855146386802F0C4FD9D
:108BD000A9EB080020F07F40012806D1102003F007
:108BE0004DF85146386802F0B7FD3868D0F8048572
:108BF000C0F84463A5EB080121F07F4138680129E2
:108C000000EB840010D0C0F840553868D0F8041547
:108C10006FF07F4C6A1A521E22F07F42ACEB0B03BE
:108C2000934217D362B118E06D1CC0F84055102074
:108C300003F024F83868D0F8040540450AD10CE068
:108C400000EB84006D1CC0F840553868D0F804056E
:108C5000884202D00D20BDE8F09F012231463846FF
:108C600000F076F80020F6E710B503780022072B15
:108C700006D2DFE803F005040610202930000A7050
:108C800010BD01230B7003898B818388CB81C06861
:108C900088600A7410BD02220A7002898A81828863
:108CA000CA81C2688A60807D062802D000200874CC
:108CB00010BD0120FBE703220A70C2888A81028965
:108CC000CA81C068886010BD04230B70C088888189
:108CD000CA818A6010BD0520087010BD70B5064DB0
:108CE0000646002455F8241009B130468847641C14
:108CF000042CF7D370BD0000184B002030B504469B
:108D0000006887B00D46806800281FD0182168468B
:108D1000FDF7C7FB0195A0680590207910B10128E7
:108D200010D107E001208DF8000020690290E06872
:108D3000039005E002208DF80000E0680003029037
:108D400060690490206881686846884707B030BD34
:108D50000368C3F84413002A02D00068C0F8041363
:108D6000704700002DE9F84F0E463449804601EB6C
:108D70005001C007097801D00F0901E001F00F0789
:108D80004FF00009424601204946FDF75EFBDFF83F
:108D9000B0A004460D46052F4ED2DFE807F00316BB
:108DA0001B282C00002E47D00121404605F01EF85C
:108DB0008DF800906846FDF7C5FE5046D0E90412D4
:108DC0000C431543CAE9044532E00EB1022114E018
:108DD000002112E04EB10321404605F007F840465D
:108DE000BDE8F84F012105F0A5B9012105E0002EED
:108DF00022D1042101E02EB103214046BDE8F84F05
:108E000004F0F4BF0021404604F0F0FF002140468A
:108E100005F090F98DF800906846FDF793FE5046F6
:108E2000E243D0E904341A4024EA0501CAE90421E6
:108E30009DF80000FDF7AAFEBDE8F88F784A0020F3
:108E40005840002010B5006842581AB102F084FC66
:108E5000012010BD002010BD0AB100F051BE00F08D
:108E600039BE70B50D460446B0F81414D0F810049D
:108E70000122FDF7ACFF00B1057004F13C0204F5DE
:108E8000826104F1540072DF70BD406804F03CBAA6
:108E900070B505460C4609480949401AC008042126
:108EA00001EB004007A102F045F92169002903D038
:108EB0002846BDE87040084770BD0000C0F30200BE
:108EC00098F3020041204741545420436C69656E79
:108ED00074206572726F7220686173206F636375AE
:108EE00072726564206F6E20636F6E6E5F68616E74
:108EF000646C653A203058255800000070B50C4667
:108F000001F11005C98A022901D9092070BD02F0BA
:108F10004CFA606088B1EA880023A96802F0ABFAD5
:108F2000074808496268401AC008042101EB004064
:108F300005A102F0FFF8002070BD042070BD000004
:108F4000A8F3020098F30200506F696E74657220F6
:108F5000746F20616C6C6F6361746564206D656D06
:108F60006F727920626C6F636B3A2025702E00005F
:108F700070B50C4601F1100589690988102901D9DD
:108F8000092070BD891C02F010FA6060C0B1002396
:108F90000222A96802F06FFAA868E9680223028831
:108FA000606802F068FA074807496268401AC0081A
:108FB000042101EB004005A102F0BCF8002070BDC7
:108FC000042070BDA8F3020098F30200506F696E90
:108FD00074657220746F20616C6C6F63617465647A
:108FE000206D656D6F727920626C6F636B3A20251E
:108FF000702E000070B510B14FF4064070BD1C4CCF
:109000000025207B08B1257301E000F0A5F8207849
:1090100008282AD2DFE800F02904080C10291422BD
:10902000BDE8704000F026B8BDE8704000F082B89E
:10903000BDE8704000F064B8BDE8704000F040B892
:109040000620207060880A4900EB8000283901EB77
:1090500080004068BDE8704003F0F6BE0720207035
:109060006560BDE8704003F0FDBE48F20E6070BD63
:10907000DC4B00201149F0B48A1C00200346A1F10A
:1090800028050C18A67A4EB1A37200EB800405EBFC
:109090008404E66816B9247C012C0AD0401C80B2F6
:1090A0000228EED30B704B804B60F0BC41F61D5094
:1090B00070471080F0BC00F03DB80000DC4B002091
:1090C0000C48418801EB8102A0F1280101EB8201EB
:1090D000CA6852B1052101700748022181800168E8
:1090E00000230122054801F07DBB0422027049687B
:1090F000F6E70000DC4B0020C8400020484100207B
:1091000038B50A49084803240B684268898803EB8C
:10911000810153880470DB1C00201B0400909B0B12
:10912000034801F069FC38BDDC4B0020C84000203A
:1091300048410020074910B54888091D04F096FAF7
:1091400018B1BDE81040FFF7DBBFBDE81040FFF7E6
:10915000B7BF0000DC4B002070B5194C012120780E
:1091600008281AD2DFE800F00419191C252929184B
:109170002089134A401C2081002060802073283AF7
:1091800000EB800312F8233043B100232518401C64
:1091900080B2AB720228F3D3217070BD0123F5E7D2
:1091A0006068084940888A88C01C10448880022072
:1091B00004E000F009F8062000E00720207070BDF0
:1091C000DC4B0020C84000200A4909484988026851
:1091D00001EB81030749283901EB83014B680360E8
:1091E0004A6082880A8102228280002008747047C7
:1091F000C8400020DC4B002010B50B48FFF735FCC1
:10920000094A083AD2E90434C018D2E9063244F1D6
:109210000001C31A71EB020204D24FF08072801871
:1092200041F1000110BD00007840002010B5C0B22F
:10923000FEF7AEFF0446007802F0DEFD01466078DE
:10924000012801D0012000E0002090EA010F08D0A1
:109250000449D1E90401084303D1BDE8104004F0FA
:10926000ABBE10BD58400020428800EB82020C3299
:109270008A4201D9022070478188A1F57F42FF3AD6
:1092800006D0018821B18068401C01D000207047C1
:1092900001207047884204D20068401C01D00120A0
:1092A00070470020704700002DE9F0412D4F002548
:1092B00020B17D604FF40640BDE8F08108790122BD
:1092C00058B1294E01280CD0264C4FF00208083422
:1092D000022820D0032841D127E00A7103F0C2FD03
:1092E0003AE0002000EB800116F82110022908D096
:1092F000401C80B20228F5D33A707D6041F61D50C3
:10930000DAE700EB800006F8205006EB80004068AA
:1093100003F09AFD20E00D71A4F8048000230122DF
:109320001248216801F05EFA16E00D71206803F022
:109330008BFD0D4923682831498801EB810206EB3A
:109340008201D1F804C0C4F800C04B60A3880B812F
:10935000A4F8048006F822500028ADD07D6048F2C1
:109360000D60A9E7C0400020B44B00204841002018
:109370000146034802888A4200D00020704700005E
:10938000E84800202DE9FC5F0E008346DDE90C472C
:10939000C6F1000098469246814600D40846012551
:1093A00003E000BF90FBFAF06D1C5045FADAA845C7
:1093B00000D9454624B1002E01DB780700D5641E94
:1093C000B80702D5B8F1000F0AD0F80708D13CB1B0
:1093D000A54205D220215846641EFEF7B5FEF6E7E9
:1093E000002E02DA4E462D2102E0780703D52B210C
:1093F0005846FEF7A9FE07F0030002280BD1B8F18A
:10940000000F08D13CB1A54205D230215846641E58
:10941000FEF79AFEF6E7CDE900474346524631464D
:10942000584604F0DBFDBDE8FC9F024600201268B0
:10943000530713D502F00300012802D002280CD1F3
:1094400005E0C2F383100B68801C184404E002237B
:10945000086803EB92521044086001207047F0B591
:109460008488A518944200D82246A41AC288D61827
:109470009A4200D81346D21A4B880788BB420CD3B5
:109480004088834209D88888A04206D3A84204D8DD
:10949000C888904201D3B04201D90020F0BD01201C
:1094A000F0BD10B509892AB1D088491C814218D174
:1094B000002010BD90F8C62202EB8204C4EB821299
:1094C00000EB420212899142F2D0491C198090F8B7
:1094D000C61201EB8102C2EB811100EB4100008951
:1094E00002E01980D088401E5880012010BD90F8FD
:1094F0003600C0F3C100012803D0032801D00020AA
:10950000704701207047800701D00020704701207C
:10951000704700000A4810B5807860B1002401E06F
:10952000022C06D02046FEF7C7FB641C042CF7D3A0
:1095300010BD0324F6E7BDE81040FEF7DBBB0000DA
:109540001440002003480179C90702D00078FEF7D3
:10955000CDBC704714400020F721018017214180C5
:109560000021017141711B218171C171704700009F
:109570002DE9FF410026244800F0D2FA2248001FBE
:10958000074600F0CDFA214C2149A06800900D68F3
:1095900000E000986946284004EB80000C30FFF79B
:1095A00044FF0028F5D101AA009901EA050304EB64
:1095B0008303491CDB6842F82030401C00910228DC
:1095C000F2D3019800F0030001280BD0022810D13B
:1095D0000198032101EB90500099BDF80A6001EB5E
:1095E000900005E00198BDF80A60C0F383100844BC
:1095F0000090384600F091FA08B10098A06004B0DD
:109600003046BDE8F081000058520020404E002056
:10961000EC400020ACB04FF48041002001F0FAFD96
:1096200008B1FDF725FA01F005FCFDF73FFA08B196
:10963000FDF71EFA79490320FEF70EFC08B1FDF78D
:1096400017FA69460020FEF779FB08B1FDF710FA1A
:109650009DF8000002287DD05FF0000501F014FFA6
:1096600008B1FDF705FA02F013FA08B1FDF700FAA8
:10967000002469460120009402F07EF808B1FDF74D
:10968000F7F9684602F012F908B1FDF7F1F904F0B4
:1096900029FA9DF8080062A120F00F00401C20F07C
:1096A000F00010308DF80800152202A87CDF08B108
:1096B000FDF7DEF96049D1E90B01CDE9000168460B
:1096C0007ADF08B1FDF7D4F900215C4800F0AFFA69
:1096D00008B1FDF7CDF91C216846FCF7E2FE4FF416
:1096E000A030CDE900404FF4F0204FF00308029085
:1096F0008DF80C8001265248ADF80E408DF81060B0
:10970000CDE905406846FDF7BDFD08B1FDF7B0F9AC
:109710004D4F4C48CDE900076846FDF72DFE08B1D6
:10972000FDF7A6F9DFF814914848002409F11C0957
:10973000CDF8000004EB440109EB8100694600F01C
:109740002CFC08B1FDF794F9641C022CF2D34048BC
:1097500003A900E048E003903B481430FEF7B6F957
:1097600008B1FDF785F93B4800903B48CDE901077A
:10977000324869461838FEF7B5F808B1FDF778F9B0
:10978000AC216846FCF78DFE02208DF80000ADF894
:1097900010002D488DF8026006218DF803100A385C
:1097A00005904FF49670229044F2506023908DF80B
:1097B0007C602A482990214869463430FDF798FB9F
:1097C00008B1FDF755F91D4801213430FDF78DFB37
:1097D00023492448081AC10808EB0140044622A185
:1097E00001F0A4FC9DB901E0012537E704F0AAF9D6
:1097F0000020FEF769FA114803213430FDF729FCF7
:1098000008B1FDF735F9204621A101F08FFC01F0E8
:109810001FFB0028FBD101F04BFEF8E7117E020090
:10982000446576696F7420424C45204D756C7469AF
:1098300020526F6C65000000D44700206C4300206C
:109840002D85020079860200E839002073B60200F7
:109850008DBF0200CD77020089BF02003DC002002B
:1098600028F4020098F302004C452053656375729A
:109870006520436F6E6E656374696F6E73206578E3
:10988000616D706C6520737461727465642E000084
:109890004164766572746973696E670070B51446C9
:1098A00082880E4605462088111D0144921C99426B
:1098B00001D8FE2A01D90C2070BD521C32542088D8
:1098C000FF21401C80B2208031542088401C80B28F
:1098D00020808119288804F07BFB2188084480B20D
:1098E0002080AA8842B1A96841B13044FCF7C0FD8C
:1098F0002088A98808442080002070BD072070BD02
:109900002DE9F047C5881E1DB6FBF5F78946B6FB65
:10991000F5F1044605FB176C407916686843DDF8DD
:1099200020A0F718001F874200D9C61A166001E070
:109930002468491E0029FBD1A5EB0C078846B742D5
:1099400016D818E004EB0C00001D09EB0803BAF16F
:10995000000F3A4602D00146184600E01946FCF7CF
:1099600087FD2468F61B4FF0000CB844B54201D9BE
:10997000374600E02F46002EE4D1BDE8F087000016
:1099800030B5024651B101F059FC0021074C08E006
:1099900034F821301568AB4202D11160002030BD8F
:1099A000491C8142F4D3052030BD000000000000B6
:1099B000F8B50F46017814460546012901D16878AB
:1099C00030B12088821C9A4232D8012902D006E0A8
:1099D0000720F8BD69780144891C994228D8181AD3
:1099E000801E86B2ADF800602188B81C0844694624
:1099F0007DDF0028EDD12978022904D06878BDF8F0
:109A00000020904205D3BDF80000B04201D80920E3
:109A10000AE00820012905D16978B14202D8ADF8E1
:109A2000001001E0ADF80060BDF80010FE2901D97A
:109A30000C20F8BD2288491CB9542188491C89B2E0
:109A4000218078542088401C2080BDF800100844F4
:109A500020800020F8BD10B531B1B2FBF3F403FB58
:109A600014241CB1092010BD0E2010BD016000217E
:109A7000416081608281C381084610BD70B50C468B
:109A80000546FCF7C9FB002802D021882868084455
:109A900070BD10B50A8849888A4203D1FCF7FEFBE5
:109AA000012010BD002010BD70B50C460546FCF726
:109AB000D8FB002802D061882868084470BD10B522
:109AC0000A8849888A4203D1FCF7C2FB012010BDF5
:109AD000002010BD01F01F0301229A40D243490922
:109AE00000EB8100114600F027B84A0950F8220027
:109AF00001F01F0201219140084000D00120704771
:109B000001F01F0301229A40490900EB8100114630
:109B100000F027B8002100F00FB8002100F012B8C3
:109B2000012100F01EB8012100F011B808B56A4605
:109B3000FCF709FC009808BD08B56A46FCF7E9FB8C
:109B4000009808BD08B56A46FCF7E3FB08BD08B5F8
:109B50006A46FCF7D1FB08BD08B56A46FCF7C0FBB6
:109B600008BD08B56A46FCF7C7FB009808BD08B5F4
:109B70006A46FCF7F5FB009808BD38B50446002599
:109B80008DF800506846FCF7DDFF216862680868C0
:109B900090420ED9401E08600178238AE26801FBDA
:109BA0000325227A2168101AC0B20A79824200D2B3
:109BB00008719DF80000FCF7E9FF284638BD38B56C
:109BC000054600208DF800000C466846FCF7BAFFF9
:109BD000E868298A201AB0FBF1F12A681068431C52
:109BE000136001709DF80000FCF7D0FF38BD10B580
:109BF00030B1017A42680368891AC9B21A6006E076
:109C00000E2010BD03681A68541C1C601170491E98
:109C1000C9B2F7D2006800210171084610BDC20820
:109C200000F007030120895C98400840704770B538
:109C3000040010D0F720A161208060801B202071DB
:109C4000002504EBC500801DFFF786FC6D1C022D6E
:109C5000F7D3002070BD0E2070BD00002DE9F0414B
:109C600085880C46022D54D20188242921D006DC97
:109C7000102909D011290CD0232923D11EE03A291B
:109C80000DD055291ED10FE00146204602F0D8FC28
:109C900018E004EBC500801DFFF75EFC12E00146F2
:109CA000204602F03FFF0DE00146204602F094FE00
:109CB00008E00146204602F047FD03E00146204649
:109CC00002F0CCFD04EBC504A07A002821D0E18885
:109CD0002846A5DF1049114A0127891ACE0858B134
:109CE000112816D001F0C0FF024607EB0640BDE880
:109CF000F0410BA101F01EBA0020A072E77204200F
:109D0000E28800EB06402B46BDE8F041114901F026
:109D100018BABDE8F0810000A0F3020098F3020039
:109D200073645F626C655F67617474635F657863B9
:109D300068616E67655F6D74755F72657175657377
:109D40007428292072657475726E65642025732EDF
:109D500000000000A8E902002DE9F0418846040057
:109D60004FF0000519D003F07DFB41462046FEF779
:109D70006BFB218881422AD119481A490427401ACD
:109D8000C00807EB0040424617A101F0D3F90020BC
:109D900005464FF6FF76218809E00E20BDE8F081E8
:109DA000626832F81020B24206D1401C80B2814273
:109DB000F6D8206901F046FB002022880BE063689A
:109DC00033F81030B34204D1626822F8108028467C
:109DD000E4E7401C80B28242F1D83846DEE700005A
:109DE000A8F3020098F30200526567697374657204
:109DF000696E6720636F6E6E656374696F6E20684D
:109E0000616E646C653A203078253034580000006B
:109E10002DE9F0470C4605462D482E499246401A3A
:109E2000C108042000EB01404FF0000806462AA1BB
:109E300001F07CF9002D48D0002C46D0284603F0D4
:109E400011FB51462846FEF7FFFA2178062902D277
:109E50002988814202D10720BDE8F087A96800EB7C
:109E6000800701EB870001F08CFB30B151462046A2
:109E700003F0B2FC08B14046EEE72178DFF87C90B1
:109E800059F821202AB12869F8B1214690470028C5
:109E9000E2D1A868214600EB870001F091FB5FEA60
:109EA00000080BD0217859F8210038B1606801F022
:109EB000ACFA304612A1626801F03CF9A86851463C
:109EC00000EB870003F0E6F8D5E70E20C4E70000BA
:109ED000A8F3020098F30200416464696E67206988
:109EE00074656D20746F2074686520726571756586
:109EF00073742071756575650000000004E402004C
:109F0000506F696E74657220746F20667265656447
:109F1000206D656D6F727920626C6F636B3A2025DE
:109F2000702E0000F8B505000C4620D0002C1ED085
:109F30002888112806D0A0F130011F2902D95038F5
:109F40001F2814D8AE8820463146FEF77DFAADF8BA
:109F50000000218881420AD02988112908D0A168EF
:109F600000EB800001EB8000314603F093F8F8BD70
:109F700062684FF6FF7122F810106946E06801F040
:109F80001FFBF8BD20B10278DE2A03D008207047FD
:109F90000E20704741800020704760B159B10278AF
:109FA000DE2A0AD009684160DE2101704FF6FF7198
:109FB0004180002070470E207047082070477FB511
:109FC000054600294DD0002D4BD008780C46DE28E0
:109FD00047D1A8886188884202D1204604F098F8C9
:109FE0002888012825D002283BD011283AD05128B2
:109FF00037D135F8040F6188884232D1A978A81C7E
:10A0000002292ED1017A042903D0062901D005297D
:10A0100027D10021009102228DF8002001914FF4F8
:10A02000C07202910391ADF80420007A05280FD088
:10A0300010E0297A2046012913D1A988428891424B
:10A040000FD10121017204B0BDE8704004F060B886
:10A05000ADF8041028886946B0DF002801D0616897
:10A0600088477FBDA88861888842FAD14FF6FF7083
:10A0700060807FBD2DE9F041044600F1360600F115
:10A080002C0790F8345090F82A0086B001F10208AD
:10A09000002825D08BDF14216846FCF702FA2B46F6
:10A0A0003A46314640468CDF05460F480F49401A74
:10A0B000C108042000EB01460DA1304601F036F83E
:10A0C00005208DF8000030462A460CA1019501F0CC
:10A0D00031F8002D04D0616C002901D06846884712
:10A0E00006B0BDE8F0810000B0F3020098F3020072
:10A0F000436F6E6E656374696E670000436F6E6ECA
:10A10000656374696F6E207374617475733A20258A
:10A110006400000032214186062181851821C18515
:10A1200000210186704710F8361FA022428050227D
:10A13000828021F018010022C28041F004010170E8
:10A1400001214170704728B122B129B1032906D0FD
:10A15000072070470E207047114600F069B811467D
:10A1600000F004BA30B121220021115480F82710E8
:10A17000084670470E20704730B515460B46040060
:10A1800002D0980702D009E00E2030BD580705D450
:10A19000D80603D4180701D4072030BD2046FFF7A6
:10A1A000E1FFD9074FF0010001D084F821005907E1
:10A1B00001D584F8270084F82850002030BD70B500
:10A1C0000D46040012D02A216264FCF76AF9EDB151
:10A1D000287984F82A00287B84F83400296839B16A
:10A1E0000E2204F13600FCF743F904E00E2070BDA6
:10A1F0002046FFF798FFA86820B10168E162406837
:10A2000020630CE02046FFF785FF08E02046FFF7BB
:10A210008AFF2046FFF77EFF002084F82A0004F121
:10A220004800A0661F20A4F86C00002070BD00004C
:10A230002DE9F041064600F120050F460846FCF7DF
:10A240003BF910F0FF0001D0202802D90C20BDE816
:10A25000F081287808B10420F9E7002406EB4410C7
:10A260003946FCF730F90028F1D0641C14F0FF04E3
:10A27000F4D03846FCF720F902462878394606EB38
:10A280004013401C28701846FCF7F2F806480749AE
:10A290003A46401AC008042101EB004004A100F036
:10A2A00049FF0020D3E70000B0F3020098F302005A
:10A2B000416464696E672066696C746572206F6EB4
:10A2C000202573206E616D65000000002DE9F04FC0
:10A2D00093B00E4604464FF000084546142106A8E8
:10A2E000FCF7DFF804F136000A902046FFF7FFF88C
:10A2F000010004F16800109010D002208DF81800C1
:10A300000796616C06A88847002010998ADF3146BD
:10A310002046FFF7AFFE13B0BDE8F08F94F8280099
:10A32000049094F8210094F827B04FF0000AE0B1AF
:10A3300094F82090B08B4FF0010800270C9012E0A9
:10A3400004EB4712B0690C99FCF71FFD48B19DF86A
:10A3500020004FF0010A40F001008DF820006D1C34
:10A3600003E07F1CFFB24F45EAD3BBF1000F36D0AC
:10A3700004F122000F9094F82800119094F826B070
:10A380004FF00009B08B08F101084F460E9012E023
:10A390000F980E9900EB8702B069FCF74BFD30B1C6
:10A3A00009F1010000F0FF09119858B101E011987E
:10A3B00028B97F1CFFB25F45EAD3119810B1D94587
:10A3C00003D00CE0B9F1000F09D09DF820006D1CFE
:10A3D00040F00400EDB28DF820004FF0010A04981F
:10A3E000079608B1454503D004993AEA010007D021
:10A3F00000208DF8180031462046FFF73BFE02E0B2
:10A4000003208DF81800616C09B106A88847002068
:10A4100010998ADF7FE70000F0B50A46014601F196
:10A4200008030C1D098885B0104602F13605102975
:10A4300027D01B2907D01D2936D105B01946BDE804
:10A44000F040FFF743BF064614216846241DFCF781
:10A4500028F82078012827D1144815490427401AE4
:10A46000C00807EB004013A100F060FE706C0028EC
:10A470001AD08DF80070049520788DF80400716C66
:10A4800010E0064614216846FCF70BF806208DF80C
:10A490000000201D01902088ADF808000495716C23
:10A4A000002901D06846884705B0F0BDB0F302002E
:10A4B00098F30200424C455F4741505F5343414E81
:10A4C0005F54494D454F55540000000030B585B0EC
:10A4D000040025D014216846FBF7E3FF8BDF2046FC
:10A4E000FFF705F8012528B1616C19B18DF800500E
:10A4F0006846884704F1680104F136008ADF0446A3
:10A500000C480D49401AC108082C0BD054B105EB7A
:10A510000140224609A100F00DFE204605B030BDE5
:10A520000E20FBE7042000EB01400DA100F0FEFD32
:10A530000020F3E7B0F3020098F3020073645F6257
:10A540006C655F6761705F7363616E5F7374617286
:10A55000742072657475726E656420307825780099
:10A560005363616E6E696E670000000070B500F1A4
:10A5700022031C1D207808B1042070BD0D88002224
:10A5800033F82260AE4201D1002070BD521C12F09F
:10A59000FF02F5D003EB8002401C207008681060B9
:10A5A0000A8805480549401AC008042101EB00400B
:10A5B00003A100F0BFFDE7E7B0F3020098F302004B
:10A5C00041646465642066696C746572206F6E20F6
:10A5D00055554944202578000FB408B50399002942
:10A5E00004D004AA00926A4600F00FF801B05DF8AA
:10A5F00014FB10B582680446002A05D0D4E9040390
:10A60000216898470020A06010BD2DE9FC479146C5
:10A610000C00804676D014F8011B39B125290ED0E4
:10A620004046FDF791FD20780028F4D198F80C0001
:10A63000002867D04046BDE8FC47FFF7DABF00209E
:10A64000012221782B291BD02D2902D0302908D1B5
:10A6500002E040F0010001E040F00200641C002A2A
:10A66000EFD100252A290ED02178A1F130020A2A43
:10A6700011D205EB850201EB4205641C303DF1E788
:10A6800040F00400EAE7D9F800100B1DC9F80030CB
:10A690000968641C0D44217800232E290BD114F87D
:10A6A000011FA1F130020A2A05D203EB830201EB5C
:10A6B0004203303BF3E76C290DD068290BD06929A0
:10A6C00021D00BDC252918D0582931D063290ED090
:10A6D000642915D117E014F8011FECE7702969D03F
:10A6E000732932D075291BD0782909D120E0D9F8F7
:10A6F0000000011DC9F8001001784046FDF724FD57
:10A70000641C90E76CE0D9F800100A1DC9F800201D
:10A710000968CDE900500A224046FEF733FEEFE714
:10A72000D9F800100A1DC9F8002009680A2206E0BD
:10A73000D9F800100A1DC9F8002009681022CDE9D7
:10A740000050404603F04AFCDAE7D9F80010002731
:10A750000A1DC9F800200E68C00705D112E0404666
:10A76000761C7F1CFDF7F0FC31780029F7D104E05E
:10A77000202140466D1EFDF7E7FCBD42C0D9002DEB
:10A78000F6D1BDE74EB13046FBF796FE074604E032
:10A79000202140466D1EFDF7D7FCBD4206D9002D95
:10A7A000F6D103E04046761CFDF7CEFC3178002957
:10A7B000F8D1A5E7D9F80000011DC9F80010056817
:10A7C00030214046FDF7C0FC78214046FDF7BCFC37
:10A7D00008200021CDE90001034610222946B0E7F8
:10A7E000BDE8FC872DE9F843884605002C482D4933
:10A7F0009946A0EB01004FEAD0004FF00101164648
:10A8000001EB004424D0286800282CD0002E34D03E
:10A81000696840464FF010070A68511E11EA080F98
:10A8200011D1014672432846FCF75CF800282ED06F
:10A8300028684B463246046901B041462846A44682
:10A84000BDE8F04360472046174B18A2009722E06E
:10A850000E2000902046144B1EA220A100F079FC8F
:10A860000E20BDE8F8830820009020460E4B26A25B
:10A870001AA100F06EFC0820F3E7092000902046A2
:10A88000094B24A215A100F064FC0920E9E7064B5E
:10A89000214A2046009711A100F05BFC1020E0E760
:10A8A00010F4020098F30200DBE4020061646472B9
:10A8B0005F69735F706167655F616C69676E65642E
:10A8C00028705F66732C20706167655F61646472D5
:10A8D00029000000705F667300000000257320638C
:10A8E0006865636B206661696C656420696E20250C
:10A8F00073282920776974682076616C756520302B
:10A900007825782E00000000705F66732D3E705F22
:10A91000617069006C656E0008EC0200044801215A
:10A920004174007A08B10020704701207047000090
:10A93000884C0020012801D0032808D104490022B6
:10A9400001284A7400D00020087402F02FBD70471F
:10A95000884C002070B50246022801D0032A45D158
:10A96000234C207A002841D0012833D0022831D14D
:10A9700020480023022A006802D0032A2AD11BE0C3
:10A98000E360017911B1012924D10DE0D0E9056519
:10A99000711B4FF48056B14200D331462944816186
:10A9A0004569A9420ED015E00169491C016142695F
:10A9B00091420FD1237213E0E168491CE16008293C
:10A9C00008D9E3602372022A0AD00D21FEF796F916
:10A9D00002F056FB607C28B1BDE8704001F0AAB8D7
:10A9E0000021F3E7BDE8704002F0E0BC70BD00005C
:10A9F000884C0020D04000202DE9F84F90468A4630
:10AA00003A493B4A0500A1EB02014FEAD1014FF060
:10AA10000102DDF828901E464FF00E0002EB0144C3
:10AA20001AD0B8F1000F1CD02868002822D00920C5
:10AA3000002E29D069684968B6FBF1F201FB12616A
:10AA4000002926D000902B4B20462BA235A100F0E8
:10AA500080FB0920BDE8F88F00902046254B3CA2E2
:10AA600003E00090234B20463BA22EA100F071FB97
:10AA70000E20EFE70820009020461E4B38A229A1A7
:10AA800000F067FB0820E5E700902046194B37A24D
:10AA9000DCE75046FBF720FF102798B14046FBF754
:10AAA0001BFFA0B1324651462846FBF71BFF98B169
:10AAB000CDF80090286833464246C468514628467F
:10AAC000A047C7E720460B4B29A2009708E0204685
:10AAD000084B2DA2009703E0064B204633A20097B7
:10AAE00010A100F036FB1020B4E7000010F40200C3
:10AAF00098F30200C8E4020021286C656E2025202E
:10AB0000705F66732D3E705F666C6173685F696E1F
:10AB1000666F2D3E70726F6772616D5F756E6974DE
:10AB200029000000257320636865636B20666169F6
:10AB30006C656420696E2025732829207769746804
:10AB40002076616C756520307825782E0000000035
:10AB5000705F667300000000705F73726300000036
:10AB6000705F66732D3E705F617069006C656E008A
:10AB7000616464725F69735F616C69676E65643399
:10AB80003228646573742900616464725F69735F5D
:10AB9000616C69676E65643332282875696E743339
:10ABA000325F7429705F737263290000616464729C
:10ABB0005F69735F77697468696E5F626F756E64F1
:10ABC0007328705F66732C20646573742C206C6529
:10ABD0006E29000070B541EA4201DDE904564FF0EC
:10ABE000A04441EA830141EA052104EB800041EAE7
:10ABF0000641C0F8001770BD70B541EA4201DDE9B9
:10AC000004564FF0A04441EA830141EA052104EBD8
:10AC1000800041EA0641C0F8001770BD4FF0A04225
:10AC200002EB8000D0F8002722F44032C0F8002761
:10AC3000D0F8002742EA0141C0F800177047000031
:10AC400038B5094B44181B6800936B4608E000BFF9
:10AC500053F82010D1F8205520C2C1F82055401CCF
:10AC60008442F5D838BD00003CE4020042094FF0B0
:10AC7000000100D1491E00F01F00012282400A425B
:10AC800001D0012070470020704701224FF0A043FF
:10AC9000824011B1C3F808257047C3F80C257047EE
:10ACA000034908B50844002101600068009008BD10
:10ACB0000060004002494058012800D00020704741
:10ACC0000060004030B5154A01460020D2F810441B
:10ACD00023460AE0DB681D79854205D1401C0A281D
:10ACE000F6DB4FF0FF3030BD1B68002BF2D1431C68
:10ACF000F9D0CB681871D2F8103443B1DB68CC6856
:10AD00001B682360D2F81024D268116030BDC2F8ED
:10AD10001014C96800220A6030BD0000404E0020B7
:10AD20007047FBF7B1BC704708B5034A0092402357
:10AD3000024A00F005F808BD41DC0200A84C0020E2
:10AD4000F0B595B01C4615460E4608461A9F00F011
:10AD500075FB182109A8FBF7A4FB0E97CDE9095450
:10AD60000023082203A9304600F07DFB05980690D9
:10AD7000BDF81000ADF81C00BDF81200ADF81E00C3
:10AD800000208DF821000399082501F00300012817
:10AD900002D0022816D02FE0C1F3C200C1F38317FE
:10ADA0008C0A8DF82000BA002B460FA9304600F01F
:10ADB0005AFB09A8009006AB3A460FA9204600F0BE
:10ADC00099FA19E0C1F3C2008C0D8DF82000082C0F
:10ADD00001D2274600E008272B463A460FA9304605
:10ADE00000F041FB3D44E41B09AB06AA39460FA81D
:10ADF00000F0B8F9002CEAD1304600F025FB15B080
:10AE0000F0BD00000A4A012902EBC00007D0022968
:10AE100007D0032907D0042907D00020704702205B
:10AE200070470420704700797047407970470000F0
:10AE300098F3020010B5FFF774FF04210348FFF7F1
:10AE400041FF02490120C968487110BD88F3020022
:10AE50002DE9F04F8DB0FDF78FF918B100200DB03E
:10AE6000BDE8F08F7D4C4FF0000BC4F818B4BFF371
:10AE70004F8F7B49A06802900D68D846284004EBAC
:10AE800080000BE0D4F8180470B961680298814220
:10AE900001D8A160E2E7284004EB80000C3002A951
:10AEA000FEF7C3FA0028EDD1002009AA029901EAB1
:10AEB000050304EB8303491CDB6842F82030401C87
:10AEC00002910228F2D3099800F00301022902D06E
:10AED00001294DD0A8E0810D50228946B2EB905F48
:10AEE00000D850210E4666F39F50099008315D4806
:10AEF00000F05BFA070077D000F0A0FA4346082282
:10AF000009A9384600F0B7FA029908F1080A294061
:10AF1000681A8000001D864223D9504D0C3530B18F
:10AF2000C2B204EB8101301A90460C3104E029468C
:10AF3000F2B2002590462846C6B25346384600F085
:10AF40009AFA0AEB08032DB1324629464FEA070068
:10AF500000F091FA029909F1030001EB90000290D0
:10AF600039E004EB81015346324638460C31EFE7B5
:10AF7000C0F38311062900D3062161F389100990DB
:10AF8000C0F38310801C8100364800F00EFA0700E1
:10AF90004AD000F053FA4346082209A9384600F087
:10AFA0006AFA08F1080800260FE00298434600EA12
:10AFB0000501401C04EB81010290042238460C314B
:10AFC00000F059FA08F10408761C0998C0F38310C0
:10AFD000B042EAD847B1D4F81054D4F8180478B184
:10AFE000384600F031FA34E01EE0E8684079012884
:10AFF00004D12A682846394612689047E8680568EF
:10B00000002DF2D1384600F01FFA8DF800B06846E6
:10B01000FBF798FDD4F8180408B90298A0609DF8D1
:10B020000000FBF7B3FD14E0D4F8104405E02168FC
:10B03000204689688847E0680468002CF7D10A48F0
:10B040000A49401AC008022101EB004008A100F0A3
:10B050006DF8FDF791F880F0010000E7404E002008
:10B06000EC4000205CF4020028F4020098F3020097
:10B070004261636B656E647320666C7573686564AA
:10B08000000000002DE9F84F8146264FD01C1546E0
:10B090008A468008002269463E68FDF70BF8DFF813
:10B0A0008880B0B3009CA01C009039683040091A19
:10B0B0008F003F1DBD4208EB800002D82A46514652
:10B0C00008E03A4651460C30FBF7D2F91648EA1B25
:10B0D0000AEB07010C30FBF7CBF94FEA1947FDF7F4
:10B0E00081FC47EA0042601C304008EB800034409D
:10B0F00008EB8401C260C8684FF6C07269F3C500EE
:10B10000904365F39F5020F00300801C20F0040062
:10B11000C86098F8000001E0FFF79AFE0028FBD114
:10B12000BDE8F88FEC400020404E002000231A4676
:10B1300002F074BE08B5012300926A4602F06EFE6A
:10B1400008BD1CB5CDE9002302236A4602F066FE65
:10B150001CBD3EB5069C8DE81C0003236A4602F028
:10B160005DFE3EBD2DE9F0470E4680461C469246E8
:10B17000082940D894F80C900020207319461046F6
:10B1800001F032FF0025B54206D218F805201BA1B8
:10B190002046FFF721FA03E01AA12046FFF71CFA28
:10B1A0006D1C082DEFD318A12046FFF715FA0025D6
:10B1B000B54212D218F805707E2F08D8FBF754F963
:10B1C0000068C05D10F03E0F01D03A4600E02E222C
:10B1D0000EA12046FFF700FA03E00DA12046FFF77D
:10B1E000FBF96D1C082DE3D301222146504601F0E6
:10B1F000DDFE84F80C90BDE8F08700002025303299
:10B2000078000000202020007C0000002563000062
:10B2100020000000064910B500200870054800F025
:10B2200011F9002803D1044800F070FA002010BD85
:10B23000404E00205CF4020078E602000248034918
:10B24000401AC0087047000048F4020098F302005A
:10B2500013B56846FEF794FB08B100201CBD0248F8
:10B26000009950F831001CBD98F3020070B50848F1
:10B270000125D0F81044057007E0E06845712168A9
:10B28000204649688847E0680468002CF5D170BD05
:10B29000404E00201CB504461448007870B96CB1CB
:10B2A0002046FBF709F9401C009001236A4601A9DA
:10B2B0000F4800F0E0F918B100201CBD20461CBD6D
:10B2C000DDE900202146FBF7D3F8DDE90021114438
:10B2D000002001F8010C0648009900F025FA044806
:10B2E000009900F000FA01981CBD0000404E0020BB
:10B2F00078E602002DE9FF4781460C9D00200C46B0
:10B300002F7B2873984616462946184601F06CFE96
:10B31000072E42D2DFE806F004090F161F2A360076
:10B3200049462846FFF758F937E04946284622683B
:10B33000FFF752F931E0D4E9002349462846FFF7E8
:10B340004BF92AE0A0680090D4E90023494628463A
:10B35000FFF742F921E0D4E90201CDE90001D4E987
:10B36000002349462846FFF737F916E004F10800A4
:10B3700007C88DE80700D4E9002349462846FFF7AF
:10B380002BF90AE004F108000FC88DE80F00D4E99A
:10B39000002349462846FFF71FF900222946404668
:10B3A00001F004FE2F73BDE8FF872DE9F041058A07
:10B3B00080462D1F4819C01CB0FBF5F0C6B24046B0
:10B3C000FEF7DBFB041E19D0002020710120607104
:10B3D000E58000272546761EC4F800800BE0404635
:10B3E000FEF7CBFB60B16179491C617128600546AD
:10B3F0007F1CC0F80080B742F1D32046BDE8F08141
:10B40000204600F002F80020F8E72DE9F0414579E8
:10B4100001466B1E002201E00968521C9A42FBD3D0
:10B420000F680146002605E038460C68FEF7C7FBAA
:10B430002146761CAE42F7D3BDE8F0810121001D04
:10B44000FEF774BBFEF7D3BB10B504460121001D07
:10B45000FEF78DFB10F0FF0F04D12046BDE8104031
:10B46000FFF7D3BF10BD1CB501920122009201AAC3
:10B47000FEF746FA1CBD1CB501920022009201AAFB
:10B48000FEF73EFA1CBD0000064910B500204870CA
:10B49000091D0860BFF35F8F0349044800F076FB85
:10B4A000002010BDD840002018E502009C4C002070
:10B4B00008B500208DF800006846FBF743FBF1EE6D
:10B4C000100A20F09F00E1EE100ABFF35F8F0849D9
:10B4D0004020C1F880029DF80000FBF757FB00F008
:10B4E00023FB08B141DF08BD20BF40BF20BF08BD1E
:10B4F00004E000E02DE9F8430446002790460E469C
:10B500008DF800706846FBF71DFB204600F039F807
:10B5100038B105279DF80000FBF738FB3846BDE839
:10B52000F88320680568B8F1000F05D1016820464E
:10B5300000F03FF821680860E268012A0CD0022A76
:10B540000ED0042A11D06068082A13D005FB02012E
:10B550003046FAF78DFFDDE76068405D3070D9E76F
:10B56000606830F815003080D4E7606850F8250036
:10B570003060CFE700EBC501D1E90001C6E9000169
:10B58000C8E7016808684968884201D1012070470E
:10B590000020704701680A6849688068884201D9BC
:10B5A000491C00E00021914201D101207047002098
:10B5B00070478068884201D9481C70470020704756
:10B5C0002DE9F84304464FF000080E468DF8008040
:10B5D0006846FBF7B7FA2046FFF7DCFF07000AD002
:10B5E000207C40B14FF004089DF80000FBF7CEFA34
:10B5F0004046BDE8F8832068456841682046FFF76B
:10B60000D8FF2168486037B1206801682046FFF7FD
:10B61000D0FF21680860E268012A14D0022A16D0FF
:10B62000042A19D0082A1CD06068314605FB0200A4
:10B63000FAF71EFF204601F009FF21688A6882425E
:10B64000D2D28860D0E7616830784855F2E7616807
:10B65000308821F81500EDE76168306841F8250071
:10B66000E8E7D6E90001626802EBC502C2E9000121
:10B67000E0E7FBF7FDB92DE9F0411F0015460E4646
:10B68000044606D0A068FEF74EFA10B11120BDE8BE
:10B69000F081A068D0E903316068A3EB010C421C83
:10B6A000944507D10020286017B1A068FEF732FA50
:10B6B0000020ECE703EA000201EA0007BA4201D3E6
:10B6C000831A01E0181A0B1A28685B1C984200D2F2
:10B6D00003462B60206810443060A0682A68C16867
:10B6E0001144C160E4E710B5826894681369E41AF4
:10B6F000A14201D9042010BD194411618268516131
:10B700008068001DFEF706FA002010BD8268002147
:10B71000916082681161826851618268D16082683B
:10B72000516080680160704770B5826845689468B0
:10B730001369E31AEB1A5B1C994201D9042070BD0E
:10B74000214491608268D1608068FEF7E6F908B113
:10B75000002070BD082070BD08B50022425040583E
:10B76000009008BD20B103490968016000207047BE
:10B770000E207047FCE602002DE9FE4307460E4608
:10B780000846FFF7EFFF00287DD1002500950195C1
:10B7900006208DF800704FF00209ADF80400029504
:10B7A0008DF8029069462020326869DF3749384AAF
:10B7B0004FF00108891AC90808EB014430B100F0C4
:10B7C00053FA024620463349FFF7B4FC00958DF842
:10B7D00001808DF80280019502958DF803806946FD
:10B7E0004020326869DF30B100F03EFA0246204660
:10B7F0002949FFF79FFC00958DF80070F720ADF800
:10B8000002000195029569462320326869DF30B154
:10B8100000F02AFA024620462049FFF78BFC0095EB
:10B82000019502958DF8009069460120326869DF24
:10B8300030B100F019FA024620461949FFF77AFCA8
:10B840004FF4B0600090019502956946A1203268DE
:10B8500069DF30B100F008FA024620461149FFF7CF
:10B8600069FC0095019502958DF800506946A0206D
:10B87000326869DF30B100F0F7F9024620460A4924
:10B88000FFF758FC0020BDE8FE83000038F40200FA
:10B8900098F30200A0F10200E8F1020034F2020085
:10B8A00000F102004CF10200ACF002002DE9F04181
:10B8B0000546076860DF804619491A482A68081A51
:10B8C000C608BA4219D9022000EB064416A1204648
:10B8D000FFF72CFC20463A461FA12B68FFF731FCEE
:10B8E0004FF08050D0F80C012968800200F1005020
:10B8F000421A204625A1FFF71DFCB8F100004FF0C9
:10B9000001040AD000F0B0F9024604EB06402AA177
:10B91000FFF710FC4046BDE8F0812F480470F9E7BE
:10B9200038F4020098F30200496E73756666696325
:10B9300069656E742052414D20616C6C6F63617457
:10B94000656420666F722074686520536F66744466
:10B9500065766963652E00004368616E67652074D3
:10B9600068652052414D207374617274206C6F635E
:10B970006174696F6E2066726F6D20307825782053
:10B98000746F20307825782E000000004D617869B2
:10B990006D756D2052414D2073697A6520666F7216
:10B9A000206170706C69636174696F6E20697320C7
:10B9B000307825782E00000073645F626C655F65E7
:10B9C0006E61626C6528292072657475726E65649B
:10B9D0002025732E000000004341002030B515489B
:10B9E000ADF5017D0078002821D04FF4FA7500BF35
:10B9F000ADF8005280A9684661DF38B1052816D03D
:10BA00000DF5017DBDE83040FBF732B86C460A49C0
:10BA10007DA800F0BBF806E0D0E900212046904761
:10BA20007DA800F0CAF87F980028E1D0F4E70DF572
:10BA3000017D30BD4341002000E70200F8B5134C02
:10BA40002078C0B10120A07002F0C4F8112814D0F1
:10BA5000022002F0D7F800258DF800506846FBF769
:10BA600071F811DF064625709DF80000FBF78EF88F
:10BA70002EB13046F8BD0820F8BD0020F8BDA570F5
:10BA800002F062F9032002F0BDF8F6E74041002021
:10BA90007CB5194C207808B108207CBD0120A0702D
:10BAA000002002F097F8112819D0002002F0AAF81F
:10BAB00012480026006801908DF800606846FBF788
:10BAC00041F80F4901A810DF05000AD000202070BE
:10BAD0009DF80000FBF75AF82DB128467CBD0020E8
