:020000040002F8
:10600000B06C0020C5630200CD630200CF630200C4
:10601000D1630200D3630200D563020000000000D8
:10602000000000000000000000000000D763020034
:10603000D963020000000000DB630200DD630200A0
:10604000DF630200DF630200B1650200DF6302006C
:10605000DF630200DF630200DF630200DF63020030
:10606000DF630200DF630200DF630200DF63020020
:10607000DF630200DF630200DF630200DF63020010
:10608000DF63020019650200DF630200DF630200C4
:10609000DF630200DF63020029650200DF630200A4
:1060A000DF630200DF630200DF630200DF630200E0
:1060B000DF630200DF630200000000000000000058
:1060C000DF630200DF630200DF630200DF630200C0
:1060D000DF630200DF630200DF63020000000000F4
:1060E00000000000000000000000000000000000B0
:1060F00000000000000000000000000000000000A0
:10610000000000000000000000000000000000008F
:10611000000000000000000000000000000000007F
:10612000000000000000000000000000000000006F
:10613000000000000000000000000000000000005F
:10614000000000000000000000000000000000004F
:10615000000000000000000000000000000000003F
:10616000000000000000000000000000000000002F
:10617000000000000000000000000000000000001F
:10618000000000000000000000000000000000000F
:1061900000000000000000000000000000000000FF
:1061A00000000000000000000000000000000000EF
:1061B00000000000000000000000000000000000DF
:1061C00000000000000000000000000000000000CF
:1061D00000000000000000000000000000000000BF
:1061E00000000000000000000000000000000000AF
:1061F000000000000000000000000000000000009F
:10620000DFF810D000F04AF9004800476982020028
:10621000AFF30080B06C002030B450E8012F93B28F
:10622000C48923448489A34228BF1B1B0489A34239
:1062300002BFBFF32F8F002007E0C3EA020340E84C
:106240000134002CE9D14FF001000A6030BC7047E6
:1062500050E8012FC2EA024240E801210029F7D1AB
:10626000704730B450E8022F1FFAA2F3C488A3424B
:1062700002BFBFF32F8F00200DE0C489234484891F
:10628000A34228BF1B1BC2EA034340E80234002C90
:10629000E8D14FF001000A6030BC704750E8022F8F
:1062A000C2EA224240E802210029F7D170470346A2
:1062B00053E8022FD988B2EB324F4FF0000017BFDE
:1062C00092B241EA014142EA014104E05A68B2EB6C
:1062D000324F08BF012043E80212002AE8D170477C
:1062E00030B4044654E8000F0D4644E80053002B38
:1062F000F8D1156030BC704730B4044654E8000F44
:1063000040EA010544E80053002BF7D1156030BC8A
:10631000704730B4044654E8000F00EA010544E831
:106320000053002BF7D1156030BC704730B40446E1
:1063300054E8000F80EA010544E80053002BF7D130
:10634000156030BC704730B4044654E8000F00EBD1
:10635000010544E80053002BF7D1156030BC7047AD
:1063600030B4044654E8000FA0EB010544E80053A4
:10637000002BF7D1156030BC704770B404464FF065
:10638000000054E8006F0D68AE4207BF44E80023E8
:10639000012044E800630E60002B1CBF0020F0E7E2
:1063A00070BC704730B4044654E8000F88422CBFDC
:1063B000451A054644E80053002BF5D1156030BC62
:1063C000704700000648804706480047FEE7FEE7A2
:1063D000FEE7FEE7FEE7FEE7FEE7FEE7FEE7FEE795
:1063E0002D650200016202000048704778C9020072
:1063F00010B5431A934209D28318881803E010F8A5
:10640000011D03F8011D521EF9D210BD40EA01031F
:106410009B0703D009E008C9121F08C0042AFAD25A
:1064200003E011F8013B00F8013B521EF9D210BD08
:10643000D2B201E000F8012B491EFBD270470022C6
:10644000F6E710B513460A4604461946FFF7F0FF73
:10645000204610BD421C10F8011B0029FBD1801AF8
:10646000704710B5002200E0521C835C8C5CA34294
:1064700001D1002BF8D1D8B2E1B2401A10BD30B52D
:1064800005460020034600E05B1C934205D2EC5C0D
:10649000C85C201A01D1002CF6D130BD064C074D46
:1064A00006E0E06840F0010394E8070098471034E4
:1064B000AC42F6D3FFF7A8FEC0D80200E0D8020035
:1064C00070B58C1810F8015B15F0070301D110F8B6
:1064D000013B2A1106D110F8012B03E010F8016BE3
:1064E00001F8016B5B1EF9D12B0705D40023521E66
:1064F0000DD401F8013BFAE710F8013BCB1A921CCE
:1065000003E013F8015B01F8015B521EF9D5A142CB
:10651000D8D3002070BD000002490248091F096855
:1065200000680847F422002004F020B81B4800B59A
:10653000016841F470010160BFF34F8FBFF36F8FAB
:106540004FF01022D2F80002002803DBD2F8040238
:1065500000281FDA012004F073FB1521C2F8001295
:106560000F480368002BFCD0C2F804120168002910
:10657000FCD0002004F064FBBFF34F8F07487C3849
:106580000168084A01F4E06111430160BFF34F8FD5
:1065900000BFFDE705490448086000BD88ED00E044
:1065A00000E401400400FA050090D003FC23002021
:1065B0000148006800470000AC22002002E008C843
:1065C000121F08C1002AFAD170477047002001E06D
:1065D00001C1121F002AFBD17047000001212028B1
:1065E00003DA81400548014003E0402802DA203800
:1065F000814009B10120704700207047FC06FFBDB3
:10660000800701D00020704701207047C3688B428B
:1066100006D811440069491E814201D80120704703
:106620000020704770B572B603F054FC03F0F0F927
:106630000028FBD1144D154915486A88081AC4086A
:106640002AB1012000EB044012A103F01BFB144807
:106650000068C00700D000BE6888022805D3022069
:1066600000EB04400FA103F00DFBBFF34F8F0C486C
:10667000E43801680F4A01F4E06111430160BFF39F
:106680004F8F00BFFDE700006024002088D9020082
:1066900028D90200466174616C206572726F7200C5
:1066A000F0ED00E053797374656D20726573657465
:1066B000000000000400FA050EB500210091CDE9AC
:1066C00001106A4644F20100FFF7ACFF0EBD000066
:1066D000014800F056BC0000C022002038B5114827
:1066E00008235822416800910F49006801F0BEFE5E
:1066F000002815D10D4A69460D4800F047FC0400FA
:106700000ED101210A4800F0B7FC0123094A1946BD
:10671000074800F00EFC06490120083908702046A1
:1067200038BD000080C202001425002015B602000A
:10673000C0220020FFFF7F0030B5EFF3108172B65A
:106740000D4A9468012324B10370002900D162B678
:1067500030BD93604FF0E023D3F88051074C2540C3
:106760001560C3F88041D3F8844154605A17C3F8C8
:10677000842100220270E8E76C250020FC06FFBDA2
:106780000B498A68002A11D000280FD1EFF310803E
:1067900072B60B684FF0E022C2F800314B68C2F8C5
:1067A000043100228A60002800D162B670470000E0
:1067B0006C2500202DE9F041064608680C46411C76
:1067C0004FF0A0474FF0010506D005FA00F1C7F8D9
:1067D0000815206802F08CFF6068411C02D000217F
:1067E00002F074FF3168A069C1F82405607D227D44
:1067F00031681043C1F86C05D4E900123068C0F864
:106800001425C0F80C15207D012815D1A068411C65
:1068100002D0002102F05AFFE068411C05D08540FB
:10682000C7F80855E06802F063FFD4E90212306847
:10683000C0F80825C0F81015BDE8F0812DE9F04139
:10684000064608680C46411C4FF0A0474FF0010572
:1068500006D005FA00F1C7F80815206802F052FFCB
:106860006068411C02D0002102F039FF3168A06944
:10687000C1F82405607D217D32680843C2F86C05AB
:10688000D4E900123068C0F80C15C0F81425207D3A
:10689000012815D1A068411C02D0002102F01FFF81
:1068A000E068411C05D08540C7F80855E06802F053
:1068B00029FFD4E902123068C0F80825C0F8101585
:1068C000BDE8F081F0B500220D4BCA60C1E901239B
:1068D0000C4B0D4D1446EE1A0A600CE003EB02154A
:1068E000EF683F79FF2F05D0A04202D1A868086069
:1068F000F0BD641C521CB2EB161FEFD3F0BD0000BC
:10690000E0C6020018D9020028D902002DE9F84F8C
:106910000546861C00208DF8000091460F464FF07A
:10692000010A6846FFF708FF1B4C04F21C48606828
:106930003860D4E90101194F401A3968081A0EE08D
:106940000121404601F0DAFD01F09CFB0146404682
:1069500001F0D4FDD4E90101401A3968081A401C3D
:106960008642EDD8B9F1000F03D0052065F38910F8
:1069700002E0062065F39F5061683A68114004EB1D
:106980008101C8606068304460609DF80000FFF7D6
:10699000F7FE5046BDE8F88F902800207C230020A9
:1069A00070B50D4604460A2902D10D21FFF7F8FF04
:1069B000A0682268411CA1601554D4E901018142FC
:1069C00004D32046BDE8704002F0EBBA70BD000071
:1069D000044881684068814201D10120704700204D
:1069E00070470000902800202DE9F041044680689F
:1069F0000F46D0F84811C27F11F00106817FA1EB4C
:106A00000203DDB20BD07F2901D3002D7ED0A06818
:106A1000C17F0844002180F8207066B113E07F290F
:106A20007CD2002DF3D0831803F120012A46481CA4
:106A3000FFF7DEFCEBE7A068827F521CD2B28277C0
:106A4000A068203281544DB3204601F0DFFC8178EC
:106A5000C07881420ED1A06831A2C17F43180821BD
:106A60002046203302F0F0F8A81BC1B2204600F007
:106A700043F921E0204600F06BF8A06828A2C17F0E
:106A8000431808212046203302F0DEF8204600F0AB
:106A900055F80121204600F0D3F90DE03EB1A06881
:106AA000827F521CD2B28277A068203281543A464B
:106AB0001CA1206902F068FAA168C87F401CC87751
:106AC000204600F005F90028204603D0BDE8F0413B
:106AD00000F01EB900F024FE00281FD0204601F06F
:106AE00095FC0546C078A978401A401EC1B22046E0
:106AF00000F0E2F8204600F00BF9E878A978401A97
:106B0000C1B2204600F0A8F9287800E006E0401E57
:106B1000C1B22046BDE8F04100F092B9BDE8F08175
:106B200025730000256300000069024A02A102F0FB
:106B30002BBA000059C40200257300000069024A04
:106B4000024902F021BA000053C40200386B02006F
:106B50000069024A024902F017BA000050C402005C
:106B6000386B02008068D0F84801C0F3C00070475D
:106B700030B4406804682469A44630BC60470028EB
:106B800001D0FFF767BC70472DE9F8431E46154654
:106B90008846074600241BE0786808EB04016B4632
:106BA0000268D2F80CC02A46E047009804442D1A27
:106BB00070B9B868017803290AD000BFD0F848112D
:106BC0008906FBD5D0F8481121F02001C0F8481102
:106BD000002DE1D1002E01D000983060BDE8F8838F
:106BE0002DE9F05F1C460A9E15464FF0000959B189
:106BF00080B3017839B342683146284690473068FF
:106C0000D8B12660BDE8F09F14491548A1EB0008F3
:106C1000B5EBD80F11D2DFF84CA00026834609E06F
:106C20000BEBC607786801685AF82500FFF719FCD6
:106C300030B1761CB6EBD80FF2D3C4F80090E1E780
:106C400078682060DEE7406800EB0210016809B157
:106C50001860D7E7FFE7C3F80090D3E718D9020020
:106C6000E0D802000024002010B5D0E90234D1E9B8
:106C70000220D11AA04101D3012010BD002010BD77
:106C800010B5044612B11088002211E04FF6FF70D3
:106C9000FAE7030A43EA0023A05C5840C0F3031359
:106CA000584080EA003080B2C3B280EA4310521CE0
:106CB0008A42EED310BD0000002904D00A460069C4
:106CC00001A102F061B970471B5B2564420000001E
:106CD00010B504460068FFF752FF0146A068C27F66
:106CE000407E1144B1FBF0F200FB121008B100200D
:106CF00010BD012010BD0000002904D00A46006923
:106D000001A102F041B970471B5B256444000000FB
:106D1000006901A102F038B90A0000002DE9FC4722
:106D2000002604468DF8046080683546B146B046BA
:106D30008021A030FFF783FB4049206902F024F94D
:106D4000206902F02EF900276B46012201A9204696
:106D5000FFF70EFF0098D8B19DF804001B2806D05D
:106D6000A16891F8A0101B29EED152281FD0A2686B
:106D700008F1A001505408F1010000F0FF08B8F13B
:106D8000090F0AD9A168042081F8A090BDE8FC870A
:106D90002A494FF6C0101031884700980028D3D1F7
:106DA0007F1CBFB2B7F57A7FCED30D20EEE7A16886
:106DB00008F1A0004A4601F80090A16891F8A100EE
:106DC0005B2803D081F8A0200B20DFE702206FF0C2
:106DD0002F0309E005EB850503EB4505401C3D4409
:106DE000C0B2ADB2802808D200F1A007CF5D3B2F22
:106DF000F0D1401CC0B2802809D30C20C6E700BFE8
:106E000006EB860603EB46063E44B6B2F1E700F118
:106E1000A007CF5D002FF3D1FA20FA2E01D9087513
:106E200000E00E75FA2D02D9A168887501E0A0680E
:106E30008575A06880F8A0200020A7E771C4020033
:106E4000002904D00A46006901A102F09DB87047EC
:106E50001B5B256443000000002904D00A4600693A
:106E600001A102F091B870471B5B2564410000004E
:106E70002DE9FF410C4620B14FF4064004B0BDE8B7
:106E8000F0812079002748F2096538B141F61D5696
:106E900001281BD0022826D0681DEFE702202071B0
:106EA00002970397E0680190694601A804F096F9FB
:106EB00050B102988188E18000882081BDF80010DF
:106EC000029804F009FAD9E72846D7E70A4B6A4640
:106ED0000021A01D04F03AF938B1074918398F6133
:106EE000CF61A842CAD13046C8E7034881880198DB
:106EF00004F0F2F9F5E700002823002010B5002186
:106F0000024801F010FB80F3100010BDAC2C0020F3
:106F10004FF480328A400168C1F848230068C0F805
:106F2000082370474FF4A07202EB810189B200F090
:106F3000C6B92DE9F04105460E464FF4A07000EBAE
:106F4000860081B228684FF48034B440984622F01D
:106F50007F47C0F808432868C0F84843286803F012
:106F60002DF9286800EB8600C0F840752868C0F845
:106F70004443B8F1000F02D02868C0F80443BDE8CC
:106F8000F0810068D0F804057047000070B54379BF
:106F9000274C2A4D44F823204279231D03EBC202DB
:106FA000254C1679234A121BD40846B16888082656
:106FB00002283AD3022000EB044021A133E0066806
:106FC0000A88C6F8082590F904208978002A4FEA33
:106FD000411104DB02F1E02282F8001405E002F026
:106FE0000F0202F1E02282F8141D90F90410012230
:106FF000002909DB01F01F0602FA06F6490989009B
:1070000001F1E021C1F800614179002603EBC101E3
:107010000A71417943F831006888032805D30320B9
:1070200000EB04400FA102F02DFE304670BD0000C1
:10703000F022002040D9020028D902003C24002080
:1070400052544320696E7374616E636520616C7283
:107050006561647920696E697469616C697A6564D7
:107060002E0000005254433A20696E697469616CC5
:10707000697A65642E0000000A46022100F016B904
:107080004FF4827100F01BB9006801210160704764
:1070900000680121416070472DE9F05F07460C460A
:1070A0004FF4A07000EB84001FFA80FA38684FF4A8
:1070B0008036A6409B4622F07F45C0F8486338687A
:1070C000C0F808633868D0F8048500EB8402D2F871
:1070D0004095C2F840855146386803F06FF8A9EB37
:1070E000080020F07F40012806D1102003F016FB95
:1070F0005146386803F062F83868D0F80485C0F863
:107100004463A5EB080121F07F413868012900EBB9
:10711000840010D0C0F840553868D0F804156FF0DE
:107120007F4C6A1A521E22F07F42ACEB0B03934253
:1071300017D362B118E06D1CC0F84055102003F061
:10714000EDFA3868D0F8040540450AD10CE000EBB0
:1071500084006D1CC0F840553868D0F8040588429A
:1071600002D00D20BDE8F09F01223146384600F0E4
:107170009DF80020F6E700002DE9F843104D0F467A
:1071800080461E4691466946286801F082F904004F
:1071900014D01C21FFF753F901202071C4F814907A
:1071A000380BC4F80080C4E902606946286801F021
:1071B00091F903F0A5FF0020BDE8F8830420FBE768
:1071C00008C5020010B503780022072B06D2DFE8BD
:1071D00003F005040610202930000A7010BD0123B9
:1071E0000B7003898B818388CB81C06888600A74A7
:1071F00010BD02220A7002898A818288CA81C2680F
:107200008A60807D062802D00020087410BD01200D
:10721000FBE703220A70C2888A810289CA81C0689A
:10722000886010BD04230B70C0888881CA818A6081
:1072300010BD0520087010BD70B5064D064600242F
:1072400055F8241009B130468847641C042CF7D344
:1072500070BD00008425002030B50446006887B06A
:107260000D46806800281FD018216846FFF7E7F810
:107270000195A0680590207910B1012810D107E090
:1072800001208DF8000020690290E068039005E07D
:1072900002208DF80000E06800030290606904900D
:1072A000206881686846884707B030BD0368C3F826
:1072B0004413002A02D00068C0F80413704710B5C8
:1072C000006842581AB102F079FF012010BD002079
:1072D00010BD000070B50278054642B31849194C3C
:1072E000164E091B0323C908708803EB0144012AC9
:1072F00001D0032A21D1696800291ED103281CD39B
:10730000204611A1AA6802F0C1FC7088032814D39A
:10731000AA89204611A102F0B9FC708803280CD379
:10732000EA892046BDE8704010A102F0AFBC406879
:10733000002802D112490120087070BD602400208D
:1073400088D9020028D902005265636F726420490F
:10735000443A0930782530347800000046696C657D
:107360002049443A09307825303478005265636FFB
:107370007264206B65793A093078253034780000E2
:1073800060220020F0B587B014216846FFF757F857
:10739000304C207818B16846FFF74EFF57E0201DAB
:1073A00001F0A9F898BB40F6F8700168481C02D1BA
:1073B0004FF0102041694FF08050026940694B1C2A
:1073C00001D100FB02F1244800220161A1F54051E6
:1073D000C160224901F086FF002823D121481C23E7
:1073E0008C221F49006801F041F803F0ABFC050056
:1073F00016D0022D14D000270126062D14D005A882
:1074000003F0AEFD98B106700C2D1BD200E01EE01B
:10741000DFE805F0181018101817181718121412B2
:1074200048F20A6007B0F0BD26706760B3E748F223
:107430000760F7E7077105E0032100E00221017111
:1074400000E0067105A803F099FD03F04BFE002053
:10745000E8E70000302300201C24002018C50200AB
:1074600094250020A8C2020038B5040014D0694653
:1074700003F0B4FEB0B1BDF8000000EB80010B4892
:1074800000EB8100C16851B1A17A41B1C168491EC8
:10749000C1600020A07238BD48F2046038BD48F2D7
:1074A000056038BD48F2096038BD00002026002084
:1074B0001FB501A9684603F049FE04B010BD0000E5
:1074C0002DE9FC410E4605002ED06EB301A903F054
:1074D00085FE78B36C6800220621B4F806806788C0
:1074E0002046FFF7CDFBB900ADF8000001276A4642
:1074F00004F10800091DFFF7C3FBADF8000040458B
:1075000015D1BDF804000D4900EB800001EB8000AF
:1075100001210C3000F0F2FF346068680C307060BC
:10752000AF720020BDE8FC8148F20460FAE748F23F
:107530000C60F7E7FFE748F20960F3E72026002038
:1075400018B10323002204F04DBD48F204607047D7
:107550000223002204F046BD094910B50A69042A35
:107560000AD0084A096942F8210005480121103073
:1075700000F0C4FF002010BD48F20B6010BD0000F9
:1075800010230020842500202DE9F84F04462448CC
:107590000078D8B1F4B112212046FEF750FF032045
:1075A000DFF880902080002504F1100804F10E0A15
:1075B00005EB850109EB810630897189084487B2A2
:1075C000706803F049FB032807D009E048F2016026
:1075D000BDE8F88F48F20460FAE72088401E20805A
:1075E0006088F1680844608020897189084420819E
:1075F000608938446081C7F58060A18980B281428A
:1076000000D2A0815346A21D211D2846CDF800803E
:1076100003F0BAFF6D1CADB2022DC9D30020D7E72D
:1076200030230020202600202DE9F05F17460E00B1
:10763000814670D013B1F9B2FFF702FC0024FEF7C7
:10764000D3FE8246006800E0641C315D415CC907DE
:10765000FAD100253046FFF792FAD9F80810001B3E
:107660004A7ED11B814228D306EB040805E000BF07
:1076700018F805100A290CD06D1C8542F8D3311971
:10768000D9F8100001F080FC4846BDE8F05FFFF734
:107690003FBBD9F8100001F084FC414600232A4684
:1076A0004846FFF771FA2C444846641CFFF730FB4C
:1076B000F9B24846FFF7C4FBE1E78B46DAF8001061
:1076C00006EB040818F805000B5CDB0702D0AB469C
:1076D0000A2804D0E819904201D26D1CF2E7D9F8CB
:1076E000100001F05EFC414600235A464846FFF771
:1076F0004BFA5C44DAF8000000E0641C315D415C48
:10770000C907FAD14846FFF703FBF9B24846FFF72D
:1077100097FB9EE7FFE7BDE8F09F406803F040BCA1
:1077200010B504460068FFF72AFA0146A068827F78
:10773000407E1144B1FBF0F200FB121008B10020B2
:1077400010BD012010BD000070B510B14FF406400F
:1077500070BD1C4C0025207B08B1257301E000F0B2
:10776000A5F8207808282AD2DFE800F02904080CC0
:1077700010291422BDE8704000F026B8BDE8704022
:1077800000F082B8BDE8704000F064B8BDE8704019
:1077900000F040B80620207060880A4900EB8000A5
:1077A000283901EB80004068BDE8704003F0AABAB8
:1077B000072020706560BDE8704003F0B1BA48F260
:1077C0000E6070BD482600201149F0B48A1C0020CC
:1077D0000346A1F128050C18A67A4EB1A37200EB5E
:1077E000800405EB8404E66816B9247C012C0AD0D9
:1077F000401C80B20228EED30B704B804B60F0BC73
:1078000041F61D5070471080F0BC00F03DB80000FC
:10781000482600200C48418801EB8102A0F1280194
:1078200001EB8201CA6852B10521017007480221AB
:107830008180016800230122054801F0ABBC0422CD
:1078400002704968F6E7000048260020382300202F
:107850001C24002038B50A49084803240B684268F4
:10786000898803EB810153880470DB1C00201B0412
:1078700000909B0B034801F0F3FD38BD4826002023
:10788000382300201C240020074910B54888091D12
:1078900003F0F4FC18B1BDE81040FFF7DBBFBDE812
:1078A0001040FFF7B7BF00004826002070B5194C04
:1078B0000121207808281AD2DFE800F00419191CE9
:1078C000252929182089134A401C20810020608026
:1078D0002073283A00EB800312F8233043B10023D1
:1078E0002518401C80B2AB720228F3D3217070BD02
:1078F0000123F5E76068084940888A88C01C104465
:107900008880022004E000F009F8062000E007204B
:10791000207070BD48260020382300200A490948FD
:107920004988026801EB81030749283901EB83018B
:107930004B6803604A6082880A81022282800020AC
:1079400008747047382300204826002010B50B48E3
:10795000FFF717FB094A083AD2E90434C018D2E904
:10796000063244F10001C31A71EB020204D24FF057
:107970008072801841F1000110BD0000C02200207B
:10798000428800EB82020C328A4201D90220704701
:107990008188A1F57F42FF3A06D0018821B1806835
:1079A000401C01D00020704701207047884204D25B
:1079B0000068401C01D00120704700207047000083
:1079C00010B50A4941600A4800F095FD58B902F027
:1079D000DFFD07491C238C22087404488C39001FE2
:1079E000006800F043FD002010BD00000CC502003F
:1079F000E42600202DE9F0412D4F002520B17D60C7
:107A00004FF40640BDE8F0810879012258B1294EB3
:107A100001280CD0264C4FF002080834022820D050
:107A2000032841D127E00A7103F07AF93AE00020F7
:107A300000EB800116F82110022908D0401C80B20A
:107A40000228F5D33A707D6041F61D50DAE700EB6D
:107A5000800006F8205006EB8000406803F052F9E1
:107A600020E00D71A4F8048000230122124821684F
:107A700001F090FB16E00D71206803F043F90D4909
:107A800023682831498801EB810206EB8201D1F895
:107A900004C0C4F800C04B60A3880B81A4F8048024
:107AA00006F822500028ADD07D6048F20D60A9E7AD
:107AB00030230020202600201C2400202DE9FC5F1C
:107AC0000E008346DDE90C47C6F100009846924659
:107AD000814600D40846012503E000BF90FBFAF080
:107AE0006D1C5045FADAA84500D9454624B1002E50
:107AF00001DB780700D5641EB80702D5B8F1000F86
:107B00000AD0F80708D13CB1A54205D22021584639
:107B1000641EFEF745FFF6E7002E02DA4E462D21E1
:107B200002E0780703D52B215846FEF739FF07F00E
:107B3000030002280BD1B8F1000F08D13CB1A542D7
:107B400005D230215846641EFEF72AFFF6E7CDE93C
:107B50000047434652463146584604F079F9BDE89D
:107B6000FC9F000070B50D46044600684FF4887114
:107B700002F0CEFD4FF49071206802F0C9FD4FF481
:107B80009271206802F0C4FD4FF4A271206802F0E7
:107B9000BFFD4FF4AC71206802F0BAFD20681249B5
:107BA000C0F804132068690740F30730090E002865
:107BB00004DB00F1E02080F8001405E000F00F0085
:107BC00000F1E02080F8141D206840F30730002801
:107BD00009DB00F01F02012191404009800000F103
:107BE000E020C0F8001170BD1003420002460020E2
:107BF0001268530713D502F00300012802D00228AF
:107C00000CD105E0C2F383100B68801C184404E01B
:107C10000223086803EB9252104408600120704769
:107C20000248007A002800D001207047E426002096
:107C3000800701D00020704701207047014B00F001
:107C400039BD0000757E0200014B00F033BD00001D
:107C500041800200014B00F02DBD00004980020070
:107C6000014B00F027BD0000298102007CB51446BD
:107C70000546012902D001F04DF938B102B028467D
:107C8000BDE870400022114601F006B8616805A009
:107C9000CDE9000109A202212846236800F0D4FFA3
:107CA0007CBD000020756E6B6E6F776E2070617208
:107CB000616D657465723A200000000025733A25F5
:107CC0007325730D0A0000002DE9FC41074601F001
:107CD00021F938B102B03846BDE8F0410022114622
:107CE00000F0DABF1248134E801B050900241AE089
:107CF00006EB0410C2681179FF2903D0527942B112
:107D00000DA207E083680EA20821384600F09CFF10
:107D100008E013A2CDE90021836814A208213846A7
:107D200000F092FF641CAC42E2D3BDE8FC8100008D
:107D300028D9020018D90200656E61626C65640082
:107D400025730D0A092D205374617475733A2064EC
:107D5000656163746976617465640D0A0D0A0000DB
:107D600064697361626C65640000000025730D0A2C
:107D7000092D205374617475733A2025730D0A0917
:107D80002D2049443A2025640D0A0D0A0000000008
:107D900010B5044601F0BEF830B120460022BDE81F
:107DA0001040114600F078BF01F052FD30B105A23D
:107DB00002212046BDE8104000F046BF0AA208217B
:107DC000F7E700004661696C656420746F206C6F92
:107DD00061642074686520636F6E6669677572619F
:107DE00074696F6E2E0D0A00436F6E666967757257
:107DF0006174696F6E206C6F616465642E0D0A009A
:107E000010B5044601F086F830B120460022BDE8E6
:107E10001040114600F040BF01F074FD30B105A2E2
:107E200002212046BDE8104000F00EBF0BA2082141
:107E3000F7E700004661696C656420746F20737415
:107E40006F72652074686520636F6E66696775720E
:107E50006174696F6E2E0D0A00000000436F6E663C
:107E6000696775726174696F6E2073746F7265648F
:107E70002E0D0A002DE9FF4FC86881B01D4600791C
:107E800017004FF00006009057D0072245A1286840
:107E9000FEF7F5FA78B1082244A12868FEF7EFFA58
:107EA00000282FD02B6843A2019805B00221BDE81D
:107EB000F04F00F0C9BE012F02D0022F08D008E019
:107EC000019805B041A2BDE8F04F022100F0BCBE10
:107ED0000126DFF8108100240A2258F8241068686F
:107EE000FEF7CDFA10B1641C052CF5D3052C06D095
:107EF00004F0FF090224002E51D0002419E03AA218
:107F00006B68D1E7012F4FF00009F6D0012446E05D
:107F10004A462146009800F040FA48B90021204620
:107F200001F0CAFF034638A20221019800F08CFE3E
:107F3000641C01F06BFFA042EAD805B0BDE8F08FE9
:107F40004FF0000A55F824B001F060FF804600268B
:107F500009E00021304601F0AFFF20225946FEF72C
:107F60008EFA58B1761C4645F3D3464508D04A46AA
:107F70005146009800F011FA30B10FE0B246F4E734
:107F800055F8243029A205E00021504601F094FF65
:107F900003461DA20221019800F056FE641CBC425B
:107FA000CED3CAE7656E61626C6500006469736177
:107FB000626C6500556E6B6E6F776E206F707469C2
:107FC0006F6E3A2025730D0A0000000042616420A4
:107FD000706172616D6574657220636F756E742E69
:107FE0000D0A000080230020556E6B6E6F776E20A7
:107FF0007365766572697479206C6576656C3A2074
:1080000025730D0A000000004C6576656C20756EC6
:10801000617661696C61626C6520666F72206D6F5C
:1080200064756C653A2025730D0A0000556E6B6E01
:108030006F776E206D6F64756C653A25730D0A005D
:10804000C968012048717047C968002048717047AD
:1080500030B41346C4680A46214630BCFFF70ABF55
:10806000C0680121C06841717047C0680021C068C4
:108070004171704730B41346C4680A46214630BC8B
:1080800000F052B82DE9FF410026244800F030FAF4
:108090002248001F074600F02BFA214C2149A06816
:1080A00000900D6800E000986946284004EB8000CD
:1080B0000C30FFF79BFD0028F5D101AA009901EAD9
:1080C000050304EB8303491CDB6842F82030401CA5
:1080D00000910228F2D3019800F0030001280BD090
:1080E000022810D10198032101EB90500099BDF8AE
:1080F0000A6001EB900005E00198BDF80A60C0F34A
:10810000831008440090384600F0EFF908B1009859
:10811000A06004B03046BDE8F0810000A82C00202B
:10812000902800207C2300202DE9FE4F88468246BF
:1081300001F06CFE0746D8F80C00407920B922A265
:108140000221504600F080FD24A327A208215046BA
:1081500000F07AFD2CA20821504600F075FD0024A5
:108160002DE000BFD8F80C0001231A4605792146FE
:10817000284601F055FE814600230122214628466B
:1081800001F04EFE0546032801D2064600E0032614
:108190000121204601F090FE0346AE4201D22AA200
:1081A00000E028A2294850F8261050F829008DE850
:1081B000070027A20821504600F046FD641CBC427F
:1081C000D0D3BDE8FE8F00004C6F677320617265ED
:1081D0002068616C746564210D0A00006D6F647520
:1081E0006C655F6E616D6500252D343073207C20D9
:1081F00063757272656E74207C206275696C742D73
:10820000696E200D0A0000002D2D2D2D2D2D2D2DF8
:108210002D2D2D2D2D2D2D2D2D2D2D2D2D2D2D2D8E
:108220002D2D2D2D2D2D2D2D2D2D2D2D2D2D2D2D7E
:108230002D2D2D2D2D2D2D2D2D2D2D2D2D2D2D2D6E
:108240002D2D0D0A000000002A00000080230020D0
:10825000252D343073207C20252D3773207C20255C
:108260007325730D0A00000008B502F045F908B146
:10827000FEF722FA6946012001F0B0FF08B1FEF7CF
:108280001BFA684602F036F808B1FEF715FAFEF759
:1082900025FA08B1FEF710FA4FF48041002001F0F2
:1082A00065FD08B1FEF708FA03F034F847F211084B
:1082B00048F21009164B174A4146484603F0B4F8F5
:1082C000154C064664254FF47A47611C38468847AA
:1082D0006D1EFAD13EB10E4A0A23121D4146484690
:1082E00003F024F90EE00B4909480A230A78001D1F
:1082F0000A320270497802460A31417041464846C6
:1083000003F0B6F801F084FB0028FBD141DFF9E768
:1083100050220020B024002070C202002DE9F04756
:10832000C5881E1DB6FBF5F78946B6FBF5F1044678
:1083300005FB176C407916686843DDF820A0F71834
:10834000001F874200D9C61A166001E02468491E42
:108350000029FBD1A5EB0C078846B74216D818E0D8
:1083600004EB0C00001D09EB0803BAF1000F3A46BC
:1083700002D00146184600E01946FEF739F8246895
:10838000F61B4FF0000CB844B54201D9374600E067
:108390002F46002EE4D1BDE8F08770B514460023C7
:1083A0000D4606461A4601F03BFD844201D90020E5
:1083B00070BD22462946304601F056FD012070BDB1
:1083C00030B5024651B101F021FD0021074C08E013
:1083D00034F821301568AB4202D11160002030BD65
:1083E000491C8142F4D3052030BD00003024002018
:1083F00010B50C460021E16061600349A1600121D4
:1084000001F05AFD206010BDD8C6020070B5846826
:10841000006804F11405FEF7B2FBC1B2A971E07F58
:108420006A790844B0FBF2F302FB13035B1C2B7068
:10843000E07F0844B0FBF2F35B1CAB70A07F084404
:10844000B0FBF2F35B1CEB70A07F0844B0FBF2F1D1
:1084500002FB1101491C6970284670BD10B5FDF77B
:1084600026FF08B1002010BD112010BD10B531B19C
:10847000B2FBF3F403FB14241CB1092010BD0E2041
:1084800010BD01600021416081608281C381084686
:1084900010BD70B50C460546FDF7BEFE002802D0A3
:1084A00021882868084470BD10B50A8849888A4226
:1084B00003D1FDF7F3FE012010BD002010BD70B503
:1084C0000C460546FDF7CDFE002802D061882868DD
:1084D000084470BD10B50A8849888A4203D1FDF767
:1084E000B7FE012010BD002010BD002100F011B822
:1084F000012100F01DB8012100F010B808B56A464E
:10850000FDF721FF009808BD08B56A46FDF71BFF7F
:1085100008BD08B56A46FDF7FCFE08BD08B56A4609
:10852000FDF7EAFE08BD08B56A46FDF7D9FE08BDAD
:1085300008B56A46FDF7E0FE009808BD08B56A4632
:10854000FDF70EFF009808BD38B5044600258DF8EC
:1085500000506846FEF7F0F82168626808689042AB
:108560000ED9401E08600178238BE26801FB0325C9
:10857000227A2168101AC0B20A79824200D20871A8
:108580009DF80000FEF7FCF8284638BD38B50546D2
:1085900000208DF800000C466846FEF7CDF8E8682C
:1085A000298B201AB0FBF1F12A681068431C136074
:1085B00001709DF80000FEF7E3F838BD10B530B14A
:1085C000017A42680368891AC9B21A6006E00E206F
:1085D00010BD03681A68541C1C601170491EC9B292
:1085E000F7D2006800210171084610BD2DE9F0475F
:1085F0000646806888B0D0F84801C0F3400038B122
:1086000008B03046BDE8F0470022114600F044BBF8
:10861000012907D908B03046BDE8F0471DA2022164
:1086200000F012BB2049DFF884A0A1EB0A001C2156
:10863000B0FBF1F5002428E0C4EBC4010AEB810390
:108640004FF000091F68D3E901103A793F78411AC9
:10865000B3F81880C01B5B69C0B2642712FB07F730
:10866000B7FBF1FC642710FB07F7B7FBF1F7CDE987
:108670000621CDE9041CCDE902700D4A08213046DF
:10868000CDE9008900F0E0FA641CAC42D4D308B014
:10869000BDE8F08742616420617267756D656E7434
:1086A00020636F756E740000C4D90200A8D902005F
:1086B00078CB02002DE9FF5F8B46164814499A4695
:1086C000091A0F09914652F8046C0025804607E00C
:1086D00008EB05143046A168FDF7C3FE18B16D1C08
:1086E000BD42F5D30BE0210009D0009804B04B4601
:1086F0005A46D446BDE8F04F5DF804EB6047009859
:1087000004B03346BDE8F05F03A2022100F09CBA3A
:1087100028D9020018D90200496E76616C6964207C
:108720006261636B656E643A2025730D0A00000078
:1087300070B515468268D2F84841C4F3400424B1AC
:108740001A46294600F0A8FA05E031B1536804A2A0
:10875000022100F079FA012070BD002070BD0000F8
:1087600025733A2077726F6E6720706172616D6554
:1087700074657220636F756E740A000010B504464C
:1087800002290CD1A068D0F84801C0F3400030B1F4
:1087900020460022BDE81040114600F07DBA064A8E
:1087A00006A1206900F0F0FB034A2069BDE81040F3
:1087B000093202A100F0E8BB6DC40200257300007D
:1087C000012907D0022909D18168D1F84811C1F3E4
:1087D000400119B10022114600F05EBA01A2022147
:1087E00000F032BA506C656173652073706563691F
:1087F0006679206120737562636F6D6D616E642EA2
:108800000A0000001CB5012905D002290BD014D99B
:108810004FF0010112E002B04FF00002BDE810403D
:10882000114600F039BA536808A1CDE90013136866
:108830000CA2022100F008FA1CBD002102B00023A6
:10884000BDE810401A46FFF773BF000020756E6B3D
:108850006E6F776E20706172616D657465723A201B
:108860000000000025733A257325730A00000000FC
:1088700010B50446012901D0012100E000210023A8
:108880001A46FFF755FF002809D1A168C1F8380141
:10889000E06840680068BDE8104001F0FBBB10BD17
:1088A0003EB50546012901D0012100E00021002349
:1088B0001A46FFF73DFF002818D1E86840680468B1
:1088C000204601F0E4FBC0B2642110FB01F2A16874
:1088D000B2FBF1F2D2B20092CDE90101A86804A284
:1088E0000021D0F83831284600F0AEF93EBD000036
:1088F0004C6F7374206C6F67733A2025750A4D6155
:1089000078206C6F67207175657565207574696C6A
:10891000697A6174696F6E3A2025752525205B257B
:10892000752F25755D0A00007CB5144605460129A2
:1089300003D0022908D0012107E002B00022BDE8DF
:108940007040114600F0A8B9002100231A46FFF735
:10895000EFFE002809D1616804A0CDE9000109A259
:1089600002212846236800F06FF97CBD20756E6BEC
:108970006E6F776E20706172616D657465723A20FA
:108980000000000025733A257325730A00000000DB
:1089900010B50446012901D0012100E00021002387
:1089A0001A46FFF7C5FE002806D1A068D0F8481186
:1089B00021F00401C0F8481110BD10B5044601298A
:1089C00001D0012100E0002100231A46FFF7B0FE8C
:1089D000002806D1A068D0F8481141F00401C0F881
:1089E000481110BD7CB514460D460646022901D932
:1089F000012100E0002100231A46FFF799FE00281C
:108A000011D1022D05D03046FEF7ACF860B10BA3B2
:108A10000BE061680AA0CDE900010FA202213046F7
:108A2000236800F011F97CBD0EA302B03046BDE80A
:108A300070400DA2002100F007B900006F6E000029
:108A400020756E6B6E6F776E20706172616D6574EC
:108A500065723A200000000025733A257325730AD9
:108A6000000000006F6666004563686F20737461E4
:108A70007475733A2025730A0000000010B504468F
:108A8000012901D0012100E0002100231A46FFF74F
:108A90004FFE002806D1A068D0F8481121F0080147
:108AA000C0F8481110BD10B50446012901D00121BC
:108AB00000E0002100231A46FFF73AFE002806D105
:108AC000A068D0F8481141F00801C0F8481110BD65
:108AD0007FB50446012901D0012100E000210023D7
:108AE0001A46FFF725FE002827D1A0680026D0F8F7
:108AF0004051F5B101E0082E1BD20023092201A943
:108B0000284601F0B4FA9DF80C20A16809232846F4
:108B1000A031521C01F0ABFAA0683346A03000909F
:108B2000029D761C05A20021204600F08DF8002D44
:108B3000E1D1A168002081F8A0007FBD5B253364EE
:108B40005D2025730A0000007CB515460446012906
:108B500003D0022917D9012116E0A16801F11802FA
:108B6000193102F01FFF00281ED0A16850200FA26B
:108B70004876A1681820087602B02046BDE870400B
:108B8000042100F061B8002100231A46FFF7D0FD50
:108B9000002809D1696814A0CDE9000118A20221BA
:108BA00020462B6800F050F87CBD00004E6F20720C
:108BB0006573706F6E73652066726F6D2074686583
:108BC000207465726D696E616C2C20617373756DB4
:108BD00065642038307832342073637265656E20A6
:108BE00073697A650A00000020756E6B6E6F776E90
:108BF00020706172616D657465723A20000000003A
:108C000025733A257325730A0000000010B5044649
:108C1000012901D0012100E0002100231A46FFF7BD
:108C200087FD00280AD1064A06A1206900F0ACF9A8
:108C3000A16850204876A1681820087610BD000071
:108C400086C40200257300000FB438B5044607A897
:108C50000090A068D0F84821520717D5C27E8A42FA
:108C600014D0B0F81B50204603F06AF96A46206918
:108C7000069900F0A2F9E9B2204603F061F9290A49
:108C8000204603F03FF938BC5DF814FB6A462069C2
:108C9000069900F092F9F6E72DE9F04F804689B089
:108CA00017460C468648FDF76AFF05468448363865
:108CB000FDF765FF281A1FFA80F9814881A2233841
:108CC0000090D8F80800082143684046FFF7BCFF31
:108CD000D8F808004068FDF752FF05467848233869
:108CE000FDF74DFF284482B2D8F8080000238168C0
:108CF0004046FEF799FC75A200214046FFF7A4FF0D
:108D00000FB304B300251CE005EB450A04EB8A0B06
:108D1000DBF80400FDF733FF064654F82A00FDF7A0
:108D20002EFF311849450BD9DBF80400FDF727FF6A
:108D3000064654F82A00FDF722FF30441FFA80F956
:108D40006D1CBD42E0D35E483638FDF718FF48443D
:108D5000801C1FFA80F95A4800904B465EA20821F9
:108D60004046FFF771FF09F1030086B20790002328
:108D700032465BA14046FEF757FC002C52D000253E
:108D80004EE000BF05EB450A04EB8A0B54F82A00BD
:108D9000DBF804306BB350B3494956A23639CDE9FC
:108DA000001008214046FFF74FFF09F10200009034
:108DB000DBF80400FDF7E3FE064654F82A00FDF751
:108DC000DEFE06443E483638FDF7D9FE31180098DD
:108DD000401A801EC1B24046FEF732F83A22484996
:108DE000D8F8100000F0D0F80098401C0AE000937A
:108DF00001E040B100904B4637A208214046FFF702
:108E000023FF079886B2DBF8081029B10023324609
:108E10004046FEF709FC02E04046FDF779FF6D1C75
:108E2000BD42AFD3D8F80800C068002845D08146BD
:108E300000200446064603AD02903246761C02AB83
:108E4000012148460095FDF7CBFE029850B100681D
:108E5000FDF795FEA042F0D902980068FDF78FFE5D
:108E600084B2EAE7012E28D026A200214046FFF76F
:108E7000EBFE00263246761C02AB012148460095E7
:108E8000FDF7AEFE0298002817D0A11C8FB2006833
:108E900000903B4610A208214046FFF7D5FE0298FD
:108EA000FF1CBAB2416821B100234046FEF7BCFB6B
:108EB000E0E74046FDF72CFFDCE709B0BDE8F08FA6
:108EC0008CC4020025732573000000004F70746984
:108ED0006F6E733A0A0000002020252D2A733A0095
:108EE00053686F7720636F6D6D616E642068656C89
:108EF000702E0000202025732573257300000000CC
:108F0000246B0200537562636F6D6D616E64733A1A
:108F10000A0000008068D0F84801C0F340007047A4
:108F2000F0B505460478154889B0164640F8242067
:108F3000124A0869121DA2F1080742F82400487F6E
:108F4000385520226846FDF753FA04942878385C97
:108F500048B10EB10A4A00E000226946281D01F01E
:108F600051FD09B0F0BD0EB1064A00E0002269468D
:108F700005F10C0001F010FCF3E70000A422002032
:108F8000EDBC020035BB02000FB408B503990029FF
:108F900004D004AA00926A4600F00FF801B05DF810
:108FA00014FB10B582680446002A05D0D4E90403F6
:108FB000216898470020A06010BD2DE9FC4791462C
:108FC0000C00804676D014F8011B39B125290ED04B
:108FD0004046FDF7E5FC20780028F4D198F80C0015
:108FE000002867D04046BDE8FC47FFF7DABF002005
:108FF000012221782B291BD02D2902D0302908D11C
:1090000002E040F0010001E040F00200641C002A90
:10901000EFD100252A290ED02178A1F130020A2AA9
:1090200011D205EB850201EB4205641C303DF1E7EE
:1090300040F00400EAE7D9F800100B1DC9F8003031
:109040000968641C0D44217800232E290BD114F8E3
:10905000011FA1F130020A2A05D203EB830201EBC2
:109060004203303BF3E76C290DD068290BD0692906
:1090700021D00BDC252918D0582931D063290ED0F6
:10908000642915D117E014F8011FECE7702969D0A5
:10909000732932D075291BD0782909D120E0D9F85D
:1090A0000000011DC9F8001001784046FDF778FC6A
:1090B000641C90E76CE0D9F800100A1DC9F8002084
:1090C0000968CDE900500A224046FEF7F7FCEFE7B9
:1090D000D9F800100A1DC9F8002009680A2206E024
:1090E000D9F800100A1DC9F8002009681022CDE93E
:1090F0000050404602F0ACFEDAE7D9F80010002735
:109100000A1DC9F800200E68C00705D112E04046CC
:10911000761C7F1CFDF744FC31780029F7D104E070
:10912000202140466D1EFDF73BFCBD42C0D9002DFD
:10913000F6D1BDE74EB13046FDF78CF9074604E0A5
:10914000202140466D1EFDF72BFCBD4206D9002DA7
:10915000F6D103E04046761CFDF722FC3178002969
:10916000F8D1A5E7D9F80000011DC9F8001005687D
:1091700030214046FDF714FC78214046FDF710FCF5
:1091800008200021CDE90001034610222946B0E75E
:10919000BDE8FC872DE9F84F894605003248334980
:1091A000304FA0EB01004FEAD0004FF0010101EB7E
:1091B000004478889A46164626D0296800292FD080
:1091C000002E38D06A6849464FF010081268531EC6
:1091D00013EA090F10D172432846FDF717FA002849
:1091E00034D0286853463246046901B049462846BF
:1091F000A446BDE8F04F6047002831D020461C4B04
:109200001CA2CDF8008028E038B10E200090204646
:10921000174B22A223A100F048FD0E20BDE8F88FD5
:1092200038B1082000902046114B29A21DA100F062
:109230003CFD0820F2E738B10920009020460C4B95
:1092400026A218A100F031FD0920E7E7788838B19F
:10925000074B234A2046CDF8008012A100F025FDDF
:109260001020DBE74C24002060D9020028D902003E
:10927000F2C40200616464725F69735F7061676564
:109280005F616C69676E656428705F66732C20701F
:109290006167655F6164647229000000705F6673D6
:1092A00000000000257320636865636B20666169B8
:1092B0006C656420696E202573282920776974689D
:1092C0002076616C756520307825782E00000000CE
:1092D000705F66732D3E705F617069006C656E0033
:1092E000BCCE0200F8B503001448154E124CA0EB9A
:1092F00006004FEAD0004FF0010664884FF00E05DB
:1093000006EB004009D069B119600C6801B0A446B1
:10931000BDE8F04011461846604754B1094B0AA217
:10932000009503E02CB1074B09A200950AA100F0BB
:10933000BCFC0E20F8BD00004C24002060D90200C7
:1093400028D90200A7C40200705F66730000000005
:10935000705F617069000000257320636865636B4E
:10936000206661696C656420696E20257328292058
:10937000776974682076616C756520307825782E61
:1093800000000000044801214174007A08B1002067
:109390007047012070470000E4260020012801D01A
:1093A000032808D10449002201284A7400D0002073
:1093B000087401F047BE7047E426002070B50246ED
:1093C000022801D0032A45D1234C207A002841D01D
:1093D000012833D0022831D120480023022A006816
:1093E00002D0032A2AD11BE0E360017911B10129DF
:1093F00024D10DE0D0E90565711B4FF48056B142D0
:1094000000D33146294481614569A9420ED015E057
:109410000169491C0161426991420FD1237213E035
:10942000E168491CE160082908D9E3602372022A37
:109430000AD00D21FDF710FF01F0A8FD607C28B1D6
:10944000BDE8704001F0AAB80021F3E7BDE8704024
:1094500001F0F8BD70BD0000E42600205423002078
:109460002DE9F84F914605004348444A414EA0EB90
:1094700002004FEAD0004FF0010202EB00448B469D
:109480007088DDF828A098464FF00E011CD0B9F185
:10949000000F1FD02968002926D00921B8F1000F3C
:1094A0002DD06A685368B8FBF3F703FB1782002AD4
:1094B0002CD030B1324B204632A200913CA100F0BA
:1094C000F4FB0920BDE8F88F60B120462C4B43A285
:1094D000009104E030B12A4B204642A2009134A111
:1094E00000F0E3FB0E20EDE738B1082000902046A5
:1094F000234B3EA22EA100F0D8FB0820E2E7002873
:10950000DFD020461E4B3CA20091D7E75846FDF71E
:1095100077F8102798B14846FDF772F8B8B142467F
:1095200059462846FDF772F8D8B1CDF800A0286852
:1095300043464A46C46859462846A047C2E7708851
:10954000002815D020460E4B2CA2009705E070880D
:1095500070B10B4B20462FA2009715A100F0A5FB80
:1095600006E0708820B12046054B33A20097F4E74F
:109570001020A7E74C24002060D9020028D902005F
:10958000DFC4020021286C656E202520705F6673A1
:109590002D3E705F666C6173685F696E666F2D3E0D
:1095A00070726F6772616D5F756E6974290000007B
:1095B000257320636865636B206661696C65642050
:1095C000696E202573282920776974682076616C7C
:1095D000756520307825782E00000000705F667376
:1095E00000000000705F737263000000705F6673BC
:1095F0002D3E705F617069006C656E00616464721D
:109600005F69735F616C69676E6564333228646596
:1096100073742900616464725F69735F616C696768
:109620006E65643332282875696E7433325F74292D
:10963000705F737263290000616464725F69735FB5
:1096400077697468696E5F626F756E647328705FA6
:1096500066732C20646573742C206C656E29000081
:1096600070B541EA4201DDE904564FF0A04441EAF9
:10967000830141EA052104EB800041EA0641C0F87C
:10968000001770BD70B541EA4201DDE904564FF0A4
:10969000A04441EA830141EA052104EB800041EA4C
:1096A0000641C0F8001770BD1CB5002100910B46A3
:1096B00001220191FFF7D4FF1CBD1CB500210091D0
:1096C0000B4601220191FFF7DDFF1CBD1CB50022F6
:1096D0000B46009211460192FFF7C2FF1CBD1CB55C
:1096E00000220B46009211460192FFF7CBFF1CBDF2
:1096F0001CB5002100910B46012201911146FFF794
:10970000AFFF1CBD1CB5002100910B460122019149
:109710001146FFF7B7FF1CBDF0B595B01C461546C6
:109720000E4608461A9F00F08DFC182109A8FCF788
:1097300086FE0E97CDE909540023082203A930467E
:1097400000F095FC05980690BDF81000ADF81C00DF
:10975000BDF81200ADF81E0000208DF8210003991D
:10976000082501F00300012802D0022816D02FE0BE
:10977000C1F3C200C1F383178C0A8DF82000BA0030
:109780002B460FA9304600F072FC09A8009006ABEA
:109790003A460FA9204600F0B1FB19E0C1F3C20020
:1097A0008C0D8DF82000082C01D2274600E00827F8
:1097B0002B463A460FA9304600F059FC3D44E41BC5
:1097C00009AB06AA39460FA800F078FA002CEAD1B6
:1097D000304600F03DFC15B0F0BD7047084810B5AC
:1097E0000178084A515C19B1001D01F0A5F902E0A9
:1097F0000C3001F09FF8BDE81040002002F0B8B92D
:1098000060230020A022002008B5034A00924023D4
:10981000024AFFF781FF08BD09B80200F8260020C0
:109820000A4A012902EBC00007D0022907D0032908
:1098300007D0042907D00020704702207047042079
:1098400070470079704740797047000028D90200BE
:1098500010B588B00024039404940594069406ABD4
:1098600003AA43F2274141F26E000794FDF720FE60
:10987000B0B1A0F50641093902D0032008B010BDEF
:1098800011484088022809D310481149401AC008DD
:10989000022101EB00400FA100F0F4F90520EDE7F3
:1098A000019401A903A80294FDF70AFE0028E5D15E
:1098B0001248134902468A1A0299FCF799FD03A837
:1098C000FDF7D2FDDAE700006024002088D902000D
:1098D00028D902004C6F6767657220636F6E6669F6
:1098E0006775726174696F6E2066696C65206E6F52
:1098F0007420666F756E642E0000000070240020D6
:10990000B024002070B58AB0002021490290009058
:10991000019007900890D1E90701CDE904011D48A5
:109920001D4907AB401A800806906A4643F227415A
:1099300041F26E00FDF7BCFD19491A4A174E891A0B
:10994000C908032202EB0144A8B1A0F50641093978
:1099500003D003250AB0284670BD04A96846FDF768
:10996000F7FD054670880328F4D320462A460EA149
:1099700000F08CF9EEE704A96846FDF7E1FD054625
:1099800070880328E6D320462A4614A1F0E7000099
:10999000D8C60200B02400207024002060240020DB
:1099A00088D9020028D902004C6F6767657220636E
:1099B0006F6E66696775726174696F6E2066696C37
:1099C00065207772697474656E2077697468207297
:1099D0006573756C743A2564000000004C6F67670E
:1099E000657220636F6E66696775726174696F6E08
:1099F0002066696C652075706461746564207769A0
:109A0000746820726573756C743A256400000000F8
:109A10002DE9F04F8DB0FCF7DBFF18B100200DB041
:109A2000BDE8F08F8B4C0020C4F81804BFF34F8FB3
:109A30008949A06802900D684FF00009284004EBA6
:109A400080000BE0D4F8180470B961680298814274
:109A500001D8A160E2E7284004EB80000C3002A9A5
:109A6000FEF7C4F80028EDD100200AAAA04602990A
:109A700001EA050308EB8303491CDB6842F8203048
:109A8000401C02910228F2D30A9800F00301022937
:109A900002D001294ED0BFE0810D50228A46B2EBA0
:109AA000905F00D850210C4664F39F50C0F3C2076A
:109AB0000A900831694800F07CFA0600EBD000F00B
:109AC000C1FA4B4608220AA9304600F0D8FA02999A
:109AD00009F1080B2940681A8000001D844222D930
:109AE0005C4D0C3530B1C2B208EB8101201A9146B1
:109AF0000C3104E02946E2B2002591462846C4B262
:109B00005B46304600F0BBFA0BEB090325B1224659
:109B10002946304600F0B3FA02990AF1030001EB3E
:109B2000900002903CE008EB81015B462246304603
:109B30000C31EFE7C0F38311062900D3062161F34E
:109B400089100A900A99C0F38310C1F3C207801CE0
:109B50008100424800F02DFA06005DD000F072FA54
:109B60004B4608220AA9304600F089FA09F1080993
:109B700000240FE002984B460246284008EB800183
:109B8000501C0290042230460C3100F078FA09F1A2
:109B90000409641C0A98C0F38310A042EAD8D6B323
:109BA000D8F81044D8F818044546F8B1304600F00B
:109BB0004FFA4AE0E0684179012915D10179BDF8F1
:109BC0002C00274A01EB410152F8200007228A406D
:109BD0001040C840052F00D10327B84204D32268A3
:109BE0002046314612689047E0680468002CE1D1B5
:109BF000304600F02DFA00208DF800006846FCF792
:109C00009BFDD5F8180408B90298A8609DF80000DB
:109C1000FCF7B6FD19E0FFE7D8F8104405E021682D
:109C2000204689688847E0680468002CF7D10D4811
:109C30004088022809D30C480C49401AC008022168
:109C400001EB00400AA100F01DF8FCF7C1FE80F016
:109C50000100E4E6902800207C230020A8D902001F
:109C6000702400206024002088D9020028D9020036
:109C70004261636B656E647320666C7573686564BE
:109C80000000000000231A4601F042BE08B501237F
:109C900000926A4601F03CFE08BD1CB5CDE90023E8
:109CA00002236A4601F034FE1CBD3EB5069C8DE8D9
:109CB0001C0003236A4601F02BFE3EBD2DE9F04750
:109CC0000E4680461C469246082940D894F80C90CF
:109CD000002020731946104601F0EAF80025B5422D
:109CE00006D218F805201BA12046FFF74DF903E026
:109CF0001AA12046FFF748F96D1C082DEFD318A1D3
:109D00002046FFF741F90025B54212D218F8057038
:109D10007E2F08D8FCF768FB0068C05D10F03E0F8E
:109D200001D03A4600E02E220EA12046FFF72CF982
:109D300003E00DA12046FFF727F96D1C082DE3D3A2
:109D400001222146504601F095F884F80C90BDE8B8
:109D5000F08700002025303278000000202020000D
:109D60007C00000025630000200000002DE9F04782
:109D70001F494FF000081F4881F8008000F066F985
:109D8000002832D11C4800F00BFA1C49DFF8709013
:109D9000DFF870A0A1EB0900C608002414E000273A
:109DA0003D460CE0AC4209D059F8340059F8351062
:109DB0001422FCF764FB002800DD7F1C6D1CB542FB
:109DC000F0D32AF82470641CB442E8D30020414642
:109DD00054460D4D06E000BF04EB8002518045F86B
:109DE0002010401CB042F7D30020BDE8F0870000EF
:109DF00090280020A8D90200E8C60200A8D90200D5
:109E000028D9020030240020702400200248034991
:109E1000401AC00870470000A8D9020028D90200E3
:109E20007FB505461146002401A873B1FEF7C8FAB4
:109E300098B90B480199072250F8210005EB45011C
:109E40008A401040C840C4B207E0FEF7B9FA20B912
:109E50000448019900EBC100847904B0204670BD2C
:109E60007024002028D9020070B5114B00EB40008F
:109E700003EB81040F4B02F0070203EB8101072380
:109E800003FA00F60D688240B5432A4300200A60B9
:109E90004FEA000103FA01F51540CD40ADB285420D
:109EA00000D92846C91C0A29F4D3608070BD00007F
:109EB000302400207024002013B56846FEF780FA95
:109EC00008B100201CBD0248009950F831001CBDAB
:109ED00028D9020070B508480125D0F81044057053
:109EE00007E0E06845712168204649688847E068D6
:109EF0000468002CF5D170BD902800202DE9FF47A3
:109F000081460C9D00200C462F7B287398461646F0
:109F10002946184600F0CCFF072E42D2DFE806F0B3
:109F200004090F161F2A360049462846FFF72CF869
:109F300037E0494628462268FFF726F831E0D4E9A1
:109F4000002349462846FFF71FF82AE0A068009042
:109F5000D4E9002349462846FFF716F821E0D4E962
:109F60000201CDE90001D4E9002349462846FFF764
:109F70000BF816E004F1080007C88DE80700D4E9E3
:109F8000002349462846FEF7FFFF0AE004F10800D7
:109F90000FC88DE80F00D4E9002349462846FEF794
:109FA000F3FF00222946404600F064FF2F73BDE80E
:109FB000FF872DE9F041058B80462D1F4819C01CF5
:109FC000B0FBF5F0C6B24046FEF7BEFA041E19D04B
:109FD0000020207101206071E58000272546761E53
:109FE000C4F800800BE04046FEF7AEFA60B161793C
:109FF000491C6171286005467F1CC0F80080B7428B
:10A00000F1D32046BDE8F081204600F002F80020A0
:10A01000F8E72DE9F041457901466B1E002201E089
:10A020000968521C9A42FBD30F680146002605E0DE
:10A0300038460C68FEF7AAFA2146761CAE42F7D3E2
:10A04000BDE8F0810121001DFEF758BAFEF7B6BA4F
:10A0500010B504460121001DFEF770FA10F0FF0F45
:10A0600004D12046BDE81040FFF7D3BF10BD1CB59A
:10A0700001920122009201AAFEF750F91CBD1CB505
:10A0800001920022009201AAFEF748F91CBD006867
:10A090008068704700680021816070472DE9F04FAB
:10A0A0008146806889B0D0F84801C0F3400038B1DB
:10A0B00009B04846BDE8F04F00221146FEF7ECBD5E
:10A0C000012907D909B04846BDE8F04F1DA2022179
:10A0D000FEF7BABD2049DFF884B0A1EB0B001C21CC
:10A0E000B0FBF1F8002526E0C5EBC5010BEB8104C0
:10A0F0002068D4E9026A8768204600F03FF86421AE
:10A10000794364224243B1FBF6F1B2FBF6F2636994
:10A11000247CACB112A400BFCDE90664CDF800A048
:10A120000597CDE90120CDE90361104A0821484691
:10A13000FEF78AFD6D1C4545D6D309B0BDE8F08F0A
:10A140000BA4E9E742616420617267756D656E7406
:10A1500020636F756E7400000000000000000000B6
:10A160004E6F206F766572666C6F770038CF020095
:10A170004F766572666C6F770000000038B5044654
:10A1800000208DF800006846FCF7D6FA204600F063
:10A19000C9FF04469DF80000FCF7F2FA204638BDDE
:10A1A00082680021916082681161826851618268D1
:10A1B000D1608268516080680160704708B50022F4
:10A1C00042504058009008BD20B103490968016021
:10A1D000002070470E207047C8C80200FEB5024636
:10A1E0000E460846FFF7F0FF002872D100240094C5
:10A1F0008DF8002001208DF8020001940620ADF8B2
:10A200000400029469462020326869DF3249334AEB
:10A21000304F891AC908012202EB014540B1798803
:10A2200031B100F055FA024628462D49FFF72EFDC0
:10A2300000948DF801408DF80240019402948DF84D
:10A24000034069464020326869DF40B1798831B106
:10A2500000F03EFA024628462249FFF717FD009417
:10A26000019402948DF8004069460120326869DF4C
:10A2700040B1798831B100F02BFA024628461A49DC
:10A28000FFF704FD4FF4B06000900194029469461A
:10A29000A120326869DF40B1798831B100F018FA45
:10A2A000024628461149FFF7F1FC009401940294FC
:10A2B0008DF800406946A020326869DF40B1798896
:10A2C00031B100F005FA024628460949FFF7DEFCE5
:10A2D0000020FEBD6824002098D9020028D9020081
:10A2E0004CD7020094D70200ACD60200F8D6020088
:10A2F00058D602002DE9F0470546D0F8008060DF0F
:10A300002249234A2B68891ADFF87C90CE08074639
:10A31000434525D9B9F80200022821D3022000EBD9
:10A32000064004461BA1FFF7ADFCB9F80200022865
:10A3300016D32046424623A12B68FFF7AEFCB9F89E
:10A34000020002280CD34FF08050D0F80C0129688D
:10A35000800200F10050421A204627A1FFF796FC28
:10A36000012477B1B9F8020040B1384600F0B0F9E5
:10A37000024604EB06402BA1FFF788FC3846BDE8F7
:10A38000F08730480470F9E76824002098D902006B
:10A3900028D90200496E73756666696369656E74D3
:10A3A0002052414D20616C6C6F636174656420665E
:10A3B0006F722074686520536F66744465766963B4
:10A3C000652E00004368616E6765207468652052E1
:10A3D000414D207374617274206C6F636174696F96
:10A3E0006E2066726F6D203078257820746F203073
:10A3F0007825782E000000004D6178696D756D201C
:10A4000052414D2073697A6520666F7220617070C9
:10A410006C69636174696F6E206973203078257888
:10A420002E00000073645F626C655F656E61626C34
:10A430006528292072657475726E65642025732EF7
:10A4400000000000FB23002030B5144891B00078D4
:10A45000002820D05FF03405ADF8405010A903A8C3
:10A4600061DF30B1052816D011B0BDE83040FCF7EF
:10A4700023B903AC0A49684600F0BCF807E000BF06
:10A48000D0E9002120469047684600F0CAF80298BB
:10A490000028E1D0F4E711B030BD0000FB2300201C
:10A4A000CCC80200F8B5134C2078C0B10120A070D0
:10A4B00001F07CF9112814D0022001F08FF9002559
:10A4C0008DF800506846FCF737F911DF0646257015
:10A4D0009DF80000FCF754F92EB13046F8BD082075
:10A4E000F8BD0020F8BDA57001F0C0F9032001F00F
:10A4F00075F9F6E7F82300207CB5194C207808B1EF
:10A5000008207CBD0120A070002001F04FF9112827
:10A5100019D0002001F062F912480026006801906D
:10A520008DF800606846FCF707F90F4901A810DFB5
:10A5300005000AD0002020709DF80000FCF720F9EB
:10A540002DB128467CBD00207CBD0120F3E7A6701C
:10A55000667001F0ABF9012001F040F9F3E700006B
:10A56000F823002060C80200256602000EB50749E6
:10A57000684600F03FF805E0D0E9001088476846DB
:10A5800000F04FF802980028F6D10EBD7CC80200FA
:10A590000148007870470000F823002005488178C2
:10A5A00019B1007818B1FFF77DBF08207047FFF799
:10A5B000A3BF0000F82300201FB568464BDF30B171
:10A5C000052814D004B0BDE81040FCF775B8084960
:10A5D00001A800F00FF806E0D0E9002100989047AC
:10A5E00001A800F01EF803980028E6D0F4E71FBD8C
:10A5F000E8C80200016009684160AFF3008010B54F
:10A60000D0E900215368994201D1002104E0D1E949
:10A610000034A34202D01946816010BD0831416068
:10A62000F0E7816800290BD0026892680A448260D2
:10A6300041684B689A4203D108314160FFF7DFBFA0
:10A64000704770B50D460646446804E0B268294676
:10A65000904718B1246820680028F7D12068286046
:10A66000256070BD40680068704741680868002830
:10A6700001D002680A60704702460020526806E076
:10A680008B4203D108681060012070471A46136896
:10A69000002BF5D1704700000C4A10B502F59473F9
:10A6A0000EE0991AC91001EBD171491002EBC101FA
:10A6B0000C68844201D90B4602E005D201F1080280
:10A6C0009A42EED3002010BD486810BD84C5020038
:10A6D00000B5FFF7E1FF002800D1014800BD0000F0
:10A6E00070C502004058002800D00120704708B50E
:10A6F000002242504058009008BDD0F804030840A2
:10A7000000D0012070474058002800D00120704739
:10A7100008B5002242504058009008BD002802D0E1
:10A720000149800108477047A1C202000121B1EB35
:10A73000507F01D1012070470020704738B50D4689
:10A7400000F002FC040014D000208DF800006846E0
:10A75000FBF7F2FF207928B19DF80000FCF710F814
:10A76000112038BD0120256020719DF80000FCF704
:10A7700007F8002038BD10B500F0E6FB002802D035
:10A7800000210160017110BD0149024801F018BAB1
:10A79000C4240020002000402DE9F0410546007946
:10A7A00016460F4600EB40012D4A01EBC00102EBBB
:10A7B000810494F82A1011B10820BDE8F0812949DC
:10A7C00051F820102868FFF7B9FF08B11120F4E70D
:10A7D00039462846FBF7EEFF666038692060300096
:10A7E0004FF001062FD03F7F4FF48E712868FFF79E
:10A7F0007EFF4FF4A2712868FFF779FF28681A4995
:10A80000C0F8041328684FEA471140F307300028C6
:10A8100004DB00F1E02080F8001405E000F00F00F8
:10A8200000F1E02080F8141D286840F3073000286C
:10A8300009DB00F01F0106FA01F14009800000F178
:10A84000E020C0F8001128680421C0F8001500209D
:10A85000A061E06184F8290044F8140FA675ACE704
:10A86000C424002078C20200800002002DE9F05FBD
:10A87000054600790B4600EB400101EBC00024497E
:10A8800001EB8004284600F045F810B11120BDE826
:10A89000F09F62614FF00009C4F82090A36084F833
:10A8A00028904FF48E784E4641462868FFF71FFFE8
:10A8B00028684FF0010AC0F808A02146286801F076
:10A8C0000FF9606808BBD5F800B067690FE000BFFA
:10A8D00094F8280008B10F2615E041465846FFF7C6
:10A8E00001FF0028F4D02146584601F0F9F8206A0B
:10A8F000B842F2D3574641462868FFF7F3FE0028D6
:10A90000F9D02868C760C4F814903046BFE700004B
:10A91000C4240020007900EB400101EBC000044991
:10A9200001EB80004069002800D001207047000042
:10A93000C42400202DE9F047044600794FF00009B7
:10A9400000EB400101EBC000284901EB80072068C3
:10A95000C0F800957868B0B120682549C0F80813A0
:10A96000206840F3073000280DDB00F01F020121B2
:10A9700091404009800000F1E020C0F88011BFF351
:10A980004F8FBFF36F8F2068D0F80C25D0F8148557
:10A99000D0F80865D0F810554FF0FF31C0F8141505
:10A9A000C0F80C152068C0F80815C0F81015501C28
:10A9B00002D01046FEF778FEB8F1FF3F02D04046C5
:10A9C000FEF772FE681C02D02846FEF76DFE701C72
:10A9D00002D03046FEF768FE2068FFF7CCFE87F80D
:10A9E0002A90C7F80490BDE8F0870000C424002036
:10A9F000840202000149024801F090B9F0240020CD
:10AA0000002000402DE9F0410546164600790F462A
:10AA1000154A00EBC00102EB810494F8201011B13B
:10AA20000820BDE8F081114951F820102868FFF78F
:10AA300085FE08B11120F4E739462846FBF7FEFEF3
:10AA40006660386920601EB1397F2846FDF78AF8B4
:10AA500028680821C0F800150020A061E06160614D
:10AA6000012184F82010DCE7F02400207CC20200E1
:10AA70002DE9F04704460E460079274900EBC00057
:10AA800001EB800517463046FFF750FE30B12046F7
:10AA900000F044F820B11120BDE8F0871020FBE75A
:10AAA0006F61AE604FF490774FF000083946206830
:10AAB000FFF72EFE4FF4AC7631462068FFF728FEF4
:10AAC0002068AA686969C0F84425C0F8481520685C
:10AAD0004FF00109C0F808906868D0B9BA465146ED
:10AAE0002068FFF710FE074631462068FFF70BFE8F
:10AAF0000743F4D010B14FF00F0808E02068C0F809
:10AB00000C9031462068FFF7FEFD0028F9D00020A8
:10AB100068614046C0E70000F02400200079054944
:10AB200000EBC00001EB80004069002800D001204C
:10AB300070470000F02400202DE9F0470646007918
:10AB40003D4900EBC00001EB8005346868680127CF
:10AB5000A8B13A49C4F80813306840F30730002818
:10AB60000DDB00F01F0107FA01F14009800000F140
:10AB7000E020C0F88011BFF34F8FBFF36F8FD4F880
:10AB8000000220F02000C4F80002A8694FF4A27867
:10AB900020B141462046FFF7BBFD67604FF4AC791A
:10ABA00049462046FFF7B4FDE76047464946204640
:10ABB000FFF7A9FD0028F9D0A86928B13946204639
:10ABC000FFF7A1FD0028F1D04FF0000AC4F800A55E
:10ABD0003068D0F80C25D0F81495D0F80885D0F856
:10ABE00010754FF0FF31C0F80C15C0F8141530681F
:10ABF000C0F80815C0F81015501C02D01046FEF71A
:10AC00005CFDB9F1FF3F02D04846FEF756FD781CC7
:10AC100002D03846FEF751FDB8F1FF3F02D0404662
:10AC2000FEF74BFD2046FFF7A6FD85F820A0C5F8EE
:10AC300004A0BDE8F0870000F024002010034200CB
:10AC400003490860034801680029FCD070470000F0
:10AC500004E5014000E4014048B1064A0168914220
:10AC600005D140680449401802D0012800D00320D3
:10AC700070470000DEC0ADDE02FEE10E8A7D022AD2
:10AC800004D90289CB881A44D21C02814289C9881E
:10AC9000511AC91E418170472DE9F0410D4602212C
:10ACA000904600F58056298000F10804144F1BE0FF
:10ACB00031462046FCF764FE40B1B8F1000F02D0E7
:10ACC000012288F80020022816D004E0A0687969E3
:10ACD000884200D97861288861880844C01C28808F
:10ACE000608804EB80040C3431462046FCF75EFE9D
:10ACF0000028DDD1BDE8F0814FF480602880F9E7BD
:10AD00001023002008B50021009101460823024AC3
:10AD10000248FEF7A5FB08BDB8C202001C240020B3
:10AD200008B50020009004480823044A016804483C
:10AD3000FEF796FB08BD000038230020B0C20200D9
:10AD40001C2400202DE9F05F0026DFF81891DFF8C1
:10AD500018B134464FF00308B2463746D9F80C0014
:10AD600000EB07352846FFF777FF98B301284BD053
:10AD7000032869D12868411C02D03C49884205D18A
:10AD80000120820255F82010491C0ED004EB8401EA
:10AD90000BEB8102A8F10100556003221FFA80F835
:10ADA0000BF82120641CA4B24EE0401C9042E9D371
:10ADB0002F48016879B104EB840002210BF82010C0
:10ADC0000BEB800045600181274828304480641CDB
:10ADD000A4B205E007E00221056081804FF0010A7E
:10ADE00046F0010630E004EB840100220BF821203C
:10ADF0000BEB810101F110024D6028460831FFF78D
:10AE00004BFF46F00206CDE7BAF1000F0FD004EB7E
:10AE100084000221164A0BF820100BEB8000126808
:10AE200042600181104828304480641CA4B210485C
:10AE30000022011D05602846FFF72EFF0C48808880
:10AE400002280CD0082006437F1CBFB2032F85D3F5
:10AE5000B8F1020F00D20026F0B2BDE8F09F042046
:10AE6000F1E700001C24002020260020DEC0ADDE1B
:10AE70003823002010B50C46017A052908D0407A05
:10AE800038B1084808A102682046FEF77DF800E0C6
:10AE90001AB106A12046FEF777F82046BDE810401B
:10AEA000FEF77FB8D4230020257300000D0A0000B0
:10AEB00038B5C3880D46044633B114A0009015A2DE
:10AEC00016A12846FEF760F8217A05291CD0607A81
:10AED00048B1A088FEF7A4FC164951F8202016A11D
:10AEE0002846FEF751F8A0880021FEF7E5FF03464B
:10AEF0001049207A143951F8202001B02846BDE8C5
:10AF000030400EA1FEF740B838BD00001B5B306D2D
:10AF1000000000001B5B313B33316D0025734C6F2B
:10AF200067732064726F707065642028256429251A
:10AF3000730D0A00D4230020257300003C25733EC6
:10AF40002025733A200000000349884201D10348BC
:10AF5000704700207047000000200040AC22002015
:10AF60000146054810B50068FDF793FA04461C2118
:10AF7000FBF765FA204610BDA8C202000146024850
:10AF80000068FDF7A7BA0000A8C202000348024902
:10AF90000068FDF789BA00005823002008C50200A8
:10AFA000F0B5264D264E85B004460027686828B9BE
:10AFB000224930680831FDF782FA6860014600785E
:10AFC000072817D2DFE800F0160408080E0E12005A
:10AFD0002046FCF70FFD02E0204601F091F8040046
:10AFE00029D009E02046FBF743FFF8E72046FCF7AD
:10AFF000ABFBF4E748F20E6414216846FBF71FFA36
:10B00000A4F5E8501D3800D1002401946946686811
:10B01000FCF7D8F86846FCF70FF908496F60002480
:10B0200008313068FDF740FA044801210C30FDF783
:10B0300085FA0028BAD105B0F0BD00001023002029
:10B04000A8C202002DE9F041234C0025234E207AAE
:10B05000012730B92248311D0068FDF730FA306011
:10B0600038B1022020723168087928B101281ED138
:10B0700016E06560BDE8F081D1E90503C01A4FF420
:10B080008052904200D31046B7EB900F01D2820855
:10B0900000E001220869C9681844194429DF03E067
:10B0A000D1E90301084428DF58B1112812D0032147
:10B0B0003068FCF7D1F825726560BDE8F041FFF714
:10B0C00065BF207C0028D5D1BDE8F04100210220D9
:10B0D000FEF774B92772CDE7E42600205423002040
:10B0E00008C5020010B501210448FDF70DFA00283B
:10B0F00003D1BDE81040FFF753BF10BD1C23002053
:10B1000010B5074C201DFDF7F6F9002806D1607C2C
:10B11000002803D1BDE81040FFF794BF10BD000028
:10B12000E426002001680A684968914201D3881A20
:10B1300070478068801A0844401C704710B510465C
:10B140001A46FBF755F9002010BD00002DE9F04725
:10B15000074620481C46154600780E4670B18DB152
:10B1600084B1DFF874804FF00009A08802282DD246
:10B1700000EB800118F8210020BB1BE048F20160C1
:10B18000BDE8F08748F20460FAE720681FB18188C3
:10B190003A8891420ED11EB101883288914209D17C
:10B1A00080682860206868600B4828300089288102
:10B1B0000020E5E7A088214600F060F80028E4D1EF
:10B1C000C4F80090A088401CA080CEE748F2096037
:10B1D000D6E700003023002020260020F8B50546E1
:10B1E0004068244F0C46002648B32349CA6882426F
:10B1F00025D80969814222D3FCF71AFDF8B12889C4
:10B20000398988421BD1D5E900018A68904216D15C
:10B210000020A7F1280200BF00EB800302EB8303AC
:10B220005B688B4205D203F580538B4201D92080A5
:10B2300011E0401C80B20228EED30020F8BD268029
:10B2400000960AE0009829688068884205D1009835
:10B250006860388928810120F8BD2088694600F09F
:10B260000DF80028EED12088401C80B220800228F2
:10B27000E6D3E2E7482600201C24002070B50E46E5
:10B2800000EB8001134800EB81004468306804F54E
:10B29000805518B1418800EB810411E0083410E0BA
:10B2A00029462046FCF76CFB20B1012805D0022876
:10B2B00007D10DE00120346070BD608804EB80048C
:10B2C0000C3429462046FCF771FB0028E8D170BDFC
:10B2D000002070BD2026002038B50C4600210091CA
:10B2E00001460423084A0948FEF7BAF810B148F2AB
:10B2F0000D6038BD064A04EB840102EB8101012098
:10B300000874002038BD0000ACC202001C240020DC
:10B310002026002070B523482349214D401AC0083B
:10B320006A88032186B001EB0044032A03D3204638
:10B330001EA1FEF7A7FC2148FCF70EF96888032838
:10B3400003D320461EA1FEF79DFCFCF71BF808B1B5
:10B35000FBF7B2F91F4E307800281FD01421684641
:10B36000FBF76DF86846FCF70FF9061E01D0FBF7F6
:10B37000A3F9688803280ED3BDF80420204616A13F
:10B38000FEF784FC6888032805D3BDF80620204614
:10B3900017A1FEF77BFC06B0304670BD41DFDAE74F
:10B3A0006024002088D9020028D902004644532096
:10B3B000737461727465642E00000000D57202001F
:10B3C000496E697469616C697A696E672066647335
:10B3D0002E2E2E0060220020466F756E642025649C
:10B3E0002076616C6964207265636F7264732E00ED
:10B3F000466F756E642025642064697274792072CA
:10B4000065636F7264732028726561647920746F5C
:10B41000206265206761726261676520636F6C6C92
:10B420006563746564292E0030B587B01546002227
:10B430001C460292039204920592069289B280B24F
:10B4400005AB02AAFCF734F800280ED1694602A821
:10B45000FCF736F80098408882002260284601995F
:10B46000FAF7C6FF02A8FBF7FFFF07B030BD0000E8
:10B470002DE9F0478AB00746002004909A4691468D
:10B480000E46059006900890099089B2B8B208ABB4
:10B4900004AAFCF70DF804001C481D49DFF8688079
:10B4A000A0EB01004FEAD0004FF0030101EB004593
:10B4B0000CD0B8F80200032804D3284615A100BF19
:10B4C000FEF7E0FB0AB02046BDE8F0870AF1030072
:10B4D0008008CDE90290ADF80470ADF8066001A9CE
:10B4E00004A8FCF72DF80400ECD0A4F506400638BB
:10B4F00003D02046FBF7E0F8E4E7B8F802000328A1
:10B50000E0D328460849DBE76024002088D9020000
:10B5100028D902004E6F7420466F756E64207265E4
:10B52000636F7264000000007CC902000EB5DB1C72
:10B53000ADF80000ADF802109808CDE90120694689
:10B540000020FCF705F8002805D0A0F506410639D3
:10B5500002D0FBF7B1F80EBD074840880328FAD3A4
:10B5600006480749401AC008032101EB004005497D
:10B57000FEF788FB0EBD00006024002088D9020081
:10B5800028D902007CC902002DE9F047884600EB6B
:10B5900080011E481D4600EB810016464168DDF81B
:10B5A000209001F1080401F580571BE03946204640
:10B5B000FCF7E6F968B1012802D0022812D119E09F
:10B5C0003088401C3080288861880844C01C28804E
:10B5D00004E0B8F80000401CA8F80000608804EB04
:10B5E00080040C3439462046FCF7E0F90028DDD110
:10B5F000BDE8F0873088401C30802988381B01EB7B
:10B60000A0002880012089F80000F1E72026002012
:10B610000846704770B50546FBF732FD134C40B144
:10B62000D4E904024FF08071411842F10000C4E9EE
:10B63000041000212846FBF775FC30B1606820B18A
:10B64000606800F0DFF90020606001212846FBF708
:10B6500069FC18B1FCF77AF9C4E90601284600F044
:10B6600001FA2846BDE8704000F034B8B822002046
:10B6700070B5054600200C460870FCF767F9D5E95F
:10B680000223101A63EB010300263146361A994152
:10B6900012DAB0F5350F03D3FBF71AF80B4942184D
:10B6A0004FF4960300210A48FBF7F6FC10B10D2871
:10B6B00006D009E0012070BD00210548FBF728FCF9
:10B6C000284600F09FF92070002070BDFFFFB400F5
:10B6D000C0220020F8B51B4C074600261A48FEF78A
:10B6E000C1FFD8B1616879B1D0E902106268D2E9CE
:10B6F0000232C91A904121D2606890F8200018B136
:10B7000061681148FEF79DFF00F0FCF805466946A8
:10B71000FFF7AEFF98B1606840B10AE060680028AA
:10B720000CD13846BDE8F840FBF7B2BC3846FBF711
:10B73000ABFC65609DF800000028CFD1F8BD6660C5
:10B74000CCE70000B822002088C2020070B5054690
:10B7500088690C4600284FF4847128460AD0FEF709
:10B76000C6FFD5F81805626AE1688854606A401C13
:10B77000606270BDFEF7BBFFD5F8180570BD1FB540
:10B7800001238DF80030CDE90121D0E9001268468F
:10B7900090471FBD1FB501238DF80030CDE9012171
:10B7A000D0E90012684690471FBD00003EB5044630
:10B7B00009496846FEF71EFF08E000BFD0E90021F6
:10B7C0002046904730B16846FEF72BFF02980028CC
:10B7D000F4D13EBD11203EBD64C802003EB5044612
:10B7E00008496846FEF706FF07E000BFD0E90021E0
:10B7F000204690476846FEF714FF02980028F5D1CE
:10B800003EBD000070C8020070B50D4C0020D2B2E1
:10B810002070201D0B4D0378EB5C1BB1001DFFF762
:10B8200027F902E00C30FFF721F808B1FAF744FFDE
:10B830006078002802D021780029FAD070BD00007D
:10B840005C230020A02200200022CA604A60054A32
:10B850008A60052803D2044A52F8200000E0002044
:10B8600008607047D8C602009423002010B5162047
:10B87000FAF7B4FE48B10C4882684FF4800152B127
:10B88000016821F48001016010BDBDE8104042F262
:10B890000100FAF711BF4FF0E020C0F88011BFF3AC
:10B8A0004F8FBFF36F8F10BD6C25002010B5162091
:10B8B000FAF794FEA0B1114890F800044009082856
:10B8C00011D20121814011F0EC0F0CD00C4882689C
:10B8D0004FF480016AB1016841F48001016010BD3C
:10B8E00042F2010001E042F20200BDE81040FAF726
:10B8F000E3BE4FF0E020C0F8001110BD16E000E0FC
:10B900006C2500200148FEF7B0BE000088C202008E
:10B910002DE9F84F074621489146884605681E469E
:10B92000012269461846FAF7F1FFDFF874A060B308
:10B93000009800210446801C0AE000BF00EA0502CE
:10B9400059F821C00AEB8202401C491CC2F80CC005
:10B95000B142F3D34FEA1749FBF7D0FA611C2940F3
:10B960000AEB810149EA00422C40CA600AEB8401DB
:10B97000C86867F3C50066F3891068F39F2020F05C
:10B980000300401C20F00400C8609AF8000001E0A9
:10B99000FEF73EF80028FBD1BDE8F88F7C2300209D
:10B9A000902800202DE9F04115460E460446FBF78D
:10B9B000B5F978B9A068FA21077D90F8168020467D
:10B9C000FBF73EFAFA212046FBF776F92046FBF713
:10B9D000A5F910B10620BDE8F081A068007D3070A7
:10B9E000A068807D28703078C01BC1B22046FBF76C
:10B9F00083F92978A1EB0800C1B22046FBF72CFAA5
:10BA00000020E8E770B5044614480025007810B31C
:10BA10000CB394F82000F0B1FBF798FFD4E90223AF
:10BA2000801A994112D32069002608B984F8206051
:10BA3000D4E905108847206968B194F8201051B105
:10BA4000D4E9022110187141C4E9020121460448D9
:10BA5000FEF7F7FD0125284670BD0000B822002042
:10BA600088C20200F8B51C4C69462068FCF727FD27
:10BA700000260127194D2CE0017821B101290ED0B3
:10BA800002291ED116E0416891F82020CAB981F838
:10BA90002070416810480830FEF7D3FD11E041687E
:10BAA0006868814201D16E600BE00B480830FEF7F8
:10BAB000E3FD06E0FFF726FF10B180F82060F9E70C
:10BAC0002F7069462068FCF7EFFC69462068FCF798
:10BAD000F6FC0028D0D1F8BD80C20200B8220020B8
