:020000040002F8
:10600000785D0020C1630200C9630200CB63020017
:10601000CD630200CF630200D163020000000000E4
:10602000000000000000000000000000D363020038
:10603000D563020000000000D7630200D9630200AC
:1060400015660200DB630200B9690200DB6302002F
:10605000DB630200DB63020071650200DB630200A8
:10606000DB630200DB630200DB630200DB63020030
:10607000DB630200DB630200DB630200DB63020020
:10608000DB6302006D660200DB630200DB6302007B
:10609000DB630200DB630200DD660200DB630200FB
:1060A000DB630200DB630200DB630200DB630200F0
:1060B000DB630200DB630200000000000000000060
:1060C000DB630200DB630200DB630200DB630200D0
:1060D000DB630200DB630200DB6302000000000000
:1060E00000000000000000000000000000000000B0
:1060F00000000000000000000000000000000000A0
:10610000000000000000000000000000000000008F
:10611000000000000000000000000000000000007F
:10612000000000000000000000000000000000006F
:10613000000000000000000000000000000000005F
:10614000000000000000000000000000000000004F
:10615000000000000000000000000000000000003F
:10616000000000000000000000000000000000002F
:10617000000000000000000000000000000000001F
:10618000000000000000000000000000000000000F
:1061900000000000000000000000000000000000FF
:1061A00000000000000000000000000000000000EF
:1061B00000000000000000000000000000000000DF
:1061C00000000000000000000000000000000000CF
:1061D00000000000000000000000000000000000BF
:1061E00000000000000000000000000000000000AF
:1061F000000000000000000000000000000000009F
:10620000DFF80CD000F076F90048004785900200D6
:10621000785D002030B450E8012F93B2C489234444
:106220008489A34228BF1B1B0489A34202BFBFF37A
:106230002F8F002007E0C3EA020340E80134002C5E
:10624000E9D14FF001000A6030BC704750E8012FDF
:10625000C2EA024240E801210029F7D1704730B478
:1062600050E8022F1FFAA2F3C488A34202BFBFF373
:106270002F8F00200DE0C48923448489A34228BFC6
:106280001B1BC2EA034340E80234002CE8D14FF064
:1062900001000A6030BC704750E8022FC2EA224277
:1062A00040E802210029F7D17047034653E8022F46
:1062B000D988B2EB324F4FF0000017BF92B241EADB
:1062C000014142EA014104E05A68B2EB324F08BF93
:1062D000012043E80212002AE8D1704730B4044696
:1062E00054E8000F0D4644E80053002BF8D1156028
:1062F00030BC704730B4044654E8000F40EA010552
:1063000044E80053002BF7D1156030BC704730B41F
:10631000044654E8000F00EA010544E80053002B4E
:10632000F7D1156030BC704730B4044654E8000F14
:1063300080EA010544E80053002BF7D1156030BC1A
:10634000704730B4044654E8000F00EB010544E800
:106350000053002BF7D1156030BC704730B40446B1
:1063600054E8000FA0EB010544E80053002BF7D1DF
:10637000156030BC704770B404464FF0000054E81C
:10638000006F0D68AE4207BF44E80023012044E8D7
:1063900000630E60002B1CBF0020F0E770BC70474C
:1063A00030B4044654E8000F88422CBF451A054615
:1063B00044E80053002BF5D1156030BC7047000055
:1063C0000648804706480047FEE7FEE7FEE7FEE78F
:1063D000FEE7FEE7FEE7FEE7FEE7FEE7E166020016
:1063E000016202002DE9F05F0546002092469B46BF
:1063F00088460646814640241BE0284641464746DB
:10640000224600F067F853465A46C01A914110D30D
:1064100011461846224600F016F82D1A67EB0108BF
:106420004F4622460120002100F00DF817EB00092D
:106430004E41201EA4F10104DFDC484631462A46C5
:106440004346BDE8F09F202A04DB203A00FA02F11F
:10645000002070479140C2F1200320FA03F3194352
:106460009040704700487047CCC5020040EA0103E5
:106470009B0703D009E008C9121F08C0042AFAD2FA
:1064800003E011F8013B00F8013B521EF9D27047BE
:10649000D2B201E000F8012B491EFBD27047002266
:1064A000F6E710B513460A4604461946FFF7F0FF13
:1064B000204610BD421C10F8011B0029FBD1801A98
:1064C0007047034611F8012B00F8012B002AF9D17F
:1064D00018467047202A04DB203A21FA02F00021F6
:1064E000704721FA02F3D040C2F1200291400843E4
:1064F00019467047064C074D06E0E06840F001037E
:1065000094E8070098471034AC42F6D3FFF77CFEBE
:1065100040CD020060CD020070B58C1810F8015B10
:1065200015F0070301D110F8013B2A1106D110F82C
:10653000012B03E010F8016B01F8016B5B1EF9D130
:106540002B0705D40023521E0DD401F8013BFAE7B6
:1065500010F8013BCB1A921C03E013F8015B01F821
:10656000015B521EF9D5A142D8D3002070BD0000B6
:106570002DE9F8430025DFF894804FF4807601245C
:106580002F460095304603F0FDFB38B1D8F80403E0
:10659000204203D0304603F0EBFB2543361D640058
:1065A0007F1CB6B2082FEDD34FF4BE74204603F023
:1065B000E9FB48B1204603F0DBFB45F000456A46A5
:1065C0000121002003F0A4FB15F0FF0F16D00126D7
:1065D00000242E420ED008EB8401D1F81005D1F82A
:1065E0001015C0F304200A4AC1F3014152F82420D7
:1065F00002B190477600641C082CEAD3002D02DA21
:10660000684604F0C9FEBDE8F88300000060004061
:10661000D833002070B54FF48076304603F054F93B
:10662000114CB50560B1304603F055F90120C5F8AD
:106630000803607920B90120607121680020884733
:106640004FF48276304603F03FF900280AD03046F6
:1066500003F041F90220C5F808032168BDE8704045
:106660000120084770BD0000742B00200249024839
:10667000091F096800680847042C002000F0A2B92F
:1066800070B50E46144900EB400001EBC0051446FE
:10669000E86A183520B101280FD0022805D113E08F
:1066A000284600F0C3F9A04201D2002411E022469E
:1066B0003146284600F0F2F90BE0284600F0B6F922
:1066C000A042F4D20446F2E73146284600F0B9F978
:1066D0000446204670BD0000EC3A002004F0A4B847
:1066E000F0B5A449A4484FF080540B68D4F8302189
:1066F0000078D4F83411551CC0F3031006D094462A
:1067000001270026BCF1060F03D00AE003F0FF0CBE
:10671000F6E7B4F82453DFF864C2C5F30425CCF8D7
:106720000050DDB2062D06D1032804D1DFF854C293
:10673000934DCCF87450551C04D09446BCF1060F10
:1067400003D00AE003F0FF0CF8E7D4F84452DFF876
:1067500038C2C5F34235CCF80050DDB2062D08D161
:10676000032806D1894DD5F800C02CF0807CC5F8EF
:1067700000C0551C04D09446BCF1060F03D00BE0BA
:1067800003F0FF0CF8E74FF08045C5F80C61C5F841
:1067900010617D4D2D1F2E60DDB2062D08D103281E
:1067A00006D1DFF8E4C103250CF1640CCCF80050ED
:1067B000DDB2062D10D103280ED1DFF8D4C1052596
:1067C000CCF80050724D78352F60714D08352E6031
:1067D0000CF104063F253560551C04D016460D46C5
:1067E000062E03D05BE0DEB20546F9E7ED1E012D73
:1067F00055D9684D2D68684E3560664D2D1D2D6844
:10680000361D3560634D08352D68361D3560614D88
:106810000C352D68361D35605E4D10352D68361DE2
:1068200035605C4D14352D68361D3560594D183571
:106830002D68594E20363560564D1C352D68361D55
:106840003560544D20352D68361D3560514D243549
:106850002D68361D35604F4D28352D68361D356045
:106860004C4D2C352D68361D35604A4D30352D6820
:10687000494E40363560474D34352D68361D3560FC
:10688000444D38352D68361D3560424D3C352D68F8
:10689000361D35603F4D40352D68361D3560551C21
:1068A00003D01646062E02D007E0DEB2FAE7D4F88F
:1068B00058523A4E05F04F053560551C03D013462B
:1068C000062B02D008E0DBB2FAE735480368DB07A5
:1068D00002D06FF001030360062A07D1C91E022906
:1068E00004D93048016841F4806101602748743858
:1068F000016841F470010160BFF34F8FBFF36F8FE8
:10690000D4E94C104FF01022062907D1C01E0328ED
:1069100004D9D2F808021C491C310860D2F80002E0
:10692000002803DBD2F8040200281FDA012004F05B
:106930002DFC1521C2F800121B480368002BFCD067
:10694000C2F8041201680029FCD0002004F01EFCEB
:10695000BFF34F8F0D48F0380168144A01F4E0612D
:1069600011430160BFF34F8F00BFFDE7114910488D
:106970000860F0BDE00F00F0E80F00F04035014086
:106980000DF0ADBA00C007403C050040FCED00E052
:10699000105600400404001020C50040E40E0040E2
:1069A000000400403C17004000E401400400FA05E8
:1069B0000090D0037C2C00200148006800470000B4
:1069C0007C2B002010B5124C02202061606111A0C8
:1069D000A06104F17800E0614FF4007020620020B3
:1069E000A06260620BA1A164E06204F51E71E16423
:1069F0001021A065C4E91410E06509A1E01DFFF7AE
:106A000060FD08A12046FFF75CFD2020A07110BDAD
:106A1000EC3A00205465726D696E616C00000000F4
:106A20005254540053454747455200000269C1681B
:106A30008A4203D88068401A104400E0501A401E71
:106A400070472DE9F047C4681746894606464FF05F
:106A500000083069A04201D9051B02E0B168201A84
:106A60000D1AB0686D1E001BA84200D80546BD4235
:106A700000D33D4670682A4620444946FFF7F6FC9D
:106A8000B0687F1B2C44A844A944A04200D1002434
:106A9000F460002FDDD14046BDE8F0872DE9F041DC
:106AA00004468846D4E90207C51BE16860681646BB
:106AB0000844B54206D94146FFF7D8FCB819E06052
:106AC000BDE8F0812A464146FFF7D0FC761B08EB73
:106AD000050132466068FFF7C9FCE660F0E7000098
:106AE0000FB4054B10B503A9044A029800F02AF828
:106AF00010BC5DF814FB0000B98C0200142C0020BF
:106B000002E008C8121F08C1002AFAD17047704776
:106B1000002001E001C1121F002AFBD170470000D4
:106B20000121202803DA81400548014003E0402884
:106B300002DA2038814009B10120704700207047F7
:106B4000FC06FFBD2DE9F84F99469246884605465A
:106B5000002706E025280AD051464A4690476D1C7A
:106B60007F1C28780028F5D13846BDE8F88F00232F
:106B700015F8011F18462E2915D115F8011F0423F9
:106B80002A290DD06FF02F022978A1F13004092CA9
:106B900009D800EB800002EB400008446D1CF3E7CD
:106BA00058F8040B6D1C2A78002ADDD0632A07D020
:106BB000732A0FD0104651464A4690477F1C2AE060
:106BC00018F8042B8DF8002000218DF801106E4676
:106BD000012103E058F8046B4FF0FF315A074FF0E2
:106BE000000401D409E0641C84420BDA8C42FADB15
:106BF000325D002AF7D105E0641C8C42FCDB305D7D
:106C00000028F9D1274404E016F8010B51464A4602
:106C10009047641EF8D26D1CA3E790F82400012869
:106C200001D01F207047EE20704710B501220221CD
:106C3000002001F0BDF908B1072810D10722022178
:106C4000012001F0B5F908B1072808D100210A2276
:106C5000084601F0ADF908B1072800D1002010BDA9
:106C6000022001F0AFB8000070B50024064D06E028
:106C70006868012110F8340003F0EEFE641C2878E7
:106C80008442F5D3002070BD882B0020F8B516464D
:106C90000C4605460A2A01D20720F8BD03F0D6FFAC
:106CA00018B903F099FF0028F7D1134F10211348AA
:106CB0007D603C70BE60FFF7F2FB0020C7E9040076
:106CC0000F4E0DE005EBC4003168009181788DF81E
:106CD000011000780B4A694603F00EFF0028DCD152
:106CE000641EE4B2EED2BDE8F84005480021064A31
:106CF000001D00F087B80000882B0020843400209D
:106D0000C0C20200898D02008D88020072B603F0B5
:106D1000BDFA00BF03F006F90028FBD11148124963
:106D2000401AC408012000EB044010A103F016FA39
:106D300011480068C00700D000BE022000EB0440EC
:106D40000EA103F00BFABFF34F8F0B48E438016834
:106D50000E4A01F4E06111430160BFF34F8F00BFA1
:106D6000FDE70000D0CD020070CD020046617461E5
:106D70006C206572726F7200F0ED00E053797374ED
:106D8000656D207265736574000000000400FA05EB
:106D90000EB500210091CDE901106A4644F20100D0
:106DA000FFF7B4FF0EBD10B58268C368934203D0ED
:106DB00001F056FF002010BD052010BD29B112B111
:106DC000531E134203D0092070470E207047016004
:106DD000838000218160C1600846704710B58268D9
:106DE000C3689A1A83889A4203D801F043FF0020AF
:106DF00010BD042010BD0000014801F0AEBD000030
:106E0000C82B002010B55AB100684FF0FF3401299B
:106E10004261C0E9024400D000210161002010BDA0
:106E2000072010BD38B51148082358224168009149
:106E30000F49006802F029FB002815D10D4A694668
:106E40000D4801F08FFD04000ED101210A4801F028
:106E500004FE0123094A1946074801F056FD064978
:106E6000012008390870204638BD0000C8C2020061
:106E7000A434002049B50200C82B0020FFFF7F008A
:106E8000F8B50446002617460D468DF800606846A2
:106E900000F0D8F8D4E90201C04370EA010005D03F
:106EA0009DF8000000F0F2F80020F8BD01F052FF5C
:106EB00040197141C4E902019DF8000000F0E6F8B4
:106EC000A761206900B125612146BDE8F840002096
:106ED00004F04CBE38B5044600208DF8000068462A
:106EE00000F0B0F8D4E90201C04370EA01000DD00F
:106EF0004FF0FF30C4E902009DF8000000F0C6F832
:106F00002146BDE83840012004F030BE9DF8000065
:106F100000F0BCF8002038BD70B50A4E01460A48A2
:106F2000B578FFF740FF04464DB10020B070711CEA
:106F30000122C81D02F046FD08B1FFF729FF2046D7
:106F400070BD0000E42B0020FC340020F0B5244E7E
:106F500089B01F460D00044672603FD0A88829689A
:106F600082B22048FFF72AFF002835D1A889A968F6
:106F700082B21C481030FFF721FF00282CD12022BC
:106F800019496846FFF772FA60690690207C00B1E3
:106F900001208DF814008DF81C70607C00B10E206B
:106FA0008DF81500E0680290A068039020680190B9
:106FB000606800900A480D4A6946083002F0CEFC2D
:106FC000002809D1B0702068401C05D00449012276
:106FD000491CC81D02F0F6FC09B0F0BD0720FBE714
:106FE000E42B0020FC340020DCC2020075BC02004F
:106FF00010B501461048FFF7F1FE040019D10F4803
:107000000F4A0178515C19B1001D04F0B1F802E09B
:107010000C3003F087FF60B9084907480839FFF7CB
:10702000C2FE30B9054901220839044802F0DAFCF1
:107030000446204610BD00000C350020EC2B00203B
:10704000682B002030B5EFF3108172B60D4A9468BA
:10705000012324B10370002900D162B630BD9360D2
:107060004FF0E023D3F88051074C25401560C3F85A
:107070008041D3F8844154605A17C3F88421002218
:107080000270E8E71C350020FC06FFBD0B498A684A
:10709000002A11D000280FD1EFF3108072B60B68D0
:1070A0004FF0E022C2F800314B68C2F804310022F0
:1070B0008A60002800D162B6704700001C350020AD
:1070C0002DE9F041064608680C46411C4FF0A047E8
:1070D0004FF0010506D005FA00F1C7F80815206841
:1070E00002F0F0FD6068411C02D0002102F0D8FDE2
:1070F0003168A069C1F82405607D227D31681043A4
:10710000C1F86C05D4E900123068C0F81425C0F845
:107110000C15207D012815D1A068411C02D000214A
:1071200002F0BEFDE068411C05D08540C7F8085557
:10713000E06802F0C7FDD4E902123068C0F8082503
:10714000C0F81015BDE8F0812DE9F0410646086849
:107150000C46411C4FF0A0474FF0010506D005FA40
:1071600000F1C7F80815206802F0B6FD6068411C00
:1071700002D0002102F09DFD3168A069C1F824050C
:10718000607D217D32680843C2F86C05D4E90012A5
:107190003068C0F80C15C0F81425207D012815D1E1
:1071A000A068411C02D0002102F083FDE068411C70
:1071B00005D08540C7F80855E06802F08DFDD4E998
:1071C00002123068C0F80825C0F81015BDE8F0813B
:1071D0002DE9FC47002517880646158090F82D00FC
:1071E0001446894630B13A462146484600F0C8FB6D
:1071F000051E09D1B0784FF00C0A18B32088C84694
:10720000001DB84202D95046BDE8FC87684679DFC8
:107210000028F9D12088032108F8001020881921BE
:10722000401C80B2208008F800102088401C80B2EA
:10723000208000EB0801BDF8000004F0BCFE2188AE
:1072400008442080F0780222C8B1218896F90330E2
:1072500001F1030C4846BC45D5D8425421884FF073
:10726000010C491C89B2218000F801C02188491C09
:1072700089B2218009F801302088401C2080706884
:10728000B8B1218890F9003001F1030C4846BC45A3
:10729000B9D8425421880A22491C89B2218042541B
:1072A0002188491C89B2218009F801302088401CBE
:1072B0002080308950B1CDE900474B46062202219B
:1072C00006F1080004F038FF051E9DD1308A50B148
:1072D000CDE900474B460722032106F1100004F0D8
:1072E0002BFF051E90D1308B50B1CDE900474B46A6
:1072F0001522142106F1180004F01EFF051E83D18B
:10730000306A30B13B462246494601F086F9051EF7
:10731000DBD1706A30B13B462246494601F0D8FFC6
:10732000051ED2D196F82C0038B13B46224649467C
:10733000304604F07DFA051EC7D1307838B13B469F
:1073400022464946304602F04DF8051EBDD128467A
:107350005AE718B504460020ADF8000013466A4607
:10736000204600F006F8002802D0BDF800002044B6
:1073700018BD70B5E0B1DAB1002402E0045D2C4420
:10738000A4B2651C8D4206D21688A642F6D806190C
:1073900076789E42F2D18C420AD2A31C005D9BB249
:1073A00000B1401E0004000C02D01C188C4201D910
:1073B000002070BD138070BD80F8301070472DE93B
:1073C000F0410D00044606D02CB195F87A00002655
:1073D000012803D006E00E20BDE8F08195F8980062
:1073E000012829D0D5F8A000042825D0D5F89C0084
:1073F000042821D04FF00108A6702C2205F1780155
:10740000201DFFF733F884F83060D5F8A4006063DE
:10741000D5F8A800A0634FF6FF70A4F8240404F583
:107420008260C4F82004C4F82664A4F82A6484F8AE
:107430002C64207810B104E00720CDE7FF2084F809
:10744000540004F155072046C4F81074FFF7E5FB1B
:10745000A4F8140404F2144239462846FFF7B8FE93
:107460000028B9D104F23120C4F818042046FFF7EF
:10747000D4FBA4F81C0404F21C4205F13C00D4F82F
:107480001814FFF7A5FE0028A6D184F85180208BA0
:10749000A4F8480084F83C80266484F85060606951
:1074A00000216064454604F13C02781E72DF00282A
:1074B00092D1257090E710B50288102A1BD0112AAE
:1074C00020D0262A1DD1007A0C46012801D002289E
:1074D00017D1A0780521401CB0FBF1F201FB12018D
:1074E000204600F03AF800280BD0A16B002908D004
:1074F000BDE810400847C27B012A02D18088A1F86C
:10750000240410BD0C46002184F82E148088B4F8A1
:1075100024148842F5D120790028F2D10121DFE737
:1075200010B5044690F8540074DF012084F82E044E
:10753000002084F8300484F850000621204601F031
:10754000A7FB002808D1A178204600F006F810B16A
:10755000A16B01B18847002010BD2DE9F05F044602
:1075600000780F4698B1A7700025C4F82654A4F8F7
:107570002A5484F82C54A079012608B1012F09D08F
:10758000E07980B1012F05D0022F03D00BE0082055
:10759000BDE8F09F616B21B184F82D640820884715
:1075A00001E084F82D5404F2274100200A5C0AB15E
:1075B000304603E0401C0628F8D300204FF00208B4
:1075C0004FF0030B012F06D0022F0CD0032F0FD04A
:1075D000042F15D110E0A17929B194F8241011B924
:1075E00008B130460DE0E17911B108B1404608E03C
:1075F000207A08B1584604E0607A08B1042000E01F
:107600002846A070616B41B1032801D0042804D141
:10761000607910B194F82E0498B184F82F5404F1D5
:107620003C0018210746FEF73AFF84F83C6004F15D
:107630002C0003F081FE58B194F82C0084F851001E
:1076400008E084F8305484F82F6407208847E6E780
:1076500084F8516094F8240058B104F1280003F034
:107660006BFE20B194F8280084F8520001E084F801
:10767000526084F85050A27804F2264104F58269E1
:107680004FF0060A052A64D2DFE802F07C030F22DD
:10769000420084F83160C4F82054C4E9101584F81D
:1076A0003C808020A4F8480055E084F8318094F8AC
:1076B0002420384612B10722027001E080F800B0A1
:1076C000228A8281C4F820544160E168B96042E0B6
:1076D0006069B860208BB88194F824003D4600288A
:1076E000204602D084F83CA001E084F83C6004F01D
:1076F000F5FC50B185F814800421204601F0C8FA49
:1077000038BB052184F8311021E084F831B01EE047
:10771000E069B860208CB88194F824003D460028C8
:10772000204602D084F83CA001E084F83C6004F0DC
:10773000D5FC48B185F814800421204601F0A8FA50
:1077400038B984F831A002E0042084F83100C4F88C
:107750002094A07878B13A4604F15400D4F820146B
:1077600072DF00287FF414AF94F8301094F85400BE
:1077700073DF0028F6D1616B11B194F831008847AE
:10778000002005E784F83150F5E7000070B50400EB
:1077900012D001461C221448FEF768FE1248134D11
:1077A0000560206850B17ADF002806D120680168A2
:1077B00029604068686005E00E2070BD0B487BDFE3
:1077C0000028FAD108484FF6FF711438084A20F80B
:1077D000041B0549343901600021FFF713FB002821
:1077E000EBD0032070BD00002C330020602B002064
:1077F00075C002001FB50024009401940294039404
:107800008088ADF80000CDE9022101208DF802004A
:1078100069461846AEDF04B010BD000070B5374DA4
:1078200004008EB02DCD08AE86E82D00086860619A
:1078300061D0E9B3214608A862DF002859D1207839
:107840008DF832004FF4A050ADF83000A21C0CA906
:107850000120A8DF00284CD120216846FEF71FFE3A
:1078600041F20240ADF80000207801258DF80200B9
:107870008DF80C509DF80D00F4268DF81350ADF8DE
:10788000046040F008008DF81150ADF806508DF8F6
:107890000D008DF81250608804F10C02694600F06A
:1078A000A7FD002825D120216846FEF7F8FD00E05D
:1078B00021E041F20140ADF8000020788DF802008F
:1078C0008DF80C509DF80D008DF81350ADF8046044
:1078D0008DF80F5040F01A008DF81150ADF8065099
:1078E0008DF80D008DF812506088221D694600F059
:1078F0007FFD0EB070BD0E20FBE70000A4C20200A9
:1079000010B50C46018886B0502910D0512935D1C8
:107910000189A288914231D1616900292ED00421C8
:107920008DF800108088ADF80800616924E0828835
:10793000ADF80820811DC288238912309A4202D1F5
:107940004B89022B0DD0A3899A4217D16269002A74
:1079500014D000228DF8002003904889ADF8100063
:10796000E3E700F0EBF908B1022000E003208DF816
:1079700000006169002901D06846884706B010BD43
:107980007CB5054608880C460930904201D90C2088
:107990007CBD68466DDF0028FAD121880820685434
:1079A00020881B21401C80B2208029542088401C44
:1079B00080B220802844DDF801100160BDF8051078
:1079C00081802088801D80B220809DF800104908A9
:1079D00000D0012129542088401C208000207CBD3B
:1079E00038B50188294D044621293BD015DC2848AB
:1079F000284A1029A0EB02004FEAD0004FF0030202
:107A000002EB004013D0112925D0132929D10023DE
:107A10001A46852168887FDF17E03B2932D052293A
:107A20002AD056291DD18088132176DF0DE01AA1B6
:107A300002F094FB072000F0DDFA08B1FFF7A8F987
:107A4000A1886980174801F0C7FE002809D0BDE869
:107A50003840FFF79DB914A102F080FB4FF6FF708C
:107A6000688038BD00200090A08869468FDF00281C
:107A7000F7D0FFF78DF938BD00231A4619466888FC
:107A8000B1DFE2E78088132176DFDEE7D82A002025
:107A9000D0CD020070CD0200436F6E6E65637465D9
:107AA00064000000AC2E0020446973636F6E6E6545
:107AB000637465640000000010B51A4C01886068AA
:107AC00010290ED011292BD1401E606028D1FFF75C
:107AD000ACF8002824D02168002921D0BDE810404E
:107AE0000847D0B900210122084600F061FA08B128
:107AF00007280FD107220221012000F059FA08B10E
:107B0000072807D104220221002000F051FA20B1F9
:107B1000072802D0216801B188476068401C606076
:107B200010BD0000582B00202DE9F04701883B4E86
:107B300040F2F3194FF6FF7510291BD011293ED0E2
:107B4000122954D0502946D1C188F289841D91420E
:107B500041D1618902293ED18688304601F032F94F
:107B6000050038D004F10C0000F0E8F8A8B329466D
:107B700030464EE0C17B8788044601292BD1A846B8
:107B8000284601F01FF9050017D02F800020287229
:107B9000234843464A460168C5F80A104068C5F8BC
:107BA0000E0004F1100105F10A0001F0C7F9687236
:107BB000F08900280FD129462AE0042013E08088AC
:107BC00001F000F9040006D06068FFF783F908B1FE
:107BD00003F0FEFD2580BDE8F087FFE76868FFF74A
:107BE00079F90028F7D0BDE8F04703F0F1BD8788A8
:107BF0000646384601F0E6F80400ECD02B464A462B
:107C000006F1080104F10A0001F098F960722146BA
:107C10003846BDE8F04700F047BD00002C33002097
:107C2000602B00202DE9F04F0446868801884248E9
:107C300097B0834610290CD0112950D01030192943
:107C40006AD01A2974D1217A0C09042C4DD301224F
:107C50004CE0394D083DA868C0430B9069680BA8FB
:107C600001F07EFC0B990CA800F0B8FC2C220CA9AA
:107C70006846FEF7FBFB0027E946A84610E000BF78
:107C800009EB47005FF00005B0F804A008EB8500A1
:107C90005146001D01F038FC6D1C1E2DF6D37F1CD3
:107CA0000098B842ECD8142E05D317B00420BDE8D4
:107CB000F04FFFF76DB83146584601F03BFC3146B6
:107CC00008F1040001F036FCE07B022830D117B047
:107CD0003146BDE8F04F1848001D01F02BBC17B02D
:107CE0003146BDE8F04F01F00FBC0022314600F0F4
:107CF000CAFF032C01D3012200E000220E483146C6
:107D00000C3000F0C0FF022C01D3012200E0002261
:107D100009483146083006E0217A002908D1617A05
:107D2000C1F3C002314617B0BDE8F04F00F0ABBF61
:107D300017B0BDE8F08F000050330020007800F04D
:107D4000010070470149085C704700005CC20200F6
:107D50000649095C4FF0A040D0F81005C84010F06B
:107D6000010000D0012080F0010070475CC20200D9
:107D70002DE9FC410646C0074FF000050ED0104F1C
:107D800000240122385D009500231146019501F081
:107D90003FFF641C042CF4D300F046F8B0070DD567
:107DA000074E0024361D0022305D03230095114646
:107DB000019501F02DFF641C042CF4D3BDE8FC8177
:107DC00058C2020007490B5C4FF0A041D1F80425CE
:107DD0000120984020EA0203C1F808351040C1F89C
:107DE0000C05704758C202000249085C012101F0ED
:107DF000B4BF000058C202000249085C002101F033
:107E0000ACBF000058C202000649095C4FF0A04018
:107E1000D0F80405C84010F0010000D0012080F027
:107E20000100704758C2020010B500242046FFF739
:107E3000DBFF641C042CF9D310BD10B500242046D0
:107E4000FFF7DAFF641C042CF9D310BD10B502460D
:107E5000064B4FF0FF3000215C5C944201D1084694
:107E600010BD491C0429F7D310BD00005CC20200FC
:107E700070B50C4E0C004FF0000530600BD00120A7
:107E800000F06AF808B1022004E0002000F064F875
:107E900000B10B202070706810B9FEF7C6FE0546D1
:107EA000284670BD582B002010B5002000F0DCF9EA
:107EB00008B1062806D1012000F0D6F908B106283D
:107EC00000D1002010BD00002DE9F0470D4681468D
:107ED000FFF7BCFF0446042836D2DFF874801B4845
:107EE0001C4EA8F10C0725B3012D0ED0022D2BD16D
:107EF00004EB440030444578002D25D0B9680029B2
:107F000022D02846BDE8F047084704EB4401755CE1
:107F10000E44717849B10E4A4FF48041093A8068A5
:107F2000FEF7AEFF08B987F80390B17808F804109F
:107F3000E2E78068FEF7CEFF04EB4401314418F815
:107F400004008D78A842D7D0BDE8F08760C2020057
:107F5000F02A0020EC320020042801D2FFF7F8BEFE
:107F60000020704710B5104A042807D007280FD00A
:107F70000A2817D1BDE8104003F0B6BC1321508881
:107F800076DF0DE000280DD0BDE81040FEF700BF01
:107F90005088A0F57F41FF3904D10448FFF7C0FAAB
:107FA0000828EFD110BD0000D82A0020B82E0020EC
:107FB00070B50023042810D20D4D00EB4004012AB7
:107FC00002D101290CD00022094E00EB40003044C0
:107FD00061B1012906D0022906D00723184670BDD9
:107FE0000E30C2B22A55F9E74270F7E78270F5E722
:107FF000EC320020044A014600201279D20702D058
:10800000084600F04DB87047E42A002070B50646D7
:108010001E480024C0E90161B00720D500250122D7
:1080200011462846FFF7C4FF6D1C0446042D02D2FA
:10803000002CF4D013E094B940F2333204211448F8
:10804000FEF724FE04000AD1FEF70EFE040006D15E
:108050000F48104A0021001FFEF7D4FE0446F00727
:1080600012D00120FFF784FE74B909480A4A0021A2
:108070000C38FEF7C7FE040006D10548074A012167
:108080000838FEF7BFFE0446204670BDE42A0020F3
:108090006CC2020075830200B18F0200616C0200A5
:1080A0002DE9F05F6E4C054600266078B34618B1A6
:1080B00084F801B000F064FF6A4F4FF47A694FF41E
:1080C000C87A4FF00108182D69D2DFE805F00C13CB
:1080D00013384754696E727B727BC58484848484B0
:1080E000B3B6B9BCC5C500F04BFF3868FEF7F2FE69
:1080F00006465CE00020FFF787FE00284FF00000F6
:1081000008D0FFF771FE022D02D14FF4E16008E0C4
:10811000484606E0FFF770FE022D01D1C82000E0BE
:108120005046410CC0034FF47A72801841F10001AF
:10813000257052000023FEF755F901462AE0002081
:10814000FFF762FE00284FF0000004D0FFF74CFE5E
:108150004FF44870E5E7FFF74FFEDFE70020FFF739
:1081600053FE00284FF0000002D0FFF73DFECFE79E
:10817000FFF742FED4E70020FFF746FE00284FF04D
:10818000000002D0FFF730FE01E0FFF735FE25705A
:1081900040F6CD4100223868FEF772FE064646E002
:1081A0000020FFF70FFE257008E0002051E0257049
:1081B0003DE084F801800120FFF704FE002240F238
:1081C0006661E8E784F801800120FFF7FBFD0022EB
:1081D0004FF40051DFE77868FEF77CFE0646D5F1E4
:1081E000110000D02EB10220FFF7FEFD84F802B08E
:1081F0001DE0012816D980B2C8214843C117C90320
:1082000041EA5041C0034FF47A72801841F10001F5
:1082100052000023FEF7E6F8014600227868FEF7D8
:108220002FFE06460220FFF7E7FD84F80280304665
:10823000BDE8F09F00F0A4FEB9E700F0A1FEB4E7AE
:1082400000F09EFE04E000F09BFE0020FFF7D4FD4E
:108250000120FFF7D1FDAAE7FFF7EFFDA7E7000038
:10826000E42A002060C20200012103F0CCBF00001C
:108270002DE9F84F0546861C00208DF80000914638
:108280000F464FF0010A6846FEF7DCFE1B4C04F275
:108290001C4860683860D4E90101194F401A3968F8
:1082A000081A0EE00121404601F054F900F098FE52
:1082B0000146404601F04EF9D4E90101401A3968FF
:1082C000081A401C8642EDD8B9F1000F03D00520F2
:1082D00065F3891002E0062065F39F5061683A68F3
:1082E000114004EB8101C8606068304460609DF813
:1082F0000000FEF7CBFE5046BDE8F88FCC360020DC
:10830000242C002070B50D4604460A2902D10D2107
:10831000FFF7F8FFA0682268411CA1601554D4E95A
:108320000101814204D32046BDE8704001F077BBD3
:1083300070BD0000044881684068814201D101207D
:108340007047002070470000CC360020034630B54F
:10835000074800210478426806E000BF02EBC10034
:1083600005789D4203D0491CA142F7DB002030BDB7
:10837000882B002000780221FFF7A6BD05494FF0A9
:10838000FF32082841F8202002D3084480F8482012
:1083900070470000D8330020F0B54FF0FF3512B120
:1083A0000023082601E008230C260C4C05E000BF42
:1083B00054F823707F1C04D05B1CB342F8D32846CA
:1083C000F0BD26185DB286F8305044F82310002A1C
:1083D000F5D1E11881F84800F1E70000D83300201A
:1083E0000249084490F9300070470000D83300205B
:1083F0002DE9F0438146887891B090460C4600B94B
:1084000001208DF83E002088ADF83C000025009545
:10841000607C694603F050FA6E46A07C711C03F044
:108420004BFAE07B00289DF8020002D040F00800E3
:1084300001E020F008008DF80200217C11B140F02D
:10844000100001E020F010008DF80200217B11B136
:1084500040F0010001E020F001008DF80200217DD4
:1084600009B1022100E0012161F342008DF8020010
:108470001C2102A8FEF713F8607BC10601D4800618
:1084800017D50E950EAFE07C791C03F015FA9DF818
:108490003800079720F00F00401C20F0F00010304B
:1084A0008DF838009DF83A0020F00600801C8DF809
:1084B0003A00607B8DF80800A07B8DF8090014213C
:1084C00009A8FDF7ECFF0FA8CDE90906A088ADF8D3
:1084D0003000A06820B1E088ADF82C00A0680D90B5
:1084E000A06998B301950088ADF81000A06901ADAE
:1084F00001A94088ADF81200A06940680695039074
:10850000A069007B03F0D8F9A069691C407B03F0E7
:10851000D3F9A069807A00289DF8060002D040F0C7
:10852000080001E020F008008DF80600A169C97A72
:1085300011B140F0100001E020F010008DF80600AD
:10854000A169097A19B140F0010002E00DE020F0C4
:1085500001008DF80600A169897B09B1022100E0C4
:10856000012161F342008DF80600E06900B1059039
:10857000434609AA02A94846AADF11B0BDE8F08324
:1085800070B5084C050009D010342168002907D0C7
:1085900008682060496828468847F6E70834F4E709
:1085A00070BD0000C4330020054A012120B101281C
:1085B00005D19170FFF7E4BF51700020FAE77047D2
:1085C000C433002010B5D0E90234D1E90220D11A19
:1085D000A04101D3012010BD002010BD73B58CB0A7
:1085E0000646002000900D9880B100246D4621467B
:1085F0000DA800F094FF30B1009805EB4000848096
:108600000098401C0090641C142CF0D32C22694666
:108610003046FDF72BFF0EB070BD2DE9F0411788F5
:108620000646B81D14460D46984202D90C20BDE8F6
:10863000F0813188072206290AD34FF4486C4FF69F
:10864000FF73614501D9994202D17088062801D291
:108650001046ECE7604501D99842F9D1994203D020
:10866000984201D08142F3D80520E8552088122194
:10867000401C80B2208029542088401C80B2208079
:108680004119308803F097FC2188084480B220808B
:108690004119708803F08FFC218808442080002055
:1086A000C5E7FEF775BB000038B54A7A0F4B62B1DB
:1086B00000220A725969002906D001228DF8002093
:1086C000ADF802006846884738BD0A7A62B19B68F7
:1086D0004C68024619462046FEF7D2FB0028F3D02C
:1086E000BDE8384003F074B85B68F1E72C33002034
:1086F00030B50446007801211E4D87B002281DD0F8
:1087000003281ED018B3042816D11BA2D2E90002F8
:10871000CDE90402002001900090ADF80400029021
:108720000620ADF80A008DF800108DF8061004A898
:10873000039020896946B0DF07B030BD297010A0D2
:1087400000E013A007B0BDE83040FEF7C9B9218AA8
:1087500014A0E268FEF7C4F928780028ECD01120B4
:10876000ADF8000023896A4612A11748FFF742F8C6
:10877000E2E70000D82A002054686F204E61000014
:108780004E6F7469667920656E61626C650D0A00D2
:108790004E6F746966792064697361626C650D0A55
:1087A00000000000446174613A20252E2A730D0AEE
:1087B0000000000054616F206E68616E2064756F68
:1087C0006320726F69000000802E002070B588B0B1
:1087D0000646002005900690ADF81410ADF816106E
:1087E0000190029001AA05A9304690DF050021D032
:1087F00002F0BEF80346114811493246401AC1083A
:10880000012000EB014004460E4901F0B2FCBDF826
:10881000042012B9BDF8060028B1BDF80630204684
:1088200009A101F0A6FCBDF808201AB1204616499E
:1088300001F098FC08B0284670BD000070CD020021
:1088400070CD0200D0C50200546865207265717554
:1088500065737465642054582F5258207061636B9F
:108860006574206C656E67746820697320746F6F1F
:10887000206C6F6E672062792025752F2575206F1B
:1088800063746574732E00001CC6020070B500246A
:108890000F4D10E0686800EBC406307802F092F9E2
:1088A0007178012901D0012100E000214140307898
:1088B00000F05CF9641C28788442EBDBD5E9040104
:1088C000084303D0BDE8704003F06CB970BD0000F0
:1088D000882B002010B50021024800F04CFE80F3E8
:1088E000100010BDE83A00204FF480328A40016841
:1088F000C1F848230068C0F8082370474FF4A072FD
:1089000002EB810189B200F0A1B92DE9F0410546E1
:108910000E464FF4A07000EB860081B228684FF439
:108920008034B440984622F07F47C0F80843286856
:10893000C0F84843286801F0CDFD286800EB8600A8
:10894000C0F840752868C0F84443B8F1000F02D061
:108950002868C0F80443BDE8F0810068D0F8040539
:108960007047000070B54379234C44F823204279C6
:10897000231D03EBC202224C1579204A121BD40896
:108980002DB10825022000EB04401EA130E005684F
:108990000A88C5F8082590F904208978002A4FEA4A
:1089A000411104DB02F1E02282F8001405E002F03C
:1089B0000F0202F1E02282F8141D90F90410012246
:1089C000002909DB01F01F0502FA05F549098900B4
:1089D00001F1E021C1F800514179002503EBC1010B
:1089E0000A71417943F83100032000EB04400EA1E5
:1089F00001F0B4FB284670BD002C0020B8CD020069
:108A000070CD020052544320696E7374616E6365C9
:108A100020616C726561647920696E697469616C4A
:108A2000697A65642E0000005254433A20696E69E9
:108A30007469616C697A65642E00000090F9040025
:108A4000002809DB00F01F0201219140400980004D
:108A500000F1E020C0F8001270470A46022100F041
:108A60007BB84FF4827100F0F1B800680121016019
:108A7000704700680121416070472DE9F05F0746AB
:108A80000C464FF4A07000EB84001FFA80FA38689F
:108A90004FF48036A6409B4622F07F45C0F84863DD
:108AA0003868C0F808633868D0F8048500EB8402A1
:108AB000D2F84095C2F840855146386801F00AFD69
:108AC000A9EB080020F07F40012806D1102001F01A
:108AD000BBFF5146386801F0FDFC3868D0F80485CA
:108AE000C0F84463A5EB080121F07F4138680129F3
:108AF00000EB840010D0C0F840553868D0F8041559
:108B00006FF07F4C6A1A521E22F07F42ACEB0B03CF
:108B1000934217D362B118E06D1CC0F84055102085
:108B200001F092FF3868D0F8040540450AD10CE006
:108B300000EB84006D1CC0F840553868D0F804057F
:108B4000884202D00D20BDE8F09F01223146384610
:108B500000F002F80020F6E70368C3F84413002A87
:108B600002D00068C0F80413704700002DE9F84FE8
:108B70000E463449804601EB5001C007097801D008
:108B80000F0901E001F00F074FF0000942460120F4
:108B90004946FDF758FCDFF8B0A004460D46052F06
:108BA0004ED2DFE807F003161B282C00002E47D01A
:108BB0000121404602F0EAFE8DF800906846FEF77B
:108BC00041FA5046D0E904120C431543CAE9044562
:108BD00032E00EB1022114E0002112E04EB1032177
:108BE000404602F0D3FE4046BDE8F84F012103F0B5
:108BF00093BA012105E0002E22D1042101E02EB11B
:108C000003214046BDE8F84F02F0C0BE00214046B7
:108C100002F0BCFE0021404603F07EFA8DF8009081
:108C20006846FEF70FFA5046E243D0E904341A4092
:108C300024EA0501CAE904219DF80000FEF726FA9E
:108C4000BDE8F88F84340020882B002010B5006820
:108C500042581AB101F03EFC012010BD002010BDA9
:108C6000826883881A4003689A5C0A708168491C8C
:108C700081607047C26883881A4003689954C1684C
:108C8000491CC16070470AB100F054BC00F03CBC04
:108C900070B50D460446B0F81414D0F81004012243
:108CA000FEF757FB00B1057004F13C0204F5826148
:108CB00004F1540072DF70BD10B50446C0B2FEF777
:108CC00097F9204610BD00000C484A8843889A4214
:108CD00013D10A88A2F52063773B0ED18988C91E7B
:108CE0008AB28280064807491346401AC008032109
:108CF00001EB004004A101F03CBA7047D82A0020E3
:108D0000D0CD020070CD020044617461206C656EAC
:108D10002069732073657420746F2030782558287B
:108D20002564290010B50949094800F09BFC08B1E9
:108D3000FEF72EF8F721064800F088FC002803D043
:108D4000BDE81040FEF724B810BD0000C98C020039
:108D5000982E002010B50B48FFF7FFFD094A083A8E
:108D6000D2E90434C018D2E9063244F10001C31A32
:108D700071EB020204D24FF08072801841F10001C1
:108D800010BD0000C82B002010B5C0B2FFF7DEFAFE
:108D90000446007801F016FF01466078012801D0F2
:108DA000012000E0002090EA010F08D00449D1E939
:108DB0000401084303D1BDE8104002F0F3BE10BD2A
:108DC000882B00200146034802888A4200D00020F8
:108DD00070470000183300202DE9FC5F0E00834629
:108DE000DDE90C47C6F1000098469246814600D462
:108DF0000846012503E000BF90FBFAF06D1C5045CA
:108E0000FADAA84500D9454624B1002E01DB7807DF
:108E100000D5641EB80702D5B8F1000F0AD0F807D4
:108E200008D13CB1A54205D220215846641EFFF767
:108E300069FAF6E7002E02DA4E462D2102E07807A5
:108E400003D52B215846FFF75DFA07F003000228EF
:108E50000BD1B8F1000F08D13CB1A54205D23021A9
:108E60005846641EFFF74EFAF6E7CDE90047434641
:108E700052463146584603F0A3F8BDE8FC9F000077
:108E800070B50D46044600684FF4887101F090FDFE
:108E90004FF49071206801F08BFD4FF492712068BF
:108EA00001F086FD4FF4A271206801F081FD4FF4BE
:108EB000AC71206801F07CFD20681249C0F80413F1
:108EC0002068690740F30730090E002804DB00F131
:108ED000E02080F8001405E000F00F0000F1E02031
:108EE00080F8141D206840F30730002809DB00F0EB
:108EF0001F02012191404009800000F1E020C0F8EC
:108F0000001170BD10034200024600201268530792
:108F100013D502F00300012802D002280CD105E08D
:108F2000C2F383100B68801C184404E00223086815
:108F300003EB92521044086001207047F0B584881A
:108F4000A518944200D82246A41AC288D6189A427C
:108F500000D81346D21A4B880788BB420CD34088EE
:108F6000834209D88888A04206D3A84204D8C8887A
:108F7000904201D3B04201D90020F0BD0120F0BDE4
:108F80000A4810B5807860B1002401E0022C06D0B8
:108F90002046FEF729FF641C042CF7D310BD0324E0
:108FA000F6E7BDE81040FEF73FBF0000E42A0020CE
:108FB00003480179C90702D00078FFF771B87047FC
:108FC000E42A0020F721018017214180002101714E
:108FD0004171FB2181711B21C171704770470000F5
:108FE0002DE9FF410026244800F0B1FA2248001F75
:108FF000074600F0ACFA214C2149A06800900D68AA
:1090000000E000986946284004EB80000C30FFF730
:109010007BFF0028F5D101AA009901EA050304EBC2
:109020008303491CDB6842F82030401C0091022871
:10903000F2D3019800F0030001280BD0022810D1D0
:109040000198032101EB90500099BDF80A6001EBF3
:10905000900005E00198BDF80A60C0F38310084451
:109060000090384600F070FA08B10098A06004B093
:109070003046BDE8F0810000E43A0020CC36002004
:10908000242C0020ACB018226F496846FDF7EEF999
:109090006E4806906E494FF48070CDE90701099043
:1090A00007236C4A06A96846FDF750FF08B1FDF793
:1090B0006FFE4FF48041002001F0BCF808B1FDF7CD
:1090C00067FE00F021FFFDF7ADFE08B1FDF760FE81
:1090D00061490320FEF79AFF08B1FDF759FE694682
:1090E0000020FEF7C5FE08B1FDF752FE01F0ACF915
:1090F00008B1FDF74DFE01F05DFB08B1FDF748FE3C
:10910000002469460120009401F0F4F908B1FDF74C
:109110003FFE684601F086FA08B1FDF739FE9DF87A
:1091200008004EA120F00F00401C20F0F00010308D
:109130008DF808000F2202A87CDF08B1FDF728FE99
:1091400000941020ADF800003C200194ADF802001E
:10915000ADF804404FF4C870ADF8060068467ADFF9
:1091600008B1FDF715FEFFF7DDFD404800906946A8
:109170003F4800F03CFB08B1FDF70AFE3D48019076
:109180003B4801A92C38FEF749FBAC216846FDF7A6
:1091900086F902208DF800008DF8024005208DF838
:1091A00003000120ADF84C008DF87C0040203249CE
:1091B0002290149144F250602390304829902C481A
:1091C00069460C30FEF7FBF808B1FDF7E1FD2848D1
:1091D00001210C30FEF7F0F81C216846FDF75FF91D
:1091E0004FF4A030CDE900404FF4F0200290244825
:1091F0000590032523488DF80C500690ADF80E40DD
:109200008DF810406846FEF7C1FA08B1FDF7C0FDC1
:109210001DA0FDF765FC21482149401AC00805EB57
:10922000004020A100F09AFF114803210C30FEF706
:1092300094F908B1FDF7ACFD00F074FE0028FBD1F5
:1092400001F016F9F8E7000040C20200802C00206F
:10925000802D002011BC0200657F020043757374ED
:109260006F6D5F736572766963636500B5A4020014
:10927000AC2E0020F1860200DE2A0020A5B10200FB
:10928000C9B10200A38602000D0A55415254207351
:109290007461727465642E0D0A000000D0CD020066
:1092A00070CD02004465627567206C6F6767696EF8
:1092B0006720666F722055415254206F7665722088
:1092C00052545420737461727465642E000000005F
:1092D00070B5144682880E4605462088111D01444B
:1092E000921C994201D8FE2A01D90C2070BD521C53
:1092F00032542088FF21401C80B2208031542088C5
:10930000401C80B220808119288802F054FE2188F8
:10931000084480B22080AA8842B1A96841B1304493
:10932000FDF7A4F82088A98808442080002070BD9B
:10933000072070BD2DE9F047C5881E1DB6FBF5F767
:109340008946B6FBF5F1044605FB176C40791668B3
:109350006843DDF820A0F718001F874200D9C61A1D
:10936000166001E02468491E0029FBD1A5EB0C071B
:109370008846B74216D818E004EB0C00001D09EB34
:109380000803BAF1000F3A4602D00146184600E041
:109390001946FDF76BF82468F61B4FF0000CB84433
:1093A000B54201D9374600E02F46002EE4D1BDE892
:1093B000F087000030B5024651B100F04FFF0021A8
:1093C000074C08E034F821301568AB4202D1116037
:1093D000002030BD491C8142F4D3052030BD00007F
:1093E00000000000F8B50F46017814460546012933
:1093F00001D1687830B12088821C9A4232D8012984
:1094000002D006E00720F8BD69780144891C994222
:1094100028D8181A801E86B2ADF800602188B81CC2
:10942000084469467DDF0028EDD12978022904D05F
:109430006878BDF80020904205D3BDF80000B04226
:1094400001D809200AE00820012905D16978B14234
:1094500002D8ADF8001001E0ADF80060BDF80010D2
:10946000FE2901D90C20F8BD2288491CB954218855
:10947000491C89B2218078542088401C2080BDF886
:109480000010084420800020F8BD10B531B1B2FBB7
:10949000F3F403FB14241CB1092010BD0E2010BDF1
:1094A00001600021416081608281C381084610BD56
:1094B00070B50C460546FCF7ADFE002802D02188A9
:1094C0002868084470BD10B50A8849888A4203D1CB
:1094D000FCF7E2FE012010BD002010BD70B50C4667
:1094E0000546FCF7BCFE002802D0618828680844C5
:1094F00070BD10B50A8849888A4203D1FCF7A6FEE0
:10950000012010BD002010BD01F01F0301229A4070
:10951000D243490900EB8100114600F021B84A0905
:1095200050F8220001F01F0201219140084000D0B4
:109530000120704701F01F0301229A40490900EB06
:109540008100114600F01CB8002100F00FB8012185
:1095500000F016B808B56A46FCF7F3FE009808BD9F
:1095600008B56A46FCF7D3FE009808BD08B56A4600
:10957000FCF7CDFE08BD08B56A46FCF7AFFE08BD96
:1095800008B56A46FCF7B6FE009808BD08B56A46FD
:10959000FCF7E4FE009808BD38B5044600258DF8B8
:1095A00000506846FDF74EFD2168626808689042E9
:1095B0000ED9401E08600178238AE26801FB03256A
:1095C000227A2168101AC0B20A79824200D2087148
:1095D0009DF80000FDF75AFD284638BD38B5054610
:1095E00000208DF800000C466846FDF72BFDE8686A
:1095F000298A201AB0FBF1F12A681068431C136015
:1096000001709DF80000FDF741FD38BD10B530B187
:10961000017A42680368891AC9B21A6006E00E200E
:1096200010BD03681A68541C1C601170491EC9B231
:10963000F7D2006800210171084610BDC20800F091
:1096400007030120895C98400840704728B1A1F1C8
:109650001702E12A03D3072070470E2070470180CC
:109660000020704710B560B10161F72120F8021B9E
:1096700020F8021BFB2100F8021BFFF7A3FC0020CF
:1096800010BD0E2010BD0000F0B5858893B00C46CB
:10969000002D39D1018800263F4F24293BD006DC1C
:1096A000102909D011290CD0232958D14FE03A298B
:1096B0000BD0552953D129E00146204601F092FDF7
:1096C0004DE0A01DFFF77EFC49E02246408934F8BA
:1096D000061F814200D808466080172800D2172054
:1096E0006080106970B1607960B1D7E90001CDE99F
:1096F0000301ADF80E506088ADF81000136903A99E
:10970000104698476671267113B0F0BD0146204699
:1097100001F0BCFD23E0011D2C2206A8FCF7A6FEEB
:10972000BDF81800BDF81C2004EBC0014A73226983
:10973000AAB1D7E90423CDE90423ADF81200487B90
:109740008DF814002269204604A9904707E0017AA9
:10975000207B884200D201462846FFF737F8A07ADE
:109760000028D1D0E1882846A5DF012580B1112845
:10977000CAD001F0FDF802460848094913B0401A62
:10978000C00805EB0040BDE8F04006A100F0EABCCF
:10979000A672E572B8E700008CC2020070CD02002C
:1097A00070CD020073645F626C655F67617474639F
:1097B0005F65786368616E67655F6D74755F72651C
:1097C000717565737428292072657475726E65648D
:1097D0002025732E0000000020B10278DE2A03D07D
:1097E000082070470E20704741800020704760B10C
:1097F00059B10278DE2A0AD009684160DE21017081
:109800004FF6FF714180002070470E2070470820FE
:1098100070477FB5054600294DD0002D4BD0087804
:109820000C46DE2847D1A8886188884202D12046AC
:1098300002F060FC2888012825D002283BD011289E
:109840003AD0512837D135F8040F6188884232D197
:10985000A978A81C02292ED1017A042903D006294F
:1098600001D0052927D10021009102228DF8002086
:1098700001914FF4C07202910391ADF80420007A77
:1098800005280FD010E0297A2046012913D1A98894
:10989000428891420FD10121017204B0BDE87040AD
:1098A00002F028BCADF8041028886946B0DF002813
:1098B00001D0616888477FBDA88861888842FAD155
:1098C0004FF6FF7060807FBD00F180400068002887
:1098D00000D00120704708B500F1804000210160F0
:1098E0000068009008BD000070B50D4C012520787F
:1098F00008B185260EE00020A06060602061E06075
:10990000084801F079F8064600F0A0FF08B901F018
:109910005DF8257001F052F800B1A570304670BDB9
:10992000C4330020A985020038B500258DF8005009
:109930006846FDF787FB084CE068401EE060E06881
:1099400028B901F03BF810B901F066F8A5709DF850
:109950000000FDF79BFB38BDC4330020F0B5054681
:109960000478154889B0164640F82420124A086940
:10997000121DA2F1080742F82400487F3855202222
:109980006846FCF773FD04942878385C48B10EB142
:109990000A4A00E000226946281D01F0DBFA09B0FE
:1099A000F0BD0EB1064A00E00022694605F10C0048
:1099B00001F084F9F3E700006C2B002075BE020073
:1099C00019BD020030B40378054CE35C1BB130BC18
:1099D000001D01F0F5BA30BC0C3001F0D9B900001F
:1099E000682B002030B40378054CE35C1BB130BC1D
:1099F000001D01F067BB30BC0C3001F03FBA000025
:109A0000682B00200FB408B50399002904D004AADC
:109A100000926A4600F00FF801B05DF814FB10B533
:109A200082680446002A05D0D4E9040321689847D7
:109A30000020A06010BD2DE9FC4791460C00804637
:109A400076D014F8011B39B125290ED04046FEF717
:109A500059FC20780028F4D198F80C00002867D031
:109A60004046BDE8FC47FFF7DABF0020012221781D
:109A70002B291BD02D2902D0302908D102E040F03B
:109A8000010001E040F00200641C002AEFD1002533
:109A90002A290ED02178A1F130020A2A11D205EB31
:109AA000850201EB4205641C303DF1E740F0040003
:109AB000EAE7D9F800100B1DC9F800300968641CEA
:109AC0000D44217800232E290BD114F8011FA1F198
:109AD00030020A2A05D203EB830201EB4203303B3A
:109AE000F3E76C290DD068290BD0692921D00BDC54
:109AF000252918D0582931D063290ED0642915D1D1
:109B000017E014F8011FECE7702969D0732932D0EF
:109B100075291BD0782909D120E0D9F80000011D52
:109B2000C9F8001001784046FEF7ECFB641C90E792
:109B30006CE0D9F800100A1DC9F800200968CDE9C9
:109B400000500A224046FFF747F9EFE7D9F8001026
:109B50000A1DC9F8002009680A2206E0D9F8001099
:109B60000A1DC9F8002009681022CDE900504046BE
:109B700002F026FADAE7D9F8001000270A1DC9F822
:109B800000200E68C00705D112E04046761C7F1CFD
:109B9000FEF7B8FB31780029F7D104E020214046D8
:109BA0006D1EFEF7AFFBBD42C0D9002DF6D1BDE75B
:109BB0004EB13046FCF77EFC074604E020214046CB
:109BC0006D1EFEF79FFBBD4206D9002DF6D103E0C6
:109BD0004046761CFEF796FB31780029F8D1A5E7C0
:109BE000D9F80000011DC9F8001005683021404671
:109BF000FEF788FB78214046FEF784FB0820002111
:109C0000CDE90001034610222946B0E7BDE8FC87F4
:109C100070B541EA4201DDE904564FF0A04441EA43
:109C2000830141EA052104EB800041EA0641C0F8C6
:109C3000001770BD70B541EA4201DDE904564FF0EE
:109C4000A04441EA830141EA052104EB800041EA96
:109C50000641C0F8001770BD70B541EA4201DDE968
:109C600004564FF0A04441EA830141EA052104EB88
:109C7000800041EA0641C0F8001770BD70B541EAA6
:109C80004201DDE904564FF0A04441EA830141EA74
:109C9000052104EB800041EA0641C0F8001770BDC1
:109CA0001CB500220B46009211460192FFF7D4FF2B
:109CB0001CBD1CB500220B46009211460192FFF715
:109CC000DDFF1CBD1CB5002100910B460122019156
:109CD0001146FFF7C1FF1CBD1CB5002100910B46CA
:109CE000012201911146FFF7C9FF1CBD4FF0A042B0
:109CF00002EB8000D0F8002722F44032C0F80027A1
:109D0000D0F8002742EA0141C0F800177047000070
:109D100038B5094B44181B6800936B4608E000BF38
:109D200053F82010D1F8205520C2C1F82055401C0E
:109D30008442F5D838BD0000B4C2020042094FF099
:109D4000000100D1491E00F01F00012282400A429A
:109D500001D0012070470020704701224FF0A0433E
:109D6000824011B1C3F808257047C3F80C2570472D
:109D7000034908B50844002101600068009008BD4F
:109D80000060004002494058012800D00020704780
:109D90000060004030B5154A01460020D2F810445A
:109DA00023460AE0DB681D79854205D1401C0A285C
:109DB000F6DB4FF0FF3030BD1B68002BF2D1431CA7
:109DC000F9D0CB681871D2F8103443B1DB68CC6895
:109DD0001B682360D2F81024D268116030BDC2F82D
:109DE0001014C96800220A6030BD0000CC36002083
:109DF0007047FCF743BC704708B5034A0092402304
:109E0000024A00F005F808BDE1B702003435002031
:109E1000F0B595B01C4615460F4608461A9E00F050
:109E2000EDFA182109A8FCF73AFB0E96CDE9095482
:109E30000023082203A9384600F0F5FA0598069099
:109E4000BDF81000ADF81C00BDF81200ADF81E0002
:109E500000208DF821000398082600F00300012857
:109E600002D0022818D032E003983346850AC0F3A6
:109E7000C2008DF8200003980FA9C0F38314A2003C
:109E8000384600F0D0FA09A8009006AB22460FA988
:109E9000284600F00FFA1AE00398840DC0F3C200C0
:109EA0008DF82000082C01D2254600E00825334615
:109EB0002A460FA9384600F0B6FA2E44641B09ABB7
:109EC00006AA29460FA800F05DF9002CEAD1384611
:109ED00000F09AFA15B0F0BD0A4A012902EBC00061
:109EE00007D0022907D0032907D0042907D0002072
:109EF000704702207047042070470079704740790E
:109F00007047000070CD020010B5FFF772FF04210A
:109F10000348FFF73FFF02490120C968487110BD9F
:109F200060CD02002DE9F04F8DB0FEF703FA18B1B5
:109F300000200DB0BDE8F08F7E4C4FF0000BC4F850
:109F400018B4BFF34F8F7C49A06802900D68D846C3
:109F5000284004EB80000BE0D4F8180470B9616865
:109F60000298814201D8A160E2E7284004EB80001A
:109F70000C3002A9FEF7C8FF0028EDD1002005AA89
:109F8000029901EA050304EB8303491CDB6842F8EC
:109F90002030401C02910228F2D3059800F0030003
:109FA000022802D001284DD0AAE005985022810D48
:109FB0008946B2EB905F00D850210E4666F39F5061
:109FC000059008315D4800F0D0F9070078D000F026
:109FD00015FA4346082205A9384600F02CFA0299E2
:109FE00008F1080A2940681A8000001D864222D91B
:109FF000504D0C3530B1C2B204EB8101301A90469D
:10A000000C3104E02946F2B2002590462846C6B23B
:10A010005346384600F00FFA0AEB080325B13246E2
:10A020002946384600F007FA029909F1030001EBCE
:10A03000900002903BE004EB8101534632463846E3
:10A040000C31EFE70598C0F38310062800D30620F3
:10A05000059960F38911C1F38310801C059181007B
:10A06000364800F082F907004AD000F0C7F94346AD
:10A07000082205A9384600F0DEF908F10808002694
:10A080000FE00298434600EA0501401C04EB810101
:10A090000290042238460C3100F0CDF908F1040892
:10A0A000761C0598C0F38310B042EAD847B1D4F8C3
:10A0B0001054D4F8180478B1384600F0A5F934E00B
:10A0C0001EE0E8684079012804D12A68284639460C
:10A0D00012689047E8680568002DF2D1384600F014
:10A0E00093F98DF800B06846FCF7ACFFD4F818047B
:10A0F00008B90298A0609DF80000FCF7C7FF14E0C3
:10A10000D4F8104405E02168204689688847E06853
:10A110000468002CF7D10A480A49401AC0080221F5
:10A1200001EB004008A100F019F8FEF703F980F0F8
:10A130000100FEE6CC360020242C0020F0CD0200E9
:10A14000D0CD020070CD02004261636B656E647316
:10A1500020666C75736865640000000000231A4671
:10A1600001F02CBC08B5012300926A4601F026FCE0
:10A1700008BD1CB5CDE9002302236A4601F01EFC90
:10A180001CBD00002DE9F0470E4680461C46924655
:10A19000082940D894F80C900020207319461046E6
:10A1A00001F07AF90025B54206D218F805201BA166
:10A1B0002046FFF727FC03E01AA12046FFF722FC08
:10A1C0006D1C082DEFD318A12046FFF71BFC0025BE
:10A1D000B54212D218F805707E2F08D8FCF742F964
:10A1E0000068C05D10F03E0F01D03A4600E02E221C
:10A1F0000EA12046FFF706FC03E00DA12046FFF765
:10A2000001FC6D1C082DE3D301222146504601F0CC
:10A2100025F984F80C90BDE8F08700002025303245
:10A2200078000000202020007C0000002563000052
:10A2300020000000064910B500200870054800F015
:10A24000E1F8002803D1044800F036F9002010BDE1
:10A25000CC360020F0CD020098C402000248034929
:10A26000401AC00870470000F0CD020070CD020017
:10A2700013B56846FFF79EF808B100201CBD0248E0
:10A28000009950F831001CBD70CD020070B508482F
:10A290000125D0F81044057007E0E0684571216899
:10A2A000204649688847E0680468002CF5D170BDF5
:10A2B000CC3600202DE9FF4781460C9D00200C463E
:10A2C0002F7B2873984616462946184601F0E4F875
:10A2D000072E42D2DFE806F004090F161F2A3600C7
:10A2E00049462846FFF78EFB37E049462846226854
:10A2F000FFF788FB31E0D4E9002349462846FFF701
:10A3000081FB2AE0A0680090D4E900234946284652
:10A31000FFF778FB21E0D4E90201CDE90001D4E99F
:10A32000002349462846FFF76DFB16E004F10800BC
:10A3300007C88DE80700D4E9002349462846FFF7FF
:10A3400061FB0AE004F108000FC88DE80F00D4E9B2
:10A35000002349462846FFF755FB00222946404680
:10A3600001F07CF82F73BDE8FF872DE9F041058AE5
:10A3700080462D1F4819C01CB0FBF5F0C6B2404600
:10A38000FFF70AF9041E19D0002020710120607126
:10A39000E58000272546761EC4F800800BE0404685
:10A3A000FFF7FAF860B16179491C617128600546D0
:10A3B0007F1CC0F80080B742F1D32046BDE8F08191
:10A3C000204600F002F80020F8E72DE9F041457939
:10A3D00001466B1E002201E00968521C9A42FBD321
:10A3E0000F680146002605E038460C68FFF7F6F8CE
:10A3F0002146761CAE42F7D3BDE8F0810121001D55
:10A40000FFF7A8B8FFF702B910B504460121001DF7
:10A41000FFF7BCF810F0FF0F04D12046BDE8104054
:10A42000FFF7D3BF10BD1CB501920122009201AA13
:10A43000FEF780FF1CBD1CB501920022009201AA0C
:10A44000FEF778FF1CBD0000064910B500204870DB
:10A45000091D0860BFF35F8F0349044800F01AFA32
:10A46000002010BD0C2C002030C302002835002035
:10A4700008B500208DF800006846FCF7E3FDF1EE1A
:10A48000100A20F09F00E1EE100ABFF35F8F084929
:10A490004020C1F880029DF80000FCF7F7FD00F0B5
:10A4A000D5F908B141DF08BD20BF40BF20BF08BDBE
:10A4B00004E000E0FCF76CBC8268002191608268D7
:10A4C0001161826851618268D160826851608068E0
:10A4D0000160704708B5002242504058009008BD06
:10A4E00020B1034909680160002070470E207047C1
:10A4F0001CC502002DE9FE4307460E460846FFF73D
:10A50000EFFF00287CD100240094019406208DF8F0
:10A5100000704FF00108ADF8040002948DF802803D
:10A5200069462020326869DF3649374A891AC908E6
:10A53000012202EB014530B100F01AFA024628462A
:10A540003249FFF70FFE00948DF801808DF802402C
:10A55000019402948DF8034069464020326869DF17
:10A5600030B100F005FA024628462949FFF7FAFD06
:10A5700000948DF80070F720ADF802000194029469
:10A5800069462320326869DF30B100F0F1F90246F4
:10A5900028462049FFF7E6FD0094019402948DF8C7
:10A5A000008069460120326869DF30B100F0E0F9CF
:10A5B000024628461849FFF7D5FD4FF4B0600090D9
:10A5C000019402946946A120326869DF30B100F03D
:10A5D000CFF9024628461149FFF7C4FD00940194C3
:10A5E00002948DF800406946A020326869DF30B1DE
:10A5F00000F0BEF9024628460949FFF7B3FD0020E6
:10A60000BDE8FE83E0CD020070CD0200BCCB0200AD
:10A6100004CC020050CC02001CCB020068CB02002C
:10A62000C8CA02002DE9F0410546076860DF804690
:10A6300019491A482A68081AC608BA4219D90220C4
:10A6400000EB064416A12046FFF788FD20463A4657
:10A650001FA12B68FFF78DFD4FF08050D0F80C0143
:10A660002968800200F10050421A204625A1FFF718
:10A6700079FDB8F100004FF001040AD000F078F93C
:10A68000024604EB06402AA1FFF76CFD4046BDE8F8
:10A69000F0812F480470F9E7E0CD020070CD020090
:10A6A000496E73756666696369656E742052414DC3
:10A6B00020616C6C6F636174656420666F722074D6
:10A6C000686520536F66744465766963652E000083
:10A6D0004368616E6765207468652052414D207340
:10A6E00074617274206C6F636174696F6E2066723E
:10A6F0006F6D203078257820746F20307825782E83
:10A70000000000004D6178696D756D2052414D204B
:10A7100073697A6520666F72206170706C6963611D
:10A7200074696F6E20697320307825782E000000E0
:10A7300073645F626C655F656E61626C6528292079
:10A7400072657475726E65642025732E00000000BA
:10A750007B2C002030B51548ADF5017D0078002830
:10A7600021D04FF4FA7500BFADF8005280A96846B9
:10A7700061DF38B1052816D00DF5017DBDE8304008
:10A78000FCF706BB6C460A497DA800F083F806E09A
:10A79000D0E90021204690477DA800F092F87F98EC
:10A7A0000028E1D0F4E70DF5017D30BD7B2C0020C1
:10A7B00020C502007CB5194C207808B108207CBD6A
:10A7C0000120A070002000F0D5FF112819D0002032
:10A7D00000F0E8FF12480026006801908DF8006044
:10A7E0006846FCF72FFC0F4901A810DF05000AD0CE
:10A7F000002020709DF80000FCF748FC2DB1284691
:10A800007CBD00207CBD0120F3E7A670667001F0DE
:10A810008BF8012000F0C6FFF3E70000782C002041
:10A82000B4C402000D6D02000EB50749684600F081
:10A8300031F805E0D0E900108847684600F041F89B
:10A8400002980028F6D10EBDD0C40200014800785D
:10A8500070470000782C00201FB568464BDF30B1F0
:10A86000052814D004B0BDE81040FCF791BA08499F
:10A8700001A800F00FF806E0D0E900210098904709
:10A8800001A800F01EF803980028E6D0F4E71FBDE9
:10A890003CC50200016009684160AFF3008010B55B
:10A8A000D0E900215368994201D1002104E0D1E9A7
:10A8B0000034A34202D01946816010BD08314160C6
:10A8C000F0E7816800290BD0026892680A44826030
:10A8D00041684B689A4203D108314160FFF7DFBFFE
:10A8E000704770B50D460646446804E0B2682946D4
:10A8F000904718B1246820680028F7D120682860A4
:10A90000256070BD4068006870474168086800288D
:10A9100001D002680A60704702460020526806E0D3
:10A920008B4203D108681060012070471A461368F3
:10A93000002BF5D1704700000C4A10B502F5947356
:10A940000EE0991AC91001EBD171491002EBC10157
:10A950000C68844201D90B4602E005D201F10802DD
:10A960009A42EED3002010BD486810BD50C30200CB
:10A9700000B5FFF7E1FF002800D1014800BD00004D
:10A980003CC302004058002800D00120704708B5A1
:10A99000002242504058009008BDD0F804030840FF
:10A9A00000D0012070474058002800D00120704797
:10A9B00008B5002242504058009008BD0248006887
:10A9C000002800D0012070470004014008480068BA
:10A9D000012110F0010F06D14FF0E020C02280F8D5
:10A9E00000248430C16703490120086070470000DB
:10A9F00000E100E0180500400649024600200B79FE
:10AA00000BB1852070470A6001220A7100224A7149
:10AA100070470000742B0020022010B54107C1F8D8
:10AA200008034FF48270FEF756FF054901200860C5
:10AA300004480168C1F300410029FAD110BD0000AB
:10AA40000C00004018040040002802D00149800199
:10AA50000847704701C302002DE9F0410E46054644
:10AA600000F082FC0028284619D0FDF7B9FC083810
:10AA700000F0ECFC032802D001280ED007E04FF0D4
:10AA8000A040D0F81005E84010F0010F05D00321D8
:10AA90002846BDE8F041FFF729B90221F8E700F0A8
:10AAA0006FFC002822D02846FDF79AFC04464FF49C
:10AAB000807000EB84000E4F81B207EB8400D0F869
:10AAC000102542F00102C0F810250846FFF750F9A2
:10AAD000002E0BD02846FDF783FC064951F82000D4
:10AAE000002803D00120A040C7F80403BDE8F0818E
:10AAF00000600040D83300202DE9FC41DFF8B88029
:10AB0000044608EB0400002790F930001346C017F4
:10AB10000E46401C01D008274AE0B0781946C0F321
:10AB200040022046FDF738FC0546401C3FD0B07877
:10AB3000410717D4C0070AD04FF0A04000EB8400B3
:10AB4000D0F8001721F00201C0F8001707E000213B
:10AB50007378204600910A460191FFF76BF8204672
:10AB600000F0F4FBB078800718D51448317800EB7A
:10AB70008500D0F81025124B1A40C0F810254FF46C
:10AB8000F8524FF4403302EA042203EA01410A4337
:10AB9000D0F810150A43C0F8102509E008EB0500AD
:10ABA000327810F8481F41EA8211017000E0042752
:10ABB0003846BDE8FC810000D8330020006000402A
:10ABC000FFE0FCFF4FF0A041D1F81015C14011F09B
:10ABD000010000D00120704770B5194D95F858005C
:10ABE00008B1082070BD0024661E2046FFF7A6F8B5
:10ABF00010B1281980F83060641CE4B2202CF4D322
:10AC000000242046FDF7BAFB641CE4B20C2CF8D3F8
:10AC100000200D4968650B4CC02081F80004012616
:10AC20004020891FC1F800014FF4BE70FFF7A0F863
:10AC3000A004C4F8040385F85860002070BD00002B
:10AC4000D83300200060004006E000E0034890F8A0
:10AC50005800002800D0012070470000D8330020A1
:10AC60000121B1EB507F01D10120704700207047D6
:10AC700038B50D4600F05CFC040014D000208DF8BF
:10AC800000006846FCF7DEF9207928B19DF8000045
:10AC9000FCF7FCF9112038BD0120256020719DF8DA
:10ACA0000000FCF7F3F9002038BD0000014902481C
:10ACB00001F04AB834340020002000402DE9F04172
:10ACC0000546007916460F4600EB40012D4A01EB80
:10ACD000C00102EB810494F82A1011B10820BDE8EC
:10ACE000F081294951F820102868FFF7C1FF08B109
:10ACF0001120F4E739462846FCF7E2F96660386926
:10AD0000206030004FF001062FD03F7F4FF48E714E
:10AD10002868FFF73CFE4FF4A2712868FFF737FE62
:10AD200028681A49C0F8041328684FEA471140F30D
:10AD30000730002804DB00F1E02080F8001405E073
:10AD400000F00F0000F1E02080F8141D286840F3A7
:10AD50000730002809DB00F01F0106FA01F1400965
:10AD6000800000F1E020C0F8001128680421C0F83C
:10AD700000150020A061E06184F8290044F8140F58
:10AD8000A675ACE734340020B8C20200800002008F
:10AD90002DE9F05F054600794FF4017600EB4003A2
:10ADA00003EBC000344B03EB80040020636813B155
:10ADB0002B68C3F80863A3694FF000096BB1E06921
:10ADC00038B1606810B12868C0F804631120BDE88C
:10ADD000F09FE2610120216105E0C4F82490A261A6
:10ADE000E160C4F81C9094F82910014302D1284670
:10ADF00000F083FC60680028286803D0C0F8046372
:10AE00000020E4E74FF4A2763146FFF7C0FDB246DA
:10AE10004FF4927B59462868FFF7B4FD06464FF47D
:10AE200084712868FFF7AEFD804651462868FFF719
:10AE3000A9FD074648EA07003043EBD056EA070071
:10AE400007D12146286800F029FCA169606A814287
:10AE5000E0D8C4F818900EB10320B8E70FB10F2066
:10AE6000B5E794F8291001200029296801D008606D
:10AE7000C6E74860C4E70000343400202DE9F05FE5
:10AE8000054600790B4600EB400101EBC000244968
:10AE900001EB8004284600F045F810B11120BDE810
:10AEA000F09F62614FF00009C4F82090A36084F81D
:10AEB00028904FF48E784E4641462868FFF767FD8C
:10AEC00028684FF0010AC0F808A02146286800F061
:10AED00075FE606808BBD5F800B067690FE000BF79
:10AEE00094F8280008B10F2615E041465846FFF7B0
:10AEF00049FD0028F4D02146584600F05FFE206A44
:10AF0000B842F2D3574641462868FFF73BFD002878
:10AF1000F9D02868C760C4F814903046BFE7000035
:10AF200034340020007900EB400101EBC0000449FB
:10AF300001EB80004069002800D00120704700002C
:10AF4000343400200149024800F0ACBF60340020D6
:10AF5000002000402DE9F0410546164600790F46D5
:10AF6000154A00EBC00102EB810494F8201011B1E6
:10AF70000820BDE8F081114951F820102868FFF73A
:10AF800077FE08B11120F4E739462846FCF7DCF8D3
:10AF90006660386920601EB1397F2846FDF770FF72
:10AFA00028680821C0F800150020A061E0616061F8
:10AFB000012184F82010DCE760340020BCC20200CC
:10AFC0002DE9F05F044600790E4600EBC001DFF882
:10AFD000F0A017460AEB81053046FFF741FEB0B1FD
:10AFE00068684FF000084FF4047910B12168C1F887
:10AFF0000893A8694FF0000B80B1E86948B1686810
:10B0000010B12068C0F804931120BDE8F09F102013
:10B01000FBE7EF614FF001082E6102E0EE60C5E949
:10B02000067B00254FF488712068FFF7C1FC4FF4C0
:10B03000A2712068FFF7BCFC2068C0F83465C0F836
:10B0400038752068B8F1000F12D0D0F8001241F026
:10B050002001C0F800122079D04600EBC0010AEBB5
:10B060008100406838B12068C0F804932846CCE7D6
:10B0700001210160EFE74FF4887A4FF4A27951463D
:10B080002068FFF790FC074649462068FFF78BFCD5
:10B0900006464FF492712068FFF785FC014647EAA7
:10B0A00006000843EBD0227902EBC20308EB8302CF
:10B0B000C2F818B001B10325002ED7D00F25D5E76F
:10B0C000603400202DE9F04704460E4600792749F8
:10B0D00000EBC00001EB800517463046FFF7C0FDCE
:10B0E00030B1204600F044F820B11120BDE8F087CF
:10B0F0001020FBE76F61AE604FF490774FF00008CF
:10B1000039462068FFF754FC4FF4AC76314620688E
:10B11000FFF74EFC2068AA686969C0F84425C0F8AA
:10B12000481520684FF00109C0F808906868D0B948
:10B13000BA4651462068FFF736FC0746314620687C
:10B14000FFF731FC0743F4D010B14FF00F0808E0CF
:10B150002068C0F80C9031462068FFF724FC0028D6
:10B16000F9D0002068614046C0E70000603400204C
:10B170000079054900EBC00001EB80004069002820
:10B1800000D00120704700006034002003490860AF
:10B19000034801680029FCD07047000004E5014025
:10B1A00000E4014010B550B103280CD10220FCF797
:10B1B00021FF002807D0BDE81040FBF7E9BDBDE83E
:10B1C000104000F091BB10BD0078002807D1044862
:10B1D0003B21408876DF002801D0FBF7D9BD7047BE
:10B1E000D82A002070B58D88027900EBC50422733F
:10B1F000C97BA41D012902D0022904D101E00088E5
:10B2000000E04088208021886088814211D928464A
:10B21000A5DF0126B0B1112816D0FFF7A9FB024621
:10B220000B480C49401AC00806EB00400AA1FEF783
:10B2300099FFA179E079814208D92846BDE870409C
:10B24000FDF7C4BA6671F4E72671F2E770BD00003D
:10B2500070CD020070CD020073645F626C655F6741
:10B26000617474635F65786368616E67655F6D7450
:10B27000755F7265717565737428292072657475C0
:10B28000726E65642025732E000000007CB50646B2
:10B290008D88C88806EBC504A41D172800D2172086
:10B2A0002188814200D808466080002020712188D2
:10B2B0002846B5DF60B1FFF75BFB02460F48104937
:10B2C000401AC008012101EB00400EA1FEF74AFF21
:10B2D0006079002810D1306900280DD01549D1E9D6
:10B2E0000201CDE90001ADF802506088ADF804001C
:10B2F00032696946304690477CBD000070CD02003F
:10B3000070CD020073645F626C655F676174747313
:10B310005F65786368616E67655F6D74755F7265A0
:10B32000706C7928292072657475726E65642025A9
:10B33000732E00008CC202000068012803D002288E
:10B3400001D00020704701207047000010B505496A
:10B35000C20800F00703885C01249C402043885405
:10B3600010BD00002C3400200449084490F930003E
:10B37000082801DB0120704700207047D8330020E7
:10B380000449084490F93000082801D20120704790
:10B3900000207047D83300202DE9F05F2A4F064681
:10B3A0004FF0A04A4FF0010B0024381990F95010CB
:10B3B000491C3CD090F85000314620F0C00528468A
:10B3C000FEF73CF920B3204600F040F881460AEB36
:10B3D0008500D0F80007C0F30148B8F1020F18D07B
:10B3E00002212846FEF782FC0BFA05F1CAF8201567
:10B3F0002846FCF7F5FF57F820204AB14846B9F136
:10B40000030F11D0B8F1020F05D0B8F1030F07D028
:10B410000DE00321E5E74846B9F1010F04D006E04D
:10B420004846B9F1020F02D1014628469047641CF4
:10B43000042CBAD3324601210020FEF769FC3068A3
:10B440000028B1D1BDE8F09FD8330020024908445C
:10B4500090F8500080097047D833002010B50C4692
:10B46000017A052908D0407A38B1084808A1026855
:10B470002046FEF7C7FA00E01AB106A12046FEF703
:10B48000C1FA2046BDE81040FEF7C9BA542C00208E
:10B49000257300000D0A000038B5C3880D46044628
:10B4A00033B114A0009015A216A12846FEF7AAFAFF
:10B4B000217A05291CD0607A48B1A088FEF70CFDDE
:10B4C000164951F8202016A12846FEF79BFAA088BD
:10B4D0000021FEF7CDFE03461049207A143951F8B9
:10B4E000202001B02846BDE830400EA1FEF78ABA00
:10B4F00038BD00001B5B306D000000001B5B313B62
:10B5000033316D0025734C6F67732064726F7070F8
:10B510006564202825642925730D0A00542C002019
:10B52000257300003C25733E2025733A200000005F
:10B530000349884201D1034870470020704700004A
:10B54000002000407C2B002070B50546FDF789FAED
:10B55000134C40B1D4E904024FF08071411842F11C
:10B560000000C4E9041000212846FDF7C7F930B1F6
:10B57000606820B1606800F06DFA00206060012111
:10B580002846FDF7BBF918B1FDF7E4FBC4E9060155
:10B59000284600F0ABFA2846BDE8704000F038B805
:10B5A000C02B00202DE9F04100260E70D0E9027476
:10B5B0000D468046FDF7CEFB381A002364EB0101EF
:10B5C0001A461B1A8A4115DAB0F5350F04D3FBF77A
:10B5D00013FC0D49421800E03A464FF4960300214F
:10B5E0000A48FDF74AFA10B10D2807D00AE00120F9
:10B5F000BDE8F08100210548FDF776F9404600F0EE
:10B6000029FA28700020F3E7FFFFB400C82B0020C0
:10B61000F8B5204C064600251F48FFF773F910B314
:10B62000D0E90210CA4372EA000224D0626882B1F3
:10B630006368D3E90223891A984127D26068D0E968
:10B640000210C94371EA000103D061681248FFF794
:10B6500048F900F095F907466946FFF7A3FFB0B136
:10B66000606858B10DE0606800280FD13046BDE831
:10B67000F840FDF7FEB900F083F9CDE73046FDF75D
:10B68000F4F967609DF800000028C5D1F8BD656039
:10B69000C2E70000C02B0020D0C2020070B50546F2
:10B6A00088690C4600284FF4847128460AD0FFF7B9
:10B6B0006EF9D5F81805626AE1688854606A401C22
:10B6C000606270BDFFF763F9D5F8180570BD1FB54E
:10B6D00001238DF80030CDE90121D0E90012684640
:10B6E00090471FBD1FB501238DF80030CDE9012122
:10B6F000D0E90012684690471FBD10B504460068A7
:10B700004FF49271FFF743F94FF484712068FFF70B
:10B710003EF920680121016010BD000038B500210C
:10B72000012548B1012810D003280DD1FFF74EF9AB
:10B73000BDE83840FEF7F8B84FF0E020C0F880517F
:10B74000BFF34F8FBFF36F8F38BD8DF80010684681
:10B75000FBF778FC064C207808B9FEF7C5F8E068DE
:10B76000401CE060A5709DF80000FBF78FFC38BD21
:10B77000C43300203EB5044609496846FFF78AF8FD
:10B7800008E000BFD0E900212046904730B168466C
:10B79000FFF797F802980028F4D13EBD11203EBD76
:10B7A000B8C402003EB5044608496846FFF772F87F
:10B7B00007E000BFD0E90021204690476846FFF728
:10B7C00080F802980028F5D13EBD0000C4C40200F4
:10B7D00002498969002900D0084770472C330020AE
:10B7E0002DE9F0411400884618D000250E4F03269D
:10B7F00008EB050122460020FAF742FF0544241A0F
:10B8000040B93878002809D008494FF47A40884771
:10B81000761E05D001203870002CE9D1BDE8F081FA
:10B8200000203870FAE70000182C002091C40200B4
:10B830002DE9F0410746806A14468846C8B30025C2
:10B8400031E000BFB96A05EB450001EB8006B08826
:10B85000801CFE2802D90C20BDE8F0812288401C03
:10B8600008F8020020881622401C80B2208008F8C8
:10B8700000202088401C80B2208000EB0801308826
:10B8800000F099FB2188084480B22080B28842B140
:10B89000B16871B14044FAF7E9FD2088B1880844E5
:10B8A00020806D1CEDB297F82C00A842CAD8002069
:10B8B000D2E7FFE70720CFE70A78062822F0FF0249
:10B8C0000A7010D2DFE800F0030507090B0D002015
:10B8D00008E0112006E0212004E0312002E01220DF
:10B8E00000E022200870704710B50020FCF782FBB2
:10B8F00008B1FBF74DFAFCF7D7FA08B1FBF748FAA5
:10B9000033DF002803D0BDE81040FBF741BA10BD7B
:10B91000002805D10349012048700020FCF730BE03
:10B9200070470000C433002010B51620FBF7F8F86C
:10B93000A0B1114890F800044009082811D2012153
:10B94000814011F0EC0F0CD00C4882684FF480015C
:10B950006AB1016841F48001016010BD42F201004A
:10B9600001E042F20200BDE81040FBF711BA4FF0CF
:10B97000E020C0F8001110BD16E000E01C350020EA
:10B980000148FEF7C2BF0000D0C20200C207002A71
:10B9900003D000BF4FF00F0201E04FF0F00201D0E2
:10B9A0004FEA0111044B03EB5003187800EA020040
:10B9B00040EA010018707047843400202DE9F84FE8
:10B9C000074622489146884605681E460122694678
:10B9D0001846FCF74DFCDFF878A060B30098002112
:10B9E0000446801C0AE000BF00EA050259F821C0A5
:10B9F0000AEB8202401C491CC2F80CC0B142F3D3CE
:10BA00004FEA1749FCF766FF611C29400AEB8101E8
:10BA100049EA00422C40CA600AEB8401C86867F317
:10BA2000C50066F3891068F39F2020F00300401CD6
:10BA300020F00400C8609AF8000001E0FEF772FAF6
:10BA40000028FBD1FDF7CAFABDE8F88F242C0020AE
:10BA5000CC360020F8B5044622480026007878B39A
:10BA600074B3FDF777F9D4E90232C01A91412DD3AE
:10BA700000258DF800506846FBF7E4FA206910B9FC
:10BA8000681EC4E902009DF80000FBF7FFFAD4E944
:10BA9000051088478DF800506846FBF7D3FA2269F5
:10BAA0007AB1D4E90210CB4373EA000309D08918B4
:10BAB0006841C4E902109DF80000FBF7E7FA09E0CD
:10BAC0000DE09DF80000FBF7E1FA08E0D84370EACA
:10BAD000020004D021460448FEF703FF0126304649
