:020000040000FA
:10000000A8220020150200001D0200001F020000AF
:100010002102000023020000250200000000000071
:1000200000000000000000000000000027020000A7
:1000300029020000000000002B0200002D02000039
:100040002F0200002F020000A90500002F0200006F
:100050002F0200002F0200002F0200002F020000DC
:100060002F0200002F0200002F0200002F020000CC
:100070002F0200002F0200002F0200002F020000BC
:100080002F0200002F0200002F0200002F020000AC
:100090002F0200002F0200002F0200002F0200009C
:1000A0002F0200002F0200002F0200002F0200008C
:1000B0002F0200002F0200000000000000000000DE
:1000C0002F0200002F0200002F0200002F0200006C
:1000D0002F0200002F0200002F020000000000008D
:1000E0000000000000000000000000000000000010
:1000F0000000000000000000000000000000000000
:1001000000000000000000000000000000000000EF
:1001100000000000000000000000000000000000DF
:1001200000000000000000000000000000000000CF
:1001300000000000000000000000000000000000BF
:1001400000000000000000000000000000000000AF
:10015000000000000000000000000000000000009F
:10016000000000000000000000000000000000008F
:10017000000000000000000000000000000000007F
:10018000000000000000000000000000000000006F
:10019000000000000000000000000000000000005F
:1001A000000000000000000000000000000000004F
:1001B000000000000000000000000000000000003F
:1001C000000000000000000000000000000000002F
:1001D000000000000000000000000000000000001F
:1001E000000000000000000000000000000000000F
:1001F00000000000000000000000000000000000FF
:10020000DFF80CD000F02AF800480047850900000C
:10021000A82200200648804706480047FEE7FEE780
:10022000FEE7FEE7FEE7FEE7FEE7FEE7FEE7FEE7A6
:10023000810200000102000040EA01039B0703D095
:1002400009E008C9121F08C0042AFAD203E011F815
:10025000013B00F8013B521EF9D27047064C074D96
:1002600006E0E06840F0010394E807009847103486
:10027000AC42F6D3FFF7C8FFE01400000015000001
:10028000F0B5B74AB7494FF080541368D4F830013D
:100290000978D4F83421451CC1F3031106D08446F3
:1002A00001270025BCF1060F03D00AE003F0FF0C84
:1002B000F6E7B4F82463DFF8B0C2C6F30426CCF83E
:1002C0000060DEB2062E06D1032904D1DFF8A0C2F9
:1002D000A64ECCF87460461C04D08446BCF1060FD0
:1002E00003D00AE003F0FF0CF8E7D4F84462DFF82B
:1002F00084C2C6F34236CCF80060DEB2062E08D1C6
:10030000032906D19C4ED6F800C02CF0807CC6F89C
:1003100000C0461C04D08446BCF1060F03D00BE09D
:1003200003F0FF0CF8E74FF08046C6F80C51C6F812
:100330001051904E361F3560DEB2062E08D10329CB
:1003400006D1DFF830C203260CF1640CCCF8006053
:10035000DEB2062E11D103290FD1DFF820C2052607
:10036000CCF80060854E78363760844E08363560AC
:100370000CF1040C3F26CCF80060461C06D08446E5
:100380004FEA0206BCF1060F04D081E003F0FF0C37
:100390000E46F7E7032E7BD0042E79D0784E3668D0
:1003A000DFF8E0C1CCF80060754E361D36680CF100
:1003B000040CCCF80060724E083636680CF1040C60
:1003C000CCF800606E4E0C3636680CF1040CCCF89C
:1003D00000606B4E103636680CF1040CCCF80060EF
:1003E000674E143636680CF1040CCCF80060644E8D
:1003F00018363668DFF88CC10CF1200CCCF80060A0
:100400005F4E1C3636680CF1040CCCF800605C4E74
:10041000203636680CF1040CCCF80060584E2436B7
:1004200036680CF1040CCCF80060554E283636685E
:100430000CF1040CCCF80060514E2C3636680CF1EF
:10044000040CCCF800604E4E30363668DFF834C10C
:100450000CF1400CCCF80060494E343636680CF193
:10046000040CCCF80060464E383636680CF1040CAB
:10047000CCF80060424E3C3636680CF1040CCCF8E7
:1004800000603F4E403636680CF1040CCCF800603A
:10049000461C05D04FEA000CBCF1060F03D008E063
:1004A00003F0FF0CF8E7D4F85842374E04F04F043D
:1004B0003460441C03D00346062B02D008E0DBB2B4
:1004C000FAE732490B68DB0702D06FF001030B60DB
:1004D00006280AD1032A08D0042A06D0052A04D007
:1004E0002B48016841F48061016023487438016839
:1004F00041F470010160BFF34F8FBFF36F8F4FF076
:100500001021D1F80002002803DBD1F804020028F2
:1005100022DA204A176020480368002BFCD01523FC
:10052000C1F800320468002CFCD0C1F80432016824
:100530000029FCD0156001680029FCD0BFF34F8F63
:100540000D48F0380168154A01F4E061114301607B
:10055000BFF34F8F00BFFDE7124911480860F0BD9F
:10056000E00F00F0E80F00F0403501400DF0ADBAAB
:1005700000C007403C050040FCED00E01056004084
:100580000404001020C50040E40E004000040040B8
:100590003C17004004E5014000E401400400FA0576
:1005A0000090D0033400002001480068004700009C
:1005B0000C00002002E008C8121F08C1002AFAD16E
:1005C00070477047002001E001C1121F002AFBD1D3
:1005D0007047000072B609480068C00700D000BE2E
:1005E000BFF34F8F0548E4380168054A01F4E06124
:1005F00011430160BFF34F8F00BFFDE7F0ED00E056
:100600000400FA050EB500210091CDE901106A46FB
:1006100044F20100FFF7DEFF0EBD10B58268C3682B
:10062000934203D000F056F9002010BD052010BD04
:1006300029B112B1531E134203D0092070470E2076
:1006400070470160838000218160C1600846704767
:1006500010B58268C3689A1A83889A4203D800F05A
:1006600043F9002010BD042010BD000070B50A4EF3
:1006700001460A48B578FFF7D0FF04464DB1002087
:10068000B070711C0122C81D00F0D0F908B1FFF74D
:10069000B9FF204670BD0000140000208802002031
:1006A000F0B5244E89B01F460D00044672603FD05D
:1006B000A888296882B22048FFF7BAFF002835D100
:1006C000A889A96882B21C481030FFF7B1FF002842
:1006D0002CD1202219496846FFF7AEFD60690690CB
:1006E000207C00B101208DF814008DF81C70607C16
:1006F00000B10E208DF81500E0680290A06803900C
:1007000020680190606800900A480D4A69460830E8
:1007100000F058F9002809D1B0702068401C05D0BD
:1007200004490122491CC81D00F080F909B0F0BD40
:100730000720FBE71400002088020020C0140000FE
:100740004511000010B501461048FFF781FF040075
:1007500019D10F480F4A0178515C19B1001D00F002
:100760006DFC02E00C3000F043FB60B9084907481B
:100770000839FFF752FF30B905490122083904480A
:1007800000F064F90446204610BD000098020020E5
:100790001C0000200000002000F002B800F008B8A3
:1007A00072B602480168491C0160704730000020A1
:1007B00003490868401E086000D162B67047000017
:1007C000300000202DE9F041064608680C46411C27
:1007D0004FF0A0474FF0010506D005FA00F1C7F829
:1007E0000815206800F078F96068411C02D00021EB
:1007F00000F060F93168A069C1F82405607D227DB0
:1008000031681043C1F86C05D4E900123068C0F8B3
:100810001425C0F80C15207D012815D1A068411CB5
:1008200002D0002100F046F9E068411C05D0854067
:10083000C7F80855E06800F04FF9D4E902123068B3
:10084000C0F80825C0F81015BDE8F0812DE9F04189
:10085000064608680C46411C4FF0A0474FF00105C2
:1008600006D005FA00F1C7F80815206800F03EF937
:100870006068411C02D0002100F025F93168A069B0
:10088000C1F82405607D217D32680843C2F86C05FB
:10089000D4E900123068C0F80C15C0F81425207D8A
:1008A000012815D1A068411C02D0002100F00BF9ED
:1008B000E068411C05D08540C7F80855E06800F0A5
:1008C00015F9D4E902123068C0F80825C0F81015EF
:1008D000BDE8F081826883881A4003689A5C0A70D8
:1008E0008168491C81607047C26883881A40036828
:1008F0009954C168491CC1607047000070B50D462D
:10090000044600684FF4887100F010F94FF49071BC
:10091000206800F00BF94FF49271206800F006F99E
:100920004FF4A271206800F001F94FF4AC71206817
:1009300000F0FCF820681249C0F804132068690729
:1009400040F30730090E002804DB00F1E02080F8B6
:10095000001405E000F00F0000F1E02080F8141D05
:10096000206840F30730002809DB00F01F02012156
:1009700091404009800000F1E020C0F8001170BDF6
:10098000100342008AB018220A496846FFF754FC57
:100990000948069009494FF48070CDE90701099094
:1009A0000723074A06A96846FFF77AFE08B1FFF752
:1009B00029FEFEE7A01400003800002038010020C6
:1009C00019120000F0B505460478154889B016469E
:1009D00040F82420124A0869121DA2F1080742F8C3
:1009E0002400487F385520226846FFF725FC0494F0
:1009F0002878385C48B10EB10A4A00E00022694606
:100A0000281D00F00DFA09B0F0BD0EB1064A00E055
:100A10000022694605F10C0000F0B6F8F3E700008B
:100A2000040000205D130000E911000030B40378D9
:100A3000054CE35C1BB130BC001D00F027BA30BC94
:100A40000C3000F00BB900000000002030B4037837
:100A5000054CE35C1BB130BC001D00F099BA30BC02
:100A60000C3000F071B900000000002070B541EAC0
:100A70004201DDE904564FF0A04441EA830141EA16
:100A8000052104EB800041EA0641C0F8001770BD63
:100A900070B541EA4201DDE904564FF0A04441EA55
:100AA000830141EA052104EB800041EA0641C0F8D8
:100AB000001770BD1CB500220B4600921146019232
:100AC000FFF7D4FF1CBD1CB500220B460092114657
:100AD0000192FFF7DDFF1CBD1CB5002100910B4604
:100AE000012201911146FFF7C1FF1CBD1CB5002179
:100AF00000910B46012201911146FFF7C9FF1CBD71
:100B00004058002800D00120704708B5002242500C
:100B10004058009008BDD0F80403084000D00120E0
:100B200070474058002800D00120704708B50022C7
:100B300042504058009008BD0121B1EB507F01D1D7
:100B4000012070470020704770B50D4600F084FA10
:100B500004000FD00020FFF71FFE207920B10020F5
:100B6000FFF71CFE112070BD0120256020710020C0
:100B7000FFF714FE002070BD0149024800F058BB89
:100B800038020020002000402DE9F04105460079A0
:100B900016460F4600EB40012D4A01EBC00102EB67
:100BA000810494F82A1011B10820BDE8F081294988
:100BB00051F820102868FFF7C7FF08B11120F4E7AB
:100BC00039462846FFF7FEFD666038692060300030
:100BD0004FF001062FD03F7F4FF48E712868FFF74A
:100BE00094FF4FF4A2712868FFF78FFF28681A4915
:100BF000C0F8041328684FEA471140F30730002873
:100C000004DB00F1E02080F8001405E000F00F00A4
:100C100000F1E02080F8141D286840F30730002818
:100C200009DB00F01F0106FA01F14009800000F124
:100C3000E020C0F8001128680421C0F80015002049
:100C4000A061E06184F8290044F8140FA675ACE7B0
:100C500038020020B8140000800002002DE9F05F87
:100C6000054600794FF4017600EB400303EBC0002A
:100C7000344B03EB80040020636813B12B68C3F886
:100C80000863A3694FF000096BB1E06938B160688F
:100C900010B12868C0F804631120BDE8F09FE2613C
:100CA0000120216105E0C4F82490A261E160C4F84C
:100CB0001C9094F82910014302D1284600F007FA4D
:100CC00060680028286803D0C0F804630020E4E7C7
:100CD0004FF4A2763146FFF718FFB2464FF4927BED
:100CE00059462868FFF70CFF06464FF484712868C0
:100CF000FFF706FF804651462868FFF701FF0746C9
:100D000048EA07003043EBD056EA070007D12146F6
:100D1000286800F0ADF9A169606A8142E0D8C4F8A2
:100D200018900EB10320B8E70FB10F20B5E794F883
:100D3000291001200029296801D00860C6E7486011
:100D4000C4E70000380200202DE9F05F0546007975
:100D50000B4600EB400101EBC000244901EB80048D
:100D6000284600F045F810B11120BDE8F09F6261FF
:100D70004FF00009C4F82090A36084F828904FF445
:100D80008E784E4641462868FFF7BFFE28684FF030
:100D9000010AC0F808A02146286800F0A8F9606898
:100DA00008BBD5F800B067690FE000BF94F82800D1
:100DB00008B10F2615E041465846FFF7A1FE00286E
:100DC000F4D02146584600F092F9206AB842F2D396
:100DD000574641462868FFF793FE0028F9D0286857
:100DE000C760C4F814903046BFE700003802002006
:100DF000007900EB400101EBC000044901EB8000E9
:100E00004069002800D0012070470000380200200F
:100E10000149024800F0BABA6402002000200040F4
:100E20002DE9F0410546164600790F46154A00EBBC
:100E3000C00102EB810494F8201011B10820BDE834
:100E4000F081114951F820102868FFF77DFE08B1A4
:100E50001120F4E739462846FFF7F8FC6660386948
:100E600020601EB1397F2846FFF748FD2868082119
:100E7000C0F800150020A061E0616061012184F8E4
:100E80002010DCE764020020BC1400002DE9F05FB4
:100E9000044600790E4600EBC001DFF8F0A01746CB
:100EA0000AEB81053046FFF747FEB0B168684FF0A6
:100EB00000084FF4047910B12168C1F80893A869BB
:100EC0004FF0000B80B1E86948B1686810B1206844
:100ED000C0F804931120BDE8F09F1020FBE7EF61FC
:100EE0004FF001082E6102E0EE60C5E9067B0025A7
:100EF0004FF488712068FFF719FE4FF4A271206843
:100F0000FFF714FE2068C0F83465C0F83875206813
:100F1000B8F1000F12D0D0F8001241F02001C0F853
:100F200000122079D04600EBC0010AEB8100406836
:100F300038B12068C0F804932846CCE7012101604D
:100F4000EFE74FF4887A4FF4A27951462068FFF713
:100F5000E8FD074649462068FFF7E3FD06464FF4E3
:100F600092712068FFF7DDFD014647EA060008435D
:100F7000EBD0227902EBC20308EB8302C2F818B06F
:100F800001B10325002ED7D00F25D5E7640200203C
:100F90002DE9F04704460E460079274900EBC000D2
:100FA00001EB800517463046FFF7C6FD30B12046FD
:100FB00000F044F820B11120BDE8F0871020FBE7D5
:100FC0006F61AE604FF490774FF0000839462068AB
:100FD000FFF7ACFD4FF4AC7631462068FFF7A6FD75
:100FE0002068AA686969C0F84425C0F848152068D7
:100FF0004FF00109C0F808906868D0B9BA46514668
:101000002068FFF78EFD074631462068FFF789FD0F
:101010000743F4D010B14FF00F0808E02068C0F883
:101020000C9031462068FFF77CFD0028F9D00020A5
:1010300068614046C0E7000064020020007905496D
:1010400000EBC00001EB80004069002800D00120C7
:1010500070470000640200200349884201D1034820
:101060007047002070470000002000400C00002066
:1010700070B5054688690C4600284FF484712846EF
:101080000AD0FFF742FDD5F81805626AE168885476
:10109000606A401C606270BDFFF737FDD5F8180527
:1010A00070BD1FB501238DF80030CDE90121D0E9D5
:1010B0000012684690471FBD1FB501238DF8003010
:1010C000CDE90121D0E90012684690471FBD10B557
:1010D000044600684FF49271FFF717FD4FF48471D6
:1010E0002068FFF712FD20680121016010BD70B576
:1010F0000C4605464FF48E71FFF707FD216AA06884
:10110000415C206A401C2062C5F81C1570BD1FB5EB
:1011100000228DF800200291816801914261D0E99E
:101120000012684690471FBD1FB500228DF80020B1
:101130000291816801914261D0E9001268469047AE
:101140001FBD00007CB50178254DA1B301290BD04E
:1011500002291DD18DF80010C068691C0190012280
:10116000C81DFFF763FC30E0017A59B1406801788F
:101170001C48FFF76DFA1B4C012650B18DF800603A
:1011800001900DE016490122491CC81DFFF74EFCD5
:101190007CBDA068E168814205D000208DF8000088
:1011A000696868468847A068E168081AA18888428B
:1011B000E8D9AE707CBDFFE70A4809491030FFF757
:1011C0002CFA30B103208DF8000069686846884722
:1011D000F0E70349012201F10800FFF737FCE9E7D6
:1011E00014000020880200201FB50A4601788DF8FF
:1011F000001041680191017A8DF80810C0680390D1
:10120000044850F82210001F50F8222068469047EA
:101210001FBD00000800002008B50078002806D196
:101220006846FFF723FA9DF80000FFF78BFA08BD28
:101230002DE9FF470C4605464FF40071FFF76BFCA4
:1012400001274FF40178002618B34FF492794946EC
:101250002846FFF755FCE0B149462846FFF755FC04
:10126000C5F8088394F8290000B96F6002208DF852
:101270000000D5F88004C5F880040390A0690290AE
:10128000E0680190A661E661D4E9001268469047E3
:1012900028E004212846FFF73EFC18B34FF4847180
:1012A0002846FFF72DFCE8B121462846FFF7E0FE6F
:1012B000616AA069884215D1E06938B1E268616A63
:1012C000A0612069E6616662E06008E094F82900A8
:1012D00000B96F60C5F80883A661E268616A2046BC
:1012E000FFF7DFFE4FF48E7841462846FFF708FCF3
:1012F00080B16069216A814202D294F8280028B343
:1013000041462846FFF701FC606918B16169204633
:10131000FFF7FDFE4FF4A27841462846FFF7F0FBA9
:10132000002818D041462846FFF7EFFB94F8290023
:1013300000B12F60A06900280DD0A661E268616A43
:1013400004B02046BDE8F047FFF7ABBE2146284673
:10135000FFF7CDFEDEE7BDE8FF8700001FB50A46B8
:1013600001788DF8001041680191017A8DF808101C
:10137000C0680390044850F82210001F50F8222043
:10138000684690471FBD0000080000202DE9FF417E
:101390000C464FF4927705463946FFF7C2FB00260C
:1013A000B8B139462846FFF7C1FB02208DF800008E
:1013B000D5F88004C5F880040390D5F83C05029068
:1013C000E0680190A661E661D4E9001268469047A2
:1013D00023E04FF4887739462846FFF7A2FBE0B1B7
:1013E00039462846FFF7A2FBD5F83C15A06988428C
:1013F00013D1E06960B1E268D5F8000220F0200066
:10140000C5F80002E069A0612069E661E06001E0E2
:10141000A661E2682046FFF74FFE4FF4A2773946F7
:101420002846FFF77EFB68B139462846FFF77EFB6A
:10143000A06938B1A661E661D5F83C152046E2689E
:10144000FFF73AFE4FF4907631462846FFF769FBE6
:1014500060B131462846FFF769FB0120E86060690A
:1014600020B1D5F84C152046FFF75EFE4FF4AC7660
:1014700031462846FFF755FB00280ED03146284656
:10148000FFF754FB6069002807D0D5F84C1504B06D
:101490002046BDE8F041FFF747BEBDE8FF810000F0
:1014A0000800000006000000050000000700000022
:1014B0000000000000E0D701790B0000110E0000D1
:1014C000FFFFFFFFFFFFFFFFFFFFFFFFFFFFFFFF2C
:1014D00000000000000000000000D601060100002E
:1014E000001500000000002038000000B4050000D6
:1014F000381500003800002070220000C4050000EC
:1015000000000000000000000000000000000000DB
:1015100000000000000000000000000000000000CB
:1015200000200040000000000020004000000000FB
:08153000000000000090D00350
:0400000500000201F4
:00000001FF
