:020000040002F8
:10600000D0410020C1630200C9630200CB630200DB
:10601000CD630200CF630200D163020000000000E4
:10602000000000000000000000000000D363020038
:10603000D563020000000000D7630200D9630200AC
:1060400005660200DB63020049690200DB630200AF
:10605000DB630200DB63020061650200DB630200B8
:10606000DB630200DB630200DB630200DB63020030
:10607000DB630200DB630200DB630200DB63020020
:10608000DB6302005D660200DB630200DB6302008B
:10609000DB630200DB6302006D660200DB6302006B
:1060A000DB630200DB630200DB630200DB630200F0
:1060B000DB630200DB630200000000000000000060
:1060C000DB630200DB630200DB630200DB630200D0
:1060D000DB630200DB630200DB6302000000000000
:1060E00000000000000000000000000000000000B0
:1060F00000000000000000000000000000000000A0
:10610000000000000000000000000000000000008F
:10611000000000000000000000000000000000007F
:10612000000000000000000000000000000000006F
:10613000000000000000000000000000000000005F
:10614000000000000000000000000000000000004F
:10615000000000000000000000000000000000003F
:10616000000000000000000000000000000000002F
:10617000000000000000000000000000000000001F
:10618000000000000000000000000000000000000F
:1061900000000000000000000000000000000000FF
:1061A00000000000000000000000000000000000EF
:1061B00000000000000000000000000000000000DF
:1061C00000000000000000000000000000000000CF
:1061D00000000000000000000000000000000000BF
:1061E00000000000000000000000000000000000AF
:1061F000000000000000000000000000000000009F
:10620000DFF80CD000F06EF900480047697D02000D
:10621000D041002030B450E8012F93B2C489234408
:106220008489A34228BF1B1B0489A34202BFBFF37A
:106230002F8F002007E0C3EA020340E80134002C5E
:10624000E9D14FF001000A6030BC704750E8012FDF
:10625000C2EA024240E801210029F7D1704730B478
:1062600050E8022F1FFAA2F3C488A34202BFBFF373
:106270002F8F00200DE0C48923448489A34228BFC6
:106280001B1BC2EA034340E80234002CE8D14FF064
:1062900001000A6030BC704750E8022FC2EA224277
:1062A00040E802210029F7D17047034653E8022F46
:1062B000D988B2EB324F4FF0000017BF92B241EADB
:1062C000014142EA014104E05A68B2EB324F08BF93
:1062D000012043E80212002AE8D1704730B4044696
:1062E00054E8000F0D4644E80053002BF8D1156028
:1062F00030BC704730B4044654E8000F40EA010552
:1063000044E80053002BF7D1156030BC704730B41F
:10631000044654E8000F00EA010544E80053002B4E
:10632000F7D1156030BC704730B4044654E8000F14
:1063300080EA010544E80053002BF7D1156030BC1A
:10634000704730B4044654E8000F00EB010544E800
:106350000053002BF7D1156030BC704730B40446B1
:1063600054E8000FA0EB010544E80053002BF7D1DF
:10637000156030BC704770B404464FF0000054E81C
:10638000006F0D68AE4207BF44E80023012044E8D7
:1063900000630E60002B1CBF0020F0E770BC70474C
:1063A00030B4044654E8000F88422CBF451A054615
:1063B00044E80053002BF5D1156030BC7047000055
:1063C0000648804706480047FEE7FEE7FEE7FEE78F
:1063D000FEE7FEE7FEE7FEE7FEE7FEE77166020086
:1063E000016202002DE9F05F0546002092469B46BF
:1063F00088460646814640241BE0284641464746DB
:10640000224600F05EF853465A46C01A914110D316
:1064100011461846224600F016F82D1A67EB0108BF
:106420004F4622460120002100F00DF817EB00092D
:106430004E41201EA4F10104DFDC484631462A46C5
:106440004346BDE8F09F202A04DB203A00FA02F11F
:10645000002070479140C2F1200320FA03F3194352
:10646000904070470048704708AA020040EA0103C4
:106470009B0703D009E008C9121F08C0042AFAD2FA
:1064800003E011F8013B00F8013B521EF9D27047BE
:10649000D2B201E000F8012B491EFBD27047002266
:1064A000F6E710B513460A4604461946FFF7F0FF13
:1064B000204610BD421C10F8011B0029FBD1801A98
:1064C0007047202A04DB203A21FA02F000217047AD
:1064D00021FA02F3D040C2F120029140084319464C
:1064E00070470000064C074D06E0E06840F00103ED
:1064F00094E8070098471034AC42F6D3FFF784FEC7
:106500007CB002009CB0020070B58C1810F8015BE2
:1065100015F0070301D110F8013B2A1106D110F83C
:10652000012B03E010F8016B01F8016B5B1EF9D140
:106530002B0705D40023521E0DD401F8013BFAE7C6
:1065400010F8013BCB1A921C03E013F8015B01F831
:10655000015B521EF9D5A142D8D3002070BD0000C6
:106560002DE9F8430025DFF894804FF4807601246C
:106570002F460095304602F041F838B1D8F80403B0
:10658000204203D0304602F02FF82543361D640028
:106590007F1CB6B2082FEDD34FF4BE74204602F034
:1065A0002DF848B1204602F01FF845F000456A4634
:1065B0000121002001F0E8FF15F0FF0F16D00126A1
:1065C00000242E420ED008EB8401D1F81005D1F83A
:1065D0001015C0F304200A4AC1F3014152F82420E7
:1065E00002B190477600641C082CEAD3002D02DA31
:1065F000684603F025FABDE8F8830000006000401B
:10660000DC1A002070B54FF48076304601F0A6FD0C
:10661000114CB50560B1304601F0A7FD0120C5F869
:106620000803607920B90120607121680020884743
:106630004FF48276304601F091FD00280AD03046B2
:1066400001F093FD0220C5F808032168BDE8704001
:106650000120084770BD000064190020024902486B
:10666000091F096800680847D819002002F010BD0A
:10667000F0B5A449A4484FF080540B68D4F83021F9
:106680000078D4F83411551CC0F3031006D094469A
:1066900001270026BCF1060F03D00AE003F0FF0C2F
:1066A000F6E7B4F82453DFF864C2C5F30425CCF848
:1066B0000050DDB2062D06D1032804D1DFF854C204
:1066C000934DCCF87450551C04D09446BCF1060F81
:1066D00003D00AE003F0FF0CF8E7D4F84452DFF8E7
:1066E00038C2C5F34235CCF80050DDB2062D08D1D2
:1066F000032806D1894DD5F800C02CF0807CC5F860
:1067000000C0551C04D09446BCF1060F03D00BE02A
:1067100003F0FF0CF8E74FF08045C5F80C61C5F8B1
:1067200010617D4D2D1F2E60DDB2062D08D103288E
:1067300006D1DFF8E4C103250CF1640CCCF800505D
:10674000DDB2062D10D103280ED1DFF8D4C1052506
:10675000CCF80050724D78352F60714D08352E60A1
:106760000CF104063F253560551C04D016460D4635
:10677000062E03D05BE0DEB20546F9E7ED1E012DE3
:1067800055D9684D2D68684E3560664D2D1D2D68B4
:10679000361D3560634D08352D68361D3560614DF9
:1067A0000C352D68361D35605E4D10352D68361D53
:1067B00035605C4D14352D68361D3560594D1835E2
:1067C0002D68594E20363560564D1C352D68361DC6
:1067D0003560544D20352D68361D3560514D2435BA
:1067E0002D68361D35604F4D28352D68361D3560B6
:1067F0004C4D2C352D68361D35604A4D30352D6891
:10680000494E40363560474D34352D68361D35606C
:10681000444D38352D68361D3560424D3C352D6868
:10682000361D35603F4D40352D68361D3560551C91
:1068300003D01646062E02D007E0DEB2FAE7D4F8FF
:1068400058523A4E05F04F053560551C03D013469B
:10685000062B02D008E0DBB2FAE735480368DB0715
:1068600002D06FF001030360062A07D1C91E022976
:1068700004D93048016841F48061016027487438C8
:10688000016841F470010160BFF34F8FBFF36F8F58
:10689000D4E94C104FF01022062907D1C01E03285E
:1068A00004D9D2F808021C491C310860D2F8000251
:1068B000002803DBD2F8040200281FDA012003F0CD
:1068C0008DF81521C2F800121B480368002BFCD07C
:1068D000C2F8041201680029FCD0002003F07EF801
:1068E000BFF34F8F0D48F0380168144A01F4E0619E
:1068F00011430160BFF34F8F00BFFDE711491048FE
:106900000860F0BDE00F00F0E80F00F040350140F6
:106910000DF0ADBA00C007403C050040FCED00E0C2
:10692000105600400404001020C50040E40E004052
:10693000000400403C17004000E401400400FA0558
:106940000090D003601A0020014800680047000052
:106950006C19002002E008C8121F08C1002AFAD1F1
:1069600070477047002001E001C1121F002AFBD1CF
:10697000704700000121202803DA814005480140CA
:1069800003E0402802DA2038814009B10120704735
:1069900000207047FC06FFBD30B5A3B004259DF86C
:1069A000880025A120F00F00401C20F0F0001030DE
:1069B0008DF888000F2222A87CDF3C216846FFF773
:1069C0006EFD0220204C8DF8000004F10C02684698
:1069D000A16800F037FA4FF6EE70ADF87C0004F1D4
:1069E000100021900A20ADF880003C210FA8FFF78D
:1069F00056FD1FA818908DF83F5018211348FFF737
:106A00004EFD12480421A022017000214160017551
:106A100082608181221D0FA8216800F013FA08B15D
:106A200000F0AEF80849094A081F72DF002801D0BB
:106A300000F0A6F823B030BD56616E54686F313552
:106A4000204E616E614C6500CC180020641A002055
:106A5000022000F013BB000070B50024064D06E0D4
:106A60006868012110F8340002F02AFC641C2878C0
:106A70008442F5D3002070BD78190020F8B5164681
:106A80000C4605460A2A01D20720F8BD02F012FD85
:106A900018B902F0D5FC0028F7D1134F1021134884
:106AA0007D603C70BE60FFF7FAFC0020C7E904007F
:106AB0000F4E0DE005EBC4003168009181788DF830
:106AC000011000780B4A694602F04AFC0028DCD12C
:106AD000641EE4B2EED2BDE8F84005480021064A43
:106AE000001D00F05FB8000078190020881B00200E
:106AF00008A70200DD7A0200D576020072B602F025
:106B000017F800BF01F060FE0028FBD111481249C0
:106B1000401AC408012000EB044010A101F070FFEE
:106B200011480068C00700D000BE022000EB0440FE
:106B30000EA101F065FFBFF34F8F0B48E4380168E9
:106B40000E4A01F4E06111430160BFF34F8F00BFB3
:106B5000FDE70000FCB00200ACB0020046617461C9
:106B60006C206572726F7200F0ED00E053797374FF
:106B7000656D207265736574000000000400FA05FD
:106B80000EB500210091CDE901106A4644F20100E2
:106B9000FFF7B4FF0EBD0000014800F002BE000088
:106BA000B819002010B55AB100684FF0FF34012920
:106BB0004261C0E9024400D000210161002010BD03
:106BC000072010BD38B511480823582241680091AC
:106BD0000F49006801F007FA002815D10D4A6946EF
:106BE0000D4800F0E3FD04000ED101210A4800F039
:106BF00058FE0123094A1946074800F0AAFD064934
:106C0000012008390870204638BD000010A7020096
:106C1000A81B0020F19B0200B8190020FFFF7F0095
:106C2000F8B50446002617460D468DF80060684604
:106C300000F042F8D4E90201C04370EA010005D037
:106C40009DF8000000F05CF80020F8BD00F02CFF7B
:106C500040197141C4E902019DF8000000F050F8AC
:106C6000A761206900B125612146BDE8F8400020F8
:106C700003F084BA38B5044600208DF80000684659
:106C800000F01AF8D4E90201C04370EA01000DD007
:106C90004FF0FF30C4E902009DF8000000F030F82A
:106CA0002146BDE83840012003F068BA9DF8000095
:106CB00000F026F8002038BD30B5EFF3108172B631
:106CC0000D4A9468012324B10370002900D162B6F3
:106CD00030BD93604FF0E023D3F88051074C25403E
:106CE0001560C3F88041D3F8844154605A17C3F843
:106CF000842100220270E8E7001C0020FC06FFBD92
:106D00000B498A68002A11D000280FD1EFF31080B8
:106D100072B60B684FF0E022C2F800314B68C2F83F
:106D2000043100228A60002800D162B6704700005A
:106D3000001C00202DE9F041064608680C46411C65
:106D40004FF0A0474FF0010506D005FA00F1C7F853
:106D50000815206801F0F2FB6068411C02D0002198
:106D600001F0DAFB3168A069C1F82405607D227D5D
:106D700031681043C1F86C05D4E900123068C0F8DE
:106D80001425C0F80C15207D012815D1A068411CE0
:106D900002D0002101F0C0FBE068411C05D0854015
:106DA000C7F80855E06801F0C9FBD4E90212306861
:106DB000C0F80825C0F81015BDE8F0812DE9F041B4
:106DC000064608680C46411C4FF0A0474FF00105ED
:106DD00006D005FA00F1C7F80815206801F0B8FBE5
:106DE0006068411C02D0002101F09FFB3168A0695E
:106DF000C1F82405607D217D32680843C2F86C0526
:106E0000D4E900123068C0F80C15C0F81425207DB4
:106E1000012815D1A068411C02D0002101F085FB9A
:106E2000E068411C05D08540C7F80855E06801F0CE
:106E30008FFBD4E902123068C0F80825C0F810159D
:106E4000BDE8F0812DE9FC4700251788064615802E
:106E500090F82D001446894630B13A4621464846FE
:106E600000F0B1F8051E09D1B0784FF00C0A18B344
:106E70002088C846001DB84202D95046BDE8FC87AC
:106E8000684679DF0028F9D12088032108F800102E
:106E900020881921401C80B2208008F8001020882A
:106EA000401C80B2208000EB0801BDF8000003F018
:106EB00034FB218808442080F0780222C8B1218860
:106EC00096F9033001F1030C4846BC45D5D842542D
:106ED00021884FF0010C491C89B2218000F801C0C3
:106EE0002188491C89B2218009F801302088401C82
:106EF00020807068B8B1218890F9003001F1030C4E
:106F00004846BC45B9D8425421880A22491C89B256
:106F1000218042542188491C89B2218009F801301E
:106F20002088401C2080308950B1CDE900474B4675
:106F30000622022106F1080003F05EFB051E9DD12A
:106F4000308A50B1CDE900474B460722032106F1B4
:106F5000100003F051FB051E90D1308B50B1CDE9EC
:106F600000474B461522142106F1180003F044FB9C
:106F7000051E83D1306A30B13B462246494600F0B7
:106F800065FB051EDBD1706A30B13B46224649469F
:106F900000F04CFF051ED2D196F82C0038B13B46CC
:106FA00022464946304602F077FF051EC7D13078A9
:106FB00038B13B4622464946304600F0C1FF051E27
:106FC000BDD128465AE77CB5054608880C460930ED
:106FD000904201D90C207CBD68466DDF0028FAD1B3
:106FE00021880820685420881B21401C80B2208002
:106FF00029542088401C80B220802844DDF80110EC
:107000000160BDF8051081802088801D80B220803D
:107010009DF80010490800D0012129542088401C07
:10702000208000207CBD00002DE9FC410646C00701
:107030004FF000050ED0104F00240122385D00955E
:1070400000231146019501F00DFA641C042CF4D3C1
:1070500000F046F8B0070DD5074E0024361D00227B
:10706000305D032300951146019501F0FBF9641C86
:10707000042CF4D3BDE8FC81C6A6020007490B5CD2
:107080004FF0A041D1F804250120984020EA0203E6
:10709000C1F808351040C1F80C057047C6A60200BB
:1070A0000249085C012101F094BA0000C6A6020062
:1070B0000249085C002101F08CBA0000C6A602005B
:1070C0000649095C4FF0A040D0F80405C84010F014
:1070D000010000D0012080F001007047C6A6020028
:1070E00010B500242046FFF7DBFF641C042CF9D305
:1070F00010BD10B500242046FFF7DAFF641C042CF5
:10710000F9D310BD10B50246064B4FF0FF300021F9
:107110005C5C944201D1084610BD491C0429F7D398
:1071200010BD0000CAA602002DE9F0470D468146B9
:10713000FFF7E8FF0446042836D2DFF874801B48C6
:107140001C4EA8F10C0725B3012D0ED0022D2BD11A
:1071500004EB440030444578002D25D0B96800295F
:1071600022D02846BDE8F047084704EB4401755C8F
:107170000E44717849B10E4A4FF48041093A806853
:10718000FFF74EFD08B987F80390B17808F80410AE
:10719000E2E78068FFF76EFD04EB4401314418F824
:1071A00004008D78A842D7D0BDE8F087D0A60200B1
:1071B000F4180020BA1A002070B50023042810D259
:1071C0000D4D00EB4004012A02D101290CD0002210
:1071D000094E00EB4000304461B1012906D002297C
:1071E00006D00723184670BD0E30C2B22A55F9E703
:1071F0004270F7E78270F5E7BA1A0020044A0146A8
:1072000000201279D20702D0084600F04DB870472E
:10721000E818002070B506461E480024C0E9016148
:10722000B00720D50025012211462846FFF7C4FFEC
:107230006D1C0446042D02D2002CF4D013E094B946
:1072400040F2333204211448FFF718FC04000AD13D
:10725000FFF702FC040006D10F48104A0021001F6E
:10726000FFF7A0FC0446F00712D00120FFF7DCFE78
:1072700074B909480A4A00210C38FFF793FC04004E
:1072800006D10548074A01210838FFF78BFC044660
:10729000204670BDE8180020DCA6020075750200CB
:1072A000AD7C0200516A02002DE9F05F6E4C05468C
:1072B00000266078B34618B184F801B000F0DEFC17
:1072C0006A4F4FF47A694FF4C87A4FF00108182DCD
:1072D00069D2DFE805F00C1313384754696E727BEE
:1072E000727BC58484848484B3B6B9BCC5C500F000
:1072F000C5FC3868FFF7BEFC06465CE00020FFF7DF
:10730000DFFE00284FF0000008D0FFF7C9FE022D75
:1073100002D14FF4E16008E0484606E0FFF7C8FEFE
:10732000022D01D1C82000E05046410CC0034FF4AB
:107330007A72801841F10001257052000023FFF796
:1073400051F801462AE00020FFF7BAFE00284FF06E
:10735000000004D0FFF7A4FE4FF44870E5E7FFF704
:10736000A7FEDFE70020FFF7ABFE00284FF000008C
:1073700002D0FFF795FECFE7FFF79AFED4E7002093
:10738000FFF79EFE00284FF0000002D0FFF788FEB6
:1073900001E0FFF78DFE257040F6CD4100223868F0
:1073A000FFF73EFC064646E00020FFF767FE25702B
:1073B00008E0002051E025703DE084F801800120C4
:1073C000FFF75CFE002240F26661E8E784F8018086
:1073D0000120FFF753FE00224FF40051DFE77868E9
:1073E000FFF748FC0646D5F1110000D02EB102206F
:1073F000FFF756FE84F802B01DE0012816D980B2CE
:10740000C8214843C117C90341EA5041C0034FF4A2
:107410007A72801841F1000152000023FEF7E2FF6A
:10742000014600227868FFF7FBFB06460220FFF7C3
:107430003FFE84F802803046BDE8F09F00F01EFC5D
:10744000B9E700F01BFCB4E700F018FC04E000F022
:1074500015FC0020FFF72CFE0120FFF729FEAAE70C
:10746000FFF747FEA7E70000E8180020D0A60200BB
:107470002DE9F84F0546861C00208DF80000914646
:107480000F464FF0010A6846FFF716FC1B4C04F24A
:107490001C4860683860D4E90101194F401A396806
:1074A000081A0EE00121404600F0E2FD00F00AFC5F
:1074B0000146404600F0DCFDD4E90101401A39687C
:1074C000081A401C8642EDD8B9F1000F03D0052000
:1074D00065F3891002E0062065F39F5061683A6801
:1074E000114004EB8101C8606068304460609DF821
:1074F0000000FFF705FC5046BDE8F88FB01D0020E6
:10750000081A002070B50D4604460A2902D10D2143
:10751000FFF7F8FFA0682268411CA1601554D4E968
:107520000101814204D32046BDE8704000F0A1BEB5
:1075300070BD0000044881684068814201D101208B
:107540007047002070470000B01D0020034630B592
:10755000074800210478426806E000BF02EBC10042
:1075600005789D4203D0491CA142F7DB002030BDC5
:107570007819002000780221FFF7D6BD05494FF0A9
:10758000FF32082841F8202002D3084480F8482020
:1075900070470000DC1A0020F0B54FF0FF3512B143
:1075A0000023082601E008230C260C4C05E000BF50
:1075B00054F823707F1C04D05B1CB342F8D32846D8
:1075C000F0BD26185DB286F8305044F82310002A2A
:1075D000F5D1E11881F84800F1E70000DC1A00203D
:1075E0000249084490F9300070470000DC1A00207E
:1075F00070B5084C050009D010342168002907D067
:1076000008682060496828468847F6E70834F4E7A8
:1076100070BD0000C81A0020054A012120B10128D0
:1076200005D19170FFF7E4BF51700020FAE7704771
:10763000C81A002010B5D0E90234D1E90220D11ACD
:10764000A04101D3012010BD002010BD2DE9F04163
:1076500017880646B81D14460D46984202D90C20DC
:10766000BDE8F0813188072206290AD34FF4486C1F
:107670004FF6FF73614501D9994202D170880628FF
:1076800001D21046ECE7604501D99842F9D1994200
:1076900003D0984201D08142F3D80520E8552088D4
:1076A0001221401C80B2208029542088401C80B2C6
:1076B00020804119308802F030FF2188084480B2D0
:1076C00020804119708802F028FF2188084420801A
:1076D0000020C5E770B500240F4D10E0686800EB8E
:1076E000C406307801F0A2FE7178012901D0012191
:1076F00000E000214140307800F05CF9641C2878FB
:107700008442EBDBD5E90401084303D0BDE87040B7
:1077100002F050BD70BD00007819002010B50021A6
:10772000024800F0B0FC80F3100010BDCC21002016
:107730004FF480328A400168C1F848230068C0F8DD
:10774000082370474FF4A07202EB810189B200F068
:10775000A1B92DE9F04105460E464FF4A07000EBAB
:10776000860081B228684FF48034B440984622F0F5
:107770007F47C0F808432868C0F84843286801F0EC
:10778000F9FA286800EB8600C0F840752868C0F850
:107790004443B8F1000F02D02868C0F80443BDE8A4
:1077A000F0810068D0F804057047000070B5437997
:1077B000234C44F823204279231D03EBC202224CC0
:1077C0001579204A121BD4082DB10825022000EBA0
:1077D00004401EA130E005680A88C5F8082590F924
:1077E00004208978002A4FEA411104DB02F1E022EB
:1077F00082F8001405E002F00F0202F1E02282F8A4
:10780000141D90F904100122002909DB01F01F0565
:1078100002FA05F54909890001F1E021C1F800519A
:107820004179002503EBC1010A71417943F8310028
:10783000032000EB04400EA101F0E2F8284670BDE1
:10784000D4190020E4B00200ACB00200525443202E
:10785000696E7374616E636520616C7265616479D1
:1078600020696E697469616C697A65642E00000034
:107870005254433A20696E697469616C697A65642F
:107880002E00000090F90400002809DB00F01F0220
:10789000012191404009800000F1E020C0F8001271
:1078A00070470A46022100F07BB84FF4827100F065
:1078B000F1B8006801210160704700680121416052
:1078C00070472DE9F05F07460C464FF4A07000EBBF
:1078D00084001FFA80FA38684FF48036A6409B4631
:1078E00022F07F45C0F848633868C0F808633868FC
:1078F000D0F8048500EB8402D2F84095C2F84085A8
:107900005146386801F036FAA9EB080020F07F40B4
:10791000012806D1102001F0CBFC5146386801F057
:1079200029FA3868D0F80485C0F84463A5EB08014B
:1079300021F07F413868012900EB840010D0C0F8A5
:1079400040553868D0F804156FF07F4C6A1A521E03
:1079500022F07F42ACEB0B03934217D362B118E0E5
:107960006D1CC0F84055102001F0A2FC3868D0F81A
:10797000040540450AD10CE000EB84006D1CC0F802
:1079800040553868D0F80405884202D00D20BDE883
:10799000F09F01223146384600F002F80020F6E759
:1079A0000368C3F84413002A02D00068C0F8041327
:1079B000704700002DE9F84F0E463449804601EB30
:1079C0005001C007097801D00F0901E001F00F074D
:1079D0004FF00009424601204946FEF734FDDFF82A
:1079E000B0A004460D46052F4ED2DFE807F003167F
:1079F0001B282C00002E47D00121404602F0CEFA71
:107A00008DF800906846FFF757F95046D0E9041208
:107A10000C431543CAE9044532E00EB1022114E0DB
:107A2000002112E04EB10321404602F0B7FA404671
:107A3000BDE8F84F012102F0CFBD012105E0002E85
:107A400022D1042101E02EB103214046BDE8F84FC8
:107A500002F0A4BA0021404602F0A0FA00214046FC
:107A600002F0BAFD8DF800906846FFF725F9504600
:107A7000E243D0E904341A4024EA0501CAE90421AA
:107A80009DF80000FFF73CF9BDE8F88F881B002047
:107A90007819002010B5006842581AB101F06AF94F
:107AA000012010BD002010BD10B50B48FFF779FE76
:107AB000094A083AD2E90434C018D2E9063244F13E
:107AC0000001C31A71EB020204D24FF080728018D9
:107AD00041F1000110BD0000B819002010B5C0B27E
:107AE000FFF734FD0446007801F0A0FC0146607801
:107AF000012801D0012000E0002090EA010F08D009
:107B00000449D1E90401084303D1BDE8104002F063
:107B100051BB10BD781900202DE9FC5F0E00834693
:107B2000DDE90C47C6F1000098469246814600D434
:107B30000846012503E000BF90FBFAF06D1C50459C
:107B4000FADAA84500D9454624B1002E01DB7807B2
:107B500000D5641EB80702D5B8F1000F0AD0F807A7
:107B600008D13CB1A54205D220215846641EFFF73A
:107B7000C9FCF6E7002E02DA4E462D2102E0780716
:107B800003D52B215846FFF7BDFC07F00300022860
:107B90000BD1B8F1000F08D13CB1A54205D230217C
:107BA0005846641EFFF7AEFCF6E7CDE900474346B2
:107BB00052463146584602F0B5FCBDE8FC9F000035
:107BC00070B50D46044600684FF4887101F024FB3F
:107BD0004FF49071206801F01FFB4FF49271206800
:107BE00001F01AFB4FF4A271206801F015FB4FF46D
:107BF000AC71206801F010FB20681249C0F8041332
:107C00002068690740F30730090E002804DB00F103
:107C1000E02080F8001405E000F00F0000F1E02003
:107C200080F8141D206840F30730002809DB00F0BD
:107C30001F02012191404009800000F1E020C0F8BE
:107C4000001170BD10034200024600201268530765
:107C500013D502F00300012802D002280CD105E060
:107C6000C2F383100B68801C184404E002230868E8
:107C700003EB925210440860012070470A4810B587
:107C8000807860B1002401E0022C06D02046FFF786
:107C900007FA641C042CF7D310BD0324F6E7BDE8F3
:107CA0001040FFF71DBA0000E818002003480179D2
:107CB000C90702D00078FFF7F7BA7047E81800202C
:107CC000704700002DE9FF410026244800F0CDF95F
:107CD0002248001F074600F0C8F9214C2149A0683E
:107CE00000900D6800E000986946284004EB800091
:107CF0000C30FFF7A9FF0028F5D101AA009901EA8D
:107D0000050304EB8303491CDB6842F82030401C68
:107D100000910228F2D3019800F0030001280BD053
:107D2000022810D10198032101EB90500099BDF871
:107D30000A6001EB900005E00198BDF80A60C0F30D
:107D4000831008440090384600F08CF908B1009880
:107D5000A06004B03046BDE8F0810000C8210020DA
:107D6000B01D0020081A002008B54FF48041002003
:107D700000F0B2FE08B1FEF703FF00F017FDFEF7BA
:107D800021FF08B1FEF7FCFE00210120FFF742FAB7
:107D900008B1FEF7F5FE00F0A9FF08B1FEF7F0FE0E
:107DA00001F03CF908B1FEF7EBFE002000906946B7
:107DB000012000F0EFFF08B1FEF7E2FE684601F097
:107DC00067F808B1FEF7DCFEFEF7E6FD0E480F4946
:107DD000401AC008032101EB00400DA100F010FE85
:107DE00011480121007873DF08B1FEF7C9FE0220B7
:107DF000FFF704FA08B1FEF7C3FE00F0E5FC002827
:107E0000FBD100F087FFF8E7FCB00200ACB0020045
:107E1000426561636F6E206578616D706C6520737B
:107E20007461727465642E00C818002070B5144621
:107E300082880E4605462088111D0144921C9942F5
:107E400001D8FE2A01D90C2070BD521C3254208862
:107E5000FF21401C80B2208031542088401C80B219
:107E600020808119288802F058FB2188084480B2BC
:107E70002080AA8842B1A96841B13044FEF7F6FAE1
:107E80002088A98808442080002070BD072070BD8C
:107E90002DE9F047C5881E1DB6FBF5F78946B6FBF0
:107EA000F5F1044605FB176C407916686843DDF868
:107EB00020A0F718001F874200D9C61A166001E0FB
:107EC0002468491E0029FBD1A5EB0C078846B74260
:107ED00016D818E004EB0C00001D09EB0803BAF1FA
:107EE000000F3A4602D00146184600E01946FEF758
:107EF000BDFA2468F61B4FF0000CB844B54201D916
:107F0000374600E02F46002EE4D1BDE8F0870000A0
:107F100030B5024651B100F0F3FD0021074C08E0F6
:107F200034F821301568AB4202D11160002030BD19
:107F3000491C8142F4D3052030BD00000000000040
:107F4000F8B50F46017814460546012901D1687835
:107F500030B12088821C9A4232D8012902D006E032
:107F60000720F8BD69780144891C994228D8181A5D
:107F7000801E86B2ADF800602188B81C08446946AE
:107F80007DDF0028EDD12978022904D06878BDF87A
:107F90000020904205D3BDF80000B04201D809206E
:107FA0000AE00820012905D16978B14202D8ADF86C
:107FB000001001E0ADF80060BDF80010FE2901D905
:107FC0000C20F8BD2288491CB9542188491C89B26B
:107FD000218078542088401C2080BDF8001008447F
:107FE00020800020F8BD10B531B1B2FBF3F403FBE3
:107FF00014241CB1092010BD0E2010BD0160002109
:10800000416081608281C381084610BD70B50C4615
:108010000546FEF7FFF8002802D0218828680844AA
:1080200070BD10B50A8849888A4203D1FEF734F939
:10803000012010BD002010BD70B50C460546FEF7AE
:108040000EF9002802D061882868084470BD10B578
:108050000A8849888A4203D1FEF7F8F8012010BD4A
:10806000002010BD002100F009B8012100F010B877
:1080700008B56A46FEF765F9009808BD08B56A4676
:10808000FEF745F908BD08B56A46FEF727F908BDB1
:1080900008B56A46FEF72EF9009808BD08B56A468D
:1080A000FEF75CF9009808BD38B5044600258DF848
:1080B00000506846FEF700FE21686268086890423A
:1080C0000ED9401E08600178238AE26801FB03256F
:1080D000227A2168101AC0B20A79824200D208714D
:1080E0009DF80000FEF70CFE284638BD38B5054661
:1080F00000208DF800000C466846FEF7DDFDE868BC
:10810000298A201AB0FBF1F12A681068431C136019
:1081100001709DF80000FEF7F3FD38BD10B530B1D9
:10812000017A42680368891AC9B21A6006E00E2013
:1081300010BD03681A68541C1C601170491EC9B236
:10814000F7D2006800210171084610BDC20800F096
:1081500007030120895C98400840704700F1804087
:108160000068002800D00120704708B500F1804069
:10817000002101600068009008BD000070B50D4C42
:108180000125207808B185260EE00020A0606060FF
:108190002061E060084801F063F8064600F08AFFBD
:1081A00008B901F047F8257001F03CF800B1A5705E
:1081B000304670BDC81A00201976020038B5002577
:1081C0008DF800506846FEF777FD084CE068401EC9
:1081D000E060E06828B901F025F810B901F050F826
:1081E000A5709DF80000FEF78BFD38BDC81A002071
:1081F000F0B505460478154889B0164640F82420A5
:10820000124A0869121DA2F1080742F82400487FAB
:10821000385520226846FEF729F904942878385CFE
:1082200048B10EB10A4A00E000226946281D01F05B
:10823000B7FA09B0F0BD0EB1064A00E00022694667
:1082400005F10C0001F076F9F3E700005C1900205D
:10825000D9A3020021A202000FB408B50399002996
:1082600004D004AA00926A4600F00FF801B05DF84D
:1082700014FB10B582680446002A05D0D4E9040333
:10828000216898470020A06010BD2DE9FC47914669
:108290000C00804676D014F8011B39B125290ED088
:1082A0004046FFF72FF920780028F4D198F80C0009
:1082B000002867D04046BDE8FC47FFF7DABF002042
:1082C000012221782B291BD02D2902D0302908D159
:1082D00002E040F0010001E040F00200641C002ACE
:1082E000EFD100252A290ED02178A1F130020A2AE7
:1082F00011D205EB850201EB4205641C303DF1E72C
:1083000040F00400EAE7D9F800100B1DC9F800306E
:108310000968641C0D44217800232E290BD114F820
:10832000011FA1F130020A2A05D203EB830201EBFF
:108330004203303BF3E76C290DD068290BD0692943
:1083400021D00BDC252918D0582931D063290ED033
:10835000642915D117E014F8011FECE7702969D0E2
:10836000732932D075291BD0782909D120E0D9F89A
:108370000000011DC9F8001001784046FFF7C2F85F
:10838000641C90E76CE0D9F800100A1DC9F80020C1
:108390000968CDE900500A224046FFF7BDFBEFE730
:1083A000D9F800100A1DC9F8002009680A2206E061
:1083B000D9F800100A1DC9F8002009681022CDE97B
:1083C0000050404602F0AEF8DAE7D9F80010002776
:1083D0000A1DC9F800200E68C00705D112E040460A
:1083E000761C7F1CFFF78EF831780029F7D104E066
:1083F000202140466D1EFFF785F8BD42C0D9002DF3
:10840000F6D1BDE74EB13046FEF754F8074604E01A
:10841000202140466D1EFFF775F8BD4206D9002D9C
:10842000F6D103E04046761CFFF76CF8317800295E
:10843000F8D1A5E7D9F80000011DC9F800100568BA
:1084400030214046FFF75EF878214046FFF75AF8A2
:1084500008200021CDE90001034610222946B0E79B
:10846000BDE8FC8770B541EA4201DDE904564FF0F2
:10847000A04441EA830141EA052104EB800041EA7E
:108480000641C0F8001770BD70B541EA4201DDE950
:1084900004564FF0A04441EA830141EA052104EB70
:1084A000800041EA0641C0F8001770BD70B541EA8E
:1084B0004201DDE904564FF0A04441EA830141EA5C
:1084C000052104EB800041EA0641C0F8001770BDA9
:1084D00070B541EA4201DDE904564FF0A04441EA9B
:1084E000830141EA052104EB800041EA0641C0F81E
:1084F000001770BD1CB5002100910B4601220191AF
:10850000FFF7D4FF1CBD1CB5002100910B460122D2
:108510000191FFF7DDFF1CBD1CB500220B46009248
:1085200011460192FFF7C2FF1CBD1CB500220B468D
:10853000009211460192FFF7CBFF1CBD1CB5002134
:1085400000910B46012201911146FFF7AFFF1CBDC0
:108550001CB5002100910B46012201911146FFF745
:10856000B7FF1CBD4FF0A04202EB8000D0F80027FF
:1085700022F44032C0F80027D0F8002742EA014137
:10858000C0F800177047000038B5094B44181B6845
:1085900000936B4608E000BF53F82010D1F8205537
:1085A00020C2C1F82055401C8442F5D838BD0000D7
:1085B000FCA6020042094FF0000100D1491E00F064
:1085C0001F00012282400A4201D001207047002092
:1085D000704701224FF0A043824011B1C3F8082533
:1085E0007047C3F80C257047034908B508440021BB
:1085F00001600068009008BD0060004002494058DA
:10860000012800D0002070470060004030B5154AB6
:1086100001460020D2F8104423460AE0DB681D79A9
:10862000854205D1401C0A28F6DB4FF0FF3030BDF3
:108630001B68002BF2D1431CF9D0CB681871D2F81B
:10864000103443B1DB68CC681B682360D2F8102477
:10865000D268116030BDC2F81014C96800220A60E7
:1086600030BD0000B01D0020F0B595B01C46154689
:108670000F4608461A9E00F013FB182109A8FDF7C3
:108680000EFF0E96CDE909540023082203A93846AF
:1086900000F01BFB05980690BDF81000ADF81C001B
:1086A000BDF81200ADF81E0000208DF821000398DF
:1086B000082600F00300012802D0022818D032E07A
:1086C00003983346850AC0F3C2008DF82000039852
:1086D0000FA9C0F38314A200384600F0F6FA09A8E7
:1086E000009006AB22460FA9284600F035FA1AE0A2
:1086F0000398840DC0F3C2008DF82000082C01D22D
:10870000254600E0082533462A460FA9384600F0E2
:10871000DCFA2E44641B09AB06AA29460FA800F018
:1087200083F9002CEAD1384600F0C0FA15B0F0BD4C
:108730007047012001F092BD084810B50178084A41
:10874000515C19B1001D01F0C5F802E00C3000F0D9
:10875000BFFFBDE81040002001F080BDEC190020F3
:108760005819002008B5034A00924023024AFFF737
:108770007BFF08BD599E0200181C00200A4A0129EF
:1087800002EBC00007D0022907D0032907D0042933
:1087900007D00020704702207047042070470079FE
:1087A0007047407970470000ACB0020010B5FFF789
:1087B000C0FF04210348FFF729FF02490120C968CF
:1087C000487110BD9CB002002DE9F04F8DB0FEF74E
:1087D000B1FE18B100200DB0BDE8F08F7E4C4FF017
:1087E000000BC4F818B4BFF34F8F7C49A068029007
:1087F0000D68D846284004EB80000BE0D4F818043C
:1088000070B961680298814201D8A160E2E728400E
:1088100004EB80000C3002A9FFF716FA0028EDD116
:10882000002005AA029901EA050304EB8303491C11
:10883000DB6842F82030401C02910228F2D30598F0
:1088400000F00300022802D001284DD0AAE00598CC
:108850005022810D8946B2EB905F00D850210E4620
:1088600066F39F50059008315D4800F0D0F907008D
:1088700078D000F015FA4346082205A9384600F0E2
:108880002CFA029908F1080A2940681A8000001D94
:10889000864222D9504D0C3530B1C2B204EB810171
:1088A000301A90460C3104E02946F2B20025904679
:1088B0002846C6B25346384600F00FFA0AEB0803C2
:1088C00025B132462946384600F007FA029909F1E7
:1088D000030001EB900002903BE004EB8101534662
:1088E000324638460C31EFE70598C0F3831006286E
:1088F00000D30620059960F38911C1F38310801C11
:1089000005918100364800F082F907004AD000F056
:10891000C7F94346082205A9384600F0DEF908F1F8
:10892000080800260FE00298434600EA0501401CB3
:1089300004EB81010290042238460C3100F0CDF99D
:1089400008F10408761C0598C0F38310B042EAD8F9
:1089500047B1D4F81054D4F8180478B1384600F070
:10896000A5F934E01EE0E8684079012804D12A68BE
:108970002846394612689047E8680568002DF2D10C
:10898000384600F093F98DF800B06846FEF794F988
:10899000D4F8180408B90298A0609DF80000FEF70A
:1089A000AFF914E0D4F8104405E021682046896846
:1089B0008847E0680468002CF7D10A480A49401A41
:1089C000C008022101EB004008A100F019F8FEF7F1
:1089D000B1FD80F00100FEE6B01D0020081A002065
:1089E0001CB10200FCB00200ACB002004261636B3B
:1089F000656E647320666C757368656400000000C2
:108A000000231A4601F0E2BA08B5012300926A4633
:108A100001F0DCFA08BD1CB5CDE9002302236A464B
:108A200001F0D4FA1CBD00002DE9F0470E46804647
:108A30001C469246082940D894F80C9000202073D8
:108A40001946104601F07CF80025B54206D218F808
:108A500005201BA12046FFF7FFFB03E01AA12046DB
:108A6000FFF7FAFB6D1C082DEFD318A12046FFF786
:108A7000F3FB0025B54212D218F805707E2F08D8F6
:108A8000FDF7F0FC0068C05D10F03E0F01D03A46E3
:108A900000E02E220EA12046FFF7DEFB03E00DA131
:108AA0002046FFF7D9FB6D1C082DE3D30122214698
:108AB000504601F027F884F80C90BDE8F0870000DC
:108AC0002025303278000000202020007C000000AB
:108AD0002563000020000000064910B50020087042
:108AE000054800F0E1F8002803D1044800F034F90B
:108AF000002010BDB01D00201CB10200D4A802004F
:108B000002480349401AC008704700001CB1020027
:108B1000ACB0020013B56846FFF7FAF908B10020BF
:108B20001CBD0248009950F831001CBDACB00200D9
:108B300070B508480125D0F81044057007E0E068DA
:108B400045712168204649688847E0680468002C20
:108B5000F5D170BDB01D00202DE9FF4781460C9D69
:108B600000200C462F7B2873984616462946184647
:108B700000F0E6FF072E42D2DFE806F004090F16E8
:108B80001F2A360049462846FFF766FB37E049466C
:108B900028462268FFF760FB31E0D4E9002349460C
:108BA0002846FFF759FB2AE0A0680090D4E900238B
:108BB00049462846FFF750FB21E0D4E90201CDE900
:108BC0000001D4E9002349462846FFF745FB16E09B
:108BD00004F1080007C88DE80700D4E900234946DE
:108BE0002846FFF739FB0AE004F108000FC88DE8BA
:108BF0000F00D4E9002349462846FFF72DFB002249
:108C00002946404600F07EFF2F73BDE8FF872DE91F
:108C1000F041058A80462D1F4819C01CB0FBF5F0B5
:108C2000C6B24046FFF740FA041E19D0002020715A
:108C300001206071E58000272546761EC4F800807B
:108C40000BE04046FFF730FA60B16179491C617171
:108C5000286005467F1CC0F80080B742F1D320464B
:108C6000BDE8F081204600F002F80020F8E72DE989
:108C7000F041457901466B1E002201E00968521C53
:108C80009A42FBD30F680146002605E038460C687F
:108C9000FFF72CFA2146761CAE42F7D3BDE8F081EF
:108CA0000121001DFFF7E4B9FFF738BA10B50446FB
:108CB0000121001DFFF7F2F910F0FF0F04D120464B
:108CC000BDE81040FFF7D3BF10BD1CB501920122D3
:108CD000009201AAFFF7DCF81CBD1CB5019200222E
:108CE000009201AAFFF7D4F81CBD0000064910B598
:108CF00000204870091D0860BFF35F8F03490448D6
:108D000000F0FCF9002010BDE019002060A702006F
:108D10000C1C002008B500208DF800006846FDF707
:108D2000CBFFF1EE100A20F09F00E1EE100ABFF336
:108D30005F8F08494020C1F880029DF80000FDF7D0
:108D4000DFFF00F0B7F908B141DF08BD20BF40BF29
:108D500020BF08BD04E000E08268002191608268C5
:108D60001161826851618268D16082685160806857
:108D70000160704708B5002242504058009008BD7D
:108D800020B1034909680160002070470E20704738
:108D900058A90200FEB502460E460846FFF7F0FF4E
:108DA000002866D1002400948DF8002001208DF861
:108DB000020001940620ADF80400029469462020C8
:108DC000326869DF2B492C4A891AC908012202EB53
:108DD000014530B100F000FA024628462749FFF766
:108DE00013FE00948DF801408DF802400194029426
:108DF0008DF8034069464020326869DF30B100F0E9
:108E0000EBF9024628461E49FFF7FEFD0094019447
:108E100002948DF8004069460120326869DF30B164
:108E200000F0DAF9024628461649FFF7EDFDF82072
:108E30000090019402946946A120326869DF30B144
:108E400000F0CAF9024628460F49FFF7DDFD0094FD
:108E5000019402948DF800406946A020326869DFD1
:108E600030B100F0B9F9024628460849FFF7CCFDB9
:108E70000020FEBD0CB10200ACB0020054AF0200F5
:108E80009CAF0200B4AE020000AF020060AE020070
:108E90002DE9F0410546076860DF804619491A4808
:108EA0002A68081AC608BA4219D9022000EB0644FB
:108EB00016A12046FFF7A4FD20463A461FA12B68C5
:108EC000FFF7A9FD4FF08050D0F80C01296880020F
:108ED00000F10050421A204625A1FFF795FDB8F198
:108EE00000004FF001040AD000F076F9024604EBCE
:108EF00006402AA1FFF788FD4046BDE8F0812F48D3
:108F00000470F9E70CB10200ACB00200496E737551
:108F10006666696369656E742052414D20616C6CB0
:108F20006F636174656420666F7220746865205396
:108F30006F66744465766963652E00004368616EF0
:108F40006765207468652052414D207374617274A6
:108F5000206C6F636174696F6E2066726F6D203074
:108F600078257820746F20307825782E0000000056
:108F70004D6178696D756D2052414D2073697A6538
:108F800020666F72206170706C69636174696F6EC6
:108F900020697320307825782E00000073645F62AA
:108FA0006C655F656E61626C6528292072657475F9
:108FB000726E65642025732E000000005F1A002089
:108FC00030B5144891B00078002820D05FF0340507
:108FD000ADF8405010A903A861DF30B1052816D0C4
:108FE00011B0BDE83040FDF7CBBD03AC0A4968467F
:108FF00000F084F807E000BFD0E900212046904748
:10900000684600F092F802980028E1D0F4E711B029
:1090100030BD00005F1A00205CA902007CB5194C2D
:10902000207808B108207CBD0120A070002000F04D
:10903000E5FE112819D0002000F0F8FE12480026A5
:10904000006801908DF800606846FDF735FE0F4915
:1090500001A810DF05000AD0002020709DF8000054
:10906000FDF74EFE2DB128467CBD00207CBD0120C1
:10907000F3E7A670667000F05FFF012000F0D6FEF7
:10908000F3E700005C1A0020F0A80200FD6A02006D
:109090000EB50749684600F031F805E0D0E9001048
:1090A0008847684600F041F802980028F6D10EBDC6
:1090B0000CA9020001480078704700005C1A0020EB
:1090C0001FB568464BDF30B1052814D004B0BDE8A9
:1090D0001040FDF755BD084901A800F00FF806E063
:1090E000D0E900210098904701A800F01EF80398ED
:1090F0000028E6D0F4E71FBD78A9020001600968E6
:109100004160AFF3008010B5D0E900215368994267
:1091100001D1002104E0D1E90034A34202D0194674
:10912000816010BD08314160F0E7816800290BD0F3
:10913000026892680A44826041684B689A4203D18F
:1091400008314160FFF7DFBF704770B50D46064636
:10915000446804E0B2682946904718B12468206842
:109160000028F7D120682860256070BD406800683D
:10917000704741680868002801D002680A6070479B
:1091800002460020526806E08B4203D10868106056
:10919000012070471A461368002BF5D17047000074
:1091A0000C4A10B502F594730EE0991AC91001EB40
:1091B000D171491002EBC1010C68844201D90B4600
:1091C00002E005D201F108029A42EED3002010BD60
:1091D000486810BD80A7020000B5FFF7E1FF002836
:1091E00000D1014800BD00006CA7020040580028D3
:1091F00000D00120704708B500224250405800902E
:1092000008BDD0F80403084000D001207047405842
:10921000002800D00120704708B500224250405875
:10922000009008BD02480068002800D00120704767
:109230000004014008480068012110F0010F06D128
:109240004FF0E020C02280F800248430C167034939
:10925000012008607047000000E100E018050040B0
:109260000649024600200B790BB1852070470A6041
:1092700001220A7100224A7170470000641900201F
:10928000022010B54107C1F808034FF48270FEF7C1
:109290006CFF05490120086004480168C1F30041E2
:1092A0000029FAD110BD00000C0000401804004055
:1092B000002802D0014980010847704731A7020009
:1092C0002DE9F0410E46054600F0A2FB0028284695
:1092D00019D0FEF785F9083800F00CFC032802D0FD
:1092E00001280ED007E04FF0A040D0F81005E8406C
:1092F00010F0010F05D003212846BDE8F041FFF72B
:1093000031B90221F8E700F08FFB002822D028466F
:10931000FEF766F904464FF4807000EB84000E4FB0
:1093200081B207EB8400D0F8102542F00102C0F8AA
:1093300010250846FFF758F9002E0BD02846FEF7F7
:109340004FF9064951F82000002803D00120A04021
:10935000C7F80403BDE8F08100600040DC1A00207B
:109360002DE9FC41DFF8B880044608EB0400002733
:1093700090F930001346C0170E46401C01D0082754
:109380004AE0B0781946C0F340022046FEF704F9DF
:109390000546401C3FD0B078410717D4C0070AD01B
:1093A0004FF0A04000EB8400D0F8001721F002013C
:1093B000C0F8001707E000217378204600910A46A4
:1093C0000191FFF761F8204600F014FBB0788007A8
:1093D00018D51448317800EB8500D0F81025124BD1
:1093E0001A40C0F810254FF4F8524FF4403302EA07
:1093F000042203EA01410A43D0F810150A43C0F8D9
:10940000102509E008EB0500327810F8481F41EA02
:109410008211017000E004273846BDE8FC8100009D
:10942000DC1A002000600040FFE0FCFF4FF0A0418C
:10943000D1F81015C14011F0010000D00120704793
:1094400070B5194D95F8580008B1082070BD00247A
:10945000661E2046FFF7AEF810B1281980F830607C
:10946000641CE4B2202CF4D300242046FEF786F8D6
:10947000641CE4B20C2CF8D300200D4968650B4C39
:10948000C02081F8000401264020891FC1F8000196
:109490004FF4BE70FFF7A8F8A004C4F8040385F8E1
:1094A0005860002070BD0000DC1A00200060004001
:1094B00006E000E0034890F85800002800D00120A2
:1094C00070470000DC1A00200121B1EB507F01D170
:1094D000012070470020704738B50D4600F07CFB36
:1094E000040014D000208DF800006846FDF7E4FB6E
:1094F000207928B19DF80000FDF702FC112038BD4D
:109500000120256020719DF80000FDF7F9FB002087
:1095100038BD10B500F060FB002802D000210160CA
:10952000017110BD0149024800F0C0BE381B002087
:10953000002000402DE9F0410546007916460F460F
:1095400000EB40012D4A01EBC00102EB810494F8CD
:109550002A1011B10820BDE8F081294951F82010E6
:109560002868FFF7B9FF08B11120F4E7394628460B
:10957000FDF7E0FB66603869206030004FF00106BF
:109580002FD03F7F4FF48E712868FFF734FE4FF4E1
:10959000A2712868FFF72FFE28681A49C0F8041343
:1095A00028684FEA471140F30730002804DB00F138
:1095B000E02080F8001405E000F00F0000F1E0204A
:1095C00080F8141D286840F30730002809DB00F0FC
:1095D0001F0106FA01F14009800000F1E020C0F807
:1095E000001128680421C0F800150020A061E06186
:1095F00084F8290044F8140FA675ACE7381B002046
:1096000000A70200800002002DE9F05F0546007906
:109610000B4600EB400101EBC000244901EB800444
:10962000284600F045F810B11120BDE8F09F6261B6
:109630004FF00009C4F82090A36084F828904FF4FC
:109640008E784E4641462868FFF7D5FD28684FF0D2
:10965000010AC0F808A02146286800F0B7FD60683C
:1096600008BBD5F800B067690FE000BF94F8280088
:1096700008B10F2615E041465846FFF7B7FD002810
:10968000F4D02146584600F0A1FD206AB842F2D33A
:10969000574641462868FFF7A9FD0028F9D02868F9
:1096A000C760C4F814903046BFE70000381B0020A4
:1096B000007900EB400101EBC000044901EB8000A0
:1096C0004069002800D0012070470000381B0020AE
:1096D0002DE9F047044600794FF0000900EB400106
:1096E00001EBC000284901EB80072068C0F8009515
:1096F0007868B0B120682549C0F80813206840F3A5
:10970000073000280DDB00F01F02012191404009C5
:10971000800000F1E020C0F88011BFF34F8FBFF34D
:109720006F8F2068D0F80C25D0F81485D0F8086524
:10973000D0F810554FF0FF31C0F81415C0F80C15D3
:109740002068C0F80815C0F81015501C02D010464B
:10975000FEF7D0FEB8F1FF3F02D04046FEF7CAFE4A
:10976000681C02D02846FEF7C5FE701C02D03046A9
:10977000FEF7C0FE2068FFF7CCFE87F82A90C7F8F6
:109780000490BDE8F0870000381B0020840202002E
:109790000149024800F038BE641B00200020004050
:1097A0002DE9F0410546164600790F46154A00EBB3
:1097B000C00102EB810494F8201011B10820BDE82B
:1097C000F081114951F820102868FFF785FE08B193
:1097D0001120F4E739462846FDF7F0FA666038694B
:1097E00020601EB1397F2846FEF7EAF92868082173
:1097F000C0F800150020A061E0616061012184F8DB
:109800002010DCE7641B002004A702002DE9F047CC
:1098100004460E460079274900EBC00001EB8005A5
:1098200017463046FFF750FE30B1204600F044F8AE
:1098300020B11120BDE8F0871020FBE76F61AE601A
:109840004FF490774FF0000839462068FFF7E4FCAA
:109850004FF4AC7631462068FFF7DEFC2068AA683A
:109860006969C0F84425C0F8481520684FF001091F
:10987000C0F808906868D0B9BA4651462068FFF72A
:10988000C6FC074631462068FFF7C1FC0743F4D009
:1098900010B14FF00F0808E02068C0F80C90314676
:1098A0002068FFF7B4FC0028F9D00020686140462A
:1098B000C0E70000641B00200079054900EBC000F0
:1098C00001EB80004069002800D0012070470000B3
:1098D000641B00202DE9F047064600793D4900EB66
:1098E000C00001EB8005346868680127A8B13A49D7
:1098F000C4F80813306840F3073000280DDB00F08F
:109900001F0107FA01F14009800000F1E020C0F8D2
:109910008011BFF34F8FBFF36F8FD4F8000220F098
:109920002000C4F80002A8694FF4A27820B1414693
:109930002046FFF771FC67604FF4AC79494620463A
:10994000FFF76AFCE760474649462046FFF75FFCA1
:109950000028F9D0A86928B139462046FFF757FCFE
:109960000028F1D04FF0000AC4F800A53068D0F804
:109970000C25D0F81495D0F80885D0F810754FF064
:10998000FF31C0F80C15C0F814153068C0F8081580
:10999000C0F81015501C02D01046FEF7B4FDB9F106
:1099A000FF3F02D04846FEF7AEFD781C02D0384695
:1099B000FEF7A9FDB8F1FF3F02D04046FEF7A3FD38
:1099C0002046FFF7A6FD85F820A0C5F804A0BDE855
:1099D000F0870000641B0020100342000349086068
:1099E000034801680029FCD07047000004E50140ED
:1099F00000E4014010B50549C20800F00703885C87
:109A000001249C402043885410BD0000301B0020DE
:109A10000449084490F93000082801DB0120704710
:109A200000207047DC1A00200449084490F93000F7
:109A3000082801D20120704700207047DC1A00205E
:109A40002DE9F05F2A4F06464FF0A04A4FF0010B78
:109A50000024381990F95010491C3CD090F850005F
:109A6000314620F0C0052846FEF770FB20B32046A3
:109A700000F040F881460AEB8500D0F80007C0F3FB
:109A80000148B8F1020F18D002212846FEF76AFDFE
:109A90000BFA05F1CAF820152846FDF7A1FD57F885
:109AA00020204AB14846B9F1030F11D0B8F1020F96
:109AB00005D0B8F1030F07D00DE00321E5E74846D4
:109AC000B9F1010F04D006E04846B9F1020F02D106
:109AD000014628469047641C042CBAD33246012123
:109AE0000020FEF751FD30680028B1D1BDE8F09F9D
:109AF000DC1A00200249084490F8500080097047A1
:109B0000DC1A002010B50C46017A052908D0407AED
:109B100038B1084808A102682046FEF79DFB00E026
:109B20001AB106A12046FEF797FB2046BDE810407B
:109B3000FEF79FBB381A0020257300000D0A0000B5
:109B400038B5C3880D46044633B114A0009015A261
:109B500016A12846FEF780FB217A05291CD0607AE1
:109B600048B1A088FEF70AFE164951F8202016A138
:109B70002846FEF771FBA0880021FEF7CBFF0346C5
:109B80001049207A143951F8202001B02846BDE848
:109B900030400EA1FEF760BB38BD00001B5B306D8E
:109BA000000000001B5B313B33316D0025734C6FAF
:109BB00067732064726F707065642028256429259E
:109BC000730D0A00381A0020257300003C25733EEF
:109BD0002025733A200000000349884201D1034840
:109BE0007047002070470000002000406C190020E2
:109BF00070B50546FDF759FE134C40B1D4E9040297
:109C00004FF08071411842F10000C4E904100021B6
:109C10002846FDF797FD30B1606820B1606800F01C
:109C200021FA0020606001212846FDF78BFD18B164
:109C3000FDF73AFFC4E90601284600F05FFA28461E
:109C4000BDE8704000F038B8B01900202DE9F041AF
:109C500000260E70D0E902740D468046FDF724FF01
:109C6000381A002364EB01011A461B1A8A4115DADF
:109C7000B0F5350F04D3FCF78FFF0D49421800E013
:109C80003A464FF4960300210A48FDF71AFE10B138
:109C90000D2807D00AE00120BDE8F0810021054829
:109CA000FDF746FD404600F0DDF928700020F3E79F
:109CB000FFFFB400B8190020F8B5204C0646002577
:109CC0001F48FFF753FA10B3D0E90210CA4372EAF3
:109CD000000224D0626882B16368D3E90223891A42
:109CE000984127D26068D0E90210C94371EA0001A7
:109CF00003D061681248FFF728FA00F049F90746D7
:109D00006946FFF7A3FFB0B1606858B10DE0606825
:109D100000280FD13046BDE8F840FDF7CEBD00F079
:109D200037F9CDE73046FDF7C4FD67609DF80000C8
:109D30000028C5D1F8BD6560C2E70000B019002059
:109D400018A7020070B5054688690C4600284FF434
:109D5000847128460AD0FFF74EFAD5F81805626AD2
:109D6000E1688854606A401C606270BDFFF743FA86
:109D7000D5F8180570BD1FB501238DF80030CDE969
:109D80000121D0E90012684690471FBD1FB501238D
:109D90008DF80030CDE90121D0E9001268469047E6
:109DA0001FBD000038B50021012548B1012810D0A1
:109DB00003280DD1FFF73EFABDE83840FEF7FEB9A3
:109DC0004FF0E020C0F88051BFF34F8FBFF36F8F8B
:109DD00038BD8DF800106846FCF76EFF064C207801
:109DE00008B9FEF7CBF9E068401CE060A5709DF86B
:109DF0000000FCF785FF38BDC81A00203EB50446B8
:109E000009496846FFF77AF908E000BFD0E9002168
:109E10002046904730B16846FFF787F9029800283E
:109E2000F4D13EBD11203EBDF4A802003EB504466B
:109E300008496846FFF762F907E000BFD0E9002152
:109E4000204690476846FFF770F902980028F5D140
:109E50003EBD000000A9020070B50D4C0020D2B23A
:109E60002070201D0B4D0378EB5C1BB1001DFFF72C
:109E7000CDFC02E00C30FFF7C7FB08B1FCF780FE19
:109E80006078002802D021780029FAD070BD000047
:109E9000E8190020581900202DE9F0410746806A92
:109EA00014468846C8B3002531E000BFB96A05EB07
:109EB000450001EB8006B088801CFE2802D90C20EA
:109EC000BDE8F0812288401C08F802002088162294
:109ED000401C80B2208008F800202088401C80B2FE
:109EE000208000EB0801308800F017FB218808442F
:109EF00080B22080B28842B1B16871B14044FCF7B1
:109F0000B5FA2088B188084420806D1CEDB297F81E
:109F10002C00A842CAD80020D2E7FFE70720CFE7ED
:109F2000002805D10349012048700020FDF760BBDF
:109F300070470000C81A002010B51620FCF71AFD63
:109F4000A0B1114890F800044009082811D201215D
:109F5000814011F0EC0F0CD00C4882684FF4800166
:109F60006AB1016841F48001016010BD42F2010054
:109F700001E042F20200BDE81040FCF701BE4FF0E4
:109F8000E020C0F8001110BD16E000E0001C002029
:109F90000148FFF7EEB8000018A70200C207002A28
:109FA00003D000BF4FF00F0201E04FF0F00201D0EC
:109FB0004FEA0111044B03EB5003187800EA02004A
:109FC00040EA010018707047881B00202DE9F84F07
:109FD000074622489146884605681E460122694682
:109FE0001846FDF745FADFF878A060B30098002125
:109FF0000446801C0AE000BF00EA050259F821C0AF
:10A000000AEB8202401C491CC2F80CC0B142F3D3D7
:10A010004FEA1749FDF782FB611C29400AEB8101D9
:10A0200049EA00422C40CA600AEB8401C86867F321
:10A03000C50066F3891068F39F2020F00300401CE0
:10A0400020F00400C8609AF8000001E0FEF7BCFBB5
:10A050000028FBD1FDF734FEBDE8F88F081A002078
:10A06000B01D0020F8B5044622480026007878B3D9
:10A0700074B3FDF719FDD4E90232C01A91412DD312
:10A0800000258DF800506846FCF716FE206910B9CF
:10A09000681EC4E902009DF80000FCF731FED4E917
:10A0A000051088478DF800506846FCF705FE2269C8
:10A0B0007AB1D4E90210CB4373EA000309D08918BE
:10A0C0006841C4E902109DF80000FCF719FE09E0A0
:10A0D0000DE09DF80000FCF713FE08E0D84370EA9D
:10A0E000020004D021460448FFF72FF8012630462D
:10A0F000F8BD0000B019002018A7020038B51D4DAA
:10A1000069462868FDF798FF1B4C30E0017821B1C3
:10A1100001290ED0022922D117E04168D1E902209D
:10A12000D24372EA00021AD012480830FFF70DF845
:10A1300015E041686068814202D1002060600EE055
:10A140000C480830FFF71CF809E0FFF721FF20B1A9
:10A150004FF0FF31C0E90211F7E701202070694696
:10A160002868FDF75EFF69462868FDF765FF00284F
:10A17000CCD138BD10A70200B0190020F8B50B4CA7
:10A180000D46064669462068FDF740FF58B1067047
:10A19000456069462068FDF75AFF10B10448FDF795
:10A1A00071FB0020F8BD0420F8BD000010A70200DC
:10A1B000B81900200348806841080348002240681D
:10A1C000FCF72EBD7819002008A7020070B50C46D8
:10A1D00005464FF48E71FFF70EF8216AA068415CC6
:10A1E000206A401C2062C5F81C1570BD1FB50022F6
:10A1F0008DF800200291816801914261D0E900123E
:10A20000684690471FBD1FB500228DF800200291BF
:10A21000816801914261D0E90012684690471FBDF4
:10A220001FB50A4601788DF8001041680191017A46
:10A230008DF80810C0680390044850F82210001FE1
:10A2400050F82220684690471FBD0000601900208A
:10A250000149012008707047E819002010B588B046
:10A26000044620220E496846FCF700F906200090BB
:10A27000C01F0190029003904FF0EB7006900CB15C
:10A28000084A00E0002269460748FDF7B1FF08B11F
:10A29000FCF776FC0448001F447008B010BD0000B5
:10A2A000B4A8020051A20200EC1900202DE9FF47DA
:10A2B0000C4605464FF40071FEF7A3FF01274FF44B
:10A2C0000178002618B34FF4927949462846FEF7E4
:10A2D0008DFFE0B149462846FEF78DFFC5F808839B
:10A2E00094F8290000B96F6002208DF80000D5F8BD
:10A2F0008004C5F880040390A0690290E068019092
:10A30000A661E661D4E900126846904728E004217E
:10A310002846FEF776FF18B34FF484712846FEF7FF
:10A3200065FFE8B121462846FFF70CFD616AA06988
:10A33000884215D1E06938B1E268616AA06120699C
:10A34000E6616662E06008E094F8290000B96F6099
:10A35000C5F80883A661E268616A2046FFF70BFD35
:10A360004FF48E7841462846FEF740FF80B1606981
:10A37000216A814202D294F8280028B34146284637
:10A38000FEF739FF606918B161692046FFF72EFFBB
:10A390004FF4A27841462846FEF728FF002818D03F
:10A3A00041462846FEF727FF94F8290000B12F60A8
:10A3B000A06900280DD0A661E268616A04B0204659
:10A3C000BDE8F047FFF7D7BC21462846FFF7FEFE61
:10A3D000DEE7BDE8FF8700001FB50A4601788DF86B
:10A3E000001041680191017A8DF80810C06803904F
:10A3F000044850F82210001F50F822206846904769
:10A400001FBD0000601900202DE9FF410C464FF4EC
:10A41000927705463946FEF7FAFE0026B8B139466E
:10A420002846FEF7F9FE02208DF80000D5F88004DA
:10A43000C5F880040390D5F83C050290E0680190CF
:10A44000A661E661D4E900126846904723E04FF424
:10A45000887739462846FEF7DAFEE0B139462846C5
:10A46000FEF7DAFED5F83C15A069884213D1E06901
:10A4700060B1E268D5F8000220F02000C5F80002C3
:10A48000E069A0612069E661E06001E0A661E26840
:10A490002046FFF77BFC4FF4A27739462846FEF7AB
:10A4A000B6FE68B139462846FEF7B6FEA06938B157
:10A4B000A661E661D5F83C152046E268FFF766FC28
:10A4C0004FF4907631462846FEF7A1FE60B1314642
:10A4D0002846FEF7A1FE0120E860606920B1D5F8AA
:10A4E0004C152046FFF78FFE4FF4AC7631462846D8
:10A4F000FEF78DFE00280ED031462846FEF78CFE72
:10A500006069002807D0D5F84C1504B02046BDE896
:10A51000F041FFF778BEBDE8FF810870000A48707F
:10A52000022070472DE9F05F8346DDE90A4A99462B
:10A5300090460D460846012703E000BFB0FBF8F047
:10A540007F1C4045FAD2B94500D94F465FEACA7030
:10A5500012D18CB15FEA8A7002D5B9F1000F01D037
:10A56000202607E0302605E031465846641EFCF7F9
:10A57000C9FF0CB1A742F7D35FF00106B9F1010F93
:10A5800002D9A9F1010903E0B5FBF6F0404502D379
:10A5900006FB08F6F2E7DFF83C9000BFB5FBF6F0EB
:10A5A00000FB165519F800105846FCF7ABFFB6FB38
:10A5B000F8F6002EF2D15FEACA7009D0002C07D05D
:10A5C000A74205D220215846641EFCF79BFFF5E701
:10A5D000BDE8F09F36A7020070B50C460546FCF7B3
:10A5E000B5FF002807D04268002A04D0214628463B
:10A5F000BDE87040104770BD2DE9FC411646DDE90D
:10A600000854CDE900541F468046022200F00CF8A1
:10A61000002807D1CDE900543B4610223146404680
:10A6200000F002F8BDE8FC812DE9FC5F0026DDE9C1
:10A630000C4B994692468E4680462788354630E038
:10A64000D8F80400002200EB8500694600680190FC
:10A6500001A864DF002830D19DF8000050451FD1CB
:10A660000EB1002100E0022122880844111859454A
:10A6700022D846B9521C90B2208009F800E0208808
:10A68000401C20800126218801A801EB09026946AF
:10A6900064DF002811D120889DF800100844208034
:10A6A0006D1CB8F80000A842CADC56B12088C01B57
:10A6B000401E80B2FF2802D90C20BDE8FC9F09F89B
:10A6C00007000020F9E7111213140D0E0F100000FF
:10A6D000F818002018190020381900200D00030078
:10A6E000297102000E000300297102000F0003000F
:10A6F00029710200100003002971020000000050BF
:10A700002595020091970200030000009019002097
:10A71000981B00200100060000000000D019002056
:10A72000357602000000000000000000000000007C
:10A730000338FDD870473031323334353637383945
:10A740004142434445460000000000000000000074
:10A7500000000000000000000000000000000000F9
:10A7600048A7020060A7020004000000556E6B6E4F
:10A770006F776E206572726F7220636F6465000080
:10A780000000000084AD02000100000030AC0200B7
:10A790000200000024AA020003000000A4AC020092
:10A7A00004000000F8AC020005000000D8AB020075
:10A7B0000600000074AB020007000000E0AC0200DD
:10A7C00008000000ECAB02000900000050AC0200E1
:10A7D0000A0000006CAD02000B0000000CAA020091
:10A7E0000C00000004AC02000D000000D4AD02001B
:10A7F0000E000000D0AC02000F0000000CAD020003
:10A800001000000040AD020011000000E8AD0200A1
:10A8100012000000BCAD02001300000058AD0200A1
:10A82000800000008CAB020081000000C8AA02007A
:10A830008200000088AA02008300000068AA0200CB
:10A8400084000000A4AA020085000000B0AB020052
:10A8500086000000B8AC02009000000054AB02007B
:10A860009100000048AA02009200000018AC02000B
:10A870000082000020AD0200018200006CAC0200EA
:10A880000282000088AC020000840000E4AA0200FA
:10A890000184000090AD0200028400002CAB020095
:10A8A0000384000008AB02006587020039870200BC
:10A8B00031870200FFFFFFFFFFFFFFFFFFFFFFFFEA
:10A8C000FFFFFFFF00000000000000000000D601B5
:10A8D00006010000181D00207F000000981D0020C8
:10A8E0000000000000000000000000000000000068
:10A8F00001000007E0A80200F0A802000800000024
:10A9000018A9020028A902000800000028A90200D6
:10A9100038A902000800000048B1020050B102004E
:10A92000000000000000000038B1020048B1020041
:10A930000000000000000000000000000000000017
:10A940000000000000000000000000000000000007
:10A950000000000000000000C818002038A9020014
:10A9600058A902000800000030B1020038B102000E
:10A97000000000000000000068A9020078A90200A1
:10A9800008000000004040404040404040404141FD
:10A9900041414140404040404040404040404040B4
:10A9A000404040404005020202020202020202024E
:10A9B000020202020220202020202020202020024B
:10A9C00002020202020290909090909010101010DB
:10A9D0001010101010101010101010101010101077
:10A9E000020202020202888888888888080808080B
:10A9F00008080808080808080808080808080808D7
:10AA0000020202024000000085A902004E52465F89
:10AA10004552524F525F494E56414C49445F444162
:10AA2000544100004E52465F4552524F525F534FC1
:10AA300046544445564943455F4E4F545F454E4149
:10AA4000424C4544000000004E52465F4552524F72
:10AA5000525F464541545552455F4E4F545F454EF7
:10AA600041424C45440000004E52465F4552524F11
:10AA7000525F4D555445585F554E4C4F434B5F46C2
:10AA800041494C45440000004E52465F4552524FEA
:10AA9000525F4D555445585F4C4F434B5F464149BB
:10AAA0004C4544004E52465F4552524F525F4D5501
:10AAB0005445585F434F4E445F494E49545F4641A9
:10AAC000494C4544000000004E52465F4552524FEB
:10AAD000525F4D555445585F494E49545F46414970
:10AAE0004C4544004E52465F4552524F525F424CD5
:10AAF000455F495053505F52585F504B545F54521A
:10AB0000554E4341544544004E52465F4552524FC4
:10AB1000525F424C455F495053505F504545525F2C
:10AB200052454A4543544544000000004E52465F9A
:10AB30004552524F525F424C455F495053505F4C13
:10AB4000494E4B5F444953434F4E4E454354454451
:10AB5000000000004E52465F4552524F525F415036
:10AB6000495F4E4F545F494D504C454D454E5445FD
:10AB7000440000004E52465F4552524F525F4E4FC6
:10AB8000545F535550504F52544544004E52465F07
:10AB90004552524F525F4D4F44554C455F4E4F54B6
:10ABA0005F494E495449414C495A45440000000010
:10ABB0004E52465F4552524F525F4D4F44554C45A1
:10ABC0005F414C52454144595F494E495449414CBB
:10ABD000495A4544000000004E52465F4552524FCC
:10ABE000525F4E4F545F464F554E44004E52465FA3
:10ABF0004552524F525F494E56414C49445F53545F
:10AC0000415445004E52465F4552524F525F4441B7
:10AC100054415F53495A45004E52465F4552524F88
:10AC2000525F494F5F50454E44494E470000000077
:10AC30004E52465F4552524F525F5356435F484112
:10AC40004E444C45525F4D495353494E4700000016
:10AC50004E52465F4552524F525F494E56414C4903
:10AC6000445F4C454E475448000000004E52465F3A
:10AC70004552524F525F4452565F5457495F4552B6
:10AC8000525F414E41434B004E52465F4552524F38
:10AC9000525F4452565F5457495F4552525F444E8B
:10ACA00041434B004E52465F4552524F525F494E10
:10ACB0005445524E414C00004E52465F4552524F51
:10ACC000525F53544F524147455F46554C4C00002C
:10ACD0004E52465F4552524F525F4E554C4C00000B
:10ACE0004E52465F4552524F525F494E56414C4973
:10ACF000445F504152414D004E52465F4552524FC3
:10AD0000525F4E4F5F4D454D000000004E52465F72
:10AD10004552524F525F464F5242494444454E00BD
:10AD20004E52465F4552524F525F4452565F5457FF
:10AD3000495F4552525F4F56455252554E000000F2
:10AD40004E52465F4552524F525F494E56414C4912
:10AD5000445F4144445200004E52465F4552524FB8
:10AD6000525F5245534F5552434553004E52465F32
:10AD70004552524F525F494E56414C49445F464CF2
:10AD8000414753004E52465F53554343455353008A
:10AD90004E52465F4552524F525F424C455F4950BA
:10ADA00053505F4348414E4E454C5F414C524541E4
:10ADB00044595F4558495354530000004E52465F72
:10ADC0004552524F525F434F4E4E5F434F554E5484
:10ADD000000000004E52465F4552524F525F5449A8
:10ADE0004D454F55540000004E52465F4552524F5C
:10ADF000525F4255535900007761726E696E670069
:10AE000064656275670000001B5B313B33306D0089
:10AE10001B5B306D000000001B5B313B33316D006C
:10AE20001B5B313B33326D001B5B313B33336D00B9
:10AE30001B5B313B33346D001B5B313B33356D00A5
:10AE40001B5B313B33366D001B5B313B33376D0091
:10AE5000696E666F000000006572726F720000001C
:10AE600073645F626C655F6366675F7365742829EE
:10AE70002072657475726E6564202573207768652D
:10AE80006E20617474656D7074696E6720746F20D4
:10AE900073657420424C455F47415454535F4346A9
:10AEA000475F534552564943455F4348414E4745E6
:10AEB000442E000073645F626C655F6366675F7356
:10AEC000657428292072657475726E656420257317
:10AED000207768656E20617474656D7074696E6743
:10AEE00020746F2073657420424C455F434F4D4D75
:10AEF0004F4E5F4346475F56535F555549442E00BA
:10AF000073645F626C655F6366675F73657428294D
:10AF10002072657475726E6564202573207768658C
:10AF20006E20617474656D7074696E6720746F2033
:10AF300073657420424C455F47415454535F434608
:10AF4000475F415454525F5441425F53495A452E22
:10AF50000000000073645F626C655F6366675F7327
:10AF6000657428292072657475726E656420257376
:10AF7000207768656E20617474656D7074696E67A2
:10AF800020746F2073657420424C455F434F4E4ED2
:10AF90005F4346475F4741502E00000073645F6285
:10AFA0006C655F6366675F736574282920726574DA
:10AFB00075726E6564202573207768656E206174F4
:10AFC00074656D7074696E6720746F20736574208A
:10AFD000424C455F4741505F4346475F524F4C45A7
:10AFE0005F434F554E542E00636C6F636B0000003F
:10AFF000434C4F434B0000004750494F544500001D
:10B0000050525300554152540000000055415254D3
:10B01000450000006170705F627574746F6E0000AF
:10B020006170705F74696D65720000007077725FA7
:10B030006D676D7400000000736F72746C697374D7
:10B0400000000000756172745F6C6F675F6261631E
:10B050006B656E6400000000617070006E72665F68
:10B06000736468006E72665F7364685F626C65002B
:10B070006E72665F7364685F736F630050B1020045
:10B08000C81800209C01000008650200B8B1020049
:10B09000641A00206C27000064690200A8A802005E
:10B0A0000000000044B00200001A0020E8AF0200D7
:10B0B00000000000F0AF020000000000F8AF020046
:10B0C0000000000000B002000000000004B0020018
:10B0D000000000000CB002000000000014B00200EC
:10B0E0000000000020B00200000000002CB00200B0
:10B0F0000000000038B002000000000058B002005C
:10B10000000003035CB002000000030364B002000F
:10B110000000030370B0020000000303141A0020B3
:10B120000C1A0020141A0020581C002018000000DF
:10B13000219F020000000000C18F020000000000FB
:10B14000C190020000000000A59D02000000000068
:10B1500032FF137C1A33201F5A9B08000B1A01027E
:10B16000030405060708090A5AFF01095620013899
:10B17000091F5815100140110232041220BA40086C
:10B18000296C5904011C1458AE0214F8AD021A506F
:10B19000081119041A10041A08041A18041A2004B1
:10B1A0001A28041A30041A38041A40042A4828417C
:08B1B000040090D00300000030
:040000050002620192
:00000001FF
