:020000040002F8
:10600000A8600020C1630200C9630200CB630200E4
:10601000CD630200CF630200D163020000000000E4
:10602000000000000000000000000000D363020038
:10603000D563020000000000D7630200D9630200AC
:106040004D660200DB630200F1690200DB630200BF
:10605000DB630200DB630200A9650200DB63020070
:10606000DB630200DB630200DB630200DB63020030
:10607000DB630200DB630200DB630200DB63020020
:10608000DB630200A5660200DB630200DB63020043
:10609000DB630200DB63020015670200DB630200C2
:1060A000DB630200DB630200DB630200DB630200F0
:1060B000DB630200DB630200000000000000000060
:1060C000DB630200DB630200DB630200DB630200D0
:1060D000DB630200DB630200DB6302000000000000
:1060E00000000000000000000000000000000000B0
:1060F00000000000000000000000000000000000A0
:10610000000000000000000000000000000000008F
:10611000000000000000000000000000000000007F
:10612000000000000000000000000000000000006F
:10613000000000000000000000000000000000005F
:10614000000000000000000000000000000000004F
:10615000000000000000000000000000000000003F
:10616000000000000000000000000000000000002F
:10617000000000000000000000000000000000001F
:10618000000000000000000000000000000000000F
:1061900000000000000000000000000000000000FF
:1061A00000000000000000000000000000000000EF
:1061B00000000000000000000000000000000000DF
:1061C00000000000000000000000000000000000CF
:1061D00000000000000000000000000000000000BF
:1061E00000000000000000000000000000000000AF
:1061F000000000000000000000000000000000009F
:10620000DFF80CD000F092F900480047358C02000E
:10621000A860002030B450E8012F93B2C489234411
:106220008489A34228BF1B1B0489A34202BFBFF37A
:106230002F8F002007E0C3EA020340E80134002C5E
:10624000E9D14FF001000A6030BC704750E8012FDF
:10625000C2EA024240E801210029F7D1704730B478
:1062600050E8022F1FFAA2F3C488A34202BFBFF373
:106270002F8F00200DE0C48923448489A34228BFC6
:106280001B1BC2EA034340E80234002CE8D14FF064
:1062900001000A6030BC704750E8022FC2EA224277
:1062A00040E802210029F7D17047034653E8022F46
:1062B000D988B2EB324F4FF0000017BF92B241EADB
:1062C000014142EA014104E05A68B2EB324F08BF93
:1062D000012043E80212002AE8D1704730B4044696
:1062E00054E8000F0D4644E80053002BF8D1156028
:1062F00030BC704730B4044654E8000F40EA010552
:1063000044E80053002BF7D1156030BC704730B41F
:10631000044654E8000F00EA010544E80053002B4E
:10632000F7D1156030BC704730B4044654E8000F14
:1063300080EA010544E80053002BF7D1156030BC1A
:10634000704730B4044654E8000F00EB010544E800
:106350000053002BF7D1156030BC704730B40446B1
:1063600054E8000FA0EB010544E80053002BF7D1DF
:10637000156030BC704770B404464FF0000054E81C
:10638000006F0D68AE4207BF44E80023012044E8D7
:1063900000630E60002B1CBF0020F0E770BC70474C
:1063A00030B4044654E8000F88422CBF451A054615
:1063B00044E80053002BF5D1156030BC7047000055
:1063C0000648804706480047FEE7FEE7FEE7FEE78F
:1063D000FEE7FEE7FEE7FEE7FEE7FEE719670200DD
:1063E000016202002DE9F05F0546002092469B46BF
:1063F00088460646814640241BE0284641464746DB
:10640000224600F082F853465A46C01A914110D3F2
:1064100011461846224600F016F82D1A67EB0108BF
:106420004F4622460120002100F00DF817EB00092D
:106430004E41201EA4F10104DFDC484631462A46C5
:106440004346BDE8F09F202A04DB203A00FA02F11F
:10645000002070479140C2F1200320FA03F3194352
:106460009040704700487047ECCB020040EA0103BF
:106470009B0703D009E008C9121F08C0042AFAD2FA
:1064800003E011F8013B00F8013B521EF9D27047BE
:10649000D2B201E000F8012B491EFBD27047002266
:1064A000F6E710B513460A4604461946FFF7F0FF13
:1064B000204610BD421C10F8011B0029FBD1801A98
:1064C000704710B5002200E0521C835C8C5CA34234
:1064D00001D1002BF8D1D8B2E1B2401A10BD30B5CD
:1064E00004460020034600E05B1C934203D2E05CBC
:1064F000CD5C401BF8D030BD034611F8012B00F8ED
:10650000012B002AF9D118467047202A04DB203AD3
:1065100021FA02F00021704721FA02F3D040C2F1C3
:10652000200291400843194670470000064C074D71
:1065300006E0E06840F0010394E807009847103453
:10654000AC42F6D3FFF760FEC0D40200E0D40200F4
:1065500070B58C1810F8015B15F0070301D110F825
:10656000013B2A1106D110F8012B03E010F8016B52
:1065700001F8016B5B1EF9D12B0705D40023521ED5
:106580000DD401F8013BFAE710F8013BCB1A921C3D
:1065900003E013F8015B01F8015B521EF9D5A1423B
:1065A000D8D3002070BD00002DE9F8430025DFF8A6
:1065B00094804FF4807601242F460095304603F0F6
:1065C00005FB38B1D8F80403204203D0304603F06D
:1065D000F3FA2543361D64007F1CB6B2082FEDD3B5
:1065E0004FF4BE74204603F0F1FA48B1204603F0A0
:1065F000E3FA45F000456A460121002003F0ACFAB9
:1066000015F0FF0F16D0012600242E420ED008EB05
:106610008401D1F81005D1F81015C0F304200A4AFE
:10662000C1F3014152F8242002B190477600641C66
:10663000082CEAD3002D02DA684605F053F8BDE8CD
:10664000F8830000006000400837002070B54FF468
:106650008076304603F05CF8114CB50560B13046E9
:1066600003F05DF80120C5F80803607920B9012026
:1066700060712168002088474FF48276304603F02D
:1066800047F800280AD0304603F049F80220C5F840
:1066900008032168BDE870400120084770BD000074
:1066A000BC30002002490248091F096800680847F9
:1066B0004C31002000F0A2B970B50E46144900EB31
:1066C000400001EBC0051446E86A183520B10128E6
:1066D0000FD0022805D113E0284600F0C3F9A042EC
:1066E00001D2002411E022463146284600F0F2F99A
:1066F0000BE0284600F0B6F9A042F4D20446F2E7D7
:106700003146284600F0B9F90446204670BD000025
:106710001C3E002004F09EB8F0B5A449A4484FF0F8
:1067200080540B68D4F830210078D4F83411551C0B
:10673000C0F3031006D0944601270026BCF1060FD3
:1067400003D00AE003F0FF0CF6E7B4F82453DFF8B7
:1067500064C2C5F30425CCF80050DDB2062D06D185
:10676000032804D1DFF854C2934DCCF87450551C63
:1067700004D09446BCF1060F03D00AE003F0FF0CEE
:10678000F8E7D4F84452DFF838C2C5F34235CCF804
:106790000050DDB2062D08D1032806D1894DD5F869
:1067A00000C02CF0807CC5F800C0551C04D0944675
:1067B000BCF1060F03D00BE003F0FF0CF8E74FF03D
:1067C0008045C5F80C61C5F810617D4D2D1F2E6008
:1067D000DDB2062D08D1032806D1DFF8E4C1032578
:1067E0000CF1640CCCF80050DDB2062D10D103285A
:1067F0000ED1DFF8D4C10525CCF80050724D7835A4
:106800002F60714D08352E600CF104063F25356070
:10681000551C04D016460D46062E03D05BE0DEB2B2
:106820000546F9E7ED1E012D55D9684D2D68684ED6
:106830003560664D2D1D2D68361D3560634D08355C
:106840002D68361D3560614D0C352D68361D35605F
:106850005E4D10352D68361D35605C4D14352D6844
:10686000361D3560594D18352D68594E2036356026
:10687000564D1C352D68361D3560544D20352D681C
:10688000361D3560514D24352D68361D35604F4D10
:1068900028352D68361D35604C4D2C352D68361D3C
:1068A00035604A4D30352D68494E40363560474D8C
:1068B00034352D68361D3560444D38352D68361D0C
:1068C0003560424D3C352D68361D35603F4D4035B5
:1068D0002D68361D3560551C03D01646062E02D095
:1068E00007E0DEB2FAE7D4F858523A4E05F04F0509
:1068F0003560551C03D01346062B02D008E0DBB2EE
:10690000FAE735480368DB0702D06FF00103036044
:10691000062A07D1C91E022904D93048016841F46A
:106920008061016027487438016841F4700101609A
:10693000BFF34F8FBFF36F8FD4E94C104FF010228D
:10694000062907D1C01E032804D9D2F808021C4921
:106950001C310860D2F80002002803DBD2F80402E0
:1069600000281FDA012004F029FC1521C2F80012CA
:106970001B480368002BFCD0C2F8041201680029F0
:10698000FCD0002004F01AFCBFF34F8F0D48F03804
:106990000168144A01F4E06111430160BFF34F8FB5
:1069A00000BFFDE7114910480860F0BDE00F00F09E
:1069B000E80F00F0403501400DF0ADBA00C00740CF
:1069C0003C050040FCED00E01056004004040010BF
:1069D00020C50040E40E0040000400403C17004089
:1069E00000E401400400FA050090D003C431002007
:1069F0000148006800470000C430002010B5124C68
:106A000002202061606111A0A06104F17800E061C2
:106A10004FF4007020620020A06260620BA1A164AC
:106A2000E06204F51E71E1641021A065C4E9141050
:106A3000E06509A1E01DFFF75FFD08A12046FFF713
:106A40005BFD2020A07110BD1C3E00205465726DBE
:106A5000696E616C00000000525454005345474772
:106A6000455200000269C1688A4203D88068401A12
:106A7000104400E0501A401E70472DE9F047C468EA
:106A80001746894606464FF000083069A04201D9F2
:106A9000051B02E0B168201A0D1AB0686D1E001BBC
:106AA000A84200D80546BD4200D33D4670682A463C
:106AB00020444946FFF7DAFCB0687F1B2C44A84409
:106AC000A944A04200D10024F460002FDDD140464B
:106AD000BDE8F0872DE9F04104468846D4E9020775
:106AE000C51BE168606816460844B54206D94146B0
:106AF000FFF7BCFCB819E060BDE8F0812A464146CA
:106B0000FFF7B4FC761B08EB050132466068FFF71F
:106B1000ADFCE660F0E70000014A024900F026B84B
:106B2000B38702005C31002002E008C8121F08C1D0
:106B3000002AFAD170477047002001E001C1121FFE
:106B4000002AFBD1704700000121202803DA814090
:106B50000548014003E0402802DA2038814009B1AD
:106B60000120704700207047FC06FFBD2DE9F04171
:106B700016460F460446002503E03946B047641C1C
:106B80006D1C20780028F8D12846BDE8F08110B5AA
:106B900001220221002000F0E1FF08B1072810D1F6
:106BA00007220221012000F0D9FF08B1072808D1EF
:106BB00000210A22084600F0D1FF08B1072800D1C1
:106BC000002010BD022000F0E7BE000070B50024D8
:106BD000064D06E06868012110F8340003F052FF0A
:106BE000641C28788442F5D3002070BDD03000208A
:106BF000F8B516460C4605460A2A01D20720F8BD0C
:106C000004F03AF818B903F0FDFF0028F7D1134F4C
:106C1000102113487D603C70BE60FFF740FC0020EF
:106C2000C7E904000F4E0DE005EBC4003168009188
:106C300081788DF8011000780B4A694603F072FFE5
:106C40000028DCD1641EE4B2EED2BDE8F84005486D
:106C50000021064A001D00F087B80000D030002057
:106C6000B4370020D8C802002D8902000982020032
:106C700072B603F045FA00BF03F078F80028FBD1A4
:106C800011481249401AC408012000EB044010A129
:106C900003F088F911480068C00700D000BE022048
:106CA00000EB04400EA103F07DF9BFF34F8F0B48BA
:106CB000E43801680E4A01F4E06111430160BFF35A
:106CC0004F8F00BFFDE7000068D50200F0D402003E
:106CD000466174616C206572726F7200F0ED00E0C5
:106CE00053797374656D20726573657400000000DC
:106CF0000400FA050EB500210091CDE901106A46A5
:106D000044F20100FFF7B4FF0EBD10B58268C368FE
:106D1000934203D001F03AFD002010BD052010BDC4
:106D200029B112B1531E134203D0092070470E201F
:106D300070470160838000218160C1600846704710
:106D400010B58268C3689A1A83889A4203D801F002
:106D500027FD002010BD042010BD0000014801F0F7
:106D600092BB00001031002010B55AB100684FF0FE
:106D7000FF3401294261C0E9024400D000210161D1
:106D8000002010BD072010BD38B511480823582237
:106D9000416800910F49006802F05EF8002815D1A3
:106DA0000D4A69460D4801F073FB04000ED1012124
:106DB0000A4801F0E8FB0123094A1946074801F097
:106DC0003AFB0649012008390870204638BD00000A
:106DD000E0C80200D437002051BB0200103100206F
:106DE000FFFF7F00F8B50446002617460D468DF8D4
:106DF0000060684600F0D8F8D4E90201C04370EAA8
:106E0000010005D09DF8000000F0F2F80020F8BD68
:106E100001F072FD40197141C4E902019DF80000C2
:106E200000F0E6F8A761206900B125612146BDE8C0
:106E3000F840002005F012BA38B5044600208DF85D
:106E40000000684600F0B0F8D4E90201C04370EADF
:106E500001000DD04FF0FF30C4E902009DF80000A2
:106E600000F0C6F82146BDE83840012005F0F6B92B
:106E70009DF8000000F0BCF8002038BD70B50A4E47
:106E800001460A48B578FFF740FF04464DB100209F
:106E9000B070711C0122C81D02F0B8FC08B1FFF7E8
:106EA00029FF204670BD00002C3100202C38002026
:106EB000F0B5244E89B01F460D00044672603FD0E5
:106EC000A888296882B22048FFF72AFF002835D118
:106ED000A889A96882B21C481030FFF721FF00285A
:106EE0002CD1202219496846FFF7C0FA6069069044
:106EF000207C00B101208DF814008DF81C70607C9E
:106F000000B10E208DF81500E0680290A068039093
:106F100020680190606800900A480D4A6946083070
:106F200002F040FC002809D1B0702068401C05D058
:106F300004490122491CC81D02F068FC09B0F0BDDB
:106F40000720FBE72C3100202C380020F4C8020079
:106F500059C3020010B501461048FFF7F1FE0400C6
:106F600019D10F480F4A0178515C19B1001D04F086
:106F700015F902E00C3003F0EBFF60B9084907484F
:106F80000839FFF7C2FE30B9054901220839044823
:106F900002F04CFC0446204610BD00003C380020A6
:106FA00034310020B030002030B5EFF3108172B6DC
:106FB0000D4A9468012324B10370002900D162B600
:106FC00030BD93604FF0E023D3F88051074C25404B
:106FD0001560C3F88041D3F8844154605A17C3F850
:106FE000842100220270E8E74C380020FC06FFBD37
:106FF0000B498A68002A11D000280FD1EFF31080C6
:1070000072B60B684FF0E022C2F800314B68C2F84C
:10701000043100228A60002800D162B67047000067
:107020004C3800202DE9F041064608680C46411C0A
:107030004FF0A0474FF0010506D005FA00F1C7F860
:107040000815206802F062FD6068411C02D0002132
:1070500002F04AFD3168A069C1F82405607D227DF7
:1070600031681043C1F86C05D4E900123068C0F8EB
:107070001425C0F80C15207D012815D1A068411CED
:1070800002D0002102F030FDE068411C05D08540AF
:10709000C7F80855E06802F039FDD4E902123068FB
:1070A000C0F80825C0F81015BDE8F0812DE9F041C1
:1070B000064608680C46411C4FF0A0474FF00105FA
:1070C00006D005FA00F1C7F80815206802F028FD7F
:1070D0006068411C02D0002102F00FFD3168A069F8
:1070E000C1F82405607D217D32680843C2F86C0533
:1070F000D4E900123068C0F80C15C0F81425207DC2
:10710000012815D1A068411C02D0002102F0F5FC35
:10711000E068411C05D08540C7F80855E06802F0DA
:10712000FFFCD4E902123068C0F80825C0F8101539
:10713000BDE8F081F8B506464FF000001500ADF847
:10714000000015D009236A46304600F015F80446C1
:10715000BDF80000064458B154B12846FFF7AAF91B
:10716000A04205D1224631462846FFF7B8F908B1BA
:107170000020F8BD0120F8BD70B5E0B1DAB10024FF
:1071800002E0045D2C44A4B2651C8D4206D2168830
:10719000A642F6D8061976789E42F2D18C420AD2DF
:1071A000A31C005D9BB200B1401E0004000C02D085
:1071B0001C188C4201D9002070BD138070BD2DE9D0
:1071C000F0418AB006460020ADF8140013461020A6
:1071D00088468DF804000D4606AA01A9184664DF0A
:1071E000A6B398BB9DF80400022804D0042807D059
:1071F000102839D10DE003208DF81000022003E0A3
:1072000005208DF8100004208DF81100002404AF33
:107210000FE007208DF810000620F5E73B5D05AA7A
:1072200041463046FFF7A8FF641CE4B20546022C35
:1072300004D2BDF814000028F0D003E0BDF814001B
:10724000002812D080B2064400240BE00CE0301974
:107250009DF8042006A9FFF742F948B19DF8040003
:10726000204484B2AC42F2D300200AB0BDE8F081E1
:107270000120FAE770B540B10C4D297839B10446C8
:1072800004F0CCFB28B1002070BD0E2070BD08209A
:1072900070BDE868062807D20549226801EB800125
:1072A000401C0A60E860EEE7042070BDA0300020BA
:1072B000DC36002010B558B103684BB142683AB1D2
:1072C000044900200124C8600C70C1E9013210BDDE
:1072D0000E2010BDA0300020002827D0002925D086
:1072E000134A1278002A21D00A460188112911D0A8
:1072F000302907D0322909D0332917D1011D104672
:1073000004F058B8011D104604F018B9011D1046CC
:1073100003F060BF8088B2F8CA12884206D100200C
:1073200082F8C8024FF6FF70A2F8CA027047000048
:10733000A030002048B1084A137843B1D26832B176
:1073400090F8C8222AB1112070470E2070470820FB
:10735000704701F017B80000A030002038B502884F
:10736000011D04461F2A47D016DC102A1ED02B48C8
:107370002B4BC01AC008032303EB0040112A2DD069
:10738000132A33D01B2A44D10979022941D1BDE8FF
:10739000384024A102F006BE212A31D03B2A39D040
:1073A000562A36D1A088132176DF11E0A188002269
:1073B000244800F001F908B1FFF79CFC072000F019
:1073C000EFFB08B1FFF796FCA1881F48FFF7B2FF5B
:1073D00000281ED0BDE83840FFF78CBC0B790A8826
:1073E00001B01AA1BDE8304002F0E7BD0023A0883B
:1073F0001A4685217FDFEBE731F8040B75DFE7E7FD
:1074000000200090A08869468FDF002801D0FFF798
:1074100071FC38BDA088132176DFD9E768D502005A
:10742000F0D40200436F6E6E656374696F6E205214
:107430006571756573742074696D6564206F75740A
:107440002E000000BC3400202C2A00204469736305
:107450006F6E6E65637465642E20636F6E6E5F6819
:10746000616E646C653A20307825782C20726561F5
:10747000736F6E3A203078257800000010B51A4CF2
:107480000188606810290ED011292BD1401E606040
:1074900028D1FFF77CFB002824D02168002921D0C7
:1074A000BDE810400847D0B900210122084600F08D
:1074B00055FB08B107280FD107220221012000F057
:1074C0004DFB08B1072807D104220221002000F05B
:1074D00045FB20B1072802D0216801B188476068C8
:1074E000401C606010BD00009830002070B506465A
:1074F0001A481B4A0D46801AC0080978032202EB7D
:10750000004459B1012922D0022926D1204615A1D3
:1075100002F048FDBDE8704004F08EBC204615A185
:1075200002F040FD698805F10E02304600F044F893
:1075300008B1FFF7DFFB304600F04AF908B1FFF76A
:10754000D9FB2046BDE870400FA102F02BBDA989F0
:10755000A868BDE8704000F071B970BD68D5020040
:10756000F0D40200446973636F6E6E656374656482
:107570002E000000446973636F7665727920636F33
:107580006D706C6574652E00436F6E6E6563746517
:107590006420746F20646576696365207769746818
:1075A000204E6F72646963205541525420536572B6
:1075B000766963652E00000050B141802AB153887E
:1075C000C3801388838092880281406901F0C4BD22
:1075D0000E20704730B5144B0D4604000FCB85B01C
:1075E0008DE80F001ED0EDB1A868D8B121466846DD
:1075F00062DF002814D120788DF812000120ADF848
:1076000010004FF6FF7060802868E06068682061B5
:107610000020A0802081A868606104A8FFF72AFEEE
:1076200005B030BD0E20FBE7BCC8020030B50246F5
:1076300085B008002DD0002A2BD041884FF6FF746A
:10764000A14226D09388994223D11588112D14D0B8
:10765000392D1ED1818800291BD053898B4218D126
:10766000C168002915D001218DF8001002F1100128
:107670000291D189ADF80C1008E08B4209D1C168A4
:10768000002906D002218DF800104480C2686946A6
:10769000904705B030BD30B585B00C460546142185
:1076A0006846FEF7FCFE207804F10E01002830D178
:1076B000A08801282DD1A0792A78904229D10022D2
:1076C00017E002EBC20031F81030022B02D0032B7E
:1076D0000ED105E001EB40000089ADF8120007E093
:1076E00001EB40000389ADF80E304089ADF8100081
:1076F000521C207A9042E4D8E868002809D06088BB
:10770000ADF8020000208DF80000EA6869462846BE
:10771000904705B030BD000070B588B015460E46E4
:10772000040012D020216846FEF7B9FE19481A4914
:10773000401AC008022101EB0040F42D07D917A11F
:1077400002F030FC072008B070BD0E20FBE7628815
:10775000A2F57F43FF3B18D0154ACDE90224012052
:107760008DF800002289ADF812208DF81010ADF8C8
:1077700016500022ADF8142006968DF8110062888C
:107780006946606901F020FDDDE70AA102F00AFC0C
:107790000820D8E710D50200F0D40200436F6E74C1
:1077A000656E7420746F6F206C6F6E672E00000022
:1077B000C1870200436F6E6E656374696F6E2068E7
:1077C000616E646C6520696E76616C69642E000080
:1077D00010B58AB058B34188A1F57F42FF3A28D04E
:1077E000C18831B3044620216846FEF758FE0121C6
:1077F0008DF8201000208DF821000F4ACDE90224D9
:107800008DF80010E288ADF812200222ADF81620A3
:10781000ADF814008DF8101008A88DF8111006901E
:1078200062886946606901F0CFFC0AB010BD0E2085
:10783000FBE70820F9E70000C18702002DE9F041CD
:107840000E4605461C481D490024401AC008012167
:1078500001EB00480FE0285DFFF77CFB070009D033
:10786000112FF8D04046224615A102F09FFB384662
:10787000FFF740FA641CB442EDD3A81910F8010CCC
:107880000D2804D10A20FFF765FB1128FAD03246F3
:1078900029461548FFF740FF04000BD0112CF6D005
:1078A0004046224611A102F081FB2046BDE8F0418E
:1078B000FFF720BABDE8F08168D50200F0D40200DD
:1078C0006170705F756172745F7075742066616954
:1078D0006C656420666F7220696E6465782030780C
:1078E000253034782E000000BC3400204661696CDD
:1078F00065642073656E64696E67204E5553206D14
:107900006573736167652E204572726F72203078DF
:1079100025782E20000000000149085C7047000017
:10792000E0C702000649095C4FF0A040D0F81005FE
:10793000C84010F0010000D0012080F00100704725
:10794000E0C702002DE9FC410646C0074FF00005E4
:107950000ED0104F00240122385D009500231146FF
:10796000019502F079F8641C042CF4D300F044F87B
:10797000B0070DD5074E0024361D0022305D0323CD
:1079800000951146019502F067F8641C042CF4D3AD
:10799000BDE8FC81DCC7020007490B5C4FF0A04149
:1079A000D1F804250120984020EA0203C1F80835E7
:1079B0001040C1F80C057047DCC702000249085CA2
:1079C000002102F0EEB80000DCC702000249085CAA
:1079D000012102F0E6B80000DCC702000549095C9D
:1079E0004FF0A040D0F80405C84010F0010000D0CE
:1079F00001207047DCC7020010B500242046FFF7C5
:107A0000DDFF641C042CF9D310BD10B50024204602
:107A1000FFF7DCFF641C042CF9D310BD10B502463F
:107A2000064B4FF0FF3000215C5C944201D10846C8
:107A300010BD491C0429F7D310BD0000E0C70200A7
:107A400070B50C4E0C004FF0000530600BD00120DB
:107A500000F06AF808B1022004E0002000F064F8A9
:107A600000B10B202070706810B9FFF790F8054640
:107A7000284670BD9830002010B5002000F0CAF9EB
:107A800008B1062806D1012000F0C4F908B1062883
:107A900000D1002010BD00002DE9F0470D468146C1
:107AA000FFF7BCFF0446042836D2DFF874801B4879
:107AB0001C4EA8F10C0725B3012D0ED0022D2BD1A1
:107AC00004EB440030444578002D25D0B9680029E6
:107AD00022D02846BDE8F047084704EB4401755C16
:107AE0000E44717849B10E4A4FF48041093A8068DA
:107AF000FFF778F908B987F80390B17808F804100F
:107B0000E2E78068FFF798F904EB4401314418F884
:107B100004008D78A842D7D0BDE8F087E4C7020002
:107B200034300020D0360020042801D2FFF7FABEFE
:107B300000207047042804D00A280CD1002002F04D
:107B4000F3BB05481321408876DF082803D00028BE
:107B500001D0FFF7CFB87047BC34002070B50023C8
:107B6000042810D20D4D00EB4004012A02D1012956
:107B70000CD00022094E00EB4000304461B10129D5
:107B800006D0022906D00723184670BD0E30C2B2B7
:107B90002A55F9E74270F7E78270F5E7D036002002
:107BA000044A014600201279D20702D0084600F0AC
:107BB0004DB870472830002070B506461E48002496
:107BC000C0E90161B00720D50025012211462846F1
:107BD000FFF7C4FF6D1C0446042D02D2002CF4D024
:107BE00013E094B940F2333204211448FFF700F84F
:107BF00004000AD1FEF7EAFF040006D10F48104A3C
:107C00000021001FFFF7B0F80446F00712D0012052
:107C1000FFF798FE74B909480A4A00210C38FFF7AB
:107C2000A3F8040006D10548074A01210838FFF7E8
:107C30009BF80446204670BD28300020F0C70200A3
:107C4000217F0200618B0200C56B02002DE9F05F0D
:107C50006E4C054600266078B34618B184F801B032
:107C600000F066FF6A4F4FF47A694FF4C87A4FF01C
:107C70000108182D69D2DFE805F00C1313384754BA
:107C8000696E727B727BC58484848484B3B6B9BC0C
:107C9000C5C500F04DFF3868FFF7CEF806465CE03A
:107CA0000020FFF79BFE00284FF0000008D0FFF7F0
:107CB00085FE022D02D14FF4E16008E0484606E05F
:107CC000FFF784FE022D01D1C82000E05046410C90
:107CD000C0034FF47A72801841F100012570520000
:107CE0000023FEF77FFB01462AE00020FFF776FE27
:107CF00000284FF0000004D0FFF760FE4FF44870FA
:107D0000E5E7FFF763FEDFE70020FFF767FE0028E7
:107D10004FF0000002D0FFF751FECFE7FFF756FE0D
:107D2000D4E70020FFF75AFE00284FF0000002D0F1
:107D3000FFF744FE01E0FFF749FE257040F6CD4114
:107D400000223868FFF74EF8064646E00020FFF7AD
:107D500023FE257008E0002051E025703DE084F806
:107D600001800120FFF718FE002240F26661E8E77B
:107D700084F801800120FFF70FFE00224FF400512C
:107D8000DFE77868FFF758F80646D5F1110000D014
:107D90002EB10220FFF712FE84F802B01DE0012888
:107DA00016D980B2C8214843C117C90341EA5041DE
:107DB000C0034FF47A72801841F100015200002391
:107DC000FEF710FB014600227868FFF70BF8064625
:107DD0000220FFF7FBFD84F802803046BDE8F09FEB
:107DE00000F0A6FEB9E700F0A3FEB4E700F0A0FEA5
:107DF00004E000F09DFE0020FFF7E8FD0120FFF702
:107E0000E5FDAAE7FFF701FEA7E700002830002004
:107E1000E4C70200012104F0ABBC00002DE9F84FDB
:107E20000546861C00208DF8000091460F464FF055
:107E3000010A6846FFF7B8F81B4C04F21C4860685A
:107E40003860D4E90101194F401A3968081A0EE068
:107E50000121404601F045F800F09AFE01464046F7
:107E600001F03FF8D4E90101401A3968081A401CB2
:107E70008642EDD8B9F1000F03D0052065F38910D3
:107E800002E0062065F39F5061683A68114004EBF8
:107E90008101C8606068304460609DF80000FFF7B1
:107EA000A7F85046BDE8F88FFC3900206C3100205F
:107EB00070B50D4604460A2902D10D21FFF7F8FFDF
:107EC000A0682268411CA1601554D4E901018142D7
:107ED00004D32046BDE8704001F0C5BC70BD000071
:107EE000044881684068814201D101207047002028
:107EF00070470000FC390020034630B507480021D8
:107F00000478426806E000BF02EBC10005789D429C
:107F100003D0491CA142F7DB002030BDD030002047
:107F200000780221FFF7B8BD05494FF0FF3208285D
:107F300041F8202002D3084480F848207047000010
:107F400008370020F0B54FF0FF3512B100230826A6
:107F500001E008230C260C4C05E000BF54F8237008
:107F60007F1C04D05B1CB342F8D32846F0BD261812
:107F70005DB286F8305044F82310002AF5D1E1189C
:107F800081F84800F1E70000083700200249084462
:107F900090F93000704700000837002030B589B0F4
:107FA0000D46044620216846FEF779FA94F8C60289
:107FB000002300EB8001C1EB801094F8C51204EBA4
:107FC000400041B1491EC9B201EBC10100EB4101C2
:107FD000498A491C00E0C188008961F30F0360F3FE
:107FE0001F4303208DF800000548CDE90204054831
:107FF00004932A466946806801F0E6F809B030BD6E
:1080000035830200A030002070B5084C050009D06F
:1080100010342168002907D0086820604968284684
:108020008847F6E70834F4E770BD0000F436002016
:10803000054A012120B1012805D19170FFF7E4BF65
:1080400051700020FAE77047F436002010B5D0E9EF
:108050000234D1E90220D11AA04101D3012010BD80
:10806000002010BD10B502460020138806E05468B9
:1080700034F810408C4203D0401C80B28342F6D8C2
:1080800010BD000070B588B006460020059006902F
:10809000ADF81410ADF816100190029001AA05A9D0
:1080A000304690DF050021D002F078FC03461148ED
:1080B00011493246401AC108012000EB0140044634
:1080C0000E4901F07AFFBDF8042012B9BDF8060090
:1080D00028B1BDF80630204609A101F06EFFBDF8B9
:1080E00008201AB12046164901F060FF08B0284662
:1080F00070BD0000F8D40200F0D40200DCCC020015
:108100005468652072657175657374656420545890
:108110002F5258207061636B6574206C656E6774B4
:108120006820697320746F6F206C6F6E67206279AE
:108130002025752F2575206F63746574732E0000DC
:1081400028CD020001460148FFF7A5BABC34002043
:108150002DE9F04389B00F46054691462021684637
:10816000FEF79DF995F8C60295F8C54200EB80012F
:10817000C1EB801005EB400604EBC40006EB4001A8
:108180003279601C0A31904232D108AB0022284675
:1081900000F09CFC78B310E0401EA04201D100200A
:1081A00004E004EBC40006EB40001C3080460246AD
:1081B00008AB284600F08AFC90B1002038700420FB
:1081C0008DF8000008984A46CDE903500C4802900B
:1081D0000C486946806800F0F7FF09B0BDE8F083FD
:1081E00095F8C5024146401C641C85F8C502E4B2FE
:1081F0003079A042D0D8012038700020EDE700008F
:1082000035830200A030002070B500240F4D10E02F
:10821000686800EBC406307802F0EAFC7178012946
:1082200001D0012100E000214140307800F034FA13
:10823000641C28788442EBDBD5E90401084303D0B1
:10824000BDE8704004F026B870BD0000D0300020BA
:1082500030B59FB00C4605467C216846FEF71FF9F5
:10826000ADF8024003208DF80000044801954168F4
:10827000002901D0684688471FB030BDA0300020DB
:108280002DE9F041044690F8C602884600EB8001D3
:10829000C1EB801004EB40061746304603F0BEFBEE
:1082A000050042D0D4F8CC0206283ED204EBC01020
:1082B0007622A0F8D272D4F8CC02314604EBC0107A
:1082C00000F53570FEF7D2F80026B8F1000F06D0A1
:1082D000D4F8CC0204EBC01080F8D06206E0D4F8E9
:1082E000CC12022004EBC11181F8D002D4F8CC02E8
:1082F00004EBC010C0F84C53D4F8CC020C4D401C19
:10830000C4F8CC02E96888420FD12746002407E070
:1083100007EBC41101F53470D1F84C138847641C85
:10832000E8688442F4D3C7F8CC62BDE8F08100006D
:10833000A0300020F0B515469FB0002281F8C82279
:10834000074691F8C6020C4600EB8002C2EB801093
:1083500001EB400003F062FB060009D07C220849D3
:108360006846FEF783F8ADF8025068460197B047BB
:108370001FB029462046BDE8F040FFF769BF000066
:1083800010C80200F0B50D4689B004464FF4BA613A
:10839000FEF785F820216846FEF781F8154E29463C
:1083A000B06800F0D9FE002821D1A4F8CA52C4F860
:1083B000CC0284F8C70284F8C60284F8C5020E48CD
:1083C00001272A460068206002208DF80000ADF8E1
:1083D00010702068CDF812000848CDE90204694603
:1083E000B06800F0F1FE002801D184F8C87209B02D
:1083F000F0BD0000A0300020DC36002035830200F4
:1084000010B50021024800F077FD80F3100010BD88
:10841000183E00204FF480328A400168C1F848239A
:108420000068C0F8082370474FF4A07202EB810186
:1084300089B200F0A1B92DE9F04105460E464FF48E
:10844000A07000EB860081B228684FF48034B440FD
:10845000984622F07F47C0F808432868C0F8484390
:10846000286802F04CF8286800EB8600C0F84075D8
:108470002868C0F84443B8F1000F02D02868C0F85B
:108480000443BDE8F0810068D0F80405704700009F
:1084900070B54379234C44F823204279231D03EB24
:1084A000C202224C1579204A121BD4082DB108258E
:1084B000022000EB04401EA130E005680A88C5F8E0
:1084C000082590F904208978002A4FEA411104DB3D
:1084D00002F1E02282F8001405E002F00F0202F13E
:1084E000E02282F8141D90F904100122002909DB12
:1084F00001F01F0502FA05F54909890001F1E021A3
:10850000C1F800514179002503EBC1010A7141799D
:1085100043F83100032000EB04400EA101F042FDBE
:10852000284670BD4831002050D50200F0D402002A
:1085300052544320696E7374616E636520616C727E
:108540006561647920696E697469616C697A6564D2
:108550002E0000005254433A20696E697469616CC0
:10856000697A65642E00000090F90400002809DB98
:1085700000F01F02012191404009800000F1E0203D
:10858000C0F8001270470A46022100F07BB84FF491
:10859000827100F0F1B80068012101607047006845
:1085A0000121416070472DE9F05F07460C464FF40A
:1085B000A07000EB84001FFA80FA38684FF4803610
:1085C000A6409B4622F07F45C0F848633868C0F853
:1085D00008633868D0F8048500EB8402D2F840952F
:1085E000C2F840855146386801F089FFA9EB0800C0
:1085F00020F07F40012806D1102002F03BFA5146BE
:10860000386801F07CFF3868D0F80485C0F844630E
:10861000A5EB080121F07F413868012900EB8400B7
:1086200010D0C0F840553868D0F804156FF07F4C72
:108630006A1A521E22F07F42ACEB0B03934217D30F
:1086400062B118E06D1CC0F84055102002F012FA1B
:108650003868D0F8040540450AD10CE000EB8400EE
:108660006D1CC0F840553868D0F80405884202D027
:108670000D20BDE8F09F01223146384600F002F897
:108680000020F6E70368C3F84413002A02D000680C
:10869000C0F80413704700002DE9F84F0E46344926
:1086A000804601EB5001C007097801D00F0901E0B5
:1086B00001F00F074FF00009424601204946FDF73F
:1086C000C2FEDFF8B0A004460D46052F4ED2DFE80B
:1086D00007F003161B282C00002E47D0012140462E
:1086E00003F0CCFC8DF800906846FEF75DFC504628
:1086F000D0E904120C431543CAE9044532E00EB137
:10870000022114E0002112E04EB10321404603F0A3
:10871000B5FC4046BDE8F84F012104F019B801212D
:1087200005E0002E22D1042101E02EB103214046B4
:10873000BDE8F84F03F0A2BC0021404603F09EFCC8
:108740000021404604F004F88DF800906846FEF7DA
:108750002BFC5046E243D0E904341A4024EA0501D8
:10876000CAE904219DF80000FEF742FCBDE8F88F3D
:10877000B4370020D030002010B5006842581AB13C
:1087800001F0BDFE012010BD002010BD826883886D
:108790001A4003689A5C0A708168491C81607047BE
:1087A000C26883881A4003689954C168491CC16033
:1087B000704710B50446C0B2FEF7CCFB204610BD92
:1087C0000969002900D008477047000070B5088883
:1087D0000D46A0F52061773916D10C480C49401A96
:1087E000C108032000EB01440AA1204601F0DAFB96
:1087F000A88810A1C01E82B20D48134602802046F0
:10880000BDE8704001F0D9BB70BD000068D5020022
:10881000F0D40200415454204D54552065786368CB
:10882000616E676520636F6D706C657465642E00A2
:10883000282A0020426C65204E5553206D61782017
:1088400064617461206C656E677468207365742060
:10885000746F2030782558282564290010B50949FF
:10886000094800F0C0FB08B1FEF744FAF7210648BA
:1088700000F0ADFB002803D0BDE81040FEF73ABA87
:1088800010BD0000CD870200D434002070B50D4625
:1088900001F11004C98A102901D9092070BD01F025
:1088A0009EFC686030B1E2880023A16801F0FDFC05
:1088B000002070BD042070BD70B50D4601F110049C
:1088C00089690988102901D9092070BD891C01F026
:1088D00086FC686068B100230222A16801F0E5FC13
:1088E000A068E16802230288686801F0DEFC0020CD
:1088F00070BD042070BD000010B50B48FFF7C3FD2C
:10890000094A083AD2E90434C018D2E9063244F1DF
:108910000001C31A71EB020204D24FF0807280187A
:1089200041F1000110BD00001031002010B5C0B2AF
:10893000FFF7E2FA0446007802F05AF9014660783F
:10894000012801D0012000E0002090EA010F08D0AA
:108950000449D1E90401084303D1BDE8104003F004
:1089600099BC10BDD03000202DE9FC5F0E0083467D
:10897000DDE90C47C6F1000098469246814600D4D6
:108980000846012503E000BF90FBFAF06D1C50453E
:10899000FADAA84500D9454624B1002E01DB780754
:1089A00000D5641EB80702D5B8F1000F0AD0F80749
:1089B00008D13CB1A54205D220215846641EFFF7DC
:1089C00077FAF6E7002E02DA4E462D2102E078070C
:1089D00003D52B215846FFF76BFA07F00300022856
:1089E0000BD1B8F1000F08D13CB1A54205D230211E
:1089F0005846641EFFF75CFAF6E7CDE900474346A8
:108A000052463146584603F049FEBDE8FC9F00003F
:108A100070B50D46044600684FF4887101F0DEFF22
:108A20004FF49071206801F0D9FF4FF492712068E3
:108A300001F0D4FF4FF4A271206801F0CFFF4FF492
:108A4000AC71206801F0CAFF20681249C0F8041315
:108A50002068690740F30730090E002804DB00F1A5
:108A6000E02080F8001405E000F00F0000F1E020A5
:108A700080F8141D206840F30730002809DB00F05F
:108A80001F02012191404009800000F1E020C0F860
:108A9000001170BD10034200024600201268530707
:108AA00013D502F00300012802D002280CD105E002
:108AB000C2F383100B68801C184404E0022308688A
:108AC00003EB9252104408600120704710B50989E9
:108AD0002AB1D088491C814218D1002010BD90F8DD
:108AE000C62202EB8204C4EB821200EB420212891E
:108AF0009142F2D0491C198090F8C61201EB810214
:108B0000C2EB811100EB4100008902E01980D0889E
:108B1000401E5880012010BD90F83600C0F3C100FF
:108B2000012803D0032801D000207047012070479E
:108B30000A4810B5807860B1002401E0022C06D00C
:108B40002046FEF73BFF641C042CF7D310BD032422
:108B5000F6E7BDE81040FEF74FBF000028300020C8
:108B600003480179C90702D00078FFF76FB8704752
:108B700028300020F7210180172141800021017158
:108B80004171FB2181711B21C17170477047000049
:108B90002DE9FF410026244800F0A0F92248001FDB
:108BA000074600F09BF9214C2149A06800900D6810
:108BB00000E000986946284004EB80000C30FFF785
:108BC0006BFF0028F5D101AA009901EA050304EB27
:108BD0008303491CDB6842F82030401C00910228C6
:108BE000F2D3019800F0030001280BD0022810D125
:108BF0000198032101EB90500099BDF80A6001EB48
:108C0000900005E00198BDF80A60C0F383100844A5
:108C10000090384600F05FF908B10098A06004B0F9
:108C20003046BDE8F0810000143E0020FC390020F1
:108C30006C3100208AB04FF48041002001F034FAFA
:108C400008B1FEF757F801F083F8FEF79DF808B178
:108C5000FEF750F8182236496846FDF707FC3548FC
:108C6000069035494FF48070CDE90701099007233C
:108C7000324A06A96846FEF71BF908B1FEF73AF832
:108C80002F490120FEF798FF08B1FEF733F8694637
:108C90000020FEF7D5FE08B1FEF72CF82A4C294833
:108CA000CDE9000400256846FEF704FB08B1FEF795
:108CB00021F801F003FB08B1FEF71CF801F090FD6C
:108CC00008B1FEF717F869460120009501F028FC6D
:108CD00008B1FEF70FF8684601F0BAFC08B1FEF7DC
:108CE00009F8FFF7BBFD194800901948CDE90104C8
:108CF00069461848FEF76EFC08B1FDF7FBFF03F06C
:108D000061F815A0FDF708FF1C481D49401AC0086E
:108D1000032101EB00401BA101F044F903F08CF8A2
:108D200001F024F80028FBD101F0DCFAF8E700009C
:108D3000C4C70200BC320020BC33002001C30200C3
:108D4000357B020045810200FC2F0020ED740200FB
:108D5000B9B10200BC340020424C45205541525468
:108D60002063656E7472616C206578616D706C65EE
:108D700020737461727465642E0D0A0068D5020058
:108D8000F0D40200424C4520554152542063656E98
:108D90007472616C206578616D706C6520737461AC
:108DA000727465642E0000002DE9F047C5881E1D11
:108DB000B6FBF5F78946B6FBF5F1044605FB176CE3
:108DC000407916686843DDF820A0F718001F874235
:108DD00000D9C61A166001E02468491E0029FBD19B
:108DE000A5EB0C078846B74216D818E004EB0C0038
:108DF000001D09EB0803BAF1000F3A4602D0014604
:108E0000184600E01946FDF731FB2468F61B4FF0C9
:108E1000000CB844B54201D9374600E02F46002E79
:108E2000E4D1BDE8F087000030B5024651B101F051
:108E30004FF90021074C08E034F821301568AB42A7
:108E400002D11160002030BD491C8142F4D30520BD
:108E500030BD00000000000010B531B1B2FBF3F4EA
:108E600003FB14241CB1092010BD0E2010BD0160AD
:108E70000021416081608281C381084610BD70B5C8
:108E80000C460546FDF7C6F9002802D0218828685F
:108E9000084470BD10B50A8849888A4203D1FDF79D
:108EA000FBF9012010BD002010BD70B50C46054631
:108EB000FDF7D5F9002802D061882868084470BD04
:108EC00010B50A8849888A4203D1FDF7BFF901200D
:108ED00010BD002010BD002100F009B8012100F0F4
:108EE00010B808B56A46FDF72CFA009808BD08B519
:108EF0006A46FDF70CFA08BD08B56A46FDF7EEF9BB
:108F000008BD08B56A46FDF7F5F9009808BD08B533
:108F10006A46FDF723FA009808BD38B504460025D7
:108F20008DF800506846FEF73FF8216862680868CF
:108F300090420ED9401E08600178238AE26801FB46
:108F40000325227A2168101AC0B20A79824200D21F
:108F500008719DF80000FEF74BF8284638BD38B57B
:108F6000054600208DF800000C466846FEF71CF808
:108F7000E868298A201AB0FBF1F12A681068431CBE
:108F8000136001709DF80000FEF732F838BD10B58F
:108F900030B1017A42680368891AC9B21A6006E0E2
:108FA0000E2010BD03681A68541C1C601170491E05
:108FB000C9B2F7D2006800210171084610BDC2088D
:108FC00000F007030120895C98400840704728B1F1
:108FD000A1F11702E12A03D3072070470E20704742
:108FE00041800020704710B560B10161F72120F881
:108FF000021B20F8021BFB2100F8021BFFF7BAFD41
:10900000002010BD0E2010BDF0B5858893B00C4631
:10901000002D39D1018800263F4F24293BD006DCA2
:10902000102909D011290CD0232958D14FE03A2911
:109030000BD0552953D129E00146204602F066F9AC
:109040004DE0A01DFFF796FD49E02246408934F827
:10905000061F814200D808466080172800D21720DA
:109060006080106970B1607960B1D7E90001CDE925
:109070000301ADF80E506088ADF81000136903A924
:10908000104698476671267113B0F0BD0146204620
:1090900002F0FEF923E0011D2C2206A8FDF7E6F9F7
:1090A000BDF81800BDF81C2004EBC0014A7322690A
:1090B000AAB1D7E90423CDE90423ADF81200487B17
:1090C0008DF814002269204604A9904707E0017A30
:1090D000207B884200D201462846FEF7D3FFA07AC3
:1090E0000028D1D0E1882846A5DF012580B11128CC
:1090F000CAD001F053FC02460848094913B0401A8F
:10910000C00805EB0040BDE8F04006A100F04EBFEE
:10911000A672E572B8E700008CC80200F8D402001D
:10912000F0D4020073645F626C655F67617474639E
:109130005F65786368616E67655F6D74755F7265A2
:10914000717565737428292072657475726E656413
:109150002025732E000000002DE9F0410F46040089
:109160004FF000050DD002F02DFC39462046FEF7E9
:1091700079FF218881421ED1002005464FF6FF76F7
:1091800009E00E20BDE8F081626832F81020B2429A
:1091900006D1401C80B28142F6D8206901F06CF8FB
:1091A000002021880BE0626832F81020B24204D11E
:1091B000616821F810702846E4E7401C80B28142C3
:1091C000F1D80420DEE700002DE9F04791460D4676
:1091D00004004FF0000742D0EDB302F0F3FB494624
:1091E0002046FEF73FFF2978062902D221888142D6
:1091F00002D10720BDE8F087A16800EB800601EBF3
:10920000860001F0F6F830B14946284602F046FCE7
:1092100008B13846EEE72978DFF8488058F8212071
:109220002AB12069B8B1294690470028E2D1A06848
:10923000294600EB860001F0FBF8070006D02978EC
:1092400058F8210010B1686800F0F9FFA06849469D
:1092500000EB860000E002E002F01CFBD9E70E20E4
:10926000C8E70000A4C80200F8B505000C4620D0ED
:10927000002C1ED02888112806D0A0F130011F290B
:1092800002D950381F2814D8AE8820463146FEF740
:10929000E9FEADF80000218881420AD02988112911
:1092A00008D0A16800EB800001EB8000314602F09D
:1092B000F1FAF8BD62684FF6FF7122F810106946A6
:1092C000E06801F0B5F8F8BD2DE9F041044600F181
:1092D000360700F12C0590F8346090F82A0086B02B
:1092E00001F10208002814D08BDF14216846FDF735
:1092F000D6F833462A46394640468CDF05218DF89C
:1093000000100190002804D0616C002901D068464B
:10931000884706B0BDE8F0814FF4C8714186062148
:1093200081851821C18500210186704710F8361FFC
:10933000A02242805022828021F018010022C280A7
:1093400041F0040101700121417070472DE9F041A5
:1093500040B13AB10025042631B103292ED00720AF
:10936000BDE8F0810E20FBE7074600F1200490469F
:109370001046FDF79FF810F0FF0001D0202801D91A
:109380000C20EDE72078F0B95FF0000607EB4610FF
:109390004146FDF796F8F8B1761C16F0FF06F5D0B9
:1093A0004046FDF787F802462078414607EB401318
:1093B000401C20701846FDF759F80DE000F122041A
:1093C00010F8263F0BB13046CAE7B2F80060002122
:1093D00034F82170B74201D12846C1E7491C11F089
:1093E000FF01F5D004EB83015B1C0370106808607B
:1093F000F2E730B121220021115480F827100846ED
:1094000070470E20704730B515460B46040002D059
:10941000980702D009E00E2030BD580705D4D806C1
:1094200003D4180701D4072030BD2046FFF7E1FF21
:10943000D9074FF0010001D084F82100590701D568
:1094400084F8270084F82850002030BD70B50D4600
:10945000040012D02A216264FDF721F8EDB12879C9
:1094600084F82A00287B84F83400296839B10E2258
:1094700004F13600FCF7FAFF04E00E2070BD204630
:10948000FFF754FFA86820B10168E16240682063DB
:109490000CE02046FFF740FF08E02046FFF746FFBC
:1094A0002046FFF739FF002084F82A0004F1480025
:1094B000A0661F20A4F86C00002070BD2DE9F04FBD
:1094C00093B00E4604464FF000084546142106A806
:1094D000FCF7E5FF04F136000A902046FFF71CFB7D
:1094E000010004F16800109010D002208DF81800DF
:1094F0000796616C06A88847002010998ADF3146DC
:109500002046FFF7E1FE13B0BDE8F08F94F8280085
:10951000049094F8210094F827B04FF0000AE0B1CD
:1095200094F82090B08B4FF0010800270C9012E0C7
:1095300004EB4712B0690C99FDF7FCFD48B19DF8AA
:1095400020004FF0010A40F001008DF820006D1C52
:1095500003E07F1CFFB24F45EAD3BBF1000F36D0CA
:1095600004F122000F9094F82800119094F826B08E
:109570004FF00009B08B08F101084F460E9012E041
:109580000F980E9900EB8702B069FDF718FE30B115
:1095900009F1010000F0FF09119858B101E011989C
:1095A00028B97F1CFFB25F45EAD3119810B1D945A5
:1095B00003D00CE0B9F1000F09D09DF820006D1C1C
:1095C00040F00400EDB28DF820004FF0010A04983D
:1095D000079608B1454503D004993AEA010007D03F
:1095E00000208DF8180031462046FFF76DFE02E09E
:1095F00003208DF81800616C09B106A88847002087
:1096000010998ADF7FE770B50D46014601F1080227
:109610000C1D28460988363586B010291ED01B2916
:1096200007D01D292DD106B01146BDE87040FFF7C7
:1096300045BF064614216846241DFCF730FF2078FC
:1096400001281ED1706C00281BD004208DF800006A
:10965000049520788DF80400716C10E00646142102
:109660006846FCF71CFF06208DF80000201D0190C5
:109670002088ADF808000495716C002901D0684677
:10968000884706B070BD000030B585B0040025D015
:1096900014216846FCF703FF8BDF2046FFF73CFAF6
:1096A000012528B1616C19B18DF8005068468847D2
:1096B00004F1680104F136008ADF044608280FD05F
:1096C00074B1084808492246401AC00805EB00401A
:1096D00006A100F06BFC204605B030BD0E20FBE774
:1096E0000020F9E708D50200F0D4020073645F623D
:1096F0006C655F6761705F7363616E5F73746172E5
:10970000742072657475726E6564203078257800F7
:1097100000F180400068002800D00120704708B5A3
:1097200000F18040002101600068009008BD000049
:1097300070B50D4C0125207808B185260EE000207B
:10974000A06060602061E060084801F06BF90646A7
:1097500001F092F808B901F04FF9257001F044F9D1
:1097600000B1A570304670BDF43600203180020093
:1097700038B500258DF800506846FDF715FC084CFB
:10978000E068401EE060E06828B901F02DF910B9EA
:1097900001F058F9A5709DF80000FDF729FC38BDCF
:1097A000F4360020F0B505460478154889B0164611
:1097B00040F82420124A0869121DA2F1080742F855
:1097C0002400487F385520226846FCF74FFE049459
:1097D0002878385C48B10EB10A4A00E00022694698
:1097E000281D01F0CDFB09B0F0BD0EB1064A00E026
:1097F0000022694605F10C0001F076FAF3E700005B
:10980000B430002059C50200FDC3020030B4037813
:10981000054CE35C1BB130BC001D01F0E7BB30BC64
:109820000C3001F0CBBA0000B030002030B4037827
:10983000054CE35C1BB130BC001D01F059BC30BCD1
:109840000C3001F031BB0000B03000200FB408B57F
:109850000399002904D004AA00926A4600F00FF888
:1098600001B05DF814FB10B582680446002A05D0EB
:10987000D4E90403216898470020A06010BD2DE9B9
:10988000FC4791460C00804676D014F8011B39B194
:1098900025290ED04046FEF70BFB20780028F4D196
:1098A00098F80C00002867D04046BDE8FC47FFF759
:1098B000DABF0020012221782B291BD02D2902D0CC
:1098C000302908D102E040F0010001E040F0020040
:1098D000641C002AEFD100252A290ED02178A1F19D
:1098E00030020A2A11D205EB850201EB4205641C05
:1098F000303DF1E740F00400EAE7D9F800100B1D15
:10990000C9F800300968641C0D44217800232E2911
:109910000BD114F8011FA1F130020A2A05D203EB82
:10992000830201EB4203303BF3E76C290DD0682939
:109930000BD0692921D00BDC252918D0582931D02A
:1099400063290ED0642915D117E014F8011FECE744
:10995000702969D0732932D075291BD0782909D193
:1099600020E0D9F80000011DC9F800100178404638
:10997000FEF79EFA641C90E76CE0D9F800100A1D0F
:10998000C9F800200968CDE900500A224046FEF7D8
:10999000EBFFEFE7D9F800100A1DC9F800200968AD
:1099A0000A2206E0D9F800100A1DC9F8002009684B
:1099B0001022CDE90050404602F070FEDAE7D9F8F7
:1099C000001000270A1DC9F800200E68C00705D145
:1099D00012E04046761C7F1CFEF76AFA31780029B7
:1099E000F7D104E0202140466D1EFEF761FABD422A
:1099F000C0D9002DF6D1BDE74EB13046FCF75AFD77
:109A0000074604E0202140466D1EFEF751FABD4294
:109A100006D9002DF6D103E04046761CFEF748FA41
:109A200031780029F8D1A5E7D9F80000011DC9F85F
:109A30000010056830214046FEF73AFA782140468A
:109A4000FEF736FA08200021CDE900010346102276
:109A50002946B0E7BDE8FC8770B541EA4201DDE97F
:109A600004564FF0A04441EA830141EA052104EB8A
:109A7000800041EA0641C0F8001770BD70B541EAA8
:109A80004201DDE904564FF0A04441EA830141EA76
:109A9000052104EB800041EA0641C0F8001770BDC3
:109AA00070B541EA4201DDE904564FF0A04441EAB5
:109AB000830141EA052104EB800041EA0641C0F838
:109AC000001770BD70B541EA4201DDE904564FF060
:109AD000A04441EA830141EA052104EB800041EA08
:109AE0000641C0F8001770BD1CB500220B4600925D
:109AF00011460192FFF7D4FF1CBD1CB500220B4696
:109B0000009211460192FFF7DDFF1CBD1CB500213C
:109B100000910B46012201911146FFF7C1FF1CBDC8
:109B20001CB5002100910B46012201911146FFF75F
:109B3000C9FF1CBD4FF0A04202EB8000D0F8002707
:109B400022F44032C0F80027D0F8002742EA014151
:109B5000C0F800177047000038B5094B44181B685F
:109B600000936B4608E000BF53F82010D1F8205551
:109B700020C2C1F82055401C8442F5D838BD0000F1
:109B8000CCC8020042094FF0000100D1491E00F08C
:109B90001F00012282400A4201D0012070470020AC
:109BA000704701224FF0A043824011B1C3F808254D
:109BB0007047C3F80C257047034908B508440021D5
:109BC00001600068009008BD0060004002494058F4
:109BD000012800D0002070470060004030B5154AD1
:109BE00001460020D2F8104423460AE0DB681D79C4
:109BF000854205D1401C0A28F6DB4FF0FF3030BD0E
:109C00001B68002BF2D1431CF9D0CB681871D2F835
:109C1000103443B1DB68CC681B682360D2F8102491
:109C2000D268116030BDC2F81014C96800220A6001
:109C300030BD0000FC3900207047FCF73BBD704789
:109C400008B5034A00924023024A00F005F808BD17
:109C500015BF020064380020F0B595B01C461546CB
:109C60000F4608461A9E00F003FB182109A8FCF7CE
:109C700016FC0E96CDE909540023082203A93846A4
:109C800000F00BFB05980690BDF81000ADF81C0025
:109C9000BDF81200ADF81E0000208DF821000398D9
:109CA000082600F00300012802D0022818D032E074
:109CB00003983346850AC0F3C2008DF8200003984C
:109CC0000FA9C0F38314A200384600F0E6FA09A8F1
:109CD000009006AB22460FA9284600F025FA1AE0AC
:109CE0000398840DC0F3C2008DF82000082C01D227
:109CF000254600E0082533462A460FA9384600F0DD
:109D0000CCFA2E44641B09AB06AA29460FA800F022
:109D100073F9002CEAD1384600F0B0FA15B0F0BD66
:109D20000A4A012902EBC00007D0022907D0032903
:109D300007D0042907D00020704702207047042074
:109D4000704700797047407970470000F0D40200F6
:109D500010B5FFF772FF04210348FFF73FFF0249E8
:109D60000120C968487110BDE0D402002DE9F04F10
:109D70008DB0FEF7B5F818B100200DB0BDE8F08F3A
:109D80007E4C4FF0000BC4F818B4BFF34F8F7C49E2
:109D9000A06802900D68D846284004EB80000BE0D4
:109DA000D4F8180470B961680298814201D8A160A2
:109DB000E2E7284004EB80000C3002A9FEF76CFEBD
:109DC0000028EDD1002005AA029901EA050304EB61
:109DD0008303491CDB6842F82030401C02910228B2
:109DE000F2D3059800F00300022802D001284DD0DC
:109DF000AAE005985022810D8946B2EB905F00D809
:109E000050210E4666F39F50059008315D4800F0E2
:109E1000E6F9070078D000F02BFA4346082205A99E
:109E2000384600F042FA029908F1080A2940681AF7
:109E30008000001D864222D9504D0C3530B1C2B28F
:109E400004EB8101301A90460C3104E02946F2B24D
:109E5000002590462846C6B25346384600F025FAFB
:109E60000AEB080325B132462946384600F01DFAB0
:109E7000029909F1030001EB900002903BE004EB32
:109E800081015346324638460C31EFE70598C0F35E
:109E90008310062800D30620059960F38911C1F3C9
:109EA0008310801C05918100364800F098F9070066
:109EB0004AD000F0DDF94346082205A9384600F0F3
:109EC000F4F908F1080800260FE00298434600EA7A
:109ED0000501401C04EB81010290042238460C313C
:109EE00000F0E3F908F10408761C0598C0F383102C
:109EF000B042EAD847B1D4F81054D4F8180478B175
:109F0000384600F0BBF934E01EE0E86840790128EB
:109F100004D12A682846394612689047E8680568DF
:109F2000002DF2D1384600F0A9F98DF800B068464E
:109F3000FDF73AF8D4F8180408B90298A0609DF823
:109F40000000FDF755F814E0D4F8104405E021684E
:109F5000204689688847E0680468002CF7D10A48E1
:109F60000A49401AC008022101EB004008A100F094
:109F700019F8FDF7B5FF80F00100FEE6FC3900207E
:109F80006C3100209CD5020068D50200F0D402009C
:109F90004261636B656E647320666C75736865649B
:109FA0000000000000231A4602F080B808B5012323
:109FB00000926A4602F07AF808BD1CB5CDE900238C
:109FC00002236A4602F072F81CBD3EB5069C8DE87D
:109FD0001C0003236A4602F069F83EBDF0B587B065
:109FE0000DF1300C9CE8F0008DE8FC0006236A4679
:109FF00002F05CF807B0F0BD2DE9F0470E46804650
:10A000001C469246082940D894F80C9000202073F2
:10A010001946104601F0E6FB0025B54206D218F8B5
:10A0200005201BA12046FFF711FC03E01AA12046E2
:10A03000FFF70CFC6D1C082DEFD318A12046FFF78D
:10A0400005FC0025B54212D218F805707E2F08D8FD
:10A05000FCF708FA0068C05D10F03E0F01D03A46E8
:10A0600000E02E220EA12046FFF7F0FB03E00DA139
:10A070002046FFF7EBFB6D1C082DE3D301222146A0
:10A08000504601F091FB84F80C90BDE8F087000089
:10A090002025303278000000202020007C000000C5
:10A0A0002563000020000000064910B5002008705C
:10A0B000054800F0E1F8002803D1044800F011FA47
:10A0C000002010BDFC3900209CD50200B8CA020057
:10A0D00002480349401AC0087047000088D50200B2
:10A0E000F0D4020013B56846FEF79EFE08B10020CA
:10A0F0001CBD0248009950F831001CBDF0D402008C
:10A1000070B508480125D0F81044057007E0E068F4
:10A1100045712168204649688847E0680468002C3A
:10A12000F5D170BDFC3900202DE9FF4781460C9D1B
:10A1300000200C462F7B2873984616462946184661
:10A1400001F050FB072E42D2DFE806F004090F169B
:10A150001F2A360049462846FFF778FB37E0494674
:10A1600028462268FFF772FB31E0D4E90023494614
:10A170002846FFF76BFB2AE0A0680090D4E9002393
:10A1800049462846FFF762FB21E0D4E90201CDE908
:10A190000001D4E9002349462846FFF757FB16E0A3
:10A1A00004F1080007C88DE80700D4E900234946F8
:10A1B0002846FFF74BFB0AE004F108000FC88DE8C2
:10A1C0000F00D4E9002349462846FFF73FFB002251
:10A1D0002946404601F0E8FA2F73BDE8FF872DE9D4
:10A1E000F041058A80462D1F4819C01CB0FBF5F0D0
:10A1F000C6B24046FEF791FE041E19D00020207121
:10A2000001206071E58000272546761EC4F8008095
:10A210000BE04046FEF781FE60B16179491C617137
:10A22000286005467F1CC0F80080B742F1D3204665
:10A23000BDE8F081204600F002F80020F8E72DE9A3
:10A24000F041457901466B1E002201E00968521C6D
:10A250009A42FBD30F680146002605E038460C6899
:10A26000FEF77DFE2146761CAE42F7D3BDE8F081B5
:10A270000121001DFEF735BEFEF789BE10B504466C
:10A280000121001DFEF743FE10F0FF0F04D1204610
:10A29000BDE81040FFF7D3BF10BD1CB501920122ED
:10A2A000009201AAFEF780FD1CBD1CB501920022A0
:10A2B000009201AAFEF778FD1CBD0000064910B50A
:10A2C00000204870091D0860BFF35F8F03490448F0
:10A2D00000F0F6FA002010BD5431002050C90200F1
:10A2E0005838002008B500208DF800006846FCF7BB
:10A2F0005BFEF1EE100A20F09F00E1EE100ABFF3C2
:10A300005F8F08494020C1F880029DF80000FCF7EB
:10A310006FFE00F0B1FA08B141DF08BD20BF40BFB9
:10A3200020BF08BD04E000E070B504460C480121E0
:10A33000FEF7E2FDBFF35F8F0025002809D1012061
:10A34000074E042C08D0311F4A781AB1BFF35F8F33
:10A35000356070BD0C70487001F014FEF6E7000027
:10A36000583100202DE9F8430446002790460E4658
:10A370008DF800706846FCF717FE204600F039F8AB
:10A3800038B105279DF80000FCF732FE3846BDE8DD
:10A39000F88320680568B8F1000F05D101682046F0
:10A3A00000F03FF821680860E268012A0CD0022A18
:10A3B0000ED0042A11D06068082A13D005FB0201D0
:10A3C0003046FCF753F8DDE76068405D3070D9E750
:10A3D000606830F815003080D4E7606850F82500D8
:10A3E0003060CFE700EBC501D1E90001C6E900010B
:10A3F000C8E7016808684968884201D101207047B0
:10A400000020704701680A6849688068884201D95D
:10A41000491C00E00021914201D101207047002039
:10A4200070478068884201D9481C704700207047F7
:10A430002DE9F84304464FF000080E468DF80080E1
:10A440006846FCF7B1FD2046FFF7DCFF07000AD0A5
:10A45000207C40B14FF004089DF80000FCF7C8FDD7
:10A460004046BDE8F8832068456841682046FFF70C
:10A47000D8FF2168486037B1206801682046FFF79F
:10A48000D0FF21680860E268012A14D0022A16D0A1
:10A49000042A19D0082A1CD06068314605FB020046
:10A4A000FBF7E4FF204601F081FA21688A688242C6
:10A4B000D2D28860D0E7616830784855F2E76168A9
:10A4C000308821F81500EDE76168306841F8250013
:10A4D000E8E7D6E90001626802EBC502C2E90001C3
:10A4E000E0E78268002191608268116182685161B1
:10A4F0008268D1608268516080680160704708B5E9
:10A50000002242504058009008BD000020B103498D
:10A5100009680160002070470E2070473CCB0200A4
:10A520002DE9FE4307460E460846FFF7EFFF0028D9
:10A530007CD100250095019506208DF800704FF024
:10A540000108ADF8040002958DF8028069462020CC
:10A55000326869DF3649374A891AC908012202EB95
:10A56000014430B100F01AFA024620463249FFF7A2
:10A570001DFD00958DF801508DF802800195029522
:10A580008DF8038069464020326869DF30B100F001
:10A5900005FA024620462949FFF708FD00958DF887
:10A5A0000070F720ADF8020001950295694623205E
:10A5B000326869DF30B100F0F1F9024620462049E7
:10A5C000FFF7F4FC0095019502958DF8008069462F
:10A5D0000120326869DF30B100F0E0F90246204620
:10A5E0001849FFF7E3FC4FF4B06000900195029525
:10A5F0006946A120326869DF30B100F0CFF9024628
:10A6000020461149FFF7D2FC0095019502958DF87F
:10A6100000506946A020326869DF30B100F0BEF911
:10A62000024620460949FFF7C1FC0020BDE8FE8331
:10A6300078D50200F0D4020014D302005CD30200EB
:10A64000A8D3020074D20200C0D2020020D20200BD
:10A650002DE9F0410546076860DF804619491A4830
:10A660002A68081AC608BA4219D9022000EB064423
:10A6700016A12046FFF796FC20463A461FA12B68FC
:10A68000FFF79BFC4FF08050D0F80C012968800246
:10A6900000F10050421A204625A1FFF787FCB8F1CF
:10A6A00000004FF001040AD000F078F9024604EBF4
:10A6B00006402AA1FFF77AFC4046BDE8F0812F480A
:10A6C0000470F9E778D50200F0D40200496E737582
:10A6D0006666696369656E742052414D20616C6CD9
:10A6E0006F636174656420666F72207468652053BF
:10A6F0006F66744465766963652E00004368616E19
:10A700006765207468652052414D207374617274CE
:10A71000206C6F636174696F6E2066726F6D20309C
:10A7200078257820746F20307825782E000000007E
:10A730004D6178696D756D2052414D2073697A6560
:10A7400020666F72206170706C69636174696F6EEE
:10A7500020697320307825782E00000073645F62D2
:10A760006C655F656E61626C652829207265747521
:10A77000726E65642025732E00000000C331002036
:10A7800030B51548ADF5017D0078002821D04FF493
:10A79000FA7500BFADF8005280A9684661DF38B194
:10A7A000052816D00DF5017DBDE83040FCF7A2BAB2
:10A7B0006C460A497DA800F083F806E0D0E9002144
:10A7C000204690477DA800F092F87F980028E1D0BD
:10A7D000F4E70DF5017D30BDC331002040CB020010
:10A7E0007CB5194C207808B108207CBD0120A070F0
:10A7F000002001F061FB112819D0002001F074FB4A
:10A8000012480026006801908DF800606846FCF749
:10A81000CBFB0F4901A810DF05000AD000202070F3
:10A820009DF80000FCF7E4FB2DB128467CBD00201C
:10A830007CBD0120F3E7A670667001F0EDFB0120FE
:10A8400001F052FBF3E70000C0310020D4CA02003F
:10A85000716C02000EB50749684600F031F805E05A
:10A86000D0E900108847684600F041F802980028B7
:10A87000F6D10EBDF0CA0200014800787047000012
:10A88000C03100201FB568464BDF30B1052814D019
:10A8900004B0BDE81040FCF72DBA084901A800F04B
:10A8A0000FF806E0D0E900210098904701A800F0D9
:10A8B0001EF803980028E6D0F4E71FBD5CCB020029
:10A8C000016009684160AFF3008010B5D0E9002154
:10A8D0005368994201D1002104E0D1E90034A34238
:10A8E00002D01946816010BD08314160F0E78168EF
:10A8F00000290BD0026892680A44826041684B6864
:10A900009A4203D108314160FFF7DFBF704770B54D
:10A910000D460646446804E0B2682946904718B1DF
:10A92000246820680028F7D120682860256070BD61
:10A9300040680068704741680868002801D00268D4
:10A940000A60704702460020526806E08B4203D13D
:10A9500008681060012070471A461368002BF5D173
:10A96000704700000C4A10B502F594730EE0991A76
:10A97000C91001EBD171491002EBC1010C6884428E
:10A9800001D90B4602E005D201F108029A42EED34A
:10A99000002010BD486810BD70C9020000B5FFF767
:10A9A000E1FF002800D1014800BD00005CC90200A1
:10A9B0004058002800D00120704708B500224250BE
:10A9C0004058009008BDD0F80403084000D0012092
:10A9D00070474058002800D00120704708B5002279
:10A9E00042504058009008BD02480068002800D03E
:10A9F000012070470004014008480068012110F060
:10AA0000010F06D14FF0E020C02280F800248430EE
:10AA1000C1670349012008607047000000E100E0C1
:10AA2000180500400649024600200B790BB185202D
:10AA300070470A6001220A7100224A7170470000C3
:10AA4000BC300020022010B54107C1F808034FF4C4
:10AA50008270FEF764FE0549012008600448016821
:10AA6000C1F300410029FAD110BD00000C000040E4
:10AA700018040040002802D00149800108477047AF
:10AA800021C902002DE9F0410E46054600F012FEF4
:10AA90000028284619D0FDF779FA083800F07CFE26
:10AAA000032802D001280ED007E04FF0A040D0F8D4
:10AAB0001005E84010F0010F05D003212846BDE83D
:10AAC000F041FFF737B80221F8E700F0FFFD00285A
:10AAD00022D02846FDF75AFA04464FF4807000EB66
:10AAE00084000E4F81B207EB8400D0F8102542F0AD
:10AAF0000102C0F810250846FFF75EF8002E0BD0C3
:10AB00002846FDF743FA064951F82000002803D0F3
:10AB10000120A040C7F80403BDE8F08100600040B8
:10AB2000083700202DE9FC41DFF8B880044608EB27
:10AB30000400002790F930001346C0170E46401C51
:10AB400001D008274AE0B0781946C0F340022046F9
:10AB5000FDF7F8F90546401C3FD0B078410717D4FF
:10AB6000C0070AD04FF0A04000EB8400D0F80017D7
:10AB700021F00201C0F8001707E000217378204699
:10AB800000910A460191FEF779FF204600F084FD0E
:10AB9000B078800718D51448317800EB8500D0F8DC
:10ABA0001025124B1A40C0F810254FF4F8524FF4FC
:10ABB000403302EA042203EA01410A43D0F81015A7
:10ABC0000A43C0F8102509E008EB0500327810F8B8
:10ABD000481F41EA8211017000E004273846BDE8B1
:10ABE000FC8100000837002000600040FFE0FCFF0F
:10ABF0004FF0A041D1F81015C14011F0010000D074
:10AC00000120704770B5194D95F8580008B108201B
:10AC100070BD0024661E2046FEF7B4FF10B128194F
:10AC200080F83060641CE4B2202CF4D30024204669
:10AC3000FDF77AF9641CE4B20C2CF8D300200D491E
:10AC400068650B4CC02081F8000401264020891F54
:10AC5000C1F800014FF4BE70FEF7AEFFA004C4F8C7
:10AC6000040385F85860002070BD000008370020FC
:10AC70000060004006E000E0034890F8580000281B
:10AC800000D0012070470000083700200121B1EBFF
:10AC9000507F01D1012070470020704738B50D4624
:10ACA00000F0ECFD040014D000208DF80000684690
:10ACB000FCF77AF9207928B19DF80000FCF798F9A3
:10ACC000112038BD0120256020719DF80000FCF79F
:10ACD0008FF9002038BD00000149024801F0A6BBF1
:10ACE00064370020002000402DE9F041054600793E
:10ACF00016460F4600EB40012D4A01EBC00102EB66
:10AD0000810494F82A1011B10820BDE8F081294986
:10AD100051F820102868FFF7C1FF08B11120F4E7AF
:10AD200039462846FCF77EF96660386920603000B5
:10AD30004FF001062FD03F7F4FF48E712868FFF748
:10AD40003CFE4FF4A2712868FFF737FE28681A49C5
:10AD5000C0F8041328684FEA471140F30730002871
:10AD600004DB00F1E02080F8001405E000F00F00A3
:10AD700000F1E02080F8141D286840F30730002817
:10AD800009DB00F01F0106FA01F14009800000F123
:10AD9000E020C0F8001128680421C0F80015002048
:10ADA000A061E06184F8290044F8140FA675ACE7AF
:10ADB00064370020D0C80200800002002DE9F05F57
:10ADC000054600794FF4017600EB400303EBC00029
:10ADD000344B03EB80040020636813B12B68C3F885
:10ADE0000863A3694FF000096BB1E06938B160688E
:10ADF00010B12868C0F804631120BDE8F09FE2613B
:10AE00000120216105E0C4F82490A261E160C4F84A
:10AE10001C9094F82910014302D1284600F071FFDC
:10AE200060680028286803D0C0F804630020E4E7C5
:10AE30004FF4A2763146FFF7C0FDB2464FF4927B45
:10AE400059462868FFF7B4FD06464FF48471286818
:10AE5000FFF7AEFD804651462868FFF7A9FD07467B
:10AE600048EA07003043EBD056EA070007D12146F5
:10AE7000286800F017FFA169606A8142E0D8C4F831
:10AE800018900EB10320B8E70FB10F20B5E794F882
:10AE9000291001200029296801D00860C6E7486010
:10AEA000C4E70000643700202DE9F05F0546007913
:10AEB0000B4600EB400101EBC000244901EB80048C
:10AEC000284600F045F810B11120BDE8F09F6261FE
:10AED0004FF00009C4F82090A36084F828904FF444
:10AEE0008E784E4641462868FFF767FD28684FF088
:10AEF000010AC0F808A02146286801F0D7F9606867
:10AF000008BBD5F800B067690FE000BF94F82800CF
:10AF100008B10F2615E041465846FFF749FD0028C5
:10AF2000F4D02146584601F0C1F9206AB842F2D364
:10AF3000574641462868FFF73BFD0028F9D02868AE
:10AF4000C760C4F814903046BFE7000064370020A3
:10AF5000007900EB400101EBC000044901EB8000E7
:10AF60004069002800D001207047000064370020AD
:10AF70000149024801F008BB903700200020004042
:10AF80002DE9F0410546164600790F46154A00EBBB
:10AF9000C00102EB810494F8201011B10820BDE833
:10AFA000F081114951F820102868FFF777FE08B1A9
:10AFB0001120F4E739462846FCF778F866603869CE
:10AFC00020601EB1397F2846FDF722FD2868082140
:10AFD000C0F800150020A061E0616061012184F8E3
:10AFE0002010DCE790370020D4C802002DE9F05F84
:10AFF000044600790E4600EBC001DFF8F0A01746CA
:10B000000AEB81053046FFF741FEB0B168684FF0AA
:10B0100000084FF4047910B12168C1F80893A869B9
:10B020004FF0000B80B1E86948B1686810B1206842
:10B03000C0F804931120BDE8F09F1020FBE7EF61FA
:10B040004FF001082E6102E0EE60C5E9067B0025A5
:10B050004FF488712068FFF7C1FC4FF4A27120689B
:10B06000FFF7BCFC2068C0F83465C0F8387520686C
:10B07000B8F1000F12D0D0F8001241F02001C0F852
:10B0800000122079D04600EBC0010AEB8100406835
:10B0900038B12068C0F804932846CCE7012101604C
:10B0A000EFE74FF4887A4FF4A27951462068FFF712
:10B0B00090FC074649462068FFF78BFC06464FF494
:10B0C00092712068FFF785FC014647EA06000843B5
:10B0D000EBD0227902EBC20308EB8302C2F818B06E
:10B0E00001B10325002ED7D00F25D5E790370020DA
:10B0F0002DE9F04704460E460079274900EBC000D1
:10B1000001EB800517463046FFF7C0FD30B1204601
:10B1100000F044F820B11120BDE8F0871020FBE7D3
:10B120006F61AE604FF490774FF0000839462068A9
:10B13000FFF754FC4FF4AC7631462068FFF74EFC25
:10B140002068AA686969C0F84425C0F848152068D5
:10B150004FF00109C0F808906868D0B9BA46514666
:10B160002068FFF736FC074631462068FFF731FCC0
:10B170000743F4D010B14FF00F0808E02068C0F882
:10B180000C9031462068FFF724FC0028F9D00020FD
:10B1900068614046C0E7000090370020007905490B
:10B1A00000EBC00001EB80004069002800D00120C6
:10B1B0007047000090370020FBF79CBD03490860F2
:10B1C000034801680029FCD07047000004E50140F5
:10B1D00000E401402DE9F84F05460C460888B5F813
:10B1E000CA12884279D195F8C6024FF0000A00EBE6
:10B1F0008001C1EB801005EB40066088002860D11B
:10B200003079E288A71D8146D1B250FA82F2062A2F
:10B2100002D80844307111E00620307137483849AF
:10B220003288401AC108022000EB014080463549AF
:10B23000FEF7BCFE40463449FEF7B4FE4846002205
:10B24000D0461BE000EBC00102EB820307EB430397
:10B2500006EB4101D3F802C0C1F80AC0D3F806C01A
:10B26000C1F80EC05B894B82A1F81480A1F816804A
:10B27000A1F81880401CA1F81A80521C3179814233
:10B28000E0D895F8C61200EBC00001EB8102C2EBDA
:10B29000811105EB410136F810000989884210D26E
:10B2A000307906280DD085F8C50221882846FCF79C
:10B2B00075FE002811D022882946BDE8F84FFDF719
:10B2C00039B885F8C5A2228869462846FCF740FFB0
:10B2D00028B122882946FDF72DF8BDE8F88F9DF8A2
:10B2E00000000028F9D0228801212846FCF7C8FF79
:10B2F0002188284600F082F9EFE70000F0D4020030
:10B30000F0D40200F0CB020038CC020070B58D887A
:10B31000027900EBC5042273C97BA41D012902D068
:10B32000022904D101E0008800E0408820802188C3
:10B330006088814211D92846A5DF0126B0B11128C5
:10B3400016D0FFF72BFB02460B480C49401AC008E9
:10B3500006EB00400AA1FEF729FEA179E0798142BF
:10B3600008D92846BDE87040FCF78CBE6671F4E74A
:10B370002671F2E770BD0000F8D40200F0D402009C
:10B3800073645F626C655F67617474635F65786343
:10B3900068616E67655F6D74755F72657175657301
:10B3A0007428292072657475726E65642025732E69
:10B3B00000000000F8B505460C460888B5F8CA122A
:10B3C000884255D195F8C602A21D00EB8001C1EB61
:10B3D000801005EB400695F8C50200EBC00006EBB7
:10B3E000400160880A3138B329E000BF00EB400318
:10B3F00002EB43039F88B7F5245F0CD06FF4245C05
:10B4000017EB0C070AD0012F02D0072F0BD108E051
:10B410005B884B8107E05B888B8104E05B88CB8194
:10B4200001E05B880B824B892BB18B891BB1CB89E7
:10B430000BB10B8A1BB9401C13888342D6D800205D
:10B440008DF8000095F8C5023179401C884203D17F
:10B4500001208DF8000010E085F8C50222886946B9
:10B460002846FCF775FE20B122882946FCF762FFCA
:10B47000F8BD9DF800000028FAD022880121284656
:10B48000FCF7FEFE2188284600F0B8F8F8BD000061
:10B490007CB506468D88C88806EBC504A41D172810
:10B4A00000D217202188814200D808466080002001
:10B4B000207121882846B5DF60B1FFF76FFA024698
:10B4C0000F481049401AC008012101EB00400EA1AD
:10B4D000FEF76CFD6079002810D1306900280DD08E
:10B4E0001549D1E90201CDE90001ADF802506088AB
:10B4F000ADF8040032696946304690477CBD0000D3
:10B50000F8D40200F0D4020073645F626C655F6778
:10B51000617474735F65786368616E67655F6D748D
:10B52000755F7265706C7928292072657475726E0A
:10B5300065642025732E00008CC8020070B5054696
:10B540000C4690F8C602228800EB8001C1EB801007
:10B5500005EB4001B5F8CA02824238D1608848B193
:10B5600000212846FCF78CFE21882846BDE8704063
:10B5700000F044B8E268C1F80620E28895F8C412E9
:10B58000D0B251FA82F2062A03D8084485F8C402E0
:10B5900011E0062085F8C4020D480E49401AC10882
:10B5A000022000EB01460CA13046FEF7FBFC3046C2
:10B5B0001149FEF7F7FC21882846FCF7EFFC00282C
:10B5C00005D022882946BDE87040FCF7B3BE70BDA7
:10B5D000F0D40200F0D402004E6F7420656E6F75D7
:10B5E000676820737061636520666F72207365728F
:10B5F00076696365732E000094CC020070B588B044
:10B600000D46044620216846FAF749FF94F8C70220
:10B610001E4B401CC0B284F8C702DA680021904279
:10B620002CD284F8C51294F8C602194E401CC2B23E
:10B6300002EB820084F8C622C0EB821006EB820285
:10B6400004EB400012680260017102218DF80010C5
:10B650000121ADF810100068CDF812000D48CDE9B9
:10B6600002042A4669469868FDF7AEFD002803D01B
:10B670002A462146FCF75EFE08B070BD84F8C81269
:10B6800029462046FCF7E4FDF6E70000A030002044
:10B69000DC3600203583020010B50549C20800F0F1
:10B6A0000703885C01249C402043885410BD00009F
:10B6B0005C3700200449084490F93000082801DB79
:10B6C00001207047002070470837002004490844D3
:10B6D00090F93000082801D20120704700207047FF
:10B6E000083700202DE9F05F2A4F06464FF0A04AA8
:10B6F0004FF0010B0024381990F95010491C3CD030
:10B7000090F85000314620F0C0052846FDF757FC60
:10B7100020B3204600F040F881460AEB8500D0F8BF
:10B720000007C0F30148B8F1020F18D002212846E3
:10B73000FEF700FA0BFA05F1CAF820152846FCF7C7
:10B7400025FC57F820204AB14846B9F1030F11D023
:10B75000B8F1020F05D0B8F1030F07D00DE00321B7
:10B76000E5E74846B9F1010F04D006E04846B9F1D3
:10B77000020F02D1014628469047641C042CBAD31C
:10B78000324601210020FEF7E7F930680028B1D1E8
:10B79000BDE8F09F083700200249084490F85000A7
:10B7A000800970470837002010B50C46017A05293A
:10B7B00008D0407A38B1084808A102682046FEF750
:10B7C00045F800E01AB106A12046FEF73FF82046F2
:10B7D000BDE81040FEF747B89C31002025730000FB
:10B7E0000D0A000038B5C3880D46044633B114A0D5
:10B7F000009015A216A12846FEF728F8217A0529FF
:10B800001CD0607A48B1A088FEF78AFA164951F830
:10B81000202016A12846FEF719F8A0880021FEF77F
:10B8200061FC03461049207A143951F8202001B0F8
:10B830002846BDE830400EA1FEF708B838BD00002C
:10B840001B5B306D000000001B5B313B33316D0032
:10B8500025734C6F67732064726F70706564202865
:10B8600025642925730D0A009C31002025730000F2
:10B870003C25733E2025733A20000000034988428E
:10B8800001D10348704700207047000000200040AD
:10B89000C4300020F0B591B00E460746012269463B
:10B8A000FEF760FD04005AD19DF8000004AD0628A3
:10B8B0005DD2DFE800F0030A181F2327BDF812202D
:10B8C000BDF810103046A1DF0BE00CA80690014631
:10B8D000BDF8162000230198FEF7DFFC294630460C
:10B8E000A3DF044626E0BDF8101030460DF1120229
:10B8F0009BDFF6E7294630469DDFF2E729463046D2
:10B900009EDFEEE70CA807900023022208A9019809
:10B91000FEF7C3FC08A80690BDF820200223079973
:10B920000198FEF7BAFCBDF820E029463046AEDFAC
:10B93000040016D0112C12D09DF80000114951F8C6
:10B94000200010B10198FEF77AFC002269463846C3
:10B95000FEF708FD22463146684600F07BF811B03C
:10B96000F0BDBDF820008645E6D00C24E4E706488B
:10B970000649401AC008022101EB004004A1FEF76D
:10B9800011FBD9E7A4C8020000D50200F0D40200E0
:10B99000556E696D706C656D656E746564204741A8
:10B9A00054542052657175657374000001680A680B
:10B9B0004968914201D3881A70478068801A084408
:10B9C000401C704770B58CB00446C068002209A9BD
:10B9D000FEF7C8FC104D1BE0BDF82410A06801EB79
:10B9E000810100EB810607E09DF8000055F820007A
:10B9F00010B10198FEF723FC002269463046FEF79D
:10BA0000B1FC0028F0D0002209A9E068FEF7AAFCEA
:10BA10000028E1D00CB070BDA4C8020070B50C4B7A
:10BA200000210A4ADC680DE002EB81058678AD78DA
:10BA3000B54206D132F821500688B54201D1586886
:10BA400070BD491CA142EFD3002070BDDC36002040
:10BA5000A0300020F8B515000E46044616D00C485C
:10BA60000C490095401AC008012101EB00402278E2
:10BA700033460949FEF7A9FAA368002B06D0E1680E
:10BA800001B032462846BDE8F0401847F8BD000036
:10BA900000D50200F0D4020080CD02002DE9F04173
:10BAA000044600780E46002504F11001062828D22D
:10BAB000DFE800F003080B111418628A218A30466F
:10BAC000A1DF0DE03046A3DF0AE0218A04F1120273
:10BAD00030469BDF04E030469DDF01E030469EDFCC
