:020000040002F8
:1070000020720020C5730200CD730200CF7302000E
:10701000D1730200D3730200D57302000000000098
:10702000000000000000000000000000D773020014
:10703000D973020000000000DB730200DD73020060
:10704000DF730200DF730200D9780200DF730200F1
:10705000DF730200DF730200DF730200DF730200E0
:10706000DF730200DF730200DF730200DF730200D0
:10707000DF730200DF730200DF730200DF730200C0
:10708000DF730200F1760200DF730200DF7302009B
:10709000DF730200DF73020001770200DF7302007A
:1070A000DF730200DF730200DF730200DF73020090
:1070B000DF730200DF730200000000000000000028
:1070C000DF730200DF730200DF730200DF73020070
:1070D000DF730200DF730200DF730200DF73020060
:1070E000DF730200DF730200DF73020000000000A4
:1070F00000000000DF73020000000000DF730200E8
:10710000000000000000000000000000000000007F
:10711000000000000000000000000000000000006F
:10712000000000000000000000000000000000005F
:10713000000000000000000000000000000000004F
:10714000000000000000000000000000000000003F
:10715000000000000000000000000000000000002F
:10716000000000000000000000000000000000001F
:10717000000000000000000000000000000000000F
:1071800000000000000000000000000000000000FF
:1071900000000000000000000000000000000000EF
:1071A00000000000000000000000000000000000DF
:1071B00000000000000000000000000000000000CF
:1071C00000000000000000000000000000000000BF
:1071D00000000000000000000000000000000000AF
:1071E000000000000000000000000000000000009F
:1071F000000000000000000000000000000000008F
:10720000DFF810D000F028FA0048004715AA020065
:10721000AFF300802072002030B450E8012F93B209
:10722000C48923448489A34228BF1B1B0489A34229
:1072300002BFBFF32F8F002007E0C3EA020340E83C
:107240000134002CE9D14FF001000A6030BC7047D6
:1072500050E8012FC2EA024240E801210029F7D19B
:10726000704730B450E8022F1FFAA2F3C488A3423B
:1072700002BFBFF32F8F00200DE0C489234484890F
:10728000A34228BF1B1BC2EA034340E80234002C80
:10729000E8D14FF001000A6030BC704750E8022F7F
:1072A000C2EA224240E802210029F7D17047034692
:1072B00053E8022FD988B2EB324F4FF0000017BFCE
:1072C00092B241EA014142EA014104E05A68B2EB5C
:1072D000324F08BF012043E80212002AE8D170476C
:1072E00030B4044654E8000F0D4644E80053002B28
:1072F000F8D1156030BC704730B4044654E8000F34
:1073000040EA010544E80053002BF7D1156030BC7A
:10731000704730B4044654E8000F00EA010544E821
:107320000053002BF7D1156030BC704730B40446D1
:1073300054E8000F80EA010544E80053002BF7D120
:10734000156030BC704730B4044654E8000F00EBC1
:10735000010544E80053002BF7D1156030BC70479D
:1073600030B4044654E8000FA0EB010544E8005394
:10737000002BF7D1156030BC704770B404464FF055
:10738000000054E8006F0D68AE4207BF44E80023D8
:10739000012044E800630E60002B1CBF0020F0E7D2
:1073A00070BC704730B4044654E8000F88422CBFCC
:1073B000451A054644E80053002BF5D1156030BC52
:1073C000704700000648804706480047FEE7FEE792
:1073D000FEE7FEE7FEE7FEE7FEE7FEE7FEE7FEE785
:1073E000057702000172020000487047EC060300B6
:1073F0002DE9FE43994615468846074601AC022909
:1074000042D3002D40D000200290A8F101004FF09F
:10741000FF36009022E000FB057201FB057011466B
:107420004A469047002805DC54F82600304444F8CA
:10743000260013E060682A4600FB057154F8040C2E
:1074400000FB057007E00B7890F800C001F801CB55
:1074500000F8013B521E002AF5D1764254F8040C84
:1074600061688842D7DC4B462A463846FFF7C0FFA2
:1074700054F8040C4B46A8EB0001401C00FB0570BF
:107480002A46491EFFF7B4FFBDE8FE8310B5431A34
:10749000934209D28318881803E010F8011D03F8FD
:1074A000011D521EF9D210BD40EA01039B0703D013
:1074B00009E008C9121F08C0042AFAD203E011F833
:1074C000013B00F8013B521EF9D210BDD2B201E0DF
:1074D00000F8012B491EFBD270470022F6E710B5D9
:1074E00013460A4604461946FFF7F0FF204610BD32
:1074F000421C10F8011B0029FBD1801A704710B5FF
:10750000002200E0521C835C8C5CA34201D1002B62
:10751000F8D1D8B2E1B2401A10BD034611F8012BE0
:1075200000F8012B002AF9D11846704730B50546FE
:107530000020034600E05B1C934205D2EC5CC85C73
:10754000201A01D1002CF6D130BD2DE9F04791462B
:107550000F4680460446002614F8015B2DB1FFF764
:1075600043FF0068405DC007F6D12B2D02D02D2DC2
:1075700018D0641E4A463946204600F01EF827B14E
:107580003968A14201D1C7F8008071054FF00204AB
:107590000BD54042002803DD00F0A4F90460A007E9
:1075A000BDE8F08746F48066E4E70028F8DA00F0EA
:1075B00099F904606FF00040F2E72DE9F05F824630
:1075C0000078002715468B460AF10104B946302899
:1075D00001D09DB113E014F8010B0127782803D0E6
:1075E000582801D045B10AE00DB1102D07D1002770
:1075F000102514F8010B02E0082500E00A250026FA
:10760000B0460EE005FB080005FB06F1012701EB83
:1076100010461FFA80F8B6F5803F00D3B94614F83B
:10762000010B294600F02AF80028EBDABBF1000F25
:1076300005D00FB1641E00E05446CBF80040B9F10C
:10764000000F06D000F04EF902210160C81EBDE80F
:10765000F09F48EA0640FAE7064C074D06E0E0686E
:1076600040F0010394E8070098471034AC42F6D389
:10767000FFF7CAFDA01A0300C01A03003A2800D27F
:10768000303820F02002412A01D3A2F1370088428D
:1076900001D34FF0FF30704770B58C1810F8015BC4
:1076A00015F0070301D110F8013B2A1106D110F89B
:1076B000012B03E010F8016B01F8016B5B1EF9D19F
:1076C0002B0705D40023521E0DD401F8013BFAE725
:1076D00010F8013BCB1A921C03E013F8015B01F890
:1076E000015B521EF9D5A142D8D3002070BD000025
:1076F00002490248091F0968006808478C230020D6
:1077000006F008B970B54FF080520124D2E94C1050
:107710000023082906D1CD06C5F80C31C5F8103173
:107720005E4D2B60082955D15D4D2D685D4E35604D
:107730005B4D2D1D2D68361D3560594D08352D6862
:10774000361D3560564D0C352D68361D3560544D4F
:1077500010352D68361D3560514D14352D68361D98
:1077600035604F4D18352D684E4E203635604C4DE6
:107770001C352D68361D3560494D20352D68361D68
:107780003560474D24352D68361D3560444D28350C
:107790002D68361D3560424D2C352D68361D3560FF
:1077A0003F4D30352D683F4E403635603C4D3435C9
:1077B0002D68361D35603A4D38352D68361D3560DB
:1077C000374D3C352D68361D3560354D40352D68BB
:1077D000361D3560082904D1050002D1334E324DE3
:1077E0003560082904D1050002D1314EFB253560F2
:1077F000082908D1050006D192F858622D4A15686B
:1078000066F303051560082904D1020002D12A4D50
:107810008A012A60082906D128480168C90702D0D0
:107820006FF0010101602648016841F470010160B8
:10783000BFF34F8FBFF36F8F4FF01021D1F80002CD
:10784000002803DBD1F80402002822DA1D4A146064
:107850001D480468002CFCD01224C1F800420568C1
:10786000002DFCD0C1F8044201680029FCD013604F
:1078700001680029FCD0BFF34F8F11487C380168A4
:10788000124A01F4E06111430160BFF34F8F00BF62
:10789000FDE710490E48086070BD00003805004043
:1078A0000404001020C50040488103008C560040AD
:1078B00018F50040E40E00404096024000040040ED
:1078C00088ED00E004E5014000E401400400FA0511
:1078D0000090D00398240020014800680047000071
:1078E00048230020004870479C24002002E008C87C
:1078F000121F08C1002AFAD170477047002001E02A
:1079000001C1121F002AFBD170470000012120286D
:1079100003DA81400548014003E0402802DA2038BC
:10792000814009B10120704700207047FC06FFBD6F
:10793000800701D00020704701207047C3688B4248
:1079400006D811440069491E814201D801207047C0
:107950000020704770B572B605F0BEFA05F05AF80F
:107960000028FBD1144D154915486A88081AC40827
:107970002AB1012000EB044012A105F085F914485A
:107980000068C00700D000BE6888022805D3022026
:1079900000EB04400FA105F077F9BFF34F8F0C48BF
:1079A000E43801680F4A01F4E06111430160BFF35C
:1079B0004F8F00BFFDE7000028250020C81B0300F3
:1079C000501B0300466174616C206572726F720017
:1079D000F0ED00E053797374656D20726573657422
:1079E000000000000400FA050EB500210091CDE969
:1079F00001106A4644F20100FFF7ACFF0EBD000023
:107A0000014801F04EBC0000582300203AB1006844
:107A10000129426100D00021016100207047072048
:107A20007047000038B5114808235822416800917A
:107A30000F49006803F050FB002815D10D4A694634
:107A40000D4801F033FC04000ED101210A4801F079
:107A5000B2FC0123094A1946074801F0FAFB06491E
:107A6000012008390870204638BD0000D8FF020008
:107A7000842A002021EF020058230020FFFF7F000E
:107A800070B5044690F820000D4608B1002070BD86
:107A9000A26102F0D3F9401941F10001C4E90201E9
:107AA000206900B125612146BDE87040002007F043
:107AB0001DBD0146002081F82000012007F016BD01
:107AC00030B5EFF3108172B60D4A9468012324B1EA
:107AD0000370002900D162B630BD93604FF0E023FF
:107AE000D3F88051074C25401560C3F88041D3F886
:107AF000844154605A17C3F8842100220270E8E7D9
:107B0000DC2A0020FC06FFBD0B498A68002A11D040
:107B100000280FD1EFF3108072B60B684FF0E0220F
:107B2000C2F800314B68C2F8043100228A60002894
:107B300000D162B670470000DC2A002070B505460F
:107B400008680C46411C04D004F04EFD206804F087
:107B50001BFD6068411C02D0002104F003FD296870
:107B6000A069C1F82405607D227D29681043C1F811
:107B70006C05D4E900122868C0F81425C0F80C156B
:107B8000207D012814D1A068411C02D0002104F0FE
:107B9000E9FCE068411C04D004F026FDE06804F034
:107BA000F3FCD4E902122868C0F80825C0F81015C3
:107BB00070BD70B5054608680C46411C04D004F041
:107BC0001DFD206804F0EAFC6068411C02D0002121
:107BD00004F0D1FC2968A069C1F82405607D217DED
:107BE0002A680843C2F86C05D4E900122868C0F876
:107BF0000C15C0F81425207D012814D1A068411C63
:107C000002D0002104F0B7FCE068411C04D004F06D
:107C1000F5FCE06804F0C2FCD4E902122868C0F860
:107C20000825C0F8101570BDF0B500220D4BCA60D4
:107C3000C1E901230C4B0D4D1446EE1A0A600CE00D
:107C400003EB0215EF683F79FF2F05D0A04202D168
:107C5000A8680860F0BD641C521CB2EB161FEFD37D
:107C6000F0BD000054040300301B0300501B030050
:107C70002DE9F84F0546861C00208DF8000091463E
:107C80000F464FF0010A6846FFF71AFF1B4C04F23B
:107C90001C4860683860D4E90101194F401A3968FE
:107CA000081A0EE00121404603F061FA02F0C0FD1F
:107CB0000146404603F05BFAD4E90101401A3968F5
:107CC000081A401C8642EDD8B9F1000F03D00520F8
:107CD00065F3891002E0062065F39F5061683A68F9
:107CE000114004EB8101C8606068304460609DF819
:107CF0000000FFF709FF5046BDE8F88F002E002076
:107D00001824002070B50D4604460A2902D10D2121
:107D1000FFF7F8FFA0682268411CA1601554D4E960
:107D20000101814204D32046BDE8704004F077B8D9
:107D300070BD0000044881684068814201D1012083
:107D40007047002070470000002E002070B5816849
:107D500004468A7F002A4DD0C87F00284AD0121AD4
:107D60000844D5B200F120016A1C1F30FFF78EFBDA
:107D7000A068C17F491EC177A068817F491E8177B5
:107D80008DB308221C49206904F03CF8204603F01A
:107D900073F98178C078814211D1A06817A2C17FA0
:107DA000431808212046203303F08EFD204600F0C2
:107DB00013F929462046BDE8704001F057B8204627
:107DC00000F01EF9204600F007F9A0680BA2C17F61
:107DD000431808212046203303F076FD2046BDE8F5
:107DE000704000F003B92069BDE87040044A03A167
:107DF00004F008B870BD0000D47F020025730000B5
:107E0000C101030070B504468068827FC17F521AA9
:107E100012F0FF053AD0084400F121012A46203033
:107E2000FFF734FBA068817F491E8177204603F06D
:107E300023F98178C078814214D1A06814A2C17F4F
:107E4000431808212046203303F03EFD114A10A1BB
:107E5000206903F0D7FF6D1EE9B22046BDE87040EF
:107E600001F004B8204600F0CBF8204600F0B4F84A
:107E7000A06807A2C17F431808212046203303F0E1
:107E800023FD2046BDE8704000F0B0B870BD000092
:107E900025730000C50103002DE9F0410446806808
:107EA0000F46D0F84811C27F11F00106817FA1EB87
:107EB0000203DDB20BD07F2901D3002D7ED0A06854
:107EC000C17F0844002180F8207066B113E07F294B
:107ED0007CD2002DF3D0831803F120012A46481CE0
:107EE000FFF7D4FAEBE7A068827F521CD2B2827708
:107EF000A068203281544DB3204603F0BDF881784C
:107F0000C07881420ED1A06831A2C17F43180821F8
:107F10002046203303F0D8FCA81BC1B2204600F055
:107F2000A5FF21E0204600F06BF8A06828A2C17FE1
:107F3000431808212046203303F0C6FC204600F0F9
:107F400055F80121204601F06BF80DE03EB1A06824
:107F5000827F521CD2B28277A068203281543A4686
:107F60001CA1206903F04EFFA168C87F401CC877A0
:107F7000204600F068FF0028204603D0BDE8F0410D
:107F800000F080BF01F01EFE00281FD0204603F045
:107F900073F80546C078A978401A401EC1B2204641
:107FA00000F0F2FE204600F06DFFE878A978401A54
:107FB000C1B2204601F040F8287800E006E0401EFB
:107FC000C1B22046BDE8F04101F02AB8BDE8F08119
:107FD00025730000256300000069024A02A103F036
:107FE00011BF0000B9010300257300000069024AB7
:107FF000024903F007BF0000B3010300E87F02005D
:108000000069024A024903F0FDBE0000B00103000E
:10801000E87F02002DE9F04F4FF0000995B00546CA
:108020004F464C4600F0F0FD284602F053F8284633
:1080300000F0B6FE284600F006FF10B9284600F012
:1080400021FFAA680C2301A90EA8203202F0EEFE3F
:1080500003460E9840B15BB149A20221284603F0C5
:1080600033FC15B0BDE8F08F284600F00BFFF8E7B1
:10807000494848490026A1EB00080DF1040A83464F
:1080800013E008D345A0009049A202212846019B95
:1080900003F01AFCE5E70BEBC604606801685AF8C8
:1080A0002900FFF72CFA18B1761CB6EBD80FE8D9E7
:1080B0004FF000000F90A96848608860C8600861B0
:1080C0006168C86828B14AC9AA68C2E90360C2E900
:1080D0000113606809F101044FF00006D0F8088030
:1080E0000E98844235D25AF8240033A1FFF707FADC
:1080F00040B35AF8240031A1FFF701FA10B310A8D9
:1081000032460090761C0FAB2146404600F038FD09
:10811000FEB10F98E8B101685AF82400FFF7EFF9B3
:108120000028DDD10F98C16839B190E84810AA68DD
:108130002746C2E903C1C2E901360026641CD0F813
:108140000880CDE7A868D0F8481141F00201C0F8D6
:108150004811A868036933B10E980AEB8702C11B66
:108160002846984704E017A20221284603F0ACFBFA
:10817000A868D0F8481121F00201C0F8481170E752
:108180006E6F74207465726D696E617465643A20F7
:1081900025630A00301B0300C01A03003A20636FF6
:1081A0006D6D616E64206E6F7420666F756E640015
:1081B000257325730A0000002D6800002D2D6865C9
:1081C0006C700000506C6561736520737065636945
:1081D0006679206120737562636F6D6D616E642EC8
:1081E0000A0000008068D0F84801C0F3C000704762
:1081F00000B589B020220D4901A8FFF747F90620F4
:1082000001900820029000208DF8180003200090B3
:10821000064801231A4601A9183803F0C7FC0028B4
:1082200001D0FFF7E1FB09B000BD0000F0FE020045
:108230002DE9F0410446C06890B00D464068002624
:108240003246006803A904F025FF18B1002010B0E1
:10825000BDE8F0816DB1039804F0FCFEA168D1F88F
:108260003801401CC1F8380100F00700012879D11D
:108270000126204602F000FF05468078012804D937
:10828000401EC1B2204600F0D7FE2878012804D94C
:10829000401EC1B2204600F0E9FD2046FFF79CFEDB
:1082A0002EB131A20221204603F00EFB5AE04FF01E
:1082B00000080023082207A9039804F0DAFE0998B1
:1082C0000490BDF82000ADF81400BDF82200ADF810
:1082D00016000798082700F003008DF81980012880
:1082E00002D0022817D031E007983B46C0F3C20104
:1082F000C0F38315860A8DF81810AA000AA90398FE
:1083000004F0B7FE2069009004AB2A460AA9304663
:1083100004F0F6FD1AE00798850DC0F3C2008DF851
:108320001800082D01D22E4600E008263B463246B2
:108330000AA9039804F09DFE3744AD1B04AA3146F8
:108340000AA8236904F0BCFC002DEAD1039804F0CC
:1083500081FEE068002203A94068006804F09AFEEC
:108360000028A6D0012072E74C6F7374206C6F67F1
:1083700073202D20696E637265617365206C6F6771
:10838000206261636B656E6420717565756520732D
:10839000697A652E0A000000014803F085BC0000E0
:1083A000D8FE020030B4406804682469A44630BC9A
:1083B0006047000010B5054803F0B0FC002803D06A
:1083C000BDE81040FFF710BB10BD0000D8FE020052
:1083D0002DE9FC41002604460127019601AB01224C
:1083E00069462046FFF7DEFF0198002836D09DF849
:1083F00000007F28F2D804F04CFEA068417821B13B
:1084000001296FD002296ED18DE09DF800500D2D0D
:1084100009D00A2D07D0D0F84821002161F38D1230
:10842000C0F8482122E0D0F84811C1F3871129B1E2
:10843000D0F84811C1F38711A94217D1D0F84811DB
:1084400065F38D11C0F84811A068817F41B12046C5
:10845000FFF7E0FD0221204600F0F4F8BDE8FC81C2
:10846000C0F84461204600F00DFDF3E7092D1ED051
:1084700004DC002DB2D0082D04D121E01B2D12D038
:108480007F2D26D0FEF7B0FF0068405D10F03E0F54
:10849000A4D02046FFF7A6FE30B39DF8001020467A
:1084A000FFF7FAFC9AE7A1680120487096E720469A
:1084B000FFF798FE002891D0204600F0DDF88DE708
:1084C0002046FFF78FFE002888D02046FFF73EFCAD
:1084D00084E72046FFF786FE0028E3D02046FFF71A
:1084E00091FC7BE716E019E0A1689DF80020887FE9
:1084F0007F28D7D2C87F0B18401CC87783F820206C
:10850000A068C17F084480F82060A168887F401C73
:10851000887763E79DF800105B2901D0002100E017
:10852000022141705AE7002141702046FFF75AFEB0
:10853000002893D09DF80000422840D01BDC33284F
:108540007CD012DC312872D03228ABD1A168032054
:108550004870A068D0F84811D0F8482127EA0101F6
:1085600061F30002C0F8482138E7342856D041288A
:1085700098D1012124E0462853D01BDC432823D086
:1085800044288FD1204602F077FD05460078A9796E
:10859000491C884202D1A978012987D001284FF0CF
:1085A000010120462FD000F061FCA168C87F401E69
:1085B000C87713E748283DD04C2889D1C9E7002166
:1085C000204601F075FC09E7204602F055FD0546FE
:1085D00000786978884203D1A978EA78914298D0E6
:1085E000697988424FF00101204606D100F0CCFBAA
:1085F0006979204600F03AFC01E000F011FDA16825
:10860000C87F401CD4E700F017FD6979204600F0D0
:1086100007FDA068C17F491EC177DFE6A16803207E
:108620004870204600F0BCFBD8E607E0FFE7A168F1
:1086300003204870204600F0DCFBCFE6A168032051
:10864000487046E78268022911700CD182680021C7
:1086500082F820108268D1778268917702A2032184
:10866000036803F031B9704725730000002801D07A
:10867000FEF73EBF704700002DE9F04F0546002091
:10868000A7B007461590064620900690A868817FFF
:10869000C1F17F01C9B25FEA010970D0C27F00F168
:1086A0002001A030FEF7F2FEA8680024C17F084434
:1086B00080F8A040FEF798FE21900168A8680C237E
:1086C000C27F0244D27F895CC0F84441AA6801F0AD
:1086D000010A07A916A8A03202F0A8FB0798FFF725
:1086E000C5FF00F0FF08A34617941894169818B118
:1086F0005044401EB0426CD8BAF1000F01D00020A7
:1087000005E007A850F82600FFF7B0FFC0B280468A
:10871000002419A822460090641C17AB3146584625
:1087200000F02EFA179800286CD0016807A842467E
:1087300050F8260001F04AFE0028EAD018987F1C65
:10874000F0B117980068FFF791FF0699C0B2884210
:1087500000D90690B9F1000F2ED022A8009018ABD6
:1087600031465846159A00F00BFA17980168189888
:1087700001EB08020168002001EB080316E08DE020
:10878000601E209017980068FFF770FFC0B2069037
:10879000A0EB080048450FDAC0B20CE013F800C0A7
:1087A000614506D1401C10F0FF0010D0115C00297B
:1087B000F4D1814500D98146601E15901798189014
:1087C000A7D266A20421284603F07EF81AE0FF2013
:1087D000EFE7002419A822460090641C17AB31462D
:1087E000584600F0CDF9ECB31798002856D0016830
:1087F00007A850F82600FEF782FE0028EAD1179855
:10880000D0F808B0BBF1000F09D0179838B116990D
:10881000761CF6B201EB0A008642FFF467AF002F28
:108820003CD0012F43D000212846069A05F0F4FCE5
:10883000209C0DF11C0A19A822460090641C17AB5D
:108840003146584600F09CF91798424601685AF89C
:10885000260001F0BBFD40B117987F1E069A016803
:10886000284600E01DE005F0D7FC002FE3D146A22A
:10887000032128462B6803F027F8AB6843A20821A0
:108880002846203303F020F8284600F093FB189880
:108890004A4601682846414400F010FA27B0BDE876
:1088A000F08F2EA20421284603F00EF8F6E79BF87D
:1088B000000038B119A8009018AB31465846159AF7
:1088C00000F05EF918980068FFF7D0FE404506D02A
:1088D00018984A4601682846414400F0EFF921986B
:1088E000A9680268C87F0B1893F82030D25CD207C1
:1088F00015D0897F8842D1D2284602F0BDFB84780A
:10890000A868C17F491CC177284602F0B5FB807872
:10891000A0421FD10121284600F082FBBEE7D1F81A
:108920004801C00711D0D1F8480120F00100C1F87A
:10893000480120212846FFF7AFFAA868D0F848116F
:1089400041F00101C0F84811A8E720212846FFF7AF
:10895000A3FAA3E7284600F095FA9FE75461622046
:1089600066756E6374696F6E3A20636F6D6D616ECC
:10897000647320636F756E746572206F76657266BE
:108980006C6F7765642E0A000A257300257300005A
:10899000002806D08868D0F8481141F02001C0F8BE
:1089A0004811704770B5044640680D4690F828009D
:1089B00030B1A0680068FFF77CF808B108280CD136
:1089C000012685B1606903F011FA6168002208315F
:1089D000606903F0C7F908B1062070BD606880F8CF
:1089E0002960002070BD606890F8280048B9074AE7
:1089F0000021A068FFF70AF86168002881F8286064
:108A0000F0D12046BDE8704006F066BB55F4020088
:108A100070B5044640680D460260606800224360FD
:108A2000606880F82820606880F82920606820222B
:108A30000830FEF72BFD2C61074A2946606903F0D8
:108A400091F9050005D1E06804F066FD206904F0A5
:108A500063FD284670BD000079F502001A60C06809
:108A60001A4604F097BC10B50446406903F0BEF9FD
:108A7000A0680068BDE81040FFF71BB87CB51A601D
:108A8000044600691A4604F0C3FC050025D160695C
:108A9000134A0178515C19B1001D05F02BFB02E06F
:108AA0000C3005F08BF9C0B9FF20009001236A4615
:108AB00001A9206904F0F8FC78B900980199C2B2C4
:108AC000606903F083F90546606890F8290020B1D9
:108AD0001DB92069009904F0D4FC28467CBD000033
:108AE000342300202DE9F8431E46154688460746E4
:108AF00000241BE0786808EB04016B460268D2F89A
:108B00000CC02A46E047009804442D1A70B9B86892
:108B1000017803290AD000BFD0F848118906FBD597
:108B2000D0F8481121F02001C0F84811002DE1D102
:108B3000002E01D000983060BDE8F88308B50B46E0
:108B4000009102A2022102F0BFFE08BD25733A2067
:108B500077726F6E6720706172616D6574657220E7
:108B6000636F756E742E0A54727920272573202D39
:108B7000682720666F722068656C702E0A000000FE
:108B80002DE9F05F1C460A9E15464FF0000959B1C9
:108B900080B3017839B3426831462846904730683F
:108BA000D8B12660BDE8F09F14491548A1EB000834
:108BB000B5EBD80F11D2DFF84CA00026834609E0B0
:108BC0000BEBC607786801685AF82500FEF797FC9A
:108BD00030B1761CB6EBD80FF2D3C4F80090E1E7C1
:108BE00078682060DEE7406800EB0210016809B198
:108BF0001860D7E7FFE7C3F80090D3E7301B030006
:108C0000C01A0300A02400202DE9F0418568064623
:108C1000002495F82000002811D0A046FEF7E4FBC0
:108C20000746006804F1200104F10104695CE4B224
:108C3000415CC90705D0002CF4D185F82080BDE83F
:108C4000F081641E14F0FF040FD0A87F021B04F112
:108C50002000291805F12000521CFEF717FCB1680E
:108C6000887F001B8877B168C877B2683D68937FBA
:108C7000D0181F300446002102E0491CC9B2401E32
:108C80000778EF5DFF07F8D18442D8D05B1A203314
:108C900002F80380B268907F401A9077B168C87775
:108CA000CDE710B5D0E90234D1E90220D11AA041B4
:108CB00001D3012010BD002010BD00002DE9F041BE
:108CC0000446806815460F46827FC17F531A2A44A6
:108CD000DEB27F2A37D8002D35D0084400F12001BC
:108CE00005F120021044721CFEF7D0FBA0682A4652
:108CF000C17F084439462030FEF7C8FBA068203009
:108D0000FFF7B4FCA16811A28877A068C17F43185F
:108D100008212046203302F0D7FDA068C17F2944F6
:108D2000C177204600F08FF818B9204600F04AFFBE
:108D300010B1204600F0A6F8002E04D02046BDE871
:108D4000F04100F037B9BDE8F08100002573000064
:108D500010B5044612B11088002211E04FF6FF70E2
:108D6000FAE7030A43EA0023A05C5840C0F3031368
:108D7000584080EA003080B2C3B280EA4310521CEF
:108D80008A42EED310BD0000002904D00A460069D3
:108D900001A103F037B870471B5B25644200000057
:108DA00070B5054602F068F904460078617888429B
:108DB00003D1A078E17888421AD0E178A078814286
:108DC00004D9081AC1B22846FFF7DEFF207861787F
:108DD000884205D9401AC1B2284600F047F804E09D
:108DE000081AC1B2284600F01BF9A868817FC17734
:108DF00070BD70B5054602F03FF9044601788079F0
:108E0000401C814202D1A07801281BD0A078012803
:108E100004D9401EC1B2284600F00EF92078A1798D
:108E2000884206D9401A401EC1B2284600F01EF8FA
:108E300005E0081A401CC1B2284600F0F1F8A96804
:108E40000020C87770BD10B504460068FFF70EFC1F
:108E50000146A068C27F407E1144B1FBF0F200FBE6
:108E6000121008B1002010BD012010BD002904D04F
:108E70000A46006901A102F0C5BF70471B5B25646B
:108E800044000000006901A102F0BCBF0A0000001C
:108E90002DE9FC47002604468DF8046080683546BD
:108EA000B146B0468021A030FEF717FB404920694B
:108EB00002F0A8FF206902F0B2FF00276B460122F2
:108EC00001A92046FFF76EFA0098D8B19DF804007A
:108ED0001B2806D0A16891F8A0101B29EED15228BA
:108EE0001FD0A26808F1A001505408F1010000F061
:108EF000FF08B8F1090F0AD9A168042081F8A090F1
:108F0000BDE8FC872A494FF6C01010318847009809
:108F10000028D3D17F1CBFB2B7F57A7FCED30D2006
:108F2000EEE7A16808F1A0004A4601F80090A168A8
:108F300091F8A1005B2803D081F8A0200B20DFE787
:108F400002206FF02F0309E005EB850503EB4505D3
:108F5000401C3D44C0B2ADB2802808D200F1A00749
:108F6000CF5D3B2FF0D1401CC0B2802809D30C202C
:108F7000C6E700BF06EB860603EB46063E44B6B2E4
:108F8000F1E700F1A007CF5D002FF3D1FA20FA2E10
:108F900001D9087500E00E75FA2D02D9A16888750F
:108FA00001E0A0688575A06880F8A0200020A7E7F0
:108FB000D101030070B5054602F05EF804468078E2
:108FC000E178884201D1012600E000262846FFF71B
:108FD0003AFF18B9284600F0F5FD10B12846FFF712
:108FE00051FF1EB160782178401A12E0E078A17834
:108FF000401AC1B2284600F01FF8207861788842F4
:1090000006D9401AC1B22846BDE8704000F008B841
:10901000081AC1B22846BDE87040FFF727BF00001C
:10902000002904D00A46006901A102F0EBBE704796
:109030001B5B256443000000002904D00A46006938
:1090400001A102F0DFBE70471B5B256441000000F8
:109050000149012008707047C522002070B50C46F8
:10906000054602F097FD30B12846BDE87040002269
:10907000114602F051BC012C05D02846BDE87040D5
:1090800003A1FFF75BBDBDE87040FFF7E1BF000043
:1090900064656C6574655F616C6C000070B5134D40
:1090A00028786978F9B1002108421ED01148124A87
:1090B0000F4E801AC0087188032202EB0044032976
:1090C00003D320460DA103F0DFFD05F053FD28700A
:1090D00000280AD17088032807D32046BDE87040D5
:1090E0000CA103F0D1BD0121DEE770BDC522002037
:1090F00028250020C81B0300501B030044656C6535
:1091000074696E67206E657874207265636F72642F
:109110002E0000001B5B313B33366D4E6F207265B5
:10912000636F726473206C65667420746F2064656D
:109130006C6574652E00000070B515460C46064639
:1091400002F028FD30B13046BDE8704000221146E3
:1091500002F0E2BB032C05D23046BDE870400AA104
:10916000FFF7ECBC102200216868FEF7EEF9044618
:1091700010220021A868FEF7E8F902462146304691
:10918000BDE8704005F080BC64656C6574650000E6
:109190002DE9FF410C4620B14FF4064004B0BDE874
:1091A000F0812079002748F2096538B141F61D5653
:1091B00001281BD0022826D0681DEFE7022020716D
:1091C00002970397E0680190694601A805F030FD19
:1091D00050B102988188E18000882081BDF800109C
:1091E000029805F0A3FDD9E72846D7E70A4B6A465F
:1091F0000021A01D05F0D4FC38B1074918398F6152
:10920000CF61A842CAD13046C8E703488188019897
:1092100005F08CFDF5E70000C023002010B500210B
:10922000024801F0BFFF80F3100010BD1C32002087
:109230004FF480328A400168C1F848230068C0F8C2
:10924000082370474FF4A07202EB810189B200F04D
:10925000D4B92DE9F04105460E464FF4A07000EB5D
:10926000860081B228684FF48034B440984622F0DA
:109270007F47C0F808432868C0F84843286804F0CE
:1092800071F9286800EB8600C0F840752868C0F8BE
:109290004443B8F1000F02D02868C0F80443BDE889
:1092A000F0810068D0F804057047000070B543797C
:1092B000274C2A4D44F823204279231D03EBC20298
:1092C000254C1679234A121BD40846B16888082613
:1092D00002283AD3022000EB044021A133E00668C3
:1092E0000A88C6F8082590F904208978002A4FEAF0
:1092F000411104DB02F1E02282F8001405E002F0E3
:109300000F0202F1E02282F8141D90F904100122EC
:10931000002909DB01F01F0602FA06F64909890057
:1093200001F1E021C1F800614179002603EBC101A0
:109330000A71417943F831006888032805D3032076
:1093400000EB04400FA103F09FFC304670BD00000D
:1093500088230020801B0300501B030004250020ED
:1093600052544320696E7374616E636520616C7240
:109370006561647920696E697469616C697A656494
:109380002E0000005254433A20696E697469616C82
:10939000697A65642E00000090F90400002809DB5A
:1093A00000F01F02012191404009800000F1E020FF
:1093B000C0F8001270470A46022100F015B94FF4B8
:1093C000827100F01AB900680121016070470068DD
:1093D0000121416070472DE9F05F07460C464FF4CC
:1093E000A07000EB84001FFA80FA38684FF48036D2
:1093F000A6409B4622F07F45C0F848633868C0F815
:1094000008633868D0F8048500EB8402D2F84095F0
:10941000C2F840855146386804F0A4F8A9EB08006A
:1094200020F07F40012806D1102004F04BFB51466C
:10943000386804F097F83868D0F80485C0F84463B9
:10944000A5EB080121F07F413868012900EB840079
:1094500010D0C0F840553868D0F804156FF07F4C34
:109460006A1A521E22F07F42ACEB0B03934217D3D1
:1094700062B118E06D1CC0F84055102004F022FBCA
:109480003868D0F8040540450AD10CE000EB8400B0
:109490006D1CC0F840553868D0F80405884202D0E9
:1094A0000D20BDE8F09F01223146384600F09CF8BF
:1094B0000020F6E72DE9F843104D0F4680461E4682
:1094C00091466946286801F01AFE040014D01C2158
:1094D000FEF703F801202071C4F81490380BC4F88B
:1094E0000080C4E902606946286801F029FE05F0A1
:1094F000A5FA0020BDE8F8830420FBE77C02030006
:1095000010B503780022072B06D2DFE803F005042C
:109510000610202930000A7010BD01230B7003894A
:109520008B818388CB81C06888600A7410BD022259
:109530000A7002898A818288CA81C2688A60807DB5
:10954000062802D00020087410BD0120FBE703228A
:109550000A70C2888A810289CA81C068886010BD89
:1095600004230B70C0888881CA818A6010BD0520E1
:10957000087010BD70B5064D0646002455F824103D
:1095800009B130468847641C042CF7D370BD000035
:10959000F42A002030B50446006887B00D46806884
:1095A00000281FD018216846FDF797FF0195A06895
:1095B0000590207910B1012810D107E001208DF825
:1095C000000020690290E068039005E002208DF819
:1095D0000000E068000302906069049020688168E0
:1095E0006846884707B030BD0368C3F84413002AB3
:1095F00002D00068C0F80413704710B500684258E4
:109600001AB103F0AFFF012010BD002010BD000013
:10961000034901EB8000A0F50830D0F8000870473E
:10962000F822002070B53A4B3A4C384E1B1B0546C9
:109630004168DB08344A7088032404EB0344B1B169
:1096400003280AD30846FFF7E3FF0346287832A130
:1096500052F82020204603F022FB287888B1012808
:1096600017D0032814D1686800282FD046E00328BB
:10967000F3D3287830A152F82020204603F008FBCD
:10968000EBE76868002803D11F490120091F087013
:1096900070BD68680028FBD170880328F8D3204685
:1096A0002FA1AA6803F0F4FA70880328F0D3AA89DE
:1096B000204630A103F0ECFA70880328E8D3EA8949
:1096C0002046BDE870402FA103F0E2BA708803285D
:1096D00014D3204622A1AA6803F0DAFA708803287E
:1096E0000CD3AA89204623A103F0D2FA708803285C
:1096F00004D3EA89204623A103F0CAFA02490020D4
:10970000C91E487070BD0000C82200202825002016
:10971000C81B0300501B03001B5B313B33326D45FC
:1097200076656E743A202573207265636569766587
:1097300064202825732900001B5B313B33326D45C3
:1097400076656E743A202573207265636569766567
:109750006420284E52465F535543434553532900D6
:109760005265636F72642049443A09307825303479
:109770007800000046696C652049443A0930782534
:10978000303478005265636F7264206B65793A09F2
:1097900030782530347800000D4808B5007888B15D
:1097A000684605F07BF880B106210170684605F037
:1097B00083F80848017809B10121017305F030F9F7
:1097C000002008BD48F2016008BD48F2076008BDEE
:1097D000C8230020B82B0020F0B587B014216846BC
:1097E000FDF77BFE304C207818B16846FFF7C2FECB
:1097F00057E0201D01F0B8FC98BB40F6F8700168F6
:10980000481C02D14FF0102041694FF0805002698E
:1098100040694B1C01D100FB02F124480022016188
:10982000A1F54051C160224902F09AFC002823D1E1
:1098300021481C238C221F49006801F04DFC04F0D4
:10984000A9FD050016D0022D14D000270126062DF3
:1098500014D005A805F022F898B106700C2D1BD283
:1098600000E01EE0DFE805F01810181018171817B0
:109870001812141248F20A6007B0F0BD2670676033
:10988000B3E748F20760F7E7077105E0032100E05E
:109890000221017100E0067105A805F00DF805F040
:1098A000BFF80020E8E70000C8230020D8240020EB
:1098B0008C020300042B0020F8FF020038B50400DE
:1098C00014D0694605F0B4F9B0B1BDF8000000EB62
:1098D00080010B4800EB8100C16851B1A17A41B110
:1098E000C168491EC1600020A07238BD48F2046002
:1098F00038BD48F2056038BD48F2096038BD000047
:10990000902B002038B504460E48007888B19CB1F1
:10991000684604F0C3FF90B1042101700021017179
:109920002168C160684604F0C7FF05F079F800209F
:1099300038BD48F2016038BD48F2046038BD48F2D5
:10994000076038BDC82300201FB501A9684605F08F
:1099500027F904B010BD0B4602460021084605F069
:109960001FB900002DE9FC410E4605002ED06EB354
:1099700001A905F05DF978B36C6800220621B4F8FE
:10998000068067882046FFF7E3F9B900ADF80000CC
:1099900001276A4604F10800091DFFF7D9F9ADF85F
:1099A0000000404515D1BDF804000D4900EB8000D2
:1099B00001EB800001210C3001F0D9FB34606868B4
:1099C0000C307060AF720020BDE8FC8148F204608A
:1099D000FAE748F20C60F7E7FFE748F20960F3E7BF
:1099E000902B002018B10323002206F00BB948F297
:1099F000046070470223002206F004B9094910B53B
:109A00000A69042A0AD0084A096942F8210005486F
:109A10000121103001F0ABFB002010BD48F20B60BB
:109A200010BD0000A8230020F42A00202DE9F84FE3
:109A3000044624480078D8B1F4B112212046FDF73D
:109A40004CFD0320DFF880902080002504F11008F1
:109A500004F10E0A05EB850109EB81063089718955
:109A6000084487B2706804F01FFC032807D009E09F
:109A700048F20160BDE8F88F48F20460FAE72088F8
:109A8000401E20806088F1680844608020897189C8
:109A900008442081608938446081C7F58060A189CD
:109AA00080B2814200D2A0815346A21D211D2846CA
:109AB000CDF8008005F0EEF96D1CADB2022DC9D3D2
:109AC0000020D7E7C8230020902B00202DE9F05F6D
:109AD00017460E00814670D013B1F9B2FFF7A0FA15
:109AE0000024FDF781FC8246006800E0641C315DC3
:109AF000415CC907FAD100253046FEF7B7FDD9F819
:109B00000810001B4A7ED11B814228D306EB0408B3
:109B100005E000BF18F805100A290CD06D1C85421D
:109B2000F8D33119D9F8100002F06CF94846BDE8B5
:109B3000F05FFFF7A7B9D9F8100002F070F94146BD
:109B400000232A464846FEF7CDFF2C444846641CB5
:109B5000FFF798F9F9B24846FFF762FAE1E78B465A
:109B6000DAF8001006EB040818F805000B5CDB07B8
:109B700002D0AB460A2804D0E819904201D26D1CED
:109B8000F2E7D9F8100002F04AF9414600235A469C
:109B90004846FEF7A7FF5C44DAF8000000E0641CCA
:109BA000315D415CC907FAD14846FFF76BF9F9B25C
:109BB0004846FFF735FA9EE7FFE7BDE8F09F4068AB
:109BC00004F08CBE10B504460068FEF74FFD014658
:109BD000A068827F407E1144B1FBF0F200FB1210BE
:109BE00008B1002010BD012010BD000010B50446D2
:109BF000FFF7D2FD002809D0FFF70AFD03462046F3
:109C0000BDE8104002A2022101F05EBE10BD0000BE
:109C10006572726F723A2067617262616765206374
:109C20006F6C6C656374696F6E2072657475726EAB
:109C300065642025730A000070B510B14FF406402A
:109C400070BD1C4C0025207B08B1257301E000F09D
:109C5000A5F8207808282AD2DFE800F02904080CAB
:109C600010291422BDE8704000F026B8BDE870400D
:109C700000F082B8BDE8704000F064B8BDE8704004
:109C800000F040B80620207060880A4900EB800090
:109C9000283901EB80004068BDE8704004F05ABBF1
:109CA000072020706560BDE8704004F061BB48F299
:109CB0000E6070BDB82B00201149F0B48A1C002042
:109CC0000346A1F128050C18A67A4EB1A37200EB49
:109CD000800405EB8404E66816B9247C012C0AD0C4
:109CE000401C80B20228EED30B704B804B60F0BC5E
:109CF00041F61D5070471080F0BC00F03DB80000E8
:109D0000B82B00200C48418801EB8102A0F128010A
:109D100001EB8201CA6852B1052101700748022196
:109D20008180016800230122054802F071B90422F4
:109D300002704968F6E70000B82B0020D02300200D
:109D4000D824002038B50A49084803240B68426823
:109D5000898803EB810153880470DB1C00201B04FD
:109D600000909B0B034802F0B9FA38BDB82B0020D5
:109D7000D0230020D8240020074910B54888091DA9
:109D800004F0A6FF18B1BDE81040FFF7DBBFBDE847
:109D90001040FFF7B7BF0000B82B002070B5194C7A
:109DA0000121207808281AD2DFE800F00419191CD4
:109DB000252929182089134A401C20810020608011
:109DC0002073283A00EB800312F8233043B10023BC
:109DD0002518401C80B2AB720228F3D3217070BDED
:109DE0000123F5E76068084940888A88C01C104450
:109DF0008880022004E000F009F8062000E0072037
:109E0000207070BDB82B0020D02300200A490948DB
:109E10004988026801EB81030749283901EB830176
:109E20004B6803604A6082880A8102228280002097
:109E300008747047D0230020B82B002010B50B48C1
:109E4000FFF72FFA094A083AD2E90434C018D2E9D8
:109E5000063244F10001C31A71EB020204D24FF042
:109E60008072801841F1000110BD000058230020CD
:109E7000428800EB82020C328A4201D902207047EC
:109E80008188A1F57F42FF3A06D0018821B1806820
:109E9000401C01D00020704701207047884204D246
:109EA0000068401C01D0012070470020704700006E
:109EB000FEB5002604460096019602968068E9B336
:109EC000D0E950128A4272D0D0F83C0100286ED0FE
:109ED0002046FEF78EFFA068D0F84451002D69D0CF
:109EE000002309226946284603F0C3F8A1689DF8BB
:109EF00008500098C1F84401A06800230922D0F856
:109F00004401694603F0B5F8A1689DF808200923CB
:109F1000D1F844012031521C03F0ABF8A1689DF840
:109F20000800C877A1689DF8080088779DF80800A8
:109F3000A84202D22046FEF74FF800E00BE0A368EB
:109F40002BA208212046203301F0BEFC2046FEF75C
:109F50007AFF68BB43E0D0F84401002847D0204690
:109F6000FEF747FFA06800230922D0F844016946A4
:109F700003F07FF8A0680199C0F84411A068002997
:109F8000857FB9D1A030FEF771FB0028A06805D00D
:109F900000F1A0012030FDF7C0FA01E080F8206058
:109FA000A0682030FEF762FB8DF80800B6E71EE0DF
:109FB0001AE0FFE72030FEF759FB10F0FF05A0681C
:109FC000D0F83C11C0F84411A06805D000F1200180
:109FD000A030FDF7A2FA8FE780F8A0608CE720465A
:109FE000FFF7F0FD002802D02046FEF74BFFFEBD34
:109FF00025730000FEB50D46816804460026D1F8A1
:10A000003C0138B300230922694603F032F8019578
:10A01000A06800230922D0F83C01694603F031F81A
:10A020000196A068D0F83C110091807F8DF808005F
:10A03000A068C0F83C51002309226946284603F075
:10A0400020F8A168092328468A7F2031521C03F09A
:10A0500018F8FEBDC1F83C51A068C0F84051009608
:10A060000196A068807F8DF80800E4E7FEB50446FD
:10A070008068D0F84061002E28D00023092269466C
:10A08000304602F0F6FFA16801980025C1F84001B2
:10A09000009501952B46092269463046029502F04B
:10A0A000F0FF304602F0B7FFA168D1F8400170B16F
:10A0B00000230922694602F0DCFF0095A068002316
:10A0C0000922D0F84001694602F0DBFFFEBDC1F86D
:10A0D0003C51FEBDFEB5044680682030FEF7C6FA4E
:10A0E00010F0FF05A0684FF00006C0F8446133D0BF
:10A0F000A068D0F83C01E0B100230922694602F0D3
:10A10000B8FF9DF80820AA4213D1A068092300F1E6
:10A11000A001D0F83C01521C02F0ABFFA06800F196
:10A12000A0012030FDF7EBF90028A06880F8A060BE
:10A1300012D000260A352946606902F03CFF010072
:10A14000204604D003B0BDE8F040FFF753BFFFF74F
:10A150008DFF761C082EEED3FEBD000010B50A4917
:10A1600041600A4801F000F858B903F0E5FB0749DF
:10A170001C238C22087404488C39001F006800F0EE
:10A18000ABFF002010BD000080020300542C002013
:10A190002DE9F0412D4F002520B17D604FF40640A0
:10A1A000BDE8F0810879012258B1294E01280CD070
:10A1B000264C4FF002080834022820D0032841D151
:10A1C00027E00A7104F0D4F83AE0002000EB8001A7
:10A1D00016F82110022908D0401C80B20228F5D3BD
:10A1E0003A707D6041F61D50DAE700EB800006F81A
:10A1F000205006EB8000406804F0ACF820E00D71C0
:10A20000A4F80480002301221248216801F000FF15
:10A2100016E00D71206804F09DF80D49236828317F
:10A22000498801EB810206EB8201D1F804C0C4F831
:10A2300000C04B60A3880B81A4F8048006F822506C
:10A240000028ADD07D6048F20D60A9E7C82300204A
:10A25000902B0020D82400202DE9FC5F0E008346BF
:10A26000DDE90C47C6F1000098469246814600D4CD
:10A270000846012503E000BF90FBFAF06D1C504535
:10A28000FADAA84500D9454624B1002E01DB78074B
:10A2900000D5641EB80702D5B8F1000F0AD0F80740
:10A2A00008D13CB1A54205D220215846641EFDF7D5
:10A2B00029FDF6E7002E02DA4E462D2102E078074E
:10A2C00003D52B215846FDF71DFD07F0030002289A
:10A2D0000BD1B8F1000F08D13CB1A54205D2302115
:10A2E0005846641EFDF70EFDF6E7CDE900474346EC
:10A2F00052463146584605F005FBBDE8FC9F00007C
:10A3000070B50D46044600684FF4887103F0D4FB25
:10A310004FF49071206803F0CFFB4FF492712068E6
:10A3200003F0CAFB4FF4A271206803F0C5FB4FF4A1
:10A33000AC71206803F0C0FB20681249C0F8041318
:10A340002068690740F30730090E002804DB00F19C
:10A35000E02080F8001405E000F00F0000F1E0209C
:10A3600080F8141D206840F30730002809DB00F056
:10A370001F02012191404009800000F1E020C0F857
:10A38000001170BD100342000246002012685307FE
:10A3900013D502F00300012802D002280CD105E0F9
:10A3A000C2F383100B68801C184404E00223086881
:10A3B00003EB925210440860012070470248007A73
:10A3C000002800D001207047542C002010B5FDF764
:10A3D000ADF808B1002010BD012010BD800701D0EC
:10A3E0000020704701207047014B00F0A3BF000020
:10A3F00021A60200014B00F09DBF0000EDA7020066
:10A40000014B00F097BF0000F5A70200014B00F0E0
:10A4100091BF0000D5A802007CB51446054601296D
:10A4200002D001F0BDFB38B102B02846BDE8704053
:10A430000022114601F070BA616805A0CDE9000163
:10A4400009A202212846236801F03EFA7CBD0000E3
:10A4500020756E6B6E6F776E20706172616D6574C2
:10A4600065723A200000000025733A257325730DAC
:10A470000A0000002DE9FC41074601F091FB38B1CC
:10A4800002B03846BDE8F0410022114601F044BA5E
:10A490001248134E801B050900241AE006EB041035
:10A4A000C2681179FF2903D0527942B10DA207E0A9
:10A4B00083680EA20821384601F006FA08E013A2CC
:10A4C000CDE90021836814A20821384601F0FCF987
:10A4D000641CAC42E2D3BDE8FC810000501B0300C9
:10A4E000301B0300656E61626C65640025730D0AA4
:10A4F000092D205374617475733A20646561637427
:10A500006976617465640D0A0D0A000064697361FF
:10A51000626C65640000000025730D0A092D20534C
:10A5200074617475733A2025730D0A092D2049440E
:10A530003A2025640D0A0D0A0000000010B50446FB
:10A5400001F02EFB30B120460022BDE8104011463C
:10A5500001F0E2B902F07EF930B105A202212046F5
:10A56000BDE8104001F0B0B90AA20821F7E70000E9
:10A570004661696C656420746F206C6F616420743F
:10A58000686520636F6E66696775726174696F6E66
:10A590002E0D0A00436F6E66696775726174696F8C
:10A5A0006E206C6F616465642E0D0A0010B5044660
:10A5B00001F0F6FA30B120460022BDE81040114605
:10A5C00001F0AAB902F0A0F930B105A2022120469B
:10A5D000BDE8104001F078B90BA20821F7E70000B0
:10A5E0004661696C656420746F2073746F726520B6
:10A5F00074686520636F6E66696775726174696FF0
:10A600006E2E0D0A00000000436F6E66696775725A
:10A610006174696F6E2073746F7265642E0D0A0029
:10A620002DE9FF4FC86881B01D46007917004FF033
:10A630000006009057D0072245A12868FCF776FF56
:10A6400078B1082244A12868FCF770FF00282FD0B9
:10A650002B6843A2019805B00221BDE8F04F01F03C
:10A6600033B9012F02D0022F08D008E0019805B0BD
:10A6700041A2BDE8F04F022101F026B90126DFF822
:10A68000108100240A2258F824106868FCF74EFF55
:10A6900010B1641C052CF5D3052C06D004F0FF097D
:10A6A0000224002E51D0002419E03AA26B68D1E7B1
:10A6B000012F4FF00009F6D0012446E04A4621461A
:10A6C000009800F09FFC48B90021204602F0F6FBFC
:10A6D000034638A20221019801F0F6F8641C02F04A
:10A6E00097FBA042EAD805B0BDE8F08F4FF0000A12
:10A6F00055F824B002F08CFB8046002609E00021CA
:10A70000304602F0DBFB20225946FCF70FFF58B120
:10A71000761C4645F3D3464508D04A465146009834
:10A7200000F070FC30B10FE0B246F4E755F8243089
:10A7300029A205E00021504602F0C0FB03461DA2FD
:10A740000221019801F0C0F8641CBC42CED3CAE7D4
:10A75000656E61626C65000064697361626C6500BE
:10A76000556E6B6E6F776E206F7074696F6E3A20E6
:10A7700025730D0A0000000042616420706172615F
:10A780006D6574657220636F756E742E0D0A00001E
:10A790001C240020556E6B6E6F776E207365766596
:10A7A00072697479206C6576656C3A2025730D0AA0
:10A7B000000000004C6576656C20756E61766169FD
:10A7C0006C61626C6520666F72206D6F64756C657C
:10A7D0003A2025730D0A0000556E6B6E6F776E2060
:10A7E0006D6F64756C653A25730D0A00C9680120A8
:10A7F00048717047C96800204871704730B41346EB
:10A80000C4680A46214630BCFFF70ABFC068012170
:10A81000C06841717047C0680021C06841717047CD
:10A8200030B41346C4680A46214630BC00F052B822
:10A830002DE9FF410026244800F093FC2248001F28
:10A84000074600F08EFC214C2149A06800900D685D
:10A8500000E000986946284004EB80000C30FFF7C8
:10A8600093FD0028F5D101AA009901EA050304EB44
:10A870008303491CDB6842F82030401C0091022809
:10A88000F2D3019800F0030001280BD0022810D168
:10A890000198032101EB90500099BDF80A6001EB8B
:10A8A000900005E00198BDF80A60C0F383100844E9
:10A8B0000090384600F052FC08B10098A06004B047
:10A8C0003046BDE8F081000018320020002E002044
:10A8D000182400202DE9FE4F8846824602F098FA9F
:10A8E0000746D8F80C00407920B922A20221504630
:10A8F00000F0EAFF24A327A20821504600F0E4FF5D
:10A900002CA20821504600F0DFFF00242DE000BFFC
:10A91000D8F80C0001231A4605792146284602F092
:10A9200081FA8146002301222146284602F07AFA64
:10A930000546032801D2064600E0032601212046F1
:10A9400002F0BCFA0346AE4201D22AA200E028A2DD
:10A95000294850F8261050F829008DE8070027A252
:10A960000821504600F0B0FF641CBC42D0D3BDE8C3
:10A97000FE8F00004C6F6773206172652068616C08
:10A98000746564210D0A00006D6F64756C655F6EFF
:10A99000616D6500252D343073207C2063757272E3
:10A9A000656E74207C206275696C742D696E200D53
:10A9B0000A0000002D2D2D2D2D2D2D2D2D2D2D2D71
:10A9C0002D2D2D2D2D2D2D2D2D2D2D2D2D2D2D2DB7
:10A9D0002D2D2D2D2D2D2D2D2D2D2D2D2D2D2D2DA7
:10A9E0002D2D2D2D2D2D2D2D2D2D2D2D2D2D0D0ADA
:10A9F000000000002A0000001C240020252D343017
:10AA000073207C20252D3773207C20257325730D22
:10AA10000A0000008EB002F043FF08B1FCF7E4FF2B
:10AA200006A9012002F0AEFD08B1FCF7DDFF06A883
:10AA300002F034FE08B1FCF7D7FFFCF7F3FF08B1D2
:10AA4000FCF7D2FF4FF48041002002F091F908B1E9
:10AA5000FCF7CAFFFDF7CCFB7348744A714D801AAE
:10AA6000C0086988032202EB0044032903D320466F
:10AA70006FA102F009F97448FEF7C0FF6888032847
:10AA800003D3204671A102F0FFF8FEF7A5FE08B13E
:10AA9000FCF7AAFF724E307800287CD06888032823
:10AAA00042D320466FA102F0EFF8688803283BD319
:10AAB000204671A102F0E8F86888032834D32046C4
:10AAC00074A102F0E1F8688803282DD320467AA10A
:10AAD00002F0DAF86888032826D320467EA102F027
:10AAE000D3F8688803281FD3204681A102F0CCF850
:10AAF0006888032818D3204684A102F0C5F8688826
:10AB0000032811D3204688A102F0BEF868880328E4
:10AB10000AD320468CA102F0B7F86888032803D333
:10AB2000204691A102F0B0F814216846FCF7D5FC4C
:10AB30006846FEF77BFF08B1FCF756FF68880328DC
:10AB40000ED3BDF80420204690A102F0A1F8688839
:10AB5000032805D3BDF80620204692A102F098F8FC
:10AB600000270797089709970A970AAB07AA47F2A1
:10AB7000100148F210000B97FEF7E6FE48F2066659
:10AB8000C8B16888032803D3204694A102F07CF85A
:10AB9000984907A800E00CE0FEF72CFF90B3B04204
:10ABA00031D16888032830D32046934902F06CF8ED
:10ABB0002BE041DF6FE70C970CA907A80D97FEF774
:10ABC000D1FE08B1FCF710FF254818221C300D9962
:10ABD000FCF75CFC224F68881C37032804D320460E
:10ABE00086A13A6802F054F83868401C386007A81B
:10ABF000FEF764FE08B1FCF7F7FE7E4907A8FEF7F2
:10AC0000F1FECBE701E0FCF7EFFEFDF7D3FB00BF61
:10AC100001F000FF00B941DFFDF7BEFBFEF73EFA91
:10AC2000F6E7000028250020C81B0300501B030086
:10AC3000464453206578616D706C65207374617251
:10AC40007465642E0000000025960200496E697448
:10AC500069616C697A696E67206664732E2E2E00B6
:10AC6000C4220020417661696C61626C6520636F6B
:10AC70006D6D616E64733A002D207072696E742080
:10AC8000616C6C09097072696E74207265636F7211
:10AC9000647300002D207072696E7420636F6E669D
:10ACA0006967097072696E7420636F6E6669677593
:10ACB000726174696F6E00002D2075706461746537
:10ACC000090975706461746520636F6E66696775E4
:10ACD000726174696F6E00002D20737461740909CC
:10ACE00073686F7720737461746973746963730038
:10ACF0002D2077726974650909777269746520611E
:10AD0000206E6577207265636F7264002D20646524
:10AD10006C657465090964656C65746520612072F1
:10AD200065636F72640000002D2064656C65746556
:10AD30005F616C6C0964656C65746520616C6C2086
:10AD40007265636F726473002D2067630909727501
:10AD50006E206761726261676520636F6C6C65630A
:10AD600074696F6E0000000052656164696E67204F
:10AD7000666C6173682075736167652073746174B4
:10AD80006973746963732E2E2E000000466F756E12
:10AD9000642025642076616C6964207265636F723B
:10ADA00064732E00466F756E64202564206469729A
:10ADB0007479207265636F726473202872656164B0
:10ADC0007920746F20626520676172626167652017
:10ADD000636F6C6C6563746564292E0057726974C7
:10ADE000696E6720636F6E6669672066696C652EA1
:10ADF0002E2E0000C4FF0200440A0300436F6E665B
:10AE000069672066696C6520666F756E642C2075B5
:10AE100070646174696E6720626F6F7420636F7510
:10AE20006E7420746F2025642E0000002DE9FF4F02
:10AE30004FF0000881B014468B468146C246C0F8E8
:10AE400000802578002D71D0FCF7CEFA00900068C4
:10AE5000405DC00702D004F801AB84E0D9F80000DF
:10AE60008300401CC9F800004BF8034015E0267829
:10AE7000002E78D0B8F1000F05D1222E10D0272E49
:10AE80000ED05C2E1ED0B04514D12046FDF7EEFB4F
:10AE90000246611C2046FCF7F9FA4FF00008E6E78D
:10AEA0002046FDF7E3FB0246611C2046FCF7EEFA64
:10AEB000B046DCE7B8F1000F50D05C2E61D160786D
:10AEC000404508D12046FDF7D1FB0246611C2046D3
:10AED000FCF7DCFA55E030281CD100270225605D24
:10AEE000A0F13001072906D86D1C41EAC701EDB277
:10AEF000CFB2052DF3D3022D0CD92046FDF7B6FBBA
:10AF0000421B61192046491E921CFCF7BFFA04F847
:10AF1000017BACE778281ED100270225605DA0F1F7
:10AF20003001092903D841EA07100DE021E0A0F122
:10AF30006101052901D8573804E0A0F14101052934
:10AF400007D8373840EA07106D1CEDB2C7B2042DA0
:10AF5000E4D3022DD1D8B8F1000F12D100980068C7
:10AF6000805DC0070DD0D9F8001004988142FFF42D
:10AF700068AFD9F8002040464BF822A005B0BDE8E4
:10AF8000F08F641C73E72DE9F047C5881E1DB6FBE2
:10AF9000F5F78946B6FBF5F1044605FB176C4079D9
:10AFA00016686843DDF820A0F718001F874200D913
:10AFB000C61A166001E02468491E0029FBD1A5EBE2
:10AFC0000C078846B74216D818E004EB0C00001DA9
:10AFD00009EB0803BAF1000F3A4602D001461846C1
:10AFE00000E01946FCF752FA2468F61B4FF0000CFB
:10AFF000B844B54201D9374600E02F46002EE4D1CF
:10B00000BDE8F08770B5144600230D4606461A4683
:10B0100001F008FF844201D9002070BD2246294674
:10B02000304601F023FF012070BD000030B502461C
:10B0300051B101F0EDFE0021074C08E034F8213059
:10B040001568AB4202D11160002030BD491C81421D
:10B05000F4D3052030BD0000EC24002010B50C46D0
:10B060000021E16061600349A160012101F026FF38
:10B07000206010BD4C04030070B58468006804F1C2
:10B080001405FDF7F3FAC1B2A971E07F6A790844AB
:10B09000B0FBF2F302FB13035B1C2B70E07F084450
:10B0A000B0FBF2F35B1CAB70A07F0844B0FBF2F383
:10B0B0005B1CEB70A07F0844B0FBF2F102FB1101B6
:10B0C000491C6970284670BD10B5FCF7F0F808B14E
:10B0D000002010BD112010BD10B531B1B2FBF3F44A
:10B0E00003FB14241CB1092010BD0E2010BD01600B
:10B0F0000021416081608281C381084610BD70B526
:10B100000C460546FCF788F8002802D021882868FC
:10B11000084470BD10B50A8849888A4203D1FCF7FB
:10B12000BDF8012010BD002010BD70B50C460546CD
:10B13000FCF797F8002802D061882868084470BDA1
:10B1400010B50A8849888A4203D1FCF781F80120AA
:10B1500010BD002010BD002100F00FB8002100F04C
:10B1600017B8012100F023B8012100F016B808B586
:10B170006A46FCF7E8F8009808BD08B56A46FCF78F
:10B18000C8F8009808BD08B56A46FCF7DCF808BDA9
:10B1900008B56A46FCF7BDF808BD08B56A46FCF775
:10B1A000ABF808BD08B56A46FCF79AF808BD08B5C3
:10B1B0006A46FCF7A1F8009808BD08B56A46FCF796
:10B1C000CFF8009808BD38B5044600258DF800502A
:10B1D0006846FCF775FC21686268086890420ED9E1
:10B1E000401E08600178238BE26801FB0325227A68
:10B1F0002168101AC0B20A79824200D208719DF803
:10B200000000FCF781FC284638BD38B50546002013
:10B210008DF800000C466846FCF752FCE868298B64
:10B22000201AB0FBF1F12A681068431C136001700A
:10B230009DF80000FCF768FC38BD10B530B1017A0C
:10B2400042680368891AC9B21A6006E00E2010BD70
:10B2500003681A68541C1C601170491EC9B2F7D2E9
:10B26000006800210171084610BD00002DE9F0477B
:10B270000646806888B0D0F84801C0F3400038B175
:10B2800008B03046BDE8F0470022114600F044BB4C
:10B29000012907D908B03046BDE8F0471DA20221B8
:10B2A00000F012BB2049DFF884A0A1EB0A001C21AA
:10B2B000B0FBF1F5002428E0C4EBC4010AEB8103E4
:10B2C0004FF000091F68D3E901103A793F78411A1D
:10B2D000B3F81880C01B5B69C0B2642712FB07F784
:10B2E000B7FBF1FC642710FB07F7B7FBF1F7CDE9DB
:10B2F0000621CDE9041CCDE902700D4A0821304633
:10B30000CDE9008900F0E0FA641CAC42D4D308B067
:10B31000BDE8F08742616420617267756D656E7487
:10B3200020636F756E740000201C0300E81B03008F
:10B33000A40C03002DE9FF5F8B46164814499A467A
:10B34000091A0F09914652F8046C0025804607E05F
:10B3500008EB05143046A168FCF7D1F818B16D1C54
:10B36000BD42F5D30BE0210009D0009804B04B4654
:10B370005A46D446BDE8F04F5DF804EB60470098AC
:10B3800004B03346BDE8F05F03A2022100F09CBA8E
:10B39000501B0300301B0300496E76616C6964200A
:10B3A0006261636B656E643A2025730D0A000000CC
:10B3B00070B515468268D2F84841C4F3400424B100
:10B3C0001A46294600F0A8FA05E031B1536804A2F4
:10B3D000022100F079FA012070BD002070BD00004C
:10B3E00025733A2077726F6E6720706172616D65A8
:10B3F00074657220636F756E740A000010B50446A0
:10B4000002290CD1A068D0F84801C0F3400030B147
:10B4100020460022BDE81040114600F07DBA064AE1
:10B4200006A1206900F0EEFC034A2069BDE8104047
:10B43000093202A100F0E6BCCD0103002573000033
:10B44000012907D0022909D18168D1F84811C1F337
:10B45000400119B10022114600F05EBA01A202219A
:10B4600000F032BA506C6561736520737065636972
:10B470006679206120737562636F6D6D616E642EF5
:10B480000A0000001CB5012905D002290BD014D9EF
:10B490004FF0010112E002B04FF00002BDE8104091
:10B4A000114600F039BA536808A1CDE900131368BA
:10B4B0000CA2022100F008FA1CBD002102B00023FA
:10B4C000BDE810401A46FFF773BF000020756E6B91
:10B4D0006E6F776E20706172616D657465723A206F
:10B4E0000000000025733A257325730A0000000050
:10B4F00010B50446012901D0012100E000210023FC
:10B500001A46FFF755FF002809D1A168C1F8380194
:10B51000E06840680068BDE8104001F01DBE10BD45
:10B520003EB50546012901D0012100E0002100239C
:10B530001A46FFF73DFF002818D1E8684068046804
:10B54000204601F006FEC0B2642110FB01F2A168A2
:10B55000B2FBF1F2D2B20092CDE90101A86804A2D7
:10B560000021D0F83831284600F0AEF93EBD000089
:10B570004C6F7374206C6F67733A2025750A4D61A8
:10B5800078206C6F67207175657565207574696CBE
:10B59000697A6174696F6E3A2025752525205B25CF
:10B5A000752F25755D0A00007CB5144605460129F6
:10B5B00003D0022908D0012107E002B00022BDE833
:10B5C0007040114600F0A8B9002100231A46FFF789
:10B5D000EFFE002809D1616804A0CDE9000109A2AD
:10B5E00002212846236800F06FF97CBD20756E6B40
:10B5F0006E6F776E20706172616D657465723A204E
:10B600000000000025733A257325730A000000002E
:10B6100010B50446012901D0012100E000210023DA
:10B620001A46FFF7C5FE002806D1A068D0F84811D9
:10B6300021F00401C0F8481110BD10B504460129DD
:10B6400001D0012100E0002100231A46FFF7B0FEDF
:10B65000002806D1A068D0F8481141F00401C0F8D4
:10B66000481110BD7CB514460D460646022901D985
:10B67000012100E0002100231A46FFF799FE00286F
:10B6800011D1022D05D03046FCF7ACFD60B10BA303
:10B690000BE061680AA0CDE900010FA2022130464B
:10B6A000236800F011F97CBD0EA302B03046BDE85E
:10B6B00070400DA2002100F007B900006F6E00007D
:10B6C00020756E6B6E6F776E20706172616D657440
:10B6D00065723A200000000025733A257325730A2D
:10B6E000000000006F6666004563686F2073746138
:10B6F0007475733A2025730A0000000010B50446E3
:10B70000012901D0012100E0002100231A46FFF7A2
:10B710004FFE002806D1A068D0F8481121F008019A
:10B72000C0F8481110BD10B50446012901D001210F
:10B7300000E0002100231A46FFF73AFE002806D158
:10B74000A068D0F8481141F00801C0F8481110BDB8
:10B750007FB50446012901D0012100E0002100232A
:10B760001A46FFF725FE002827D1A0680026D0F84A
:10B770004051F5B101E0082E1BD20023092201A996
:10B78000284601F076FC9DF80C20A1680923284684
:10B79000A031521C01F06DFCA0683346A03000902F
:10B7A000029D761C05A20021204600F08DF8002D98
:10B7B000E1D1A168002081F8A0007FBD5B25336442
:10B7C0005D2025730A0000007CB51546044601295A
:10B7D00003D0022917D9012116E0A16801F118024E
:10B7E000193103F0D7FD00281ED0A16850200FA208
:10B7F0004876A1681820087602B02046BDE870405F
:10B80000042100F061B8002100231A46FFF7D0FDA3
:10B81000002809D1696814A0CDE9000118A202210D
:10B8200020462B6800F050F87CBD00004E6F20725F
:10B830006573706F6E73652066726F6D20746865D6
:10B84000207465726D696E616C2C20617373756D07
:10B8500065642038307832342073637265656E20F9
:10B8600073697A650A00000020756E6B6E6F776EE3
:10B8700020706172616D657465723A20000000008D
:10B8800025733A257325730A0000000010B504469D
:10B89000012901D0012100E0002100231A46FFF711
:10B8A00087FD00280AD1064A06A1206900F0AAFAFD
:10B8B000A16850204876A1681820087610BD0000C5
:10B8C000E6010300257300000FB438B5044607A84D
:10B8D0000090A068D0F84821520717D5C27E8A424E
:10B8E00014D0B0F81B50204604F0F0F86A462069E6
:10B8F000069900F0A0FAE9B2204604F0E7F8290A18
:10B90000204604F0C5F838BC5DF814FB6A4620698F
:10B91000069900F090FAF6E72DE9F04F804689B0DD
:10B9200017460C468648FCF7A1FE05468448363883
:10B93000FCF79CFE281A1FFA80F9814881A223385F
:10B940000090D8F80800082143684046FFF7BCFF84
:10B95000D8F808004068FCF789FE05467848233887
:10B96000FCF784FE284482B2D8F8080000238168DE
:10B970004046FEF7ABF875A200214046FFF7A4FF52
:10B980000FB304B300251CE005EB450A04EB8A0B5A
:10B99000DBF80400FCF76AFE064654F82A00FCF7C0
:10B9A00065FE311849450BD9DBF80400FCF75EFE53
:10B9B000064654F82A00FCF759FE30441FFA80F975
:10B9C0006D1CBD42E0D35E483638FCF74FFE48445C
:10B9D000801C1FFA80F95A4800904B465EA208214D
:10B9E0004046FFF771FF09F1030086B2079000237C
:10B9F00032465BA14046FEF769F8002C52D0002584
:10BA00004EE000BF05EB450A04EB8A0B54F82A0010
:10BA1000DBF804306BB350B3494956A23639CDE94F
:10BA2000001008214046FFF74FFF09F10200009087
:10BA3000DBF80400FCF71AFE064654F82A00FCF76F
:10BA400015FE06443E483638FCF710FE31180098C3
:10BA5000401A801EC1B24046FDF7E2FA3A22484938
:10BA6000D8F8100000F0CEF90098401C0AE00093CE
:10BA700001E040B100904B4637A208214046FFF755
:10BA800023FF079886B2DBF8081029B1002332465D
:10BA90004046FEF71BF802E04046FDF7F3F96D1C47
:10BAA000BD42AFD3D8F80800C068002845D0814611
:10BAB00000200446064603AD02903246761C02ABD7
:10BAC000012148460095FDF75BF8029850B10068E7
:10BAD000FCF7CCFDA042F0D902980068FCF7C6FD47
:10BAE00084B2EAE7012E28D026A200214046FFF7C3
:10BAF000EBFE00263246761C02AB0121484600953B
:10BB0000FDF73EF80298002817D0A11C8FB20068FC
:10BB100000903B4610A208214046FFF7D5FE029850
:10BB2000FF1CBAB2416821B100234046FDF7CEFFA9
:10BB3000E0E74046FDF7A6F9DCE709B0BDE8F08F85
:10BB4000EC01030025732573000000004F70746939
:10BB50006F6E733A0A0000002020252D2A733A00E8
:10BB600053686F7720636F6D6D616E642068656CDC
:10BB7000702E00002020257325732573000000001F
:10BB8000D47F0200537562636F6D6D616E64733AAA
:10BB90000A0000008068D0F84801C0F340007047F8
:10BBA0008068D0F84801C0F3400070472DE9F041AB
:10BBB0001E460546069F00F013F804000DD166B13D
:10BBC0003946E86800F024FD002802DA0420BDE8C8
:10BBD000F081E8680121C06841712046F7E7000064
:10BBE00070B50446C06815462346406884606068A6
:10BBF00002681668254AB047002845D1606901F0FF
:10BC000027FA002840D1A168C1F83C01A168C1F819
:10BC100040014FF4A671A068FBF75FFCA068D0F864
:10BC2000481141F02001C0F84811A068D0F848112F
:10BC300065F38201C0F84811A068D0F8481141F0BE
:10BC40000801C0F84811A1680120124B0870A168D2
:10BC50005020114A4876A1681820087600210C4827
:10BC6000D21A06E003EBC1046468246840F821405E
:10BC7000491CB1EBD20FF5D3072A04D9D108074BE1
:10BC80000422FBF7B5FB002070BD00009189020083
:10BC9000A0240020C01A0300301B03008DF3020013
:10BCA0000023FCF71FBF000010B504468068102178
:10BCB00000F5A470FFF77BFAA0680078F8B10128BE
:10BCC0001DD002281BD12046FCF782FB0021204614
:10BCD000FCF7AEFA98B110A2032120462368FFF7C3
:10BCE000F3FD2046FCF77EFA48B1A3680AA20821BA
:10BCF00020462033FFF7E8FD2046FDF75BF9206979
:10BD000000F08DF8A068BDE810406FF0100100F55C
:10BD1000A470FFF732BA00002573000070B5044626
:10BD200080680078012801D0082070BD6068016833
:10BD30008A680021904705000FD10821204603F0B2
:10BD4000C5FE0121204603F0A3FE05A1206900F0F5
:10BD500059F802212046FCF775FC284670BD00000A
:10BD60000A0A0000F0B505460478154889B0164661
:10BD700040F82420124A08690832A2F10C0742F860
:10BD80002400487F385520226846FBF77FFB049447
:10BD90002878385C48B10EB10A4A00E000226946B2
:10BDA000281D02F083F809B0F0BD0EB1064A00E08C
:10BDB0000022694605F10C0001F0C2FEF3E7000025
:10BDC00038230020A1F70200E9F5020030B403781F
:10BDD000054CE35C1BB130BC001D02F035B930BC32
:10BDE0000C3001F097BF0000342300200178044A92
:10BDF000515C11B1001D02F08BB90C3001F0EEBFA7
:10BE0000342300200FB408B50399002904D004AAF4
:10BE100000926A4600F00FF801B05DF814FB10B50F
:10BE200082680446002A05D0D4E9040321689847B3
:10BE30000020A06010BD2DE9FC4791460C00804613
:10BE400076D014F8011B39B125290ED04046FBF7F6
:10BE500059FF20780028F4D198F80C00002867D00A
:10BE60004046BDE8FC47FFF7DABF002001222178F9
:10BE70002B291BD02D2902D0302908D102E040F017
:10BE8000010001E040F00200641C002AEFD100250F
:10BE90002A290ED02178A1F130020A2A11D205EB0D
:10BEA000850201EB4205641C303DF1E740F00400DF
:10BEB000EAE7D9F800100B1DC9F800300968641CC6
:10BEC0000D44217800232E290BD114F8011FA1F174
:10BED00030020A2A05D203EB830201EB4203303B16
:10BEE000F3E76C290DD068290BD0692921D00BDC30
:10BEF000252918D0582931D063290ED0642915D1AD
:10BF000017E014F8011FECE7702969D0732932D0CB
:10BF100075291BD0782909D120E0D9F80000011D2E
:10BF2000C9F8001001784046FBF7ECFE641C90E76E
:10BF30006CE0D9F800100A1DC9F800200968CDE9A5
:10BF400000500A224046FEF787F9EFE7D9F80010C3
:10BF50000A1DC9F8002009680A2206E0D9F8001075
:10BF60000A1DC9F8002009681022CDE9005040469A
:10BF700003F0C8FCDAE7D9F8001000270A1DC9F859
:10BF800000200E68C00705D112E04046761C7F1CD9
:10BF9000FBF7B8FE31780029F7D104E020214046B4
:10BFA0006D1EFBF7AFFEBD42C0D9002DF6D1BDE737
:10BFB0004EB13046FBF79CFA074604E0202140468C
:10BFC0006D1EFBF79FFEBD4206D9002DF6D103E0A2
:10BFD0004046761CFBF796FE31780029F8D1A5E79C
:10BFE000D9F80000011DC9F800100568302140464D
:10BFF000FBF788FE78214046FBF784FE08200021ED
:10C00000CDE90001034610222946B0E7BDE8FC87D0
:10C010002DE9F84F8946050032483349304FA0EBEF
:10C0200001004FEAD0004FF0010101EB0044788895
:10C030009A46164626D0296800292FD0002E38D0DF
:10C040006A6849464FF010081268531E13EA090F38
:10C0500010D172432846FBF771FC002834D02868C1
:10C0600053463246046901B049462846A446BDE815
:10C07000F04F6047002831D020461C4B1CA2CDF861
:10C08000008028E038B10E2000902046174B22A2F5
:10C0900023A100F00CFE0E20BDE8F88F38B1082077
:10C0A00000902046114B29A21DA100F000FE08209F
:10C0B000F2E738B10920009020460C4B26A218A1C7
:10C0C00000F0F5FD0920E7E7788838B1074B234AEF
:10C0D0002046CDF8008012A100F0E9FD1020DBE73A
:10C0E00014250020A01B0300501B0300670203005F
:10C0F000616464725F69735F706167655F616C69D9
:10C10000676E656428705F66732C20706167655F79
:10C110006164647229000000705F667300000000B3
:10C12000257320636865636B206661696C656420B4
:10C13000696E202573282920776974682076616CE0
:10C14000756520307825782E00000000705F6673DA
:10C150002D3E705F617069006C656E00EC0F03002E
:10C16000F8B503001448154E124CA0EB06004FEA38
:10C17000D0004FF0010664884FF00E0506EB00403A
:10C1800009D069B119600C6801B0A446BDE8F0405F
:10C1900011461846604754B1094B0AA2009503E0C6
:10C1A0002CB1074B09A200950AA100F080FD0E20DA
:10C1B000F8BD000014250020A01B0300501B030045
:10C1C0001C020300705F667300000000705F617006
:10C1D00069000000257320636865636B20666169F0
:10C1E0006C656420696E202573282920776974683E
:10C1F0002076616C756520307825782E000000006F
:10C20000044801214174007A08B1002070470120E0
:10C2100070470000542C0020012801D0032808D1C9
:10C220000449002201284A7400D00020087402F05A
:10C23000A7BB7047542C002070B50246022801D0DD
:10C24000032A45D1234C207A002841D0012833D03D
:10C25000022831D120480023022A006802D0032A94
:10C260002AD11BE0E360017911B1012924D10DE04D
:10C27000D0E90565711B4FF48056B14200D33146B9
:10C28000294481614569A9420ED015E00169491C24
:10C290000161426991420FD1237213E0E168491CA8
:10C2A000E160082908D9E3602372022A0AD00D212F
:10C2B000FDF770F902F008FB607C28B1BDE8704022
:10C2C00001F040BB0021F3E7BDE8704002F058BB2D
:10C2D00070BD0000542C0020F02300202DE9F84F01
:10C2E000914605004348444A414EA0EB02004FEA04
:10C2F000D0004FF0010202EB00448B467088DDF85D
:10C3000028A098464FF00E011CD0B9F1000F1FD0A5
:10C310002968002926D00921B8F1000F2DD06A68BC
:10C320005368B8FBF3F703FB1782002A2CD030B117
:10C33000324B204632A200913CA100F0B8FC09200B
:10C34000BDE8F88F60B120462C4B43A2009104E079
:10C3500030B12A4B204642A2009134A100F0A7FC44
:10C360000E20EDE738B1082000902046234B3EA276
:10C370002EA100F09CFC0820E2E70028DFD0204638
:10C380001E4B3CA20091D7E75846FBF7D1FA102785
:10C3900098B14846FBF7CCFAB8B142465946284610
:10C3A000FBF7CCFAD8B1CDF800A0286843464A463E
:10C3B000C46859462846A047C2E77088002815D0AF
:10C3C00020460E4B2CA2009705E0708870B10B4BF5
:10C3D00020462FA2009715A100F069FC06E07088A6
:10C3E00020B12046054B33A20097F4E71020A7E7C1
:10C3F00014250020A01B0300501B0300540203005F
:10C4000021286C656E202520705F66732D3E705F5D
:10C41000666C6173685F696E666F2D3E70726F67E0
:10C4200072616D5F756E6974290000002573206369
:10C430006865636B206661696C656420696E2025A0
:10C4400073282920776974682076616C75652030BF
:10C450007825782E00000000705F667300000000F1
:10C46000705F737263000000705F66732D3E705FD3
:10C47000617069006C656E00616464725F69735F0E
:10C48000616C69676E656433322864657374290072
:10C49000616464725F69735F616C69676E65643360
:10C4A00032282875696E7433325F7429705F737235
:10C4B00063290000616464725F69735F77697468FF
:10C4C000696E5F626F756E647328705F66732C208F
:10C4D000646573742C206C656E2900002DE9FF41A2
:10C4E0001C46DDE90A7815460E46684600F060F8FD
:10C4F00046EA450141EA840141EA072242EA08414D
:10C50000009A00EB8200C0F80017BDE8FF812DE91A
:10C51000FF411C46DDE90A7815460E46684600F0E4
:10C5200055F846EA450141EA840141EA072242EA18
:10C530000841009A00EB8200C0F80017BDE8FF81B7
:10C540001CB5002100910B4601220191FFF7C6FFA7
:10C550001CBD1CB5002100910B4601220191FFF783
:10C56000D6FF1CBD1CB500220B460092114601925D
:10C57000FFF7B4FF1CBD1CB500220B46009211460C
:10C580000192FFF7C4FF1CBD1CB5002100910B46B2
:10C59000012201911146FFF7A1FF1CBD1CB500212E
:10C5A00000910B46012201911146FFF7B0FF1CBD1F
:10C5B0000168202902D24FF0A040704701F01F010E
:10C5C0000160014870470000000300500168202905
:10C5D00002D24FF0A040704701F01F0101600148F6
:10C5E000704700000003005001B56846FFF7E0FF08
:10C5F000009A01219140C0F8081508BD01B56846B0
:10C60000FFF7E4FF009A01219140C0F8081508BD2A
:10C610002DE9F041054620480E460024D0F810349C
:10C6200019460AE0CA681179A14205D1641C0A2C96
:10C63000F6DB4FF0FF342BE011680029F2D1611CCA
:10C6400026D0E9680C71D0F8101459B1C968EA68AD
:10C6500009681160D0F81004C06805600027DFF891
:10C660003C8011E0C0F81054E96800200860F5E74C
:10C6700008EBC700C279B24200D33246E8683946B7
:10C68000007900F0F3FB7F1C00F0C2FBB842EFD84A
:10C690002046BDE8F0810000002E0020501B030062
:10C6A000406801218068FBF7C3BD10B5406884680D
:10C6B000606801688A680121904718B10420A16868
:10C6C000087010BD0320FAE72DE9F3414468A6681D
:10C6D000B068007804281ED0032807D0002501A9DF
:10C6E000206800F044FD85F0010709E00125F6E728
:10C6F00039463046FBF79CFD01A9206800F037FD64
:10C700000028F5D1019800F09FFC002D03D00021F6
:10C710003046FBF78DFDBDE8FC81F0B595B01C46B9
:10C7200015460E4608461A9F00F08EFC182109A8EF
:10C73000FAF7D3FE0E97CDE909540023082203A986
:10C74000304600F096FC05980690BDF81000ADF854
:10C750001C00BDF81200ADF81E0000208DF821006D
:10C760000399082501F00300012802D0022816D001
:10C770002FE0C1F3C200C1F383178C0A8DF82000AB
:10C78000BA002B460FA9304600F073FC09A80090B0
:10C7900006AB3A460FA9204600F0B2FB19E0C1F300
:10C7A000C2008C0D8DF82000082C01D2274600E035
:10C7B00008272B463A460FA9304600F05AFC3D4464
:10C7C000E41B09AB06AA39460FA800F079FA002C41
:10C7D000EAD1304600F03EFC15B0F0BD70470000D5
:10C7E000084810B50178084A515C19B1001D01F0E4
:10C7F0008FFC02E00C3001F0F1FABDE8104000209F
:10C8000002F010BFFC2300203423002008B5034AA7
:10C8100000924023024AFFF780FF08BD89F1020021
:10C82000682C00200A4A012902EBC00007D0022927
:10C8300007D0032907D0042907D000207047022021
:10C8400070470420704700797047407970470000B6
:10C85000501B030010B588B0002403940494059481
:10C86000069406AB03AA43F2274141F26E000794F7
:10C87000FDF76AF8B0B1A0F50641093902D00320EE
:10C8800008B010BD11484088022809D3104811494A
:10C89000401AC008022101EB00400FA100F0F4F99A
:10C8A0000520EDE7019401A903A80294FDF75AF8C9
:10C8B0000028E5D11248134902468A1A0299FAF76C
:10C8C000E5FD03A8FCF7FAFFDAE7000028250020C1
:10C8D000C81B0300501B03004C6F67676572206321
:10C8E0006F6E66696775726174696F6E2066696CD8
:10C8F00065206E6F7420666F756E642E00000000F8
:10C90000382500208425002070B58AB000202149F8
:10C9100002900090019007900890D1E90701CDE9BD
:10C9200004011D481D4907AB401A800806906A465D
:10C9300043F2274141F26E00FDF706F819491A4A01
:10C94000174E891AC908032202EB0144A8B1A0F5C9
:10C950000641093903D003250AB0284670BD04A951
:10C960006846FDF747F8054670880328F4D320464B
:10C970002A460EA100F08CF9EEE704A96846FDF7FF
:10C9800031F8054670880328E6D320462A4614A1CC
:10C99000F0E700004C040300842500203825002027
:10C9A00028250020C81B0300501B03004C6F67673D
:10C9B000657220636F6E66696775726174696F6E08
:10C9C0002066696C65207772697474656E2077697A
:10C9D000746820726573756C743A256400000000F9
:10C9E0004C6F6767657220636F6E66696775726109
:10C9F00074696F6E2066696C65207570646174651A
:10CA000064207769746820726573756C743A256464
:10CA1000000000002DE9F04F8DB0FBF78BF918B145
:10CA200000200DB0BDE8F08F8B4C0020C4F8180436
:10CA3000BFF34F8F8949A06802900D684FF000093D
:10CA4000284004EB80000BE0D4F8180470B961684A
:10CA50000298814201D8A160E2E7284004EB8000FF
:10CA60000C3002A9FDF790FC0028EDD100200AAAA5
:10CA7000A046029901EA050308EB8303491CDB6821
:10CA800042F82030401C02910228F2D30A9800F0AC
:10CA90000301022902D001294ED0BFE0810D5022AE
:10CAA0008A46B2EB905F00D850210C4664F39F5049
:10CAB000C0F3C2070A900831694800F07CFA06000A
:10CAC000EBD000F0C1FA4B4608220AA9304600F02C
:10CAD000D8FA029909F1080B2940681A8000001D54
