:020000040000FA
:1000000030210020DD020000E5020000E7020000D0
:10001000E9020000EB020000ED0200000000000019
:10002000000000000000000000000000EF020000DF
:10003000F102000000000000F3020000F5020000E1
:10004000C9030000F7020000F7020000F7020000F9
:10005000F7020000F702000025030000F70200008D
:10006000F7020000F7020000F7020000F7020000AC
:10007000F7020000F7020000F7020000F70200009C
:10008000F702000021040000F7020000F702000060
:10009000F7020000F7020000F7020000F70200007C
:1000A000F7020000F7020000F7020000F70200006C
:1000B000F7020000F702000000000000000000004E
:1000C000F7020000F7020000F7020000F70200004C
:1000D000F7020000F7020000F70200000000000035
:1000E0000000000000000000000000000000000010
:1000F0000000000000000000000000000000000000
:1001000000000000000000000000000000000000EF
:1001100000000000000000000000000000000000DF
:1001200000000000000000000000000000000000CF
:1001300000000000000000000000000000000000BF
:1001400000000000000000000000000000000000AF
:10015000000000000000000000000000000000009F
:10016000000000000000000000000000000000008F
:10017000000000000000000000000000000000007F
:10018000000000000000000000000000000000006F
:10019000000000000000000000000000000000005F
:1001A000000000000000000000000000000000004F
:1001B000000000000000000000000000000000003F
:1001C000000000000000000000000000000000002F
:1001D000000000000000000000000000000000001F
:1001E000000000000000000000000000000000000F
:1001F00000000000000000000000000000000000FF
:10020000DFF80CD000F07CF800480047910B0000AC
:100210003021002030B450E8012F93B2C489234428
:100220008489A34228BF1B1B0489A34202BFBFF3DA
:100230002F8F002007E0C3EA020340E80134002CBE
:10024000E9D14FF001000A6030BC704750E8012F3F
:10025000C2EA024240E801210029F7D1704730B4D8
:1002600050E8022F1FFAA2F3C488A34202BFBFF3D3
:100270002F8F00200DE0C48923448489A34228BF26
:100280001B1BC2EA034340E80234002CE8D14FF0C4
:1002900001000A6030BC704750E8022FC2EA2242D7
:1002A00040E802210029F7D17047034653E8022FA6
:1002B000D988B2EB324F4FF0000017BF92B241EA3B
:1002C000014142EA014104E05A68B2EB324F08BFF3
:1002D000012043E80212002AE8D17047064880470F
:1002E00006480047FEE7FEE7FEE7FEE7FEE7FEE71B
:1002F000FEE7FEE7FEE7FEE7310400000102000032
:10030000064C074D06E0E06840F0010394E8070062
:1003100098471034AC42F6D3FFF776FF181200006E
:10032000381200002DE9F8430025DFF894804FF4DF
:10033000807601242F460095304600F03DFD38B10F
:10034000D8F80403204203D0304600F02BFD2543AB
:10035000361D64007F1CB6B2082FEDD34FF4BE7477
:10036000204600F029FD48B1204600F01BFD45F075
:1003700000456A460121002000F0FEFC15F0FF0F49
:1003800016D0012600242E420ED008EB8401D1F8AD
:100390001005D1F81015C0F304200A4AC1F3014139
:1003A00052F8242002B190477600641C082CEAD34E
:1003B000002D02DA684600F093FDBDE8F8830000E6
:1003C000006000406800002070B54FF48076304631
:1003D00000F06FFC114CB50560B1304600F070FCC8
:1003E0000120C5F80803607920B9012060712168F7
:1003F000002088474FF48276304600F05AFC0028EF
:100400000AD0304600F05CFC0220C5F808032168E1
:10041000BDE870400120084770BD000000000020CA
:1004200002490248091F096800680847380000208F
:10043000F0B5B74AB7494FF080541368D4F830018B
:100440000978D4F83421451CC1F3031106D0844641
:1004500001270025BCF1060F03D00AE003F0FF0CD2
:10046000F6E7B4F82463DFF8B0C2C6F30426CCF88C
:100470000060DEB2062E06D1032904D1DFF8A0C247
:10048000A64ECCF87460461C04D08446BCF1060F1E
:1004900003D00AE003F0FF0CF8E7D4F84462DFF879
:1004A00084C2C6F34236CCF80060DEB2062E08D114
:1004B000032906D19C4ED6F800C02CF0807CC6F8EB
:1004C00000C0461C04D08446BCF1060F03D00BE0EC
:1004D00003F0FF0CF8E74FF08046C6F80C51C6F861
:1004E0001051904E361F3560DEB2062E08D103291A
:1004F00006D1DFF830C203260CF1640CCCF80060A2
:10050000DEB2062E11D103290FD1DFF820C2052655
:10051000CCF80060854E78363760844E08363560FA
:100520000CF1040C3F26CCF80060461C06D0844633
:100530004FEA0206BCF1060F04D081E003F0FF0C85
:100540000E46F7E7032E7BD0042E79D0784E36681E
:10055000DFF8E0C1CCF80060754E361D36680CF14E
:10056000040CCCF80060724E083636680CF1040CAE
:10057000CCF800606E4E0C3636680CF1040CCCF8EA
:1005800000606B4E103636680CF1040CCCF800603D
:10059000674E143636680CF1040CCCF80060644EDB
:1005A00018363668DFF88CC10CF1200CCCF80060EE
:1005B0005F4E1C3636680CF1040CCCF800605C4EC3
:1005C000203636680CF1040CCCF80060584E243606
:1005D00036680CF1040CCCF80060554E28363668AD
:1005E0000CF1040CCCF80060514E2C3636680CF13E
:1005F000040CCCF800604E4E30363668DFF834C15B
:100600000CF1400CCCF80060494E343636680CF1E1
:10061000040CCCF80060464E383636680CF1040CF9
:10062000CCF80060424E3C3636680CF1040CCCF835
:1006300000603F4E403636680CF1040CCCF8006088
:10064000461C05D04FEA000CBCF1060F03D008E0B1
:1006500003F0FF0CF8E7D4F85842374E04F04F048B
:100660003460441C03D00346062B02D008E0DBB202
:10067000FAE732490B68DB0702D06FF001030B6029
:1006800006280AD1032A08D0042A06D0052A04D055
:100690002B48016841F48061016023487438016887
:1006A00041F470010160BFF34F8FBFF36F8F4FF0C4
:1006B0001021D1F80002002803DBD1F80402002841
:1006C00022DA204A176020480368002BFCD015234B
:1006D000C1F800320468002CFCD0C1F80432016873
:1006E0000029FCD0156001680029FCD0BFF34F8FB2
:1006F0000D48F0380168154A01F4E06111430160CA
:10070000BFF34F8F00BFFDE7124911480860F0BDED
:10071000E00F00F0E80F00F0403501400DF0ADBAF9
:1007200000C007403C050040FCED00E010560040D2
:100730000404001020C50040E40E00400004004006
:100740003C17004004E5014000E401400400FA05C4
:100750000090D0034000002002E008C8121F08C12A
:10076000002AFAD170477047002001E001C1121F32
:10077000002AFBD17047000072B609480068C00724
:1007800000D000BEBFF34F8F0548E4380168054A2A
:1007900001F4E06111430160BFF34F8F00BFFDE73B
:1007A000F0ED00E00400FA050EB500210091CDE95E
:1007B00001106A4644F20100FFF7DEFF0EBD0000A3
:1007C000014800F0DAB80000180000203AB10068D3
:1007D0000129426100D000210161002070470720FB
:1007E0007047000038B5114808235822416800912D
:1007F0000F49006800F016FA002815D10D4A694625
:100800000D4800F0BFF804000ED101210A4800F0A5
:1008100006F90123094A1946074800F086F80649F7
:10082000012008390870204638BD0000F011000092
:10083000C4000020A10F000018000020FFFF7F006F
:1008400070B50446007F0D4608B1002070BDA2615E
:1008500000F078F9401941F10001C4E90201206972
:1008600000B125612146BDE87040002000F0A0BC29
:1008700000F002B800F008B872B602480168491CDE
:10088000016070470800002003490868401E0860A6
:1008900000D162B6704700000800002002490844F9
:1008A00090F92400704700006800002070B5084CE3
:1008B000050009D010342168002907D0086820609D
:1008C000496828468847F6E70834F4E770BD000019
:1008D0001C010020054A012120B1012805D1917099
:1008E000FFF7E4BF51700020FAE770471C010020B9
:1008F00010B5D0E90234D1E90220D11AA04101D3C8
:10090000012010BD002010BD4FF480328A400168E4
:10091000C1F848230068C0F8082370474FF4A0725C
:1009200002EB810189B200F002B92DE9F0410546E0
:100930000E464FF4A07000EB860081B228684FF499
:100940008034B440984622F07F47C0F808432868B6
:10095000C0F84843286800F037FA286800EB8600A2
:10096000C0F840752868C0F84443B8F1000F02D0C1
:100970002868C0F80443BDE8F0810068D0F8040599
:100980007047000010B543791C4C44F8232042798D
:10099000231D03EBC20212790AB1082010BD0268C0
:1009A0000C88C2F8084590F904208978002A4FEA9B
:1009B000411104DB02F1E02282F8001405E002F0AC
:1009C0000F0202F1E02282F8141D90F904100122B6
:1009D000002909DB01F01F0402FA04F44909890027
:1009E00001F1E021C1F80041417903EBC1010A7135
:1009F000417943F83100002010BD00003400002090
:100A000090F90400002809DB00F01F020121914049
:100A10004009800000F1E020C0F8001270470A464B
:100A2000022100F07BB84FF4827100F080B80068BA
:100A300001210160704700680121416070472DE984
:100A4000F05F07460C464FF4A07000EB84001FFADD
:100A500080FA38684FF48036A6409B4622F07F45E6
:100A6000C0F848633868C0F808633868D0F804856F
:100A700000EB8402D2F84095C2F8408551463868B0
:100A800000F0A2F9A9EB080020F07F40012806D170
:100A9000102000F01DFA5146386800F095F93868CA
:100AA000D0F80485C0F84463A5EB080121F07F412C
:100AB0003868012900EB840010D0C0F84055386830
:100AC000D0F804156FF07F4C6A1A521E22F07F4254
:100AD000ACEB0B03934217D362B118E06D1CC0F866
:100AE0004055102000F0F4F93868D0F8040540456E
:100AF0000AD10CE000EB84006D1CC0F8405538684A
:100B0000D0F80405884202D00D20BDE8F09F0122F4
:100B10003146384600F002F80020F6E70368C3F8D3
:100B20004413002A02D00068C0F80413704710B5BF
:100B3000006842581AB100F047F9012010BD0020AA
:100B400010BD000010B50B48FFF717FF094A083A1F
:100B5000D2E90434C018D2E9063244F10001C31AC4
:100B600071EB020204D24FF08072801841F1000153
:100B700010BD0000180000200268134602E08A42FF
:100B800004D01268002AFAD10B600160704700009F
:100B9000112000F025F80021112000F029F800F0C4
:100BA00097F808B1FFF700FE002000F0AFF8FFF75C
:100BB00019FE094A01210948FFF708FE08B1FFF7AD
:100BC000F3FD0648002241F69A110068FFF738FE4F
:100BD00008B1FFF7E9FDFEE7990F0000E8110000FA
:100BE0004FF0A04202EB80000321C0F800177047CD
:100BF000012282404FF0A043012902D0C3F80C2506
:100C00007047C3F8082570474FF0A042D2F804356A
:100C10000121814021EA0300C2F808051940C2F809
:100C20000C15704710B531B1B2FBF3F403FB14247B
:100C30001CB1092010BD0E2010BD016000214160D3
:100C400081608281C381084610BD70B50C4605469F
:100C5000FFF7E0FA002802D021882868084470BD18
:100C600010B50A8849888A4203D1FFF715FB012095
:100C700010BD002010BD70B50C460546FFF7EFFA19
:100C8000002802D061882868084470BD10B50A8821
:100C900049888A4203D1FFF7D9FA012010BD00200C
:100CA00010BDC20800F007030120895C984008408D
:100CB000704700F180400068002800D00120704794
:100CC00008B500F18040002101600068009008BD77
:100CD00070B50C4C0125207808B185260BE000206A
:100CE000A06060602061E060074800F0BBF8064645
:100CF00000F0A2F8257000F097F800B1A57030461A
:100D000070BD00001C010020D508000070B5104D1A
:100D10000446A87838B114B16168012088470020E2
:100D2000FFF7A6FD0CE00020FFF7A2FD24B1084864
:100D300021461030FFF720FFE86808B900F0A2F85C
:100D4000E868401CE860BDE870400020FFF792BDF5
:100D50001C0100204FF0A04202EB8000D0F80027D9
:100D600022F44032C0F80027D0F8002742EA0141BF
:100D7000C0F800177047000038B5094B44181B68CD
:100D800000936B4608E000BF53F82010D1F82055BF
:100D900020C2C1F82055401C8442F5D838BD00005F
:100DA000EC110000034908B5084400210160006807
:100DB000009008BD0060004002494058012800D062
:100DC000002070470060004008B5002242504058A3
:100DD000009008BD70B50D460646446804E0B26850
:100DE0002946904718B1246820680028F7D1206868
:100DF0002860256070BD40680068704741680868D9
:100E0000002801D002680A6070470246002052683C
:100E100006E08B4203D108681060012070471A4633
:100E20001368002BF5D1704702480068002800D0F5
:100E3000012070470004014008480068012110F0BB
:100E4000010F06D14FF0E020C02280F8002484304A
:100E5000C1670349012008607047000000E100E01D
:100E6000180500400649024600200B790BB1852089
:100E700070470A6001220A7100224A71704700001F
:100E80000000002070B54FF48270FFF719FF0220B8
:100E90004107C1F804030B4B196841F080701860DA
:100EA0000948026842F00104046044684FF40A559E
:100EB0004668361BAE42FBD302601960034901202D
:100EC000086070BDFCED00E0001000E0080000408C
:100ED000002802D001498001084770471112000024
:100EE0002DE9F05FDFF89C8006464FF0A0494FF0F7
:100EF000010A98F9440000274546401C37D095F870
:100F00004400314620F0C0042046FFF7CAFE08B373
:100F1000384600F039F8834609EB8400D0F8000722
:100F2000C0F30147022F16D002212046FFF712FF1F
:100F30000AFA04F1C9F820152046FFF7AFFC55F86E
:100F400020203AB15846BBF1030F0DD0022F04D038
:100F5000032F06D00BE00321E7E7BBF1010F03D01D
:100F600005E0BBF1020F02D1014620469047324610
:100F700001210020FFF700FF30680028B9D1BDE84B
:100F8000F09F0000680000200249084490F84400E7
:100F900080097047680000201120FFF735BE00006F
:100FA00070B50546FFF73FFD134C40B1D4E904028C
:100FB0004FF08071411842F10000C4E90410002193
:100FC0002846FFF7ABFC30B1606820B1606800F0E4
:100FD00087F80020606001212846FFF79FFC18B1C8
:100FE000FFF7B0FDC4E90601284600F0A5F8284641
:100FF000BDE8704000F034B81000002070B5054620
:1010000000200C460870FFF79DFDD5E90223101A59
:1010100063EB010300263146361A994112DAB0F526
:10102000D40F03D3FFF7CCFB0B4942184FF4160340
:1010300000210A48FFF703FD10B10D2806D009E092
:10104000012070BD00210548FFF75EFC284600F036
:1010500047F82070002070BDFFFF690018000020D5
:10106000F8B51A4C074600261948FFF7C4FED0B160
:10107000616871B1D0E902106268D2E90232C91A1E
:10108000904120D26068007F18B161681048FFF776
:10109000A1FE00F01FF805466946FFF7AFFF98B1C3
:1010A000606840B10AE0606800280CD13846BDE8AD
:1010B000F840FFF7C0BC3846FFF7B9FC65609DF803
:1010C00000000028D0D1F8BD6660CDE710000020F8
:1010D000F81100000148FFF791BE0000F811000070
:1010E00070B50446124800250078F8B1F4B1207FAD
:1010F000E0B1FFF727FDD4E90223801A994110D30C
:101100002069002600B92677D4E9051088472069B0
:1011100060B1217F51B1D4E9022110187141C4E9B5
:10112000020121460348FFF755FE0125284670BD00
:1011300010000020F8110000F8B51B4C694620682B
:10114000FFF799FD00260127184D29E0017821B10C
:1011500001290CD002291BD114E041680A7FBAB9D9
:101160000F77416810480830FFF734FE10E04168FF
:101170006868814201D16E600AE00B480830FFF7D1
:1011800044FE05E0FFF7A6FF08B10677FAE72F70E7
:1011900069462068FFF764FD69462068FFF76BFD2C
:1011A0000028D3D1F8BD0000F0110000100000208D
:1011B000F8B50B4C0D46064669462068FFF745FD1D
:1011C00058B10670456069462068FFF75FFD10B1B1
:1011D0000448FFF715FC0020F8BD0420F8BD00000E
:1011E000F01100001800002048000020000000500E
:1011F000B4000020000006000000000030000020C5
:10120000F1080000000000000000000000000000E5
:101210000338FDD87047000038120000000000209D
:1012200044000000580700007C1200004400002029
:10123000EC20000068070000000000000000000033
:10124000000000000000000000000000000000009E
:101250000010014011000400000000000000000028
:10126000000000000000000000000000000000007E
:0C12700000000000000000000090D0030F
:0400000500000201F4
:00000001FF
